{
  "_format": "hh-sol-artifact-1",
  "contractName": "FundContract",
  "sourceName": "contracts/FundContract.sol",
  "abi": [
    {
      "inputs": [
        {
          "internalType": "address",
          "name": "target",
          "type": "address"
        }
      ],
      "name": "AddressEmptyCode",
      "type": "error"
    },
    {
      "inputs": [
        {
          "internalType": "address",
          "name": "implementation",
          "type": "address"
        }
      ],
      "name": "ERC1967InvalidImplementation",
      "type": "error"
    },
    {
      "inputs": [],
      "name": "ERC1967NonPayable",
      "type": "error"
    },
    {
      "inputs": [],
      "name": "FailedCall",
      "type": "error"
    },
    {
      "inputs": [],
      "name": "InvalidInitialization",
      "type": "error"
    },
    {
      "inputs": [],
      "name": "NotInitializing",
      "type": "error"
    },
    {
      "inputs": [
        {
          "internalType": "address",
          "name": "owner",
          "type": "address"
        }
      ],
      "name": "OwnableInvalidOwner",
      "type": "error"
    },
    {
      "inputs": [
        {
          "internalType": "address",
          "name": "account",
          "type": "address"
        }
      ],
      "name": "OwnableUnauthorizedAccount",
      "type": "error"
    },
    {
      "inputs": [],
      "name": "ReentrancyGuardReentrantCall",
      "type": "error"
    },
    {
      "inputs": [],
      "name": "UUPSUnauthorizedCallContext",
      "type": "error"
    },
    {
      "inputs": [
        {
          "internalType": "bytes32",
          "name": "slot",
          "type": "bytes32"
        }
      ],
      "name": "UUPSUnsupportedProxiableUUID",
      "type": "error"
    },
    {
      "anonymous": false,
      "inputs": [
        {
          "indexed": true,
          "internalType": "address",
          "name": "user",
          "type": "address"
        },
        {
          "indexed": false,
          "internalType": "uint256",
          "name": "amount",
          "type": "uint256"
        },
        {
          "indexed": false,
          "internalType": "string",
          "name": "memo",
          "type": "string"
        }
      ],
      "name": "Deposit",
      "type": "event"
    },
    {
      "anonymous": false,
      "inputs": [
        {
          "indexed": false,
          "internalType": "uint64",
          "name": "version",
          "type": "uint64"
        }
      ],
      "name": "Initialized",
      "type": "event"
    },
    {
      "anonymous": false,
      "inputs": [
        {
          "indexed": true,
          "internalType": "address",
          "name": "previousOwner",
          "type": "address"
        },
        {
          "indexed": true,
          "internalType": "address",
          "name": "newOwner",
          "type": "address"
        }
      ],
      "name": "OwnershipTransferred",
      "type": "event"
    },
    {
      "anonymous": false,
      "inputs": [
        {
          "indexed": false,
          "internalType": "uint256",
          "name": "feeAmount",
          "type": "uint256"
        },
        {
          "indexed": false,
          "internalType": "uint256",
          "name": "sharesToMint",
          "type": "uint256"
        },
        {
          "indexed": false,
          "internalType": "address",
          "name": "treasury",
          "type": "address"
        }
      ],
      "name": "ProtocolFeesCollected",
      "type": "event"
    },
    {
      "anonymous": false,
      "inputs": [
        {
          "indexed": false,
          "internalType": "uint256",
          "name": "start",
          "type": "uint256"
        },
        {
          "indexed": false,
          "internalType": "uint256",
          "name": "end",
          "type": "uint256"
        }
      ],
      "name": "RedemptionProcessed",
      "type": "event"
    },
    {
      "anonymous": false,
      "inputs": [
        {
          "indexed": true,
          "internalType": "address",
          "name": "implementation",
          "type": "address"
        }
      ],
      "name": "Upgraded",
      "type": "event"
    },
    {
      "inputs": [],
      "name": "UPGRADE_INTERFACE_VERSION",
      "outputs": [
        {
          "internalType": "string",
          "name": "",
          "type": "string"
        }
      ],
      "stateMutability": "view",
      "type": "function"
    },
    {
      "inputs": [
        {
          "internalType": "address",
          "name": "_strategy",
          "type": "address"
        },
        {
          "internalType": "uint256",
          "name": "_weight",
          "type": "uint256"
        }
      ],
      "name": "addStrategy",
      "outputs": [],
      "stateMutability": "nonpayable",
      "type": "function"
    },
    {
      "inputs": [],
      "name": "collectProtocolFees",
      "outputs": [
        {
          "internalType": "uint256",
          "name": "",
          "type": "uint256"
        }
      ],
      "stateMutability": "nonpayable",
      "type": "function"
    },
    {
      "inputs": [],
      "name": "deployCapital",
      "outputs": [],
      "stateMutability": "nonpayable",
      "type": "function"
    },
    {
      "inputs": [
        {
          "internalType": "uint256",
          "name": "amount",
          "type": "uint256"
        },
        {
          "internalType": "string",
          "name": "userMemo",
          "type": "string"
        }
      ],
      "name": "deposit",
      "outputs": [],
      "stateMutability": "nonpayable",
      "type": "function"
    },
    {
      "inputs": [],
      "name": "fundPrincipleAfterFees",
      "outputs": [
        {
          "internalType": "uint256",
          "name": "",
          "type": "uint256"
        }
      ],
      "stateMutability": "view",
      "type": "function"
    },
    {
      "inputs": [],
      "name": "getPendingFees",
      "outputs": [
        {
          "internalType": "uint256",
          "name": "",
          "type": "uint256"
        }
      ],
      "stateMutability": "view",
      "type": "function"
    },
    {
      "inputs": [],
      "name": "getRedemptionQueue",
      "outputs": [
        {
          "components": [
            {
              "internalType": "address",
              "name": "user",
              "type": "address"
            },
            {
              "internalType": "uint256",
              "name": "amount",
              "type": "uint256"
            }
          ],
          "internalType": "struct FundContract.RedemptionRequest[]",
          "name": "",
          "type": "tuple[]"
        }
      ],
      "stateMutability": "view",
      "type": "function"
    },
    {
      "inputs": [
        {
          "internalType": "address",
          "name": "_usdc",
          "type": "address"
        },
        {
          "internalType": "address",
          "name": "_wfrToken",
          "type": "address"
        }
      ],
      "name": "initialize",
      "outputs": [],
      "stateMutability": "nonpayable",
      "type": "function"
    },
    {
      "inputs": [],
      "name": "owner",
      "outputs": [
        {
          "internalType": "address",
          "name": "",
          "type": "address"
        }
      ],
      "stateMutability": "view",
      "type": "function"
    },
    {
      "inputs": [
        {
          "internalType": "uint256",
          "name": "start",
          "type": "uint256"
        },
        {
          "internalType": "uint256",
          "name": "batchSize",
          "type": "uint256"
        }
      ],
      "name": "processRedemptionsBatch",
      "outputs": [],
      "stateMutability": "nonpayable",
      "type": "function"
    },
    {
      "inputs": [],
      "name": "protocolFee",
      "outputs": [
        {
          "internalType": "uint256",
          "name": "",
          "type": "uint256"
        }
      ],
      "stateMutability": "view",
      "type": "function"
    },
    {
      "inputs": [],
      "name": "proxiableUUID",
      "outputs": [
        {
          "internalType": "bytes32",
          "name": "",
          "type": "bytes32"
        }
      ],
      "stateMutability": "view",
      "type": "function"
    },
    {
      "inputs": [
        {
          "internalType": "uint256",
          "name": "",
          "type": "uint256"
        }
      ],
      "name": "redemptionQueue",
      "outputs": [
        {
          "internalType": "address",
          "name": "user",
          "type": "address"
        },
        {
          "internalType": "uint256",
          "name": "amount",
          "type": "uint256"
        }
      ],
      "stateMutability": "view",
      "type": "function"
    },
    {
      "inputs": [],
      "name": "renounceOwnership",
      "outputs": [],
      "stateMutability": "nonpayable",
      "type": "function"
    },
    {
      "inputs": [
        {
          "internalType": "uint256",
          "name": "amount",
          "type": "uint256"
        }
      ],
      "name": "requestRedemption",
      "outputs": [],
      "stateMutability": "nonpayable",
      "type": "function"
    },
    {
      "inputs": [
        {
          "internalType": "uint256[]",
          "name": "_weights",
          "type": "uint256[]"
        }
      ],
      "name": "setStrategyWeights",
      "outputs": [],
      "stateMutability": "nonpayable",
      "type": "function"
    },
    {
      "inputs": [
        {
          "internalType": "address",
          "name": "_manager",
          "type": "address"
        }
      ],
      "name": "setTreasuryManager",
      "outputs": [],
      "stateMutability": "nonpayable",
      "type": "function"
    },
    {
      "inputs": [
        {
          "internalType": "address",
          "name": "_addr",
          "type": "address"
        },
        {
          "internalType": "bool",
          "name": "_allowed",
          "type": "bool"
        }
      ],
      "name": "setWhitelist",
      "outputs": [],
      "stateMutability": "nonpayable",
      "type": "function"
    },
    {
      "inputs": [
        {
          "internalType": "uint256",
          "name": "",
          "type": "uint256"
        }
      ],
      "name": "strategies",
      "outputs": [
        {
          "internalType": "contract IStrategy",
          "name": "",
          "type": "address"
        }
      ],
      "stateMutability": "view",
      "type": "function"
    },
    {
      "inputs": [
        {
          "internalType": "uint256",
          "name": "",
          "type": "uint256"
        }
      ],
      "name": "strategyWeights",
      "outputs": [
        {
          "internalType": "uint256",
          "name": "",
          "type": "uint256"
        }
      ],
      "stateMutability": "view",
      "type": "function"
    },
    {
      "inputs": [
        {
          "internalType": "address",
          "name": "newOwner",
          "type": "address"
        }
      ],
      "name": "transferOwnership",
      "outputs": [],
      "stateMutability": "nonpayable",
      "type": "function"
    },
    {
      "inputs": [],
      "name": "treasury",
      "outputs": [
        {
          "internalType": "address",
          "name": "",
          "type": "address"
        }
      ],
      "stateMutability": "view",
      "type": "function"
    },
    {
      "inputs": [],
      "name": "treasuryManager",
      "outputs": [
        {
          "internalType": "address",
          "name": "",
          "type": "address"
        }
      ],
      "stateMutability": "view",
      "type": "function"
    },
    {
      "inputs": [
        {
          "internalType": "address",
          "name": "_newTreasury",
          "type": "address"
        }
      ],
      "name": "updateTreasury",
      "outputs": [],
      "stateMutability": "nonpayable",
      "type": "function"
    },
    {
      "inputs": [
        {
          "internalType": "address",
          "name": "newImplementation",
          "type": "address"
        },
        {
          "internalType": "bytes",
          "name": "data",
          "type": "bytes"
        }
      ],
      "name": "upgradeToAndCall",
      "outputs": [],
      "stateMutability": "payable",
      "type": "function"
    },
    {
      "inputs": [],
      "name": "usdc",
      "outputs": [
        {
          "internalType": "contract IERC20",
          "name": "",
          "type": "address"
        }
      ],
      "stateMutability": "view",
      "type": "function"
    },
    {
      "inputs": [],
      "name": "wfrToken",
      "outputs": [
        {
          "internalType": "contract WFRToken",
          "name": "",
          "type": "address"
        }
      ],
      "stateMutability": "view",
      "type": "function"
    },
    {
      "inputs": [
        {
          "internalType": "address",
          "name": "",
          "type": "address"
        }
      ],
      "name": "whitelisted",
      "outputs": [
        {
          "internalType": "bool",
          "name": "",
          "type": "bool"
        }
      ],
      "stateMutability": "view",
      "type": "function"
    }
  ],
  "bytecode": "0x60a06040523073ffffffffffffffffffffffffffffffffffffffff1660809073ffffffffffffffffffffffffffffffffffffffff16815250348015604257600080fd5b5060016000819055506080516140db61007460003960008181612467015281816124bc015261267701526140db6000f3fe6080604052600436106101c25760003560e01c80638e6c8ab3116100f7578063c9411e2211610095578063eeb3c91011610064578063eeb3c91014610600578063f1215d2514610629578063f2fde38b14610652578063fe47a9f21461067b576101c2565b8063c9411e2214610532578063cea6a0ee1461055b578063d574ea3d14610586578063d936547e146105c3576101c2565b8063ad3cb1cc116100d1578063ad3cb1cc14610488578063b0e21e8a146104b3578063c51c2d0e146104de578063c8bd633614610509576101c2565b80638e6c8ab3146103f75780639700b14714610434578063a1af5b9a1461045d576101c2565b806352d1902d11610164578063715018a61161013e578063715018a61461034e5780637ad51f7e146103655780637f51bb1f146103a35780638da5cb5b146103cc576101c2565b806352d1902d146102cf57806353d6fd59146102fa57806361d027b314610323576101c2565b80634d85f00f116101a05780634d85f00f146102465780634f1ef2861461025d5780634f6b5c4714610279578063505cbc0b146102a4576101c2565b80633cea70d9146101c75780633e413bee146101f2578063485cc9551461021d575b600080fd5b3480156101d357600080fd5b506101dc6106a4565b6040516101e99190612fe0565b60405180910390f35b3480156101fe57600080fd5b506102076106ca565b604051610214919061305a565b60405180910390f35b34801561022957600080fd5b50610244600480360381019061023f91906130b5565b6106f0565b005b34801561025257600080fd5b5061025b6109ab565b005b6102776004803603810190610272919061323b565b610dad565b005b34801561028557600080fd5b5061028e610dcc565b60405161029b91906132b0565b60405180910390f35b3480156102b057600080fd5b506102b9610dd2565b6040516102c691906132ec565b60405180910390f35b3480156102db57600080fd5b506102e4610df8565b6040516102f19190613320565b60405180910390f35b34801561030657600080fd5b50610321600480360381019061031c9190613373565b610e2b565b005b34801561032f57600080fd5b50610338610efd565b6040516103459190612fe0565b60405180910390f35b34801561035a57600080fd5b50610363610f23565b005b34801561037157600080fd5b5061038c600480360381019061038791906133df565b610f37565b60405161039a92919061340c565b60405180910390f35b3480156103af57600080fd5b506103ca60048036038101906103c59190613435565b610f8b565b005b3480156103d857600080fd5b506103e161110b565b6040516103ee9190612fe0565b60405180910390f35b34801561040357600080fd5b5061041e600480360381019061041991906133df565b611143565b60405161042b91906132b0565b60405180910390f35b34801561044057600080fd5b5061045b60048036038101906104569190613462565b611167565b005b34801561046957600080fd5b506104726116b1565b60405161047f91906132b0565b60405180910390f35b34801561049457600080fd5b5061049d6119dc565b6040516104aa9190613521565b60405180910390f35b3480156104bf57600080fd5b506104c8611a15565b6040516104d591906132b0565b60405180910390f35b3480156104ea57600080fd5b506104f3611a1b565b60405161050091906132b0565b60405180910390f35b34801561051557600080fd5b50610530600480360381019061052b91906135a3565b611a6f565b005b34801561053e57600080fd5b50610559600480360381019061055491906135f0565b611c6a565b005b34801561056757600080fd5b50610570611dc3565b60405161057d919061372c565b60405180910390f35b34801561059257600080fd5b506105ad60048036038101906105a891906133df565b611e82565b6040516105ba919061376f565b60405180910390f35b3480156105cf57600080fd5b506105ea60048036038101906105e59190613435565b611ec1565b6040516105f79190613799565b60405180910390f35b34801561060c57600080fd5b50610627600480360381019061062291906133df565b611ee1565b005b34801561063557600080fd5b50610650600480360381019061064b919061380a565b61211e565b005b34801561065e57600080fd5b5061067960048036038101906106749190613435565b61228e565b005b34801561068757600080fd5b506106a2600480360381019061069d9190613435565b612314565b005b600860009054906101000a900473ffffffffffffffffffffffffffffffffffffffff1681565b600160009054906101000a900473ffffffffffffffffffffffffffffffffffffffff1681565b60006106fa6123cf565b905060008160000160089054906101000a900460ff1615905060008260000160009054906101000a900467ffffffffffffffff1690506000808267ffffffffffffffff161480156107485750825b9050600060018367ffffffffffffffff1614801561077d575060003073ffffffffffffffffffffffffffffffffffffffff163b145b90508115801561078b575080155b156107c2576040517ff92ee8a900000000000000000000000000000000000000000000000000000000815260040160405180910390fd5b60018560000160006101000a81548167ffffffffffffffff021916908367ffffffffffffffff16021790555083156108125760018560000160086101000a81548160ff0219169083151502179055505b61081b336123f7565b61082361240b565b86600160006101000a81548173ffffffffffffffffffffffffffffffffffffffff021916908373ffffffffffffffffffffffffffffffffffffffff16021790555085600260006101000a81548173ffffffffffffffffffffffffffffffffffffffff021916908373ffffffffffffffffffffffffffffffffffffffff160217905550600a6006819055506001600a60003373ffffffffffffffffffffffffffffffffffffffff1673ffffffffffffffffffffffffffffffffffffffff16815260200190815260200160002060006101000a81548160ff02191690831515021790555033600760006101000a81548173ffffffffffffffffffffffffffffffffffffffff021916908373ffffffffffffffffffffffffffffffffffffffff16021790555083156109a25760008560000160086101000a81548160ff0219169083151502179055507fc7f505b2f371ae2175ee4913f4499e1f2633a7b5936321eed1cdaeb6115181d2600160405161099991906138b9565b60405180910390a15b50505050505050565b3373ffffffffffffffffffffffffffffffffffffffff166109ca61110b565b73ffffffffffffffffffffffffffffffffffffffff161480610a355750600a60003373ffffffffffffffffffffffffffffffffffffffff1673ffffffffffffffffffffffffffffffffffffffff16815260200190815260200160002060009054906101000a900460ff165b610a74576040517f08c379a0000000000000000000000000000000000000000000000000000000008152600401610a6b90613920565b60405180910390fd5b610a7c612415565b60048054905060038054905014610ac8576040517f08c379a0000000000000000000000000000000000000000000000000000000008152600401610abf9061398c565b60405180910390fd5b6000600160009054906101000a900473ffffffffffffffffffffffffffffffffffffffff1673ffffffffffffffffffffffffffffffffffffffff166370a08231306040518263ffffffff1660e01b8152600401610b259190612fe0565b602060405180830381865afa158015610b42573d6000803e3d6000fd5b505050506040513d601f19601f82011682018060405250810190610b6691906139c1565b9050600080600090505b600480549050811015610bb65760048181548110610b9157610b906139ee565b5b906000526020600020015482610ba79190613a4c565b91508080600101915050610b70565b5060005b600380549050811015610da05760008260048381548110610bde57610bdd6139ee565b5b906000526020600020015485610bf49190613a80565b610bfe9190613af1565b90506000811115610d9257600160009054906101000a900473ffffffffffffffffffffffffffffffffffffffff1673ffffffffffffffffffffffffffffffffffffffff1663095ea7b360038481548110610c5b57610c5a6139ee565b5b9060005260206000200160009054906101000a900473ffffffffffffffffffffffffffffffffffffffff16836040518363ffffffff1660e01b8152600401610ca492919061340c565b6020604051808303816000875af1158015610cc3573d6000803e3d6000fd5b505050506040513d601f19601f82011682018060405250810190610ce79190613b37565b5060038281548110610cfc57610cfb6139ee565b5b9060005260206000200160009054906101000a900473ffffffffffffffffffffffffffffffffffffffff1673ffffffffffffffffffffffffffffffffffffffff1663b6b55f25826040518263ffffffff1660e01b8152600401610d5f91906132b0565b600060405180830381600087803b158015610d7957600080fd5b505af1158015610d8d573d6000803e3d6000fd5b505050505b508080600101915050610bba565b505050610dab61245b565b565b610db5612465565b610dbe8261254b565b610dc88282612556565b5050565b60055481565b600260009054906101000a900473ffffffffffffffffffffffffffffffffffffffff1681565b6000610e02612675565b7f360894a13ba1a3210667c828492db98dca3e2076cc3735a920a3ca505d382bbc60001b905090565b610e336126fc565b600073ffffffffffffffffffffffffffffffffffffffff168273ffffffffffffffffffffffffffffffffffffffff1603610ea2576040517f08c379a0000000000000000000000000000000000000000000000000000000008152600401610e9990613bb0565b60405180910390fd5b80600a60008473ffffffffffffffffffffffffffffffffffffffff1673ffffffffffffffffffffffffffffffffffffffff16815260200190815260200160002060006101000a81548160ff0219169083151502179055505050565b600760009054906101000a900473ffffffffffffffffffffffffffffffffffffffff1681565b610f2b6126fc565b610f356000612783565b565b60098181548110610f4757600080fd5b90600052602060002090600202016000915090508060000160009054906101000a900473ffffffffffffffffffffffffffffffffffffffff16908060010154905082565b600860009054906101000a900473ffffffffffffffffffffffffffffffffffffffff1673ffffffffffffffffffffffffffffffffffffffff163373ffffffffffffffffffffffffffffffffffffffff1614806110195750610fea61110b565b73ffffffffffffffffffffffffffffffffffffffff163373ffffffffffffffffffffffffffffffffffffffff16145b611058576040517f08c379a000000000000000000000000000000000000000000000000000000000815260040161104f90613920565b60405180910390fd5b600073ffffffffffffffffffffffffffffffffffffffff168173ffffffffffffffffffffffffffffffffffffffff16036110c7576040517f08c379a00000000000000000000000000000000000000000000000000000000081526004016110be90613bb0565b60405180910390fd5b80600760006101000a81548173ffffffffffffffffffffffffffffffffffffffff021916908373ffffffffffffffffffffffffffffffffffffffff16021790555050565b60008061111661285a565b90508060000160009054906101000a900473ffffffffffffffffffffffffffffffffffffffff1691505090565b6004818154811061115357600080fd5b906000526020600020016000915090505481565b3373ffffffffffffffffffffffffffffffffffffffff1661118661110b565b73ffffffffffffffffffffffffffffffffffffffff1614806111f15750600a60003373ffffffffffffffffffffffffffffffffffffffff1673ffffffffffffffffffffffffffffffffffffffff16815260200190815260200160002060009054906101000a900460ff165b611230576040517f08c379a000000000000000000000000000000000000000000000000000000000815260040161122790613920565b60405180910390fd5b611238612415565b600060098054905003156116a5576000611250612882565b90506005548111156112cf573073ffffffffffffffffffffffffffffffffffffffff1663a1af5b9a6040518163ffffffff1660e01b81526004016020604051808303816000875af11580156112a9573d6000803e3d6000fd5b505050506040513d601f19601f820116820180604052508101906112cd91906139c1565b505b6009805490508310611316576040517f08c379a000000000000000000000000000000000000000000000000000000000815260040161130d90613c1c565b60405180910390fd5b600082846113249190613a4c565b905060098054905081111561133c5760098054905090505b6000600260009054906101000a900473ffffffffffffffffffffffffffffffffffffffff1673ffffffffffffffffffffffffffffffffffffffff166318160ddd6040518163ffffffff1660e01b8152600401602060405180830381865afa1580156113ab573d6000803e3d6000fd5b505050506040513d601f19601f820116820180604052508101906113cf91906139c1565b905060008111611414576040517f08c379a000000000000000000000000000000000000000000000000000000000815260040161140b90613c88565b60405180910390fd5b60008590505b8281101561165957600060098281548110611438576114376139ee565b5b90600052602060002090600202016040518060400160405290816000820160009054906101000a900473ffffffffffffffffffffffffffffffffffffffff1673ffffffffffffffffffffffffffffffffffffffff1673ffffffffffffffffffffffffffffffffffffffff168152602001600182015481525050905060008160200151036114c5575061164c565b60008160200151905060008482886114dd9190613a80565b6114e79190613af1565b9050600260009054906101000a900473ffffffffffffffffffffffffffffffffffffffff1673ffffffffffffffffffffffffffffffffffffffff16639dc29fac30846040518363ffffffff1660e01b815260040161154692919061340c565b600060405180830381600087803b15801561156057600080fd5b505af1158015611574573d6000803e3d6000fd5b50505050600160009054906101000a900473ffffffffffffffffffffffffffffffffffffffff1673ffffffffffffffffffffffffffffffffffffffff1663a9059cbb8460000151836040518363ffffffff1660e01b81526004016115d992919061340c565b6020604051808303816000875af11580156115f8573d6000803e3d6000fd5b505050506040513d601f19601f8201168201806040525081019061161c9190613b37565b50600060098581548110611633576116326139ee565b5b9060005260206000209060020201600101819055505050505b808060010191505061141a565b50611662612882565b6005819055507f527e7d9d8ce9e973d15d3e7199e5c2453a068c50ce4160e5b9d2056205e913078583604051611699929190613ca8565b60405180910390a15050505b6116ad61245b565b5050565b60003373ffffffffffffffffffffffffffffffffffffffff166116d261110b565b73ffffffffffffffffffffffffffffffffffffffff16148061173d5750600a60003373ffffffffffffffffffffffffffffffffffffffff1673ffffffffffffffffffffffffffffffffffffffff16815260200190815260200160002060009054906101000a900460ff165b61177c576040517f08c379a000000000000000000000000000000000000000000000000000000000815260040161177390613920565b60405180910390fd5b611784612415565b600061178e612882565b905060055481116117d4576040517f08c379a00000000000000000000000000000000000000000000000000000000081526004016117cb90613d1d565b60405180910390fd5b6000600554826117e49190613d3d565b905060006064600654836117f89190613a80565b6118029190613af1565b90506000600260009054906101000a900473ffffffffffffffffffffffffffffffffffffffff1673ffffffffffffffffffffffffffffffffffffffff166318160ddd6040518163ffffffff1660e01b8152600401602060405180830381865afa158015611873573d6000803e3d6000fd5b505050506040513d601f19601f8201168201806040525081019061189791906139c1565b905060008482846118a89190613a80565b6118b29190613af1565b9050600260009054906101000a900473ffffffffffffffffffffffffffffffffffffffff1673ffffffffffffffffffffffffffffffffffffffff166340c10f19600760009054906101000a900473ffffffffffffffffffffffffffffffffffffffff16836040518363ffffffff1660e01b815260040161193392919061340c565b600060405180830381600087803b15801561194d57600080fd5b505af1158015611961573d6000803e3d6000fd5b50505050846005819055507f8b608af848fa93b72e30fcc7b0c8c8307da3e494b0121ad48e44fbaf09fd08e38382600760009054906101000a900473ffffffffffffffffffffffffffffffffffffffff166040516119c193929190613d71565b60405180910390a180955050505050506119d961245b565b90565b6040518060400160405280600581526020017f352e302e3000000000000000000000000000000000000000000000000000000081525081565b60065481565b600080611a26612882565b90506005548111611a3b576000915050611a6c565b600060055482611a4b9190613d3d565b9050606460065482611a5d9190613a80565b611a679190613af1565b925050505b90565b3373ffffffffffffffffffffffffffffffffffffffff16611a8e61110b565b73ffffffffffffffffffffffffffffffffffffffff161480611af95750600a60003373ffffffffffffffffffffffffffffffffffffffff1673ffffffffffffffffffffffffffffffffffffffff16815260200190815260200160002060009054906101000a900460ff165b611b38576040517f08c379a0000000000000000000000000000000000000000000000000000000008152600401611b2f90613920565b60405180910390fd5b6003805490508282905014611b82576040517f08c379a0000000000000000000000000000000000000000000000000000000008152600401611b7990613df4565b60405180910390fd5b600080600090505b83839050811015611bc957838382818110611ba857611ba76139ee565b5b9050602002013582611bba9190613a4c565b91508080600101915050611b8a565b5060008111611c0d576040517f08c379a0000000000000000000000000000000000000000000000000000000008152600401611c0490613e60565b60405180910390fd5b60005b83839050811015611c6457838382818110611c2e57611c2d6139ee565b5b9050602002013560048281548110611c4957611c486139ee565b5b90600052602060002001819055508080600101915050611c10565b50505050565b3373ffffffffffffffffffffffffffffffffffffffff16611c8961110b565b73ffffffffffffffffffffffffffffffffffffffff161480611cf45750600a60003373ffffffffffffffffffffffffffffffffffffffff1673ffffffffffffffffffffffffffffffffffffffff16815260200190815260200160002060009054906101000a900460ff165b611d33576040517f08c379a0000000000000000000000000000000000000000000000000000000008152600401611d2a90613920565b60405180910390fd5b6003829080600181540180825580915050600190039060005260206000200160009091909190916101000a81548173ffffffffffffffffffffffffffffffffffffffff021916908373ffffffffffffffffffffffffffffffffffffffff16021790555060048190806001815401808255809150506001900390600052602060002001600090919091909150555050565b60606009805480602002602001604051908101604052809291908181526020016000905b82821015611e7957838290600052602060002090600202016040518060400160405290816000820160009054906101000a900473ffffffffffffffffffffffffffffffffffffffff1673ffffffffffffffffffffffffffffffffffffffff1673ffffffffffffffffffffffffffffffffffffffff16815260200160018201548152505081526020019060010190611de7565b50505050905090565b60038181548110611e9257600080fd5b906000526020600020016000915054906101000a900473ffffffffffffffffffffffffffffffffffffffff1681565b600a6020528060005260406000206000915054906101000a900460ff1681565b611ee9612415565b80600260009054906101000a900473ffffffffffffffffffffffffffffffffffffffff1673ffffffffffffffffffffffffffffffffffffffff166370a08231336040518263ffffffff1660e01b8152600401611f459190612fe0565b602060405180830381865afa158015611f62573d6000803e3d6000fd5b505050506040513d601f19601f82011682018060405250810190611f8691906139c1565b1015611fc7576040517f08c379a0000000000000000000000000000000000000000000000000000000008152600401611fbe90613ecc565b60405180910390fd5b600260009054906101000a900473ffffffffffffffffffffffffffffffffffffffff1673ffffffffffffffffffffffffffffffffffffffff166323b872dd3330846040518463ffffffff1660e01b815260040161202693929190613eec565b6020604051808303816000875af1158015612045573d6000803e3d6000fd5b505050506040513d601f19601f820116820180604052508101906120699190613b37565b50600960405180604001604052803373ffffffffffffffffffffffffffffffffffffffff16815260200183815250908060018154018082558091505060019003906000526020600020906002020160009091909190915060008201518160000160006101000a81548173ffffffffffffffffffffffffffffffffffffffff021916908373ffffffffffffffffffffffffffffffffffffffff16021790555060208201518160010155505061211b61245b565b50565b612126612415565b60008311612169576040517f08c379a000000000000000000000000000000000000000000000000000000000815260040161216090613f6f565b60405180910390fd5b600160009054906101000a900473ffffffffffffffffffffffffffffffffffffffff1673ffffffffffffffffffffffffffffffffffffffff166323b872dd3330866040518463ffffffff1660e01b81526004016121c893929190613eec565b6020604051808303816000875af11580156121e7573d6000803e3d6000fd5b505050506040513d601f19601f8201168201806040525081019061220b9190613b37565b506122168333612a0d565b82600560008282546122289190613a4c565b925050819055503373ffffffffffffffffffffffffffffffffffffffff167f643e927b32d5bfd08eccd2fcbd97057ad413850f857a2359639114e8e8dd3d7b84848460405161227993929190613fbc565b60405180910390a261228961245b565b505050565b6122966126fc565b600073ffffffffffffffffffffffffffffffffffffffff168173ffffffffffffffffffffffffffffffffffffffff16036123085760006040517f1e4fbdf70000000000000000000000000000000000000000000000000000000081526004016122ff9190612fe0565b60405180910390fd5b61231181612783565b50565b61231c6126fc565b600073ffffffffffffffffffffffffffffffffffffffff168173ffffffffffffffffffffffffffffffffffffffff160361238b576040517f08c379a000000000000000000000000000000000000000000000000000000000815260040161238290613bb0565b60405180910390fd5b80600860006101000a81548173ffffffffffffffffffffffffffffffffffffffff021916908373ffffffffffffffffffffffffffffffffffffffff16021790555050565b60007ff0c57e16840df040f15088dc2f81fe391c3923bec73e23a9662efc9c229c6a00905090565b6123ff612b7b565b61240881612bbb565b50565b612413612b7b565b565b600260005403612451576040517f3ee5aeb500000000000000000000000000000000000000000000000000000000815260040160405180910390fd5b6002600081905550565b6001600081905550565b7f000000000000000000000000000000000000000000000000000000000000000073ffffffffffffffffffffffffffffffffffffffff163073ffffffffffffffffffffffffffffffffffffffff16148061251257507f000000000000000000000000000000000000000000000000000000000000000073ffffffffffffffffffffffffffffffffffffffff166124f9612c41565b73ffffffffffffffffffffffffffffffffffffffff1614155b15612549576040517fe07c8dba00000000000000000000000000000000000000000000000000000000815260040160405180910390fd5b565b6125536126fc565b50565b8173ffffffffffffffffffffffffffffffffffffffff166352d1902d6040518163ffffffff1660e01b8152600401602060405180830381865afa9250505080156125be57506040513d601f19601f820116820180604052508101906125bb919061401a565b60015b6125ff57816040517f4c9c8ce30000000000000000000000000000000000000000000000000000000081526004016125f69190612fe0565b60405180910390fd5b7f360894a13ba1a3210667c828492db98dca3e2076cc3735a920a3ca505d382bbc60001b811461266657806040517faa1d49a400000000000000000000000000000000000000000000000000000000815260040161265d9190613320565b60405180910390fd5b6126708383612c98565b505050565b7f000000000000000000000000000000000000000000000000000000000000000073ffffffffffffffffffffffffffffffffffffffff163073ffffffffffffffffffffffffffffffffffffffff16146126fa576040517fe07c8dba00000000000000000000000000000000000000000000000000000000815260040160405180910390fd5b565b612704612d0b565b73ffffffffffffffffffffffffffffffffffffffff1661272261110b565b73ffffffffffffffffffffffffffffffffffffffff161461278157612745612d0b565b6040517f118cdaa70000000000000000000000000000000000000000000000000000000081526004016127789190612fe0565b60405180910390fd5b565b600061278d61285a565b905060008160000160009054906101000a900473ffffffffffffffffffffffffffffffffffffffff169050828260000160006101000a81548173ffffffffffffffffffffffffffffffffffffffff021916908373ffffffffffffffffffffffffffffffffffffffff1602179055508273ffffffffffffffffffffffffffffffffffffffff168173ffffffffffffffffffffffffffffffffffffffff167f8be0079c531659141344cd1fd0a4f28419497f9722a3daafe3b4186f6b6457e060405160405180910390a3505050565b60007f9016d09d72d40fdae2fd8ceac6b6234c7706214fd39c1cd1e609a0528c199300905090565b60008060005b60038054905081101561295c57600381815481106128a9576128a86139ee565b5b9060005260206000200160009054906101000a900473ffffffffffffffffffffffffffffffffffffffff1673ffffffffffffffffffffffffffffffffffffffff1663d4c3eea06040518163ffffffff1660e01b8152600401602060405180830381865afa15801561291e573d6000803e3d6000fd5b505050506040513d601f19601f8201168201806040525081019061294291906139c1565b8261294d9190613a4c565b91508080600101915050612888565b50600160009054906101000a900473ffffffffffffffffffffffffffffffffffffffff1673ffffffffffffffffffffffffffffffffffffffff166370a08231306040518263ffffffff1660e01b81526004016129b89190612fe0565b602060405180830381865afa1580156129d5573d6000803e3d6000fd5b505050506040513d601f19601f820116820180604052508101906129f991906139c1565b81612a049190613a4c565b90508091505090565b6000612a17612882565b90506000600260009054906101000a900473ffffffffffffffffffffffffffffffffffffffff1673ffffffffffffffffffffffffffffffffffffffff166318160ddd6040518163ffffffff1660e01b8152600401602060405180830381865afa158015612a88573d6000803e3d6000fd5b505050506040513d601f19601f82011682018060405250810190612aac91906139c1565b9050600080821480612abe5750600083145b15612acb57849050612ae5565b828286612ad89190613a80565b612ae29190613af1565b90505b600260009054906101000a900473ffffffffffffffffffffffffffffffffffffffff1673ffffffffffffffffffffffffffffffffffffffff166340c10f1985836040518363ffffffff1660e01b8152600401612b4292919061340c565b600060405180830381600087803b158015612b5c57600080fd5b505af1158015612b70573d6000803e3d6000fd5b505050505050505050565b612b83612d13565b612bb9576040517fd7e6bcf800000000000000000000000000000000000000000000000000000000815260040160405180910390fd5b565b612bc3612b7b565b600073ffffffffffffffffffffffffffffffffffffffff168173ffffffffffffffffffffffffffffffffffffffff1603612c355760006040517f1e4fbdf7000000000000000000000000000000000000000000000000000000008152600401612c2c9190612fe0565b60405180910390fd5b612c3e81612783565b50565b6000612c6f7f360894a13ba1a3210667c828492db98dca3e2076cc3735a920a3ca505d382bbc60001b612d33565b60000160009054906101000a900473ffffffffffffffffffffffffffffffffffffffff16905090565b612ca182612d3d565b8173ffffffffffffffffffffffffffffffffffffffff167fbc7cd75a20ee27fd9adebab32041f755214dbc6bffa90cc0225b39da2e5c2d3b60405160405180910390a2600081511115612cfe57612cf88282612e0a565b50612d07565b612d06612e8e565b5b5050565b600033905090565b6000612d1d6123cf565b60000160089054906101000a900460ff16905090565b6000819050919050565b60008173ffffffffffffffffffffffffffffffffffffffff163b03612d9957806040517f4c9c8ce3000000000000000000000000000000000000000000000000000000008152600401612d909190612fe0565b60405180910390fd5b80612dc67f360894a13ba1a3210667c828492db98dca3e2076cc3735a920a3ca505d382bbc60001b612d33565b60000160006101000a81548173ffffffffffffffffffffffffffffffffffffffff021916908373ffffffffffffffffffffffffffffffffffffffff16021790555050565b60606000808473ffffffffffffffffffffffffffffffffffffffff1684604051612e34919061408e565b600060405180830381855af49150503d8060008114612e6f576040519150601f19603f3d011682016040523d82523d6000602084013e612e74565b606091505b5091509150612e84858383612ecb565b9250505092915050565b6000341115612ec9576040517fb398979f00000000000000000000000000000000000000000000000000000000815260040160405180910390fd5b565b606082612ee057612edb82612f5a565b612f52565b60008251148015612f08575060008473ffffffffffffffffffffffffffffffffffffffff163b145b15612f4a57836040517f9996b315000000000000000000000000000000000000000000000000000000008152600401612f419190612fe0565b60405180910390fd5b819050612f53565b5b9392505050565b600081511115612f6d5780518082602001fd5b6040517fd6bda27500000000000000000000000000000000000000000000000000000000815260040160405180910390fd5b600073ffffffffffffffffffffffffffffffffffffffff82169050919050565b6000612fca82612f9f565b9050919050565b612fda81612fbf565b82525050565b6000602082019050612ff56000830184612fd1565b92915050565b6000819050919050565b600061302061301b61301684612f9f565b612ffb565b612f9f565b9050919050565b600061303282613005565b9050919050565b600061304482613027565b9050919050565b61305481613039565b82525050565b600060208201905061306f600083018461304b565b92915050565b6000604051905090565b600080fd5b600080fd5b61309281612fbf565b811461309d57600080fd5b50565b6000813590506130af81613089565b92915050565b600080604083850312156130cc576130cb61307f565b5b60006130da858286016130a0565b92505060206130eb858286016130a0565b9150509250929050565b600080fd5b600080fd5b6000601f19601f8301169050919050565b7f4e487b7100000000000000000000000000000000000000000000000000000000600052604160045260246000fd5b613148826130ff565b810181811067ffffffffffffffff8211171561316757613166613110565b5b80604052505050565b600061317a613075565b9050613186828261313f565b919050565b600067ffffffffffffffff8211156131a6576131a5613110565b5b6131af826130ff565b9050602081019050919050565b82818337600083830152505050565b60006131de6131d98461318b565b613170565b9050828152602081018484840111156131fa576131f96130fa565b5b6132058482856131bc565b509392505050565b600082601f830112613222576132216130f5565b5b81356132328482602086016131cb565b91505092915050565b600080604083850312156132525761325161307f565b5b6000613260858286016130a0565b925050602083013567ffffffffffffffff81111561328157613280613084565b5b61328d8582860161320d565b9150509250929050565b6000819050919050565b6132aa81613297565b82525050565b60006020820190506132c560008301846132a1565b92915050565b60006132d682613027565b9050919050565b6132e6816132cb565b82525050565b600060208201905061330160008301846132dd565b92915050565b6000819050919050565b61331a81613307565b82525050565b60006020820190506133356000830184613311565b92915050565b60008115159050919050565b6133508161333b565b811461335b57600080fd5b50565b60008135905061336d81613347565b92915050565b6000806040838503121561338a5761338961307f565b5b6000613398858286016130a0565b92505060206133a98582860161335e565b9150509250929050565b6133bc81613297565b81146133c757600080fd5b50565b6000813590506133d9816133b3565b92915050565b6000602082840312156133f5576133f461307f565b5b6000613403848285016133ca565b91505092915050565b60006040820190506134216000830185612fd1565b61342e60208301846132a1565b9392505050565b60006020828403121561344b5761344a61307f565b5b6000613459848285016130a0565b91505092915050565b600080604083850312156134795761347861307f565b5b6000613487858286016133ca565b9250506020613498858286016133ca565b9150509250929050565b600081519050919050565b600082825260208201905092915050565b60005b838110156134dc5780820151818401526020810190506134c1565b60008484015250505050565b60006134f3826134a2565b6134fd81856134ad565b935061350d8185602086016134be565b613516816130ff565b840191505092915050565b6000602082019050818103600083015261353b81846134e8565b905092915050565b600080fd5b600080fd5b60008083601f840112613563576135626130f5565b5b8235905067ffffffffffffffff8111156135805761357f613543565b5b60208301915083602082028301111561359c5761359b613548565b5b9250929050565b600080602083850312156135ba576135b961307f565b5b600083013567ffffffffffffffff8111156135d8576135d7613084565b5b6135e48582860161354d565b92509250509250929050565b600080604083850312156136075761360661307f565b5b6000613615858286016130a0565b9250506020613626858286016133ca565b9150509250929050565b600081519050919050565b600082825260208201905092915050565b6000819050602082019050919050565b61366581612fbf565b82525050565b61367481613297565b82525050565b604082016000820151613690600085018261365c565b5060208201516136a3602085018261366b565b50505050565b60006136b5838361367a565b60408301905092915050565b6000602082019050919050565b60006136d982613630565b6136e3818561363b565b93506136ee8361364c565b8060005b8381101561371f57815161370688826136a9565b9750613711836136c1565b9250506001810190506136f2565b5085935050505092915050565b6000602082019050818103600083015261374681846136ce565b905092915050565b600061375982613027565b9050919050565b6137698161374e565b82525050565b60006020820190506137846000830184613760565b92915050565b6137938161333b565b82525050565b60006020820190506137ae600083018461378a565b92915050565b60008083601f8401126137ca576137c96130f5565b5b8235905067ffffffffffffffff8111156137e7576137e6613543565b5b60208301915083600182028301111561380357613802613548565b5b9250929050565b6000806000604084860312156138235761382261307f565b5b6000613831868287016133ca565b935050602084013567ffffffffffffffff81111561385257613851613084565b5b61385e868287016137b4565b92509250509250925092565b6000819050919050565b600067ffffffffffffffff82169050919050565b60006138a361389e6138998461386a565b612ffb565b613874565b9050919050565b6138b381613888565b82525050565b60006020820190506138ce60008301846138aa565b92915050565b7f4e6f7420616c6c6f776564000000000000000000000000000000000000000000600082015250565b600061390a600b836134ad565b9150613915826138d4565b602082019050919050565b60006020820190508181036000830152613939816138fd565b9050919050565b7f4e6f7420636f6e66696775726564000000000000000000000000000000000000600082015250565b6000613976600e836134ad565b915061398182613940565b602082019050919050565b600060208201905081810360008301526139a581613969565b9050919050565b6000815190506139bb816133b3565b92915050565b6000602082840312156139d7576139d661307f565b5b60006139e5848285016139ac565b91505092915050565b7f4e487b7100000000000000000000000000000000000000000000000000000000600052603260045260246000fd5b7f4e487b7100000000000000000000000000000000000000000000000000000000600052601160045260246000fd5b6000613a5782613297565b9150613a6283613297565b9250828201905080821115613a7a57613a79613a1d565b5b92915050565b6000613a8b82613297565b9150613a9683613297565b9250828202613aa481613297565b91508282048414831517613abb57613aba613a1d565b5b5092915050565b7f4e487b7100000000000000000000000000000000000000000000000000000000600052601260045260246000fd5b6000613afc82613297565b9150613b0783613297565b925082613b1757613b16613ac2565b5b828204905092915050565b600081519050613b3181613347565b92915050565b600060208284031215613b4d57613b4c61307f565b5b6000613b5b84828501613b22565b91505092915050565b7f496e76616c696420616464726573730000000000000000000000000000000000600082015250565b6000613b9a600f836134ad565b9150613ba582613b64565b602082019050919050565b60006020820190508181036000830152613bc981613b8d565b9050919050565b7f5374617274206f7574206f662072616e67650000000000000000000000000000600082015250565b6000613c066012836134ad565b9150613c1182613bd0565b602082019050919050565b60006020820190508181036000830152613c3581613bf9565b9050919050565b7f4e6f2057465220746f6b656e7320657869737400000000000000000000000000600082015250565b6000613c726013836134ad565b9150613c7d82613c3c565b602082019050919050565b60006020820190508181036000830152613ca181613c65565b9050919050565b6000604082019050613cbd60008301856132a1565b613cca60208301846132a1565b9392505050565b7f4e6f206e6577206761696e7320746f20636f6c6c656374000000000000000000600082015250565b6000613d076017836134ad565b9150613d1282613cd1565b602082019050919050565b60006020820190508181036000830152613d3681613cfa565b9050919050565b6000613d4882613297565b9150613d5383613297565b9250828203905081811115613d6b57613d6a613a1d565b5b92915050565b6000606082019050613d8660008301866132a1565b613d9360208301856132a1565b613da06040830184612fd1565b949350505050565b7f4c656e677468206d69736d617463680000000000000000000000000000000000600082015250565b6000613dde600f836134ad565b9150613de982613da8565b602082019050919050565b60006020820190508181036000830152613e0d81613dd1565b9050919050565b7f496e76616c696420776569676874730000000000000000000000000000000000600082015250565b6000613e4a600f836134ad565b9150613e5582613e14565b602082019050919050565b60006020820190508181036000830152613e7981613e3d565b9050919050565b7f496e73756666696369656e742057465200000000000000000000000000000000600082015250565b6000613eb66010836134ad565b9150613ec182613e80565b602082019050919050565b60006020820190508181036000830152613ee581613ea9565b9050919050565b6000606082019050613f016000830186612fd1565b613f0e6020830185612fd1565b613f1b60408301846132a1565b949350505050565b7f496e76616c6964206465706f7369740000000000000000000000000000000000600082015250565b6000613f59600f836134ad565b9150613f6482613f23565b602082019050919050565b60006020820190508181036000830152613f8881613f4c565b9050919050565b6000613f9b83856134ad565b9350613fa88385846131bc565b613fb1836130ff565b840190509392505050565b6000604082019050613fd160008301866132a1565b8181036020830152613fe4818486613f8f565b9050949350505050565b613ff781613307565b811461400257600080fd5b50565b60008151905061401481613fee565b92915050565b6000602082840312156140305761402f61307f565b5b600061403e84828501614005565b91505092915050565b600081519050919050565b600081905092915050565b600061406882614047565b6140728185614052565b93506140828185602086016134be565b80840191505092915050565b600061409a828461405d565b91508190509291505056fea2646970667358221220816a0fb1a92f5278e91744b45d82be5c4a3518999bcdff342b1496b00f4b51da64736f6c634300081c0033",
  "linkReferences": {},
  "deployedLinkReferences": {}
}