{
  "_format": "hh-sol-artifact-1",
  "contractName": "FundContract",
  "sourceName": "contracts/FundContract.sol",
  "abi": [
    {
      "inputs": [
        {
          "internalType": "address",
          "name": "target",
          "type": "address"
        }
      ],
      "name": "AddressEmptyCode",
      "type": "error"
    },
    {
      "inputs": [
        {
          "internalType": "address",
          "name": "implementation",
          "type": "address"
        }
      ],
      "name": "ERC1967InvalidImplementation",
      "type": "error"
    },
    {
      "inputs": [],
      "name": "ERC1967NonPayable",
      "type": "error"
    },
    {
      "inputs": [],
      "name": "FailedCall",
      "type": "error"
    },
    {
      "inputs": [],
      "name": "InvalidInitialization",
      "type": "error"
    },
    {
      "inputs": [],
      "name": "NotInitializing",
      "type": "error"
    },
    {
      "inputs": [
        {
          "internalType": "address",
          "name": "owner",
          "type": "address"
        }
      ],
      "name": "OwnableInvalidOwner",
      "type": "error"
    },
    {
      "inputs": [
        {
          "internalType": "address",
          "name": "account",
          "type": "address"
        }
      ],
      "name": "OwnableUnauthorizedAccount",
      "type": "error"
    },
    {
      "inputs": [],
      "name": "ReentrancyGuardReentrantCall",
      "type": "error"
    },
    {
      "inputs": [],
      "name": "UUPSUnauthorizedCallContext",
      "type": "error"
    },
    {
      "inputs": [
        {
          "internalType": "bytes32",
          "name": "slot",
          "type": "bytes32"
        }
      ],
      "name": "UUPSUnsupportedProxiableUUID",
      "type": "error"
    },
    {
      "anonymous": false,
      "inputs": [
        {
          "indexed": true,
          "internalType": "address",
          "name": "user",
          "type": "address"
        },
        {
          "indexed": false,
          "internalType": "uint256",
          "name": "amount",
          "type": "uint256"
        },
        {
          "indexed": false,
          "internalType": "string",
          "name": "memo",
          "type": "string"
        }
      ],
      "name": "Deposit",
      "type": "event"
    },
    {
      "anonymous": false,
      "inputs": [
        {
          "indexed": false,
          "internalType": "uint64",
          "name": "version",
          "type": "uint64"
        }
      ],
      "name": "Initialized",
      "type": "event"
    },
    {
      "anonymous": false,
      "inputs": [
        {
          "indexed": true,
          "internalType": "address",
          "name": "previousOwner",
          "type": "address"
        },
        {
          "indexed": true,
          "internalType": "address",
          "name": "newOwner",
          "type": "address"
        }
      ],
      "name": "OwnershipTransferred",
      "type": "event"
    },
    {
      "anonymous": false,
      "inputs": [
        {
          "indexed": false,
          "internalType": "uint256",
          "name": "feeAmount",
          "type": "uint256"
        },
        {
          "indexed": false,
          "internalType": "uint256",
          "name": "sharesToMint",
          "type": "uint256"
        },
        {
          "indexed": false,
          "internalType": "address",
          "name": "treasury",
          "type": "address"
        }
      ],
      "name": "ProtocolFeesCollected",
      "type": "event"
    },
    {
      "anonymous": false,
      "inputs": [
        {
          "indexed": false,
          "internalType": "uint256",
          "name": "start",
          "type": "uint256"
        },
        {
          "indexed": false,
          "internalType": "uint256",
          "name": "end",
          "type": "uint256"
        }
      ],
      "name": "RedemptionProcessed",
      "type": "event"
    },
    {
      "anonymous": false,
      "inputs": [
        {
          "indexed": true,
          "internalType": "address",
          "name": "implementation",
          "type": "address"
        }
      ],
      "name": "Upgraded",
      "type": "event"
    },
    {
      "inputs": [],
      "name": "UPGRADE_INTERFACE_VERSION",
      "outputs": [
        {
          "internalType": "string",
          "name": "",
          "type": "string"
        }
      ],
      "stateMutability": "view",
      "type": "function"
    },
    {
      "inputs": [
        {
          "internalType": "address",
          "name": "_strategy",
          "type": "address"
        },
        {
          "internalType": "uint256",
          "name": "_weight",
          "type": "uint256"
        }
      ],
      "name": "addStrategy",
      "outputs": [],
      "stateMutability": "nonpayable",
      "type": "function"
    },
    {
      "inputs": [],
      "name": "collectProtocolFees",
      "outputs": [
        {
          "internalType": "uint256",
          "name": "",
          "type": "uint256"
        }
      ],
      "stateMutability": "nonpayable",
      "type": "function"
    },
    {
      "inputs": [],
      "name": "deployCapital",
      "outputs": [],
      "stateMutability": "nonpayable",
      "type": "function"
    },
    {
      "inputs": [
        {
          "internalType": "uint256",
          "name": "amount",
          "type": "uint256"
        },
        {
          "internalType": "string",
          "name": "userMemo",
          "type": "string"
        }
      ],
      "name": "deposit",
      "outputs": [],
      "stateMutability": "nonpayable",
      "type": "function"
    },
    {
      "inputs": [],
      "name": "fundPrincipleAfterFees",
      "outputs": [
        {
          "internalType": "uint256",
          "name": "",
          "type": "uint256"
        }
      ],
      "stateMutability": "view",
      "type": "function"
    },
    {
      "inputs": [],
      "name": "getPendingFees",
      "outputs": [
        {
          "internalType": "uint256",
          "name": "",
          "type": "uint256"
        }
      ],
      "stateMutability": "view",
      "type": "function"
    },
    {
      "inputs": [],
      "name": "getRedemptionQueue",
      "outputs": [
        {
          "components": [
            {
              "internalType": "address",
              "name": "user",
              "type": "address"
            },
            {
              "internalType": "uint256",
              "name": "amount",
              "type": "uint256"
            }
          ],
          "internalType": "struct FundContract.RedemptionRequest[]",
          "name": "",
          "type": "tuple[]"
        }
      ],
      "stateMutability": "view",
      "type": "function"
    },
    {
      "inputs": [],
      "name": "getStrategies",
      "outputs": [
        {
          "components": [
            {
              "internalType": "address",
              "name": "strategyAddress",
              "type": "address"
            },
            {
              "internalType": "string",
              "name": "strategyName",
              "type": "string"
            },
            {
              "internalType": "uint256",
              "name": "strategyWeight",
              "type": "uint256"
            }
          ],
          "internalType": "struct FundContract.StrategyInfo[]",
          "name": "",
          "type": "tuple[]"
        }
      ],
      "stateMutability": "view",
      "type": "function"
    },
    {
      "inputs": [
        {
          "internalType": "address",
          "name": "_usdc",
          "type": "address"
        },
        {
          "internalType": "address",
          "name": "_wfrToken",
          "type": "address"
        }
      ],
      "name": "initialize",
      "outputs": [],
      "stateMutability": "nonpayable",
      "type": "function"
    },
    {
      "inputs": [],
      "name": "owner",
      "outputs": [
        {
          "internalType": "address",
          "name": "",
          "type": "address"
        }
      ],
      "stateMutability": "view",
      "type": "function"
    },
    {
      "inputs": [
        {
          "internalType": "uint256",
          "name": "start",
          "type": "uint256"
        },
        {
          "internalType": "uint256",
          "name": "batchSize",
          "type": "uint256"
        }
      ],
      "name": "processRedemptionsBatch",
      "outputs": [],
      "stateMutability": "nonpayable",
      "type": "function"
    },
    {
      "inputs": [],
      "name": "protocolFee",
      "outputs": [
        {
          "internalType": "uint256",
          "name": "",
          "type": "uint256"
        }
      ],
      "stateMutability": "view",
      "type": "function"
    },
    {
      "inputs": [],
      "name": "proxiableUUID",
      "outputs": [
        {
          "internalType": "bytes32",
          "name": "",
          "type": "bytes32"
        }
      ],
      "stateMutability": "view",
      "type": "function"
    },
    {
      "inputs": [
        {
          "internalType": "uint256",
          "name": "",
          "type": "uint256"
        }
      ],
      "name": "redemptionQueue",
      "outputs": [
        {
          "internalType": "address",
          "name": "user",
          "type": "address"
        },
        {
          "internalType": "uint256",
          "name": "amount",
          "type": "uint256"
        }
      ],
      "stateMutability": "view",
      "type": "function"
    },
    {
      "inputs": [
        {
          "internalType": "uint256[]",
          "name": "indexes",
          "type": "uint256[]"
        }
      ],
      "name": "removeStrategies",
      "outputs": [],
      "stateMutability": "nonpayable",
      "type": "function"
    },
    {
      "inputs": [],
      "name": "renounceOwnership",
      "outputs": [],
      "stateMutability": "nonpayable",
      "type": "function"
    },
    {
      "inputs": [
        {
          "internalType": "uint256",
          "name": "amount",
          "type": "uint256"
        }
      ],
      "name": "requestRedemption",
      "outputs": [],
      "stateMutability": "nonpayable",
      "type": "function"
    },
    {
      "inputs": [
        {
          "internalType": "uint256[]",
          "name": "_weights",
          "type": "uint256[]"
        }
      ],
      "name": "setStrategyWeights",
      "outputs": [],
      "stateMutability": "nonpayable",
      "type": "function"
    },
    {
      "inputs": [
        {
          "internalType": "address",
          "name": "_manager",
          "type": "address"
        }
      ],
      "name": "setTreasuryManager",
      "outputs": [],
      "stateMutability": "nonpayable",
      "type": "function"
    },
    {
      "inputs": [
        {
          "internalType": "address",
          "name": "_addr",
          "type": "address"
        },
        {
          "internalType": "bool",
          "name": "_allowed",
          "type": "bool"
        }
      ],
      "name": "setWhitelist",
      "outputs": [],
      "stateMutability": "nonpayable",
      "type": "function"
    },
    {
      "inputs": [
        {
          "internalType": "uint256",
          "name": "",
          "type": "uint256"
        }
      ],
      "name": "strategies",
      "outputs": [
        {
          "internalType": "contract IStrategy",
          "name": "",
          "type": "address"
        }
      ],
      "stateMutability": "view",
      "type": "function"
    },
    {
      "inputs": [
        {
          "internalType": "uint256",
          "name": "",
          "type": "uint256"
        }
      ],
      "name": "strategyWeights",
      "outputs": [
        {
          "internalType": "uint256",
          "name": "",
          "type": "uint256"
        }
      ],
      "stateMutability": "view",
      "type": "function"
    },
    {
      "inputs": [
        {
          "internalType": "address",
          "name": "newOwner",
          "type": "address"
        }
      ],
      "name": "transferOwnership",
      "outputs": [],
      "stateMutability": "nonpayable",
      "type": "function"
    },
    {
      "inputs": [],
      "name": "treasury",
      "outputs": [
        {
          "internalType": "address",
          "name": "",
          "type": "address"
        }
      ],
      "stateMutability": "view",
      "type": "function"
    },
    {
      "inputs": [],
      "name": "treasuryManager",
      "outputs": [
        {
          "internalType": "address",
          "name": "",
          "type": "address"
        }
      ],
      "stateMutability": "view",
      "type": "function"
    },
    {
      "inputs": [
        {
          "internalType": "address",
          "name": "_newTreasury",
          "type": "address"
        }
      ],
      "name": "updateTreasury",
      "outputs": [],
      "stateMutability": "nonpayable",
      "type": "function"
    },
    {
      "inputs": [
        {
          "internalType": "address",
          "name": "newImplementation",
          "type": "address"
        },
        {
          "internalType": "bytes",
          "name": "data",
          "type": "bytes"
        }
      ],
      "name": "upgradeToAndCall",
      "outputs": [],
      "stateMutability": "payable",
      "type": "function"
    },
    {
      "inputs": [],
      "name": "usdc",
      "outputs": [
        {
          "internalType": "contract IERC20",
          "name": "",
          "type": "address"
        }
      ],
      "stateMutability": "view",
      "type": "function"
    },
    {
      "inputs": [],
      "name": "wfrToken",
      "outputs": [
        {
          "internalType": "contract WFRToken",
          "name": "",
          "type": "address"
        }
      ],
      "stateMutability": "view",
      "type": "function"
    },
    {
      "inputs": [
        {
          "internalType": "address",
          "name": "",
          "type": "address"
        }
      ],
      "name": "whitelisted",
      "outputs": [
        {
          "internalType": "bool",
          "name": "",
          "type": "bool"
        }
      ],
      "stateMutability": "view",
      "type": "function"
    }
  ],
  "bytecode": "0x60a06040523073ffffffffffffffffffffffffffffffffffffffff1660809073ffffffffffffffffffffffffffffffffffffffff16815250348015604257600080fd5b50608051614e7561006c60003960008181612b8601528181612bdb0152612d960152614e756000f3fe6080604052600436106101d85760003560e01c80639700b14711610102578063cea6a0ee11610095578063eeb3c91011610064578063eeb3c9101461066a578063f1215d2514610693578063f2fde38b146106bc578063fe47a9f2146106e5576101d8565b8063cea6a0ee1461059c578063d574ea3d146105c7578063d936547e14610604578063dd435c2d14610641576101d8565b8063b49a60bb116100d1578063b49a60bb146104f4578063c51c2d0e1461051f578063c8bd63361461054a578063c9411e2214610573576101d8565b80639700b1471461044a578063a1af5b9a14610473578063ad3cb1cc1461049e578063b0e21e8a146104c9576101d8565b806352d1902d1161017a5780637ad51f7e116101495780637ad51f7e1461037b5780637f51bb1f146103b95780638da5cb5b146103e25780638e6c8ab31461040d576101d8565b806352d1902d146102e557806353d6fd591461031057806361d027b314610339578063715018a614610364576101d8565b80634d85f00f116101b65780634d85f00f1461025c5780634f1ef286146102735780634f6b5c471461028f578063505cbc0b146102ba576101d8565b80633cea70d9146101dd5780633e413bee14610208578063485cc95514610233575b600080fd5b3480156101e957600080fd5b506101f261070e565b6040516101ff9190613902565b60405180910390f35b34801561021457600080fd5b5061021d610734565b60405161022a919061397c565b60405180910390f35b34801561023f57600080fd5b5061025a600480360381019061025591906139d7565b610758565b005b34801561026857600080fd5b50610271610a1a565b005b61028d60048036038101906102889190613b5d565b610e19565b005b34801561029b57600080fd5b506102a4610e38565b6040516102b19190613bd2565b60405180910390f35b3480156102c657600080fd5b506102cf610e3e565b6040516102dc9190613c0e565b60405180910390f35b3480156102f157600080fd5b506102fa610e64565b6040516103079190613c42565b60405180910390f35b34801561031c57600080fd5b5061033760048036038101906103329190613c95565b610e97565b005b34801561034557600080fd5b5061034e610f69565b60405161035b9190613902565b60405180910390f35b34801561037057600080fd5b50610379610f8f565b005b34801561038757600080fd5b506103a2600480360381019061039d9190613d01565b610fa3565b6040516103b0929190613d2e565b60405180910390f35b3480156103c557600080fd5b506103e060048036038101906103db9190613d57565b610ff7565b005b3480156103ee57600080fd5b506103f7611177565b6040516104049190613902565b60405180910390f35b34801561041957600080fd5b50610434600480360381019061042f9190613d01565b6111af565b6040516104419190613bd2565b60405180910390f35b34801561045657600080fd5b50610471600480360381019061046c9190613d84565b6111d3565b005b34801561047f57600080fd5b5061048861171b565b6040516104959190613bd2565b60405180910390f35b3480156104aa57600080fd5b506104b3611a46565b6040516104c09190613e43565b60405180910390f35b3480156104d557600080fd5b506104de611a7f565b6040516104eb9190613bd2565b60405180910390f35b34801561050057600080fd5b50610509611a85565b6040516105169190613fdf565b60405180910390f35b34801561052b57600080fd5b50610534611cb1565b6040516105419190613bd2565b60405180910390f35b34801561055657600080fd5b50610571600480360381019061056c9190614061565b611d05565b005b34801561057f57600080fd5b5061059a600480360381019061059591906140ae565b611f00565b005b3480156105a857600080fd5b506105b1612059565b6040516105be91906141cc565b60405180910390f35b3480156105d357600080fd5b506105ee60048036038101906105e99190613d01565b612118565b6040516105fb919061420f565b60405180910390f35b34801561061057600080fd5b5061062b60048036038101906106269190613d57565b612157565b6040516106389190614239565b60405180910390f35b34801561064d57600080fd5b5061066860048036038101906106639190614061565b612177565b005b34801561067657600080fd5b50610691600480360381019061068c9190613d01565b6124a5565b005b34801561069f57600080fd5b506106ba60048036038101906106b591906142aa565b6126e2565b005b3480156106c857600080fd5b506106e360048036038101906106de9190613d57565b61297b565b005b3480156106f157600080fd5b5061070c60048036038101906107079190613d57565b612a01565b005b600760009054906101000a900473ffffffffffffffffffffffffffffffffffffffff1681565b60008054906101000a900473ffffffffffffffffffffffffffffffffffffffff1681565b6000610762612abc565b905060008160000160089054906101000a900460ff1615905060008260000160009054906101000a900467ffffffffffffffff1690506000808267ffffffffffffffff161480156107b05750825b9050600060018367ffffffffffffffff161480156107e5575060003073ffffffffffffffffffffffffffffffffffffffff163b145b9050811580156107f3575080155b1561082a576040517ff92ee8a900000000000000000000000000000000000000000000000000000000815260040160405180910390fd5b60018560000160006101000a81548167ffffffffffffffff021916908367ffffffffffffffff160217905550831561087a5760018560000160086101000a81548160ff0219169083151502179055505b61088333612ae4565b61088b612af8565b610893612b02565b866000806101000a81548173ffffffffffffffffffffffffffffffffffffffff021916908373ffffffffffffffffffffffffffffffffffffffff16021790555085600160006101000a81548173ffffffffffffffffffffffffffffffffffffffff021916908373ffffffffffffffffffffffffffffffffffffffff160217905550600a6005819055506001600960003373ffffffffffffffffffffffffffffffffffffffff1673ffffffffffffffffffffffffffffffffffffffff16815260200190815260200160002060006101000a81548160ff02191690831515021790555033600660006101000a81548173ffffffffffffffffffffffffffffffffffffffff021916908373ffffffffffffffffffffffffffffffffffffffff1602179055508315610a115760008560000160086101000a81548160ff0219169083151502179055507fc7f505b2f371ae2175ee4913f4499e1f2633a7b5936321eed1cdaeb6115181d26001604051610a089190614359565b60405180910390a15b50505050505050565b3373ffffffffffffffffffffffffffffffffffffffff16610a39611177565b73ffffffffffffffffffffffffffffffffffffffff161480610aa45750600960003373ffffffffffffffffffffffffffffffffffffffff1673ffffffffffffffffffffffffffffffffffffffff16815260200190815260200160002060009054906101000a900460ff165b610ae3576040517f08c379a0000000000000000000000000000000000000000000000000000000008152600401610ada906143c0565b60405180910390fd5b610aeb612b14565b60038054905060028054905014610b37576040517f08c379a0000000000000000000000000000000000000000000000000000000008152600401610b2e9061442c565b60405180910390fd5b60008060009054906101000a900473ffffffffffffffffffffffffffffffffffffffff1673ffffffffffffffffffffffffffffffffffffffff166370a08231306040518263ffffffff1660e01b8152600401610b939190613902565b602060405180830381865afa158015610bb0573d6000803e3d6000fd5b505050506040513d601f19601f82011682018060405250810190610bd49190614461565b9050600080600090505b600380549050811015610c245760038181548110610bff57610bfe61448e565b5b906000526020600020015482610c1591906144ec565b91508080600101915050610bde565b5060005b600280549050811015610e0c5760008260038381548110610c4c57610c4b61448e565b5b906000526020600020015485610c629190614520565b610c6c9190614591565b90506000811115610dfe5760008054906101000a900473ffffffffffffffffffffffffffffffffffffffff1673ffffffffffffffffffffffffffffffffffffffff1663095ea7b360028481548110610cc757610cc661448e565b5b9060005260206000200160009054906101000a900473ffffffffffffffffffffffffffffffffffffffff16836040518363ffffffff1660e01b8152600401610d10929190613d2e565b6020604051808303816000875af1158015610d2f573d6000803e3d6000fd5b505050506040513d601f19601f82011682018060405250810190610d5391906145d7565b5060028281548110610d6857610d6761448e565b5b9060005260206000200160009054906101000a900473ffffffffffffffffffffffffffffffffffffffff1673ffffffffffffffffffffffffffffffffffffffff1663b6b55f25826040518263ffffffff1660e01b8152600401610dcb9190613bd2565b600060405180830381600087803b158015610de557600080fd5b505af1158015610df9573d6000803e3d6000fd5b505050505b508080600101915050610c28565b505050610e17612b6b565b565b610e21612b84565b610e2a82612c6a565b610e348282612c75565b5050565b60045481565b600160009054906101000a900473ffffffffffffffffffffffffffffffffffffffff1681565b6000610e6e612d94565b7f360894a13ba1a3210667c828492db98dca3e2076cc3735a920a3ca505d382bbc60001b905090565b610e9f612e1b565b600073ffffffffffffffffffffffffffffffffffffffff168273ffffffffffffffffffffffffffffffffffffffff1603610f0e576040517f08c379a0000000000000000000000000000000000000000000000000000000008152600401610f0590614650565b60405180910390fd5b80600960008473ffffffffffffffffffffffffffffffffffffffff1673ffffffffffffffffffffffffffffffffffffffff16815260200190815260200160002060006101000a81548160ff0219169083151502179055505050565b600660009054906101000a900473ffffffffffffffffffffffffffffffffffffffff1681565b610f97612e1b565b610fa16000612ea2565b565b60088181548110610fb357600080fd5b90600052602060002090600202016000915090508060000160009054906101000a900473ffffffffffffffffffffffffffffffffffffffff16908060010154905082565b600760009054906101000a900473ffffffffffffffffffffffffffffffffffffffff1673ffffffffffffffffffffffffffffffffffffffff163373ffffffffffffffffffffffffffffffffffffffff1614806110855750611056611177565b73ffffffffffffffffffffffffffffffffffffffff163373ffffffffffffffffffffffffffffffffffffffff16145b6110c4576040517f08c379a00000000000000000000000000000000000000000000000000000000081526004016110bb906143c0565b60405180910390fd5b600073ffffffffffffffffffffffffffffffffffffffff168173ffffffffffffffffffffffffffffffffffffffff1603611133576040517f08c379a000000000000000000000000000000000000000000000000000000000815260040161112a90614650565b60405180910390fd5b80600660006101000a81548173ffffffffffffffffffffffffffffffffffffffff021916908373ffffffffffffffffffffffffffffffffffffffff16021790555050565b600080611182612f79565b90508060000160009054906101000a900473ffffffffffffffffffffffffffffffffffffffff1691505090565b600381815481106111bf57600080fd5b906000526020600020016000915090505481565b3373ffffffffffffffffffffffffffffffffffffffff166111f2611177565b73ffffffffffffffffffffffffffffffffffffffff16148061125d5750600960003373ffffffffffffffffffffffffffffffffffffffff1673ffffffffffffffffffffffffffffffffffffffff16815260200190815260200160002060009054906101000a900460ff165b61129c576040517f08c379a0000000000000000000000000000000000000000000000000000000008152600401611293906143c0565b60405180910390fd5b6112a4612b14565b6000600880549050031561170f5760006112bc612fa1565b905060045481111561133b573073ffffffffffffffffffffffffffffffffffffffff1663a1af5b9a6040518163ffffffff1660e01b81526004016020604051808303816000875af1158015611315573d6000803e3d6000fd5b505050506040513d601f19601f820116820180604052508101906113399190614461565b505b6008805490508310611382576040517f08c379a0000000000000000000000000000000000000000000000000000000008152600401611379906146bc565b60405180910390fd5b6000828461139091906144ec565b90506008805490508111156113a85760088054905090505b6000600160009054906101000a900473ffffffffffffffffffffffffffffffffffffffff1673ffffffffffffffffffffffffffffffffffffffff166318160ddd6040518163ffffffff1660e01b8152600401602060405180830381865afa158015611417573d6000803e3d6000fd5b505050506040513d601f19601f8201168201806040525081019061143b9190614461565b905060008111611480576040517f08c379a000000000000000000000000000000000000000000000000000000000815260040161147790614728565b60405180910390fd5b60008590505b828110156116c3576000600882815481106114a4576114a361448e565b5b90600052602060002090600202016040518060400160405290816000820160009054906101000a900473ffffffffffffffffffffffffffffffffffffffff1673ffffffffffffffffffffffffffffffffffffffff1673ffffffffffffffffffffffffffffffffffffffff1681526020016001820154815250509050600081602001510361153157506116b6565b60008160200151905060008482886115499190614520565b6115539190614591565b9050600160009054906101000a900473ffffffffffffffffffffffffffffffffffffffff1673ffffffffffffffffffffffffffffffffffffffff16639dc29fac30846040518363ffffffff1660e01b81526004016115b2929190613d2e565b600060405180830381600087803b1580156115cc57600080fd5b505af11580156115e0573d6000803e3d6000fd5b5050505060008054906101000a900473ffffffffffffffffffffffffffffffffffffffff1673ffffffffffffffffffffffffffffffffffffffff1663a9059cbb8460000151836040518363ffffffff1660e01b8152600401611643929190613d2e565b6020604051808303816000875af1158015611662573d6000803e3d6000fd5b505050506040513d601f19601f8201168201806040525081019061168691906145d7565b5060006008858154811061169d5761169c61448e565b5b9060005260206000209060020201600101819055505050505b8080600101915050611486565b506116cc612fa1565b6004819055507f527e7d9d8ce9e973d15d3e7199e5c2453a068c50ce4160e5b9d2056205e913078583604051611703929190614748565b60405180910390a15050505b611717612b6b565b5050565b60003373ffffffffffffffffffffffffffffffffffffffff1661173c611177565b73ffffffffffffffffffffffffffffffffffffffff1614806117a75750600960003373ffffffffffffffffffffffffffffffffffffffff1673ffffffffffffffffffffffffffffffffffffffff16815260200190815260200160002060009054906101000a900460ff165b6117e6576040517f08c379a00000000000000000000000000000000000000000000000000000000081526004016117dd906143c0565b60405180910390fd5b6117ee612b14565b60006117f8612fa1565b9050600454811161183e576040517f08c379a0000000000000000000000000000000000000000000000000000000008152600401611835906147bd565b60405180910390fd5b60006004548261184e91906147dd565b905060006064600554836118629190614520565b61186c9190614591565b90506000600160009054906101000a900473ffffffffffffffffffffffffffffffffffffffff1673ffffffffffffffffffffffffffffffffffffffff166318160ddd6040518163ffffffff1660e01b8152600401602060405180830381865afa1580156118dd573d6000803e3d6000fd5b505050506040513d601f19601f820116820180604052508101906119019190614461565b905060008482846119129190614520565b61191c9190614591565b9050600160009054906101000a900473ffffffffffffffffffffffffffffffffffffffff1673ffffffffffffffffffffffffffffffffffffffff166340c10f19600660009054906101000a900473ffffffffffffffffffffffffffffffffffffffff16836040518363ffffffff1660e01b815260040161199d929190613d2e565b600060405180830381600087803b1580156119b757600080fd5b505af11580156119cb573d6000803e3d6000fd5b50505050846004819055507f8b608af848fa93b72e30fcc7b0c8c8307da3e494b0121ad48e44fbaf09fd08e38382600660009054906101000a900473ffffffffffffffffffffffffffffffffffffffff16604051611a2b93929190614811565b60405180910390a18095505050505050611a43612b6b565b90565b6040518060400160405280600581526020017f352e302e3000000000000000000000000000000000000000000000000000000081525081565b60055481565b606060038054905060028054905014611ad3576040517f08c379a0000000000000000000000000000000000000000000000000000000008152600401611aca9061442c565b60405180910390fd5b600060028054905067ffffffffffffffff811115611af457611af3613a32565b5b604051908082528060200260200182016040528015611b2d57816020015b611b1a613880565b815260200190600190039081611b125790505b50905060005b600280549050811015611ca957604051806060016040528060028381548110611b5f57611b5e61448e565b5b9060005260206000200160009054906101000a900473ffffffffffffffffffffffffffffffffffffffff1673ffffffffffffffffffffffffffffffffffffffff16815260200160028381548110611bb957611bb861448e565b5b9060005260206000200160009054906101000a900473ffffffffffffffffffffffffffffffffffffffff1673ffffffffffffffffffffffffffffffffffffffff1663e173ad256040518163ffffffff1660e01b8152600401600060405180830381865afa158015611c2e573d6000803e3d6000fd5b505050506040513d6000823e3d601f19601f82011682018060405250810190611c5791906148e9565b815260200160038381548110611c7057611c6f61448e565b5b9060005260206000200154815250828281518110611c9157611c9061448e565b5b60200260200101819052508080600101915050611b33565b508091505090565b600080611cbc612fa1565b90506004548111611cd1576000915050611d02565b600060045482611ce191906147dd565b9050606460055482611cf39190614520565b611cfd9190614591565b925050505b90565b3373ffffffffffffffffffffffffffffffffffffffff16611d24611177565b73ffffffffffffffffffffffffffffffffffffffff161480611d8f5750600960003373ffffffffffffffffffffffffffffffffffffffff1673ffffffffffffffffffffffffffffffffffffffff16815260200190815260200160002060009054906101000a900460ff165b611dce576040517f08c379a0000000000000000000000000000000000000000000000000000000008152600401611dc5906143c0565b60405180910390fd5b6002805490508282905014611e18576040517f08c379a0000000000000000000000000000000000000000000000000000000008152600401611e0f9061497e565b60405180910390fd5b600080600090505b83839050811015611e5f57838382818110611e3e57611e3d61448e565b5b9050602002013582611e5091906144ec565b91508080600101915050611e20565b5060008111611ea3576040517f08c379a0000000000000000000000000000000000000000000000000000000008152600401611e9a906149ea565b60405180910390fd5b60005b83839050811015611efa57838382818110611ec457611ec361448e565b5b9050602002013560038281548110611edf57611ede61448e565b5b90600052602060002001819055508080600101915050611ea6565b50505050565b3373ffffffffffffffffffffffffffffffffffffffff16611f1f611177565b73ffffffffffffffffffffffffffffffffffffffff161480611f8a5750600960003373ffffffffffffffffffffffffffffffffffffffff1673ffffffffffffffffffffffffffffffffffffffff16815260200190815260200160002060009054906101000a900460ff165b611fc9576040517f08c379a0000000000000000000000000000000000000000000000000000000008152600401611fc0906143c0565b60405180910390fd5b6002829080600181540180825580915050600190039060005260206000200160009091909190916101000a81548173ffffffffffffffffffffffffffffffffffffffff021916908373ffffffffffffffffffffffffffffffffffffffff16021790555060038190806001815401808255809150506001900390600052602060002001600090919091909150555050565b60606008805480602002602001604051908101604052809291908181526020016000905b8282101561210f57838290600052602060002090600202016040518060400160405290816000820160009054906101000a900473ffffffffffffffffffffffffffffffffffffffff1673ffffffffffffffffffffffffffffffffffffffff1673ffffffffffffffffffffffffffffffffffffffff1681526020016001820154815250508152602001906001019061207d565b50505050905090565b6002818154811061212857600080fd5b906000526020600020016000915054906101000a900473ffffffffffffffffffffffffffffffffffffffff1681565b60096020528060005260406000206000915054906101000a900460ff1681565b3373ffffffffffffffffffffffffffffffffffffffff16612196611177565b73ffffffffffffffffffffffffffffffffffffffff1614806122015750600960003373ffffffffffffffffffffffffffffffffffffffff1673ffffffffffffffffffffffffffffffffffffffff16815260200190815260200160002060009054906101000a900460ff165b612240576040517f08c379a0000000000000000000000000000000000000000000000000000000008152600401612237906143c0565b60405180910390fd5b60008282905011612286576040517f08c379a000000000000000000000000000000000000000000000000000000000815260040161227d90614a56565b60405180910390fd5b60005b828290508110156124a0576002805490508383838181106122ad576122ac61448e565b5b90506020020135106122f4576040517f08c379a00000000000000000000000000000000000000000000000000000000081526004016122eb90614ac2565b60405180910390fd5b6002600160028054905061230891906147dd565b815481106123195761231861448e565b5b9060005260206000200160009054906101000a900473ffffffffffffffffffffffffffffffffffffffff1660028484848181106123595761235861448e565b5b90506020020135815481106123715761237061448e565b5b9060005260206000200160006101000a81548173ffffffffffffffffffffffffffffffffffffffff021916908373ffffffffffffffffffffffffffffffffffffffff16021790555060028054806123cb576123ca614ae2565b5b6001900381819060005260206000200160006101000a81549073ffffffffffffffffffffffffffffffffffffffff021916905590556003600160038054905061241491906147dd565b815481106124255761242461448e565b5b906000526020600020015460038484848181106124455761244461448e565b5b905060200201358154811061245d5761245c61448e565b5b9060005260206000200181905550600380548061247d5761247c614ae2565b5b600190038181906000526020600020016000905590558080600101915050612289565b505050565b6124ad612b14565b80600160009054906101000a900473ffffffffffffffffffffffffffffffffffffffff1673ffffffffffffffffffffffffffffffffffffffff166370a08231336040518263ffffffff1660e01b81526004016125099190613902565b602060405180830381865afa158015612526573d6000803e3d6000fd5b505050506040513d601f19601f8201168201806040525081019061254a9190614461565b101561258b576040517f08c379a000000000000000000000000000000000000000000000000000000000815260040161258290614b5d565b60405180910390fd5b600160009054906101000a900473ffffffffffffffffffffffffffffffffffffffff1673ffffffffffffffffffffffffffffffffffffffff166323b872dd3330846040518463ffffffff1660e01b81526004016125ea93929190614b7d565b6020604051808303816000875af1158015612609573d6000803e3d6000fd5b505050506040513d601f19601f8201168201806040525081019061262d91906145d7565b50600860405180604001604052803373ffffffffffffffffffffffffffffffffffffffff16815260200183815250908060018154018082558091505060019003906000526020600020906002020160009091909190915060008201518160000160006101000a81548173ffffffffffffffffffffffffffffffffffffffff021916908373ffffffffffffffffffffffffffffffffffffffff1602179055506020820151816001015550506126df612b6b565b50565b6126ea612b14565b6000339050600083839050111561279957828260405160200161270e929190614be4565b6040516020818303038152906040528051906020012060001c9050600073ffffffffffffffffffffffffffffffffffffffff168173ffffffffffffffffffffffffffffffffffffffff1603612798576040517f08c379a000000000000000000000000000000000000000000000000000000000815260040161278f90614c49565b60405180910390fd5b5b600084116127dc576040517f08c379a00000000000000000000000000000000000000000000000000000000081526004016127d390614cb5565b60405180910390fd5b60008054906101000a900473ffffffffffffffffffffffffffffffffffffffff1673ffffffffffffffffffffffffffffffffffffffff166323b872dd3330876040518463ffffffff1660e01b815260040161283993929190614b7d565b6020604051808303816000875af1158015612858573d6000803e3d6000fd5b505050506040513d601f19601f8201168201806040525081019061287c91906145d7565b50612887848261312a565b6128c56040518060400160405280600681526020017f6d696e7465640000000000000000000000000000000000000000000000000000815250613298565b83600460008282546128d791906144ec565b9250508190555061291f6040518060400160405280601681526020017f66756e645072696e6369706c6541667465724665657300000000000000000000815250600454613331565b3373ffffffffffffffffffffffffffffffffffffffff167f643e927b32d5bfd08eccd2fcbd97057ad413850f857a2359639114e8e8dd3d7b856040516129659190614cfb565b60405180910390a250612976612b6b565b505050565b612983612e1b565b600073ffffffffffffffffffffffffffffffffffffffff168173ffffffffffffffffffffffffffffffffffffffff16036129f55760006040517f1e4fbdf70000000000000000000000000000000000000000000000000000000081526004016129ec9190613902565b60405180910390fd5b6129fe81612ea2565b50565b612a09612e1b565b600073ffffffffffffffffffffffffffffffffffffffff168173ffffffffffffffffffffffffffffffffffffffff1603612a78576040517f08c379a0000000000000000000000000000000000000000000000000000000008152600401612a6f90614650565b60405180910390fd5b80600760006101000a81548173ffffffffffffffffffffffffffffffffffffffff021916908373ffffffffffffffffffffffffffffffffffffffff16021790555050565b60007ff0c57e16840df040f15088dc2f81fe391c3923bec73e23a9662efc9c229c6a00905090565b612aec6133cd565b612af58161340d565b50565b612b006133cd565b565b612b0a6133cd565b612b12613493565b565b6000612b1e6134b4565b90506002816000015403612b5e576040517f3ee5aeb500000000000000000000000000000000000000000000000000000000815260040160405180910390fd5b6002816000018190555050565b6000612b756134b4565b90506001816000018190555050565b7f000000000000000000000000000000000000000000000000000000000000000073ffffffffffffffffffffffffffffffffffffffff163073ffffffffffffffffffffffffffffffffffffffff161480612c3157507f000000000000000000000000000000000000000000000000000000000000000073ffffffffffffffffffffffffffffffffffffffff16612c186134dc565b73ffffffffffffffffffffffffffffffffffffffff1614155b15612c68576040517fe07c8dba00000000000000000000000000000000000000000000000000000000815260040160405180910390fd5b565b612c72612e1b565b50565b8173ffffffffffffffffffffffffffffffffffffffff166352d1902d6040518163ffffffff1660e01b8152600401602060405180830381865afa925050508015612cdd57506040513d601f19601f82011682018060405250810190612cda9190614d55565b60015b612d1e57816040517f4c9c8ce3000000000000000000000000000000000000000000000000000000008152600401612d159190613902565b60405180910390fd5b7f360894a13ba1a3210667c828492db98dca3e2076cc3735a920a3ca505d382bbc60001b8114612d8557806040517faa1d49a4000000000000000000000000000000000000000000000000000000008152600401612d7c9190613c42565b60405180910390fd5b612d8f8383613533565b505050565b7f000000000000000000000000000000000000000000000000000000000000000073ffffffffffffffffffffffffffffffffffffffff163073ffffffffffffffffffffffffffffffffffffffff1614612e19576040517fe07c8dba00000000000000000000000000000000000000000000000000000000815260040160405180910390fd5b565b612e236135a6565b73ffffffffffffffffffffffffffffffffffffffff16612e41611177565b73ffffffffffffffffffffffffffffffffffffffff1614612ea057612e646135a6565b6040517f118cdaa7000000000000000000000000000000000000000000000000000000008152600401612e979190613902565b60405180910390fd5b565b6000612eac612f79565b905060008160000160009054906101000a900473ffffffffffffffffffffffffffffffffffffffff169050828260000160006101000a81548173ffffffffffffffffffffffffffffffffffffffff021916908373ffffffffffffffffffffffffffffffffffffffff1602179055508273ffffffffffffffffffffffffffffffffffffffff168173ffffffffffffffffffffffffffffffffffffffff167f8be0079c531659141344cd1fd0a4f28419497f9722a3daafe3b4186f6b6457e060405160405180910390a3505050565b60007f9016d09d72d40fdae2fd8ceac6b6234c7706214fd39c1cd1e609a0528c199300905090565b60008060005b60028054905081101561307b5760028181548110612fc857612fc761448e565b5b9060005260206000200160009054906101000a900473ffffffffffffffffffffffffffffffffffffffff1673ffffffffffffffffffffffffffffffffffffffff1663d4c3eea06040518163ffffffff1660e01b8152600401602060405180830381865afa15801561303d573d6000803e3d6000fd5b505050506040513d601f19601f820116820180604052508101906130619190614461565b8261306c91906144ec565b91508080600101915050612fa7565b5060008054906101000a900473ffffffffffffffffffffffffffffffffffffffff1673ffffffffffffffffffffffffffffffffffffffff166370a08231306040518263ffffffff1660e01b81526004016130d59190613902565b602060405180830381865afa1580156130f2573d6000803e3d6000fd5b505050506040513d601f19601f820116820180604052508101906131169190614461565b8161312191906144ec565b90508091505090565b6000613134612fa1565b90506000600160009054906101000a900473ffffffffffffffffffffffffffffffffffffffff1673ffffffffffffffffffffffffffffffffffffffff166318160ddd6040518163ffffffff1660e01b8152600401602060405180830381865afa1580156131a5573d6000803e3d6000fd5b505050506040513d601f19601f820116820180604052508101906131c99190614461565b90506000808214806131db5750600083145b156131e857849050613202565b8282866131f59190614520565b6131ff9190614591565b90505b600160009054906101000a900473ffffffffffffffffffffffffffffffffffffffff1673ffffffffffffffffffffffffffffffffffffffff166340c10f1985836040518363ffffffff1660e01b815260040161325f929190613d2e565b600060405180830381600087803b15801561327957600080fd5b505af115801561328d573d6000803e3d6000fd5b505050505050505050565b61332e816040516024016132ac9190613e43565b6040516020818303038152906040527f41304fac000000000000000000000000000000000000000000000000000000007bffffffffffffffffffffffffffffffffffffffffffffffffffffffff19166020820180517bffffffffffffffffffffffffffffffffffffffffffffffffffffffff83818316178352505050506135ae565b50565b6133c98282604051602401613347929190614d82565b6040516020818303038152906040527fb60e72cc000000000000000000000000000000000000000000000000000000007bffffffffffffffffffffffffffffffffffffffffffffffffffffffff19166020820180517bffffffffffffffffffffffffffffffffffffffffffffffffffffffff83818316178352505050506135ae565b5050565b6133d56135c8565b61340b576040517fd7e6bcf800000000000000000000000000000000000000000000000000000000815260040160405180910390fd5b565b6134156133cd565b600073ffffffffffffffffffffffffffffffffffffffff168173ffffffffffffffffffffffffffffffffffffffff16036134875760006040517f1e4fbdf700000000000000000000000000000000000000000000000000000000815260040161347e9190613902565b60405180910390fd5b61349081612ea2565b50565b61349b6133cd565b60006134a56134b4565b90506001816000018190555050565b60007f9b779b17422d0df92223018b32b4d1fa46e071723d6817e2486d003becc55f00905090565b600061350a7f360894a13ba1a3210667c828492db98dca3e2076cc3735a920a3ca505d382bbc60001b6135e8565b60000160009054906101000a900473ffffffffffffffffffffffffffffffffffffffff16905090565b61353c826135f2565b8173ffffffffffffffffffffffffffffffffffffffff167fbc7cd75a20ee27fd9adebab32041f755214dbc6bffa90cc0225b39da2e5c2d3b60405160405180910390a26000815111156135995761359382826136bf565b506135a2565b6135a1613743565b5b5050565b600033905090565b6135c5816135bd6137806137a1565b63ffffffff16565b50565b60006135d2612abc565b60000160089054906101000a900460ff16905090565b6000819050919050565b60008173ffffffffffffffffffffffffffffffffffffffff163b0361364e57806040517f4c9c8ce30000000000000000000000000000000000000000000000000000000081526004016136459190613902565b60405180910390fd5b8061367b7f360894a13ba1a3210667c828492db98dca3e2076cc3735a920a3ca505d382bbc60001b6135e8565b60000160006101000a81548173ffffffffffffffffffffffffffffffffffffffff021916908373ffffffffffffffffffffffffffffffffffffffff16021790555050565b60606000808473ffffffffffffffffffffffffffffffffffffffff16846040516136e99190614df9565b600060405180830381855af49150503d8060008114613724576040519150601f19603f3d011682016040523d82523d6000602084013e613729565b606091505b50915091506137398583836137ac565b9250505092915050565b600034111561377e576040517fb398979f00000000000000000000000000000000000000000000000000000000815260040160405180910390fd5b565b60006a636f6e736f6c652e6c6f679050600080835160208501845afa505050565b6138b7819050919050565b6060826137c1576137bc8261383b565b613833565b600082511480156137e9575060008473ffffffffffffffffffffffffffffffffffffffff163b145b1561382b57836040517f9996b3150000000000000000000000000000000000000000000000000000000081526004016138229190613902565b60405180910390fd5b819050613834565b5b9392505050565b60008151111561384e5780518082602001fd5b6040517fd6bda27500000000000000000000000000000000000000000000000000000000815260040160405180910390fd5b6040518060600160405280600073ffffffffffffffffffffffffffffffffffffffff16815260200160608152602001600081525090565b6138bf614e10565b565b600073ffffffffffffffffffffffffffffffffffffffff82169050919050565b60006138ec826138c1565b9050919050565b6138fc816138e1565b82525050565b600060208201905061391760008301846138f3565b92915050565b6000819050919050565b600061394261393d613938846138c1565b61391d565b6138c1565b9050919050565b600061395482613927565b9050919050565b600061396682613949565b9050919050565b6139768161395b565b82525050565b6000602082019050613991600083018461396d565b92915050565b6000604051905090565b600080fd5b600080fd5b6139b4816138e1565b81146139bf57600080fd5b50565b6000813590506139d1816139ab565b92915050565b600080604083850312156139ee576139ed6139a1565b5b60006139fc858286016139c2565b9250506020613a0d858286016139c2565b9150509250929050565b600080fd5b600080fd5b6000601f19601f8301169050919050565b7f4e487b7100000000000000000000000000000000000000000000000000000000600052604160045260246000fd5b613a6a82613a21565b810181811067ffffffffffffffff82111715613a8957613a88613a32565b5b80604052505050565b6000613a9c613997565b9050613aa88282613a61565b919050565b600067ffffffffffffffff821115613ac857613ac7613a32565b5b613ad182613a21565b9050602081019050919050565b82818337600083830152505050565b6000613b00613afb84613aad565b613a92565b905082815260208101848484011115613b1c57613b1b613a1c565b5b613b27848285613ade565b509392505050565b600082601f830112613b4457613b43613a17565b5b8135613b54848260208601613aed565b91505092915050565b60008060408385031215613b7457613b736139a1565b5b6000613b82858286016139c2565b925050602083013567ffffffffffffffff811115613ba357613ba26139a6565b5b613baf85828601613b2f565b9150509250929050565b6000819050919050565b613bcc81613bb9565b82525050565b6000602082019050613be76000830184613bc3565b92915050565b6000613bf882613949565b9050919050565b613c0881613bed565b82525050565b6000602082019050613c236000830184613bff565b92915050565b6000819050919050565b613c3c81613c29565b82525050565b6000602082019050613c576000830184613c33565b92915050565b60008115159050919050565b613c7281613c5d565b8114613c7d57600080fd5b50565b600081359050613c8f81613c69565b92915050565b60008060408385031215613cac57613cab6139a1565b5b6000613cba858286016139c2565b9250506020613ccb85828601613c80565b9150509250929050565b613cde81613bb9565b8114613ce957600080fd5b50565b600081359050613cfb81613cd5565b92915050565b600060208284031215613d1757613d166139a1565b5b6000613d2584828501613cec565b91505092915050565b6000604082019050613d4360008301856138f3565b613d506020830184613bc3565b9392505050565b600060208284031215613d6d57613d6c6139a1565b5b6000613d7b848285016139c2565b91505092915050565b60008060408385031215613d9b57613d9a6139a1565b5b6000613da985828601613cec565b9250506020613dba85828601613cec565b9150509250929050565b600081519050919050565b600082825260208201905092915050565b60005b83811015613dfe578082015181840152602081019050613de3565b60008484015250505050565b6000613e1582613dc4565b613e1f8185613dcf565b9350613e2f818560208601613de0565b613e3881613a21565b840191505092915050565b60006020820190508181036000830152613e5d8184613e0a565b905092915050565b600081519050919050565b600082825260208201905092915050565b6000819050602082019050919050565b613e9a816138e1565b82525050565b600082825260208201905092915050565b6000613ebc82613dc4565b613ec68185613ea0565b9350613ed6818560208601613de0565b613edf81613a21565b840191505092915050565b613ef381613bb9565b82525050565b6000606083016000830151613f116000860182613e91565b5060208301518482036020860152613f298282613eb1565b9150506040830151613f3e6040860182613eea565b508091505092915050565b6000613f558383613ef9565b905092915050565b6000602082019050919050565b6000613f7582613e65565b613f7f8185613e70565b935083602082028501613f9185613e81565b8060005b85811015613fcd5784840389528151613fae8582613f49565b9450613fb983613f5d565b925060208a01995050600181019050613f95565b50829750879550505050505092915050565b60006020820190508181036000830152613ff98184613f6a565b905092915050565b600080fd5b600080fd5b60008083601f84011261402157614020613a17565b5b8235905067ffffffffffffffff81111561403e5761403d614001565b5b60208301915083602082028301111561405a57614059614006565b5b9250929050565b60008060208385031215614078576140776139a1565b5b600083013567ffffffffffffffff811115614096576140956139a6565b5b6140a28582860161400b565b92509250509250929050565b600080604083850312156140c5576140c46139a1565b5b60006140d3858286016139c2565b92505060206140e485828601613cec565b9150509250929050565b600081519050919050565b600082825260208201905092915050565b6000819050602082019050919050565b6040820160008201516141306000850182613e91565b5060208201516141436020850182613eea565b50505050565b6000614155838361411a565b60408301905092915050565b6000602082019050919050565b6000614179826140ee565b61418381856140f9565b935061418e8361410a565b8060005b838110156141bf5781516141a68882614149565b97506141b183614161565b925050600181019050614192565b5085935050505092915050565b600060208201905081810360008301526141e6818461416e565b905092915050565b60006141f982613949565b9050919050565b614209816141ee565b82525050565b60006020820190506142246000830184614200565b92915050565b61423381613c5d565b82525050565b600060208201905061424e600083018461422a565b92915050565b60008083601f84011261426a57614269613a17565b5b8235905067ffffffffffffffff81111561428757614286614001565b5b6020830191508360018202830111156142a3576142a2614006565b5b9250929050565b6000806000604084860312156142c3576142c26139a1565b5b60006142d186828701613cec565b935050602084013567ffffffffffffffff8111156142f2576142f16139a6565b5b6142fe86828701614254565b92509250509250925092565b6000819050919050565b600067ffffffffffffffff82169050919050565b600061434361433e6143398461430a565b61391d565b614314565b9050919050565b61435381614328565b82525050565b600060208201905061436e600083018461434a565b92915050565b7f4e6f7420616c6c6f776564000000000000000000000000000000000000000000600082015250565b60006143aa600b83613dcf565b91506143b582614374565b602082019050919050565b600060208201905081810360008301526143d98161439d565b9050919050565b7f4e6f7420636f6e66696775726564000000000000000000000000000000000000600082015250565b6000614416600e83613dcf565b9150614421826143e0565b602082019050919050565b6000602082019050818103600083015261444581614409565b9050919050565b60008151905061445b81613cd5565b92915050565b600060208284031215614477576144766139a1565b5b60006144858482850161444c565b91505092915050565b7f4e487b7100000000000000000000000000000000000000000000000000000000600052603260045260246000fd5b7f4e487b7100000000000000000000000000000000000000000000000000000000600052601160045260246000fd5b60006144f782613bb9565b915061450283613bb9565b925082820190508082111561451a576145196144bd565b5b92915050565b600061452b82613bb9565b915061453683613bb9565b925082820261454481613bb9565b9150828204841483151761455b5761455a6144bd565b5b5092915050565b7f4e487b7100000000000000000000000000000000000000000000000000000000600052601260045260246000fd5b600061459c82613bb9565b91506145a783613bb9565b9250826145b7576145b6614562565b5b828204905092915050565b6000815190506145d181613c69565b92915050565b6000602082840312156145ed576145ec6139a1565b5b60006145fb848285016145c2565b91505092915050565b7f496e76616c696420616464726573730000000000000000000000000000000000600082015250565b600061463a600f83613dcf565b915061464582614604565b602082019050919050565b600060208201905081810360008301526146698161462d565b9050919050565b7f5374617274206f7574206f662072616e67650000000000000000000000000000600082015250565b60006146a6601283613dcf565b91506146b182614670565b602082019050919050565b600060208201905081810360008301526146d581614699565b9050919050565b7f4e6f2057465220746f6b656e7320657869737400000000000000000000000000600082015250565b6000614712601383613dcf565b915061471d826146dc565b602082019050919050565b6000602082019050818103600083015261474181614705565b9050919050565b600060408201905061475d6000830185613bc3565b61476a6020830184613bc3565b9392505050565b7f4e6f206e6577206761696e7320746f20636f6c6c656374000000000000000000600082015250565b60006147a7601783613dcf565b91506147b282614771565b602082019050919050565b600060208201905081810360008301526147d68161479a565b9050919050565b60006147e882613bb9565b91506147f383613bb9565b925082820390508181111561480b5761480a6144bd565b5b92915050565b60006060820190506148266000830186613bc3565b6148336020830185613bc3565b61484060408301846138f3565b949350505050565b600067ffffffffffffffff82111561486357614862613a32565b5b61486c82613a21565b9050602081019050919050565b600061488c61488784614848565b613a92565b9050828152602081018484840111156148a8576148a7613a1c565b5b6148b3848285613de0565b509392505050565b600082601f8301126148d0576148cf613a17565b5b81516148e0848260208601614879565b91505092915050565b6000602082840312156148ff576148fe6139a1565b5b600082015167ffffffffffffffff81111561491d5761491c6139a6565b5b614929848285016148bb565b91505092915050565b7f4c656e677468206d69736d617463680000000000000000000000000000000000600082015250565b6000614968600f83613dcf565b915061497382614932565b602082019050919050565b600060208201905081810360008301526149978161495b565b9050919050565b7f496e76616c696420776569676874730000000000000000000000000000000000600082015250565b60006149d4600f83613dcf565b91506149df8261499e565b602082019050919050565b60006020820190508181036000830152614a03816149c7565b9050919050565b7f4e6f20696e64657865732070726f766964656400000000000000000000000000600082015250565b6000614a40601383613dcf565b9150614a4b82614a0a565b602082019050919050565b60006020820190508181036000830152614a6f81614a33565b9050919050565b7f496e646578206f7574206f662072616e67650000000000000000000000000000600082015250565b6000614aac601283613dcf565b9150614ab782614a76565b602082019050919050565b60006020820190508181036000830152614adb81614a9f565b9050919050565b7f4e487b7100000000000000000000000000000000000000000000000000000000600052603160045260246000fd5b7f496e73756666696369656e742057465200000000000000000000000000000000600082015250565b6000614b47601083613dcf565b9150614b5282614b11565b602082019050919050565b60006020820190508181036000830152614b7681614b3a565b9050919050565b6000606082019050614b9260008301866138f3565b614b9f60208301856138f3565b614bac6040830184613bc3565b949350505050565b600081905092915050565b6000614bcb8385614bb4565b9350614bd8838584613ade565b82840190509392505050565b6000614bf1828486614bbf565b91508190509392505050565b7f4d656d6f20497320496e76616c696420457468657265756d2061646472657373600082015250565b6000614c33602083613dcf565b9150614c3e82614bfd565b602082019050919050565b60006020820190508181036000830152614c6281614c26565b9050919050565b7f496e76616c6964206465706f7369740000000000000000000000000000000000600082015250565b6000614c9f600f83613dcf565b9150614caa82614c69565b602082019050919050565b60006020820190508181036000830152614cce81614c92565b9050919050565b50565b6000614ce5600083613dcf565b9150614cf082614cd5565b600082019050919050565b6000604082019050614d106000830184613bc3565b8181036020830152614d2181614cd8565b905092915050565b614d3281613c29565b8114614d3d57600080fd5b50565b600081519050614d4f81614d29565b92915050565b600060208284031215614d6b57614d6a6139a1565b5b6000614d7984828501614d40565b91505092915050565b60006040820190508181036000830152614d9c8185613e0a565b9050614dab6020830184613bc3565b9392505050565b600081519050919050565b600081905092915050565b6000614dd382614db2565b614ddd8185614dbd565b9350614ded818560208601613de0565b80840191505092915050565b6000614e058284614dc8565b915081905092915050565b7f4e487b7100000000000000000000000000000000000000000000000000000000600052605160045260246000fdfea2646970667358221220db1df61c8958a755e302fe7b9dee29b05c3f7642f998dc01be81869284f58d0e64736f6c634300081c0033",
  "linkReferences": {},
  "deployedLinkReferences": {}
}