{
  "_format": "hh-sol-artifact-1",
  "contractName": "FundContract",
  "sourceName": "contracts/FundContract.sol",
  "abi": [
    {
      "inputs": [
        {
          "internalType": "address",
          "name": "target",
          "type": "address"
        }
      ],
      "name": "AddressEmptyCode",
      "type": "error"
    },
    {
      "inputs": [
        {
          "internalType": "address",
          "name": "implementation",
          "type": "address"
        }
      ],
      "name": "ERC1967InvalidImplementation",
      "type": "error"
    },
    {
      "inputs": [],
      "name": "ERC1967NonPayable",
      "type": "error"
    },
    {
      "inputs": [],
      "name": "FailedCall",
      "type": "error"
    },
    {
      "inputs": [],
      "name": "InvalidInitialization",
      "type": "error"
    },
    {
      "inputs": [],
      "name": "NotInitializing",
      "type": "error"
    },
    {
      "inputs": [
        {
          "internalType": "address",
          "name": "owner",
          "type": "address"
        }
      ],
      "name": "OwnableInvalidOwner",
      "type": "error"
    },
    {
      "inputs": [
        {
          "internalType": "address",
          "name": "account",
          "type": "address"
        }
      ],
      "name": "OwnableUnauthorizedAccount",
      "type": "error"
    },
    {
      "inputs": [],
      "name": "ReentrancyGuardReentrantCall",
      "type": "error"
    },
    {
      "inputs": [],
      "name": "UUPSUnauthorizedCallContext",
      "type": "error"
    },
    {
      "inputs": [
        {
          "internalType": "bytes32",
          "name": "slot",
          "type": "bytes32"
        }
      ],
      "name": "UUPSUnsupportedProxiableUUID",
      "type": "error"
    },
    {
      "anonymous": false,
      "inputs": [
        {
          "indexed": true,
          "internalType": "address",
          "name": "user",
          "type": "address"
        },
        {
          "indexed": false,
          "internalType": "uint256",
          "name": "amount",
          "type": "uint256"
        },
        {
          "indexed": false,
          "internalType": "string",
          "name": "memo",
          "type": "string"
        }
      ],
      "name": "Deposit",
      "type": "event"
    },
    {
      "anonymous": false,
      "inputs": [
        {
          "indexed": false,
          "internalType": "uint64",
          "name": "version",
          "type": "uint64"
        }
      ],
      "name": "Initialized",
      "type": "event"
    },
    {
      "anonymous": false,
      "inputs": [
        {
          "indexed": true,
          "internalType": "address",
          "name": "previousOwner",
          "type": "address"
        },
        {
          "indexed": true,
          "internalType": "address",
          "name": "newOwner",
          "type": "address"
        }
      ],
      "name": "OwnershipTransferred",
      "type": "event"
    },
    {
      "anonymous": false,
      "inputs": [
        {
          "indexed": false,
          "internalType": "uint256",
          "name": "feeAmount",
          "type": "uint256"
        },
        {
          "indexed": false,
          "internalType": "uint256",
          "name": "sharesToMint",
          "type": "uint256"
        },
        {
          "indexed": false,
          "internalType": "address",
          "name": "treasury",
          "type": "address"
        }
      ],
      "name": "ProtocolFeesCollected",
      "type": "event"
    },
    {
      "anonymous": false,
      "inputs": [
        {
          "indexed": false,
          "internalType": "uint256",
          "name": "start",
          "type": "uint256"
        },
        {
          "indexed": false,
          "internalType": "uint256",
          "name": "end",
          "type": "uint256"
        }
      ],
      "name": "RedemptionProcessed",
      "type": "event"
    },
    {
      "anonymous": false,
      "inputs": [
        {
          "indexed": true,
          "internalType": "address",
          "name": "implementation",
          "type": "address"
        }
      ],
      "name": "Upgraded",
      "type": "event"
    },
    {
      "inputs": [],
      "name": "UPGRADE_INTERFACE_VERSION",
      "outputs": [
        {
          "internalType": "string",
          "name": "",
          "type": "string"
        }
      ],
      "stateMutability": "view",
      "type": "function"
    },
    {
      "inputs": [
        {
          "internalType": "address",
          "name": "_strategy",
          "type": "address"
        },
        {
          "internalType": "uint256",
          "name": "_weight",
          "type": "uint256"
        }
      ],
      "name": "addStrategy",
      "outputs": [],
      "stateMutability": "nonpayable",
      "type": "function"
    },
    {
      "inputs": [],
      "name": "collectProtocolFees",
      "outputs": [
        {
          "internalType": "uint256",
          "name": "",
          "type": "uint256"
        }
      ],
      "stateMutability": "nonpayable",
      "type": "function"
    },
    {
      "inputs": [],
      "name": "deployCapital",
      "outputs": [],
      "stateMutability": "nonpayable",
      "type": "function"
    },
    {
      "inputs": [
        {
          "internalType": "uint256",
          "name": "amount",
          "type": "uint256"
        },
        {
          "internalType": "string",
          "name": "userMemo",
          "type": "string"
        }
      ],
      "name": "deposit",
      "outputs": [],
      "stateMutability": "nonpayable",
      "type": "function"
    },
    {
      "inputs": [],
      "name": "fundPrincipleAfterFees",
      "outputs": [
        {
          "internalType": "uint256",
          "name": "",
          "type": "uint256"
        }
      ],
      "stateMutability": "view",
      "type": "function"
    },
    {
      "inputs": [],
      "name": "getPendingFees",
      "outputs": [
        {
          "internalType": "uint256",
          "name": "",
          "type": "uint256"
        }
      ],
      "stateMutability": "view",
      "type": "function"
    },
    {
      "inputs": [],
      "name": "getRedemptionQueue",
      "outputs": [
        {
          "components": [
            {
              "internalType": "address",
              "name": "user",
              "type": "address"
            },
            {
              "internalType": "uint256",
              "name": "amount",
              "type": "uint256"
            }
          ],
          "internalType": "struct FundContract.RedemptionRequest[]",
          "name": "",
          "type": "tuple[]"
        }
      ],
      "stateMutability": "view",
      "type": "function"
    },
    {
      "inputs": [],
      "name": "getStrategies",
      "outputs": [
        {
          "components": [
            {
              "internalType": "address",
              "name": "strategyAddress",
              "type": "address"
            },
            {
              "internalType": "string",
              "name": "strategyName",
              "type": "string"
            },
            {
              "internalType": "uint256",
              "name": "strategyWeight",
              "type": "uint256"
            },
            {
              "internalType": "uint256",
              "name": "value",
              "type": "uint256"
            }
          ],
          "internalType": "struct FundContract.StrategyInfo[]",
          "name": "",
          "type": "tuple[]"
        }
      ],
      "stateMutability": "view",
      "type": "function"
    },
    {
      "inputs": [
        {
          "internalType": "address",
          "name": "_usdc",
          "type": "address"
        },
        {
          "internalType": "address",
          "name": "_wfrToken",
          "type": "address"
        }
      ],
      "name": "initialize",
      "outputs": [],
      "stateMutability": "nonpayable",
      "type": "function"
    },
    {
      "inputs": [],
      "name": "owner",
      "outputs": [
        {
          "internalType": "address",
          "name": "",
          "type": "address"
        }
      ],
      "stateMutability": "view",
      "type": "function"
    },
    {
      "inputs": [
        {
          "internalType": "uint256",
          "name": "start",
          "type": "uint256"
        },
        {
          "internalType": "uint256",
          "name": "batchSize",
          "type": "uint256"
        }
      ],
      "name": "processRedemptionsBatch",
      "outputs": [],
      "stateMutability": "nonpayable",
      "type": "function"
    },
    {
      "inputs": [],
      "name": "protocolFee",
      "outputs": [
        {
          "internalType": "uint256",
          "name": "",
          "type": "uint256"
        }
      ],
      "stateMutability": "view",
      "type": "function"
    },
    {
      "inputs": [],
      "name": "proxiableUUID",
      "outputs": [
        {
          "internalType": "bytes32",
          "name": "",
          "type": "bytes32"
        }
      ],
      "stateMutability": "view",
      "type": "function"
    },
    {
      "inputs": [
        {
          "internalType": "uint256",
          "name": "",
          "type": "uint256"
        }
      ],
      "name": "redemptionQueue",
      "outputs": [
        {
          "internalType": "address",
          "name": "user",
          "type": "address"
        },
        {
          "internalType": "uint256",
          "name": "amount",
          "type": "uint256"
        }
      ],
      "stateMutability": "view",
      "type": "function"
    },
    {
      "inputs": [
        {
          "internalType": "uint256[]",
          "name": "indexes",
          "type": "uint256[]"
        }
      ],
      "name": "removeStrategies",
      "outputs": [],
      "stateMutability": "nonpayable",
      "type": "function"
    },
    {
      "inputs": [],
      "name": "renounceOwnership",
      "outputs": [],
      "stateMutability": "nonpayable",
      "type": "function"
    },
    {
      "inputs": [
        {
          "internalType": "uint256",
          "name": "amount",
          "type": "uint256"
        }
      ],
      "name": "requestRedemption",
      "outputs": [],
      "stateMutability": "nonpayable",
      "type": "function"
    },
    {
      "inputs": [
        {
          "internalType": "uint256[]",
          "name": "_weights",
          "type": "uint256[]"
        }
      ],
      "name": "setStrategyWeights",
      "outputs": [],
      "stateMutability": "nonpayable",
      "type": "function"
    },
    {
      "inputs": [
        {
          "internalType": "address",
          "name": "_manager",
          "type": "address"
        }
      ],
      "name": "setTreasuryManager",
      "outputs": [],
      "stateMutability": "nonpayable",
      "type": "function"
    },
    {
      "inputs": [
        {
          "internalType": "address",
          "name": "_addr",
          "type": "address"
        },
        {
          "internalType": "bool",
          "name": "_allowed",
          "type": "bool"
        }
      ],
      "name": "setWhitelist",
      "outputs": [],
      "stateMutability": "nonpayable",
      "type": "function"
    },
    {
      "inputs": [
        {
          "internalType": "uint256",
          "name": "",
          "type": "uint256"
        }
      ],
      "name": "strategies",
      "outputs": [
        {
          "internalType": "contract IStrategy",
          "name": "",
          "type": "address"
        }
      ],
      "stateMutability": "view",
      "type": "function"
    },
    {
      "inputs": [
        {
          "internalType": "uint256",
          "name": "",
          "type": "uint256"
        }
      ],
      "name": "strategyWeights",
      "outputs": [
        {
          "internalType": "uint256",
          "name": "",
          "type": "uint256"
        }
      ],
      "stateMutability": "view",
      "type": "function"
    },
    {
      "inputs": [
        {
          "internalType": "address",
          "name": "newOwner",
          "type": "address"
        }
      ],
      "name": "transferOwnership",
      "outputs": [],
      "stateMutability": "nonpayable",
      "type": "function"
    },
    {
      "inputs": [],
      "name": "treasury",
      "outputs": [
        {
          "internalType": "address",
          "name": "",
          "type": "address"
        }
      ],
      "stateMutability": "view",
      "type": "function"
    },
    {
      "inputs": [],
      "name": "treasuryManager",
      "outputs": [
        {
          "internalType": "address",
          "name": "",
          "type": "address"
        }
      ],
      "stateMutability": "view",
      "type": "function"
    },
    {
      "inputs": [
        {
          "internalType": "address",
          "name": "_newTreasury",
          "type": "address"
        }
      ],
      "name": "updateTreasury",
      "outputs": [],
      "stateMutability": "nonpayable",
      "type": "function"
    },
    {
      "inputs": [
        {
          "internalType": "address",
          "name": "newImplementation",
          "type": "address"
        },
        {
          "internalType": "bytes",
          "name": "data",
          "type": "bytes"
        }
      ],
      "name": "upgradeToAndCall",
      "outputs": [],
      "stateMutability": "payable",
      "type": "function"
    },
    {
      "inputs": [],
      "name": "usdc",
      "outputs": [
        {
          "internalType": "contract IERC20",
          "name": "",
          "type": "address"
        }
      ],
      "stateMutability": "view",
      "type": "function"
    },
    {
      "inputs": [],
      "name": "wfrToken",
      "outputs": [
        {
          "internalType": "contract WFRToken",
          "name": "",
          "type": "address"
        }
      ],
      "stateMutability": "view",
      "type": "function"
    },
    {
      "inputs": [
        {
          "internalType": "address",
          "name": "",
          "type": "address"
        }
      ],
      "name": "whitelisted",
      "outputs": [
        {
          "internalType": "bool",
          "name": "",
          "type": "bool"
        }
      ],
      "stateMutability": "view",
      "type": "function"
    }
  ],
  "bytecode": "0x60a06040523073ffffffffffffffffffffffffffffffffffffffff1660809073ffffffffffffffffffffffffffffffffffffffff16815250348015604257600080fd5b506080516150fb61006c60003960008181612cf001528181612d450152612f0001526150fb6000f3fe6080604052600436106101d85760003560e01c80639700b14711610102578063cea6a0ee11610095578063eeb3c91011610064578063eeb3c9101461066a578063f1215d2514610693578063f2fde38b146106bc578063fe47a9f2146106e5576101d8565b8063cea6a0ee1461059c578063d574ea3d146105c7578063d936547e14610604578063dd435c2d14610641576101d8565b8063b49a60bb116100d1578063b49a60bb146104f4578063c51c2d0e1461051f578063c8bd63361461054a578063c9411e2214610573576101d8565b80639700b1471461044a578063a1af5b9a14610473578063ad3cb1cc1461049e578063b0e21e8a146104c9576101d8565b806352d1902d1161017a5780637ad51f7e116101495780637ad51f7e1461037b5780637f51bb1f146103b95780638da5cb5b146103e25780638e6c8ab31461040d576101d8565b806352d1902d146102e557806353d6fd591461031057806361d027b314610339578063715018a614610364576101d8565b80634d85f00f116101b65780634d85f00f1461025c5780634f1ef286146102735780634f6b5c471461028f578063505cbc0b146102ba576101d8565b80633cea70d9146101dd5780633e413bee14610208578063485cc95514610233575b600080fd5b3480156101e957600080fd5b506101f261070e565b6040516101ff9190613a77565b60405180910390f35b34801561021457600080fd5b5061021d610734565b60405161022a9190613af1565b60405180910390f35b34801561023f57600080fd5b5061025a60048036038101906102559190613b4c565b610758565b005b34801561026857600080fd5b50610271610a1a565b005b61028d60048036038101906102889190613cd2565b610d7c565b005b34801561029b57600080fd5b506102a4610d9b565b6040516102b19190613d47565b60405180910390f35b3480156102c657600080fd5b506102cf610da1565b6040516102dc9190613d83565b60405180910390f35b3480156102f157600080fd5b506102fa610dc7565b6040516103079190613db7565b60405180910390f35b34801561031c57600080fd5b5061033760048036038101906103329190613e0a565b610dfa565b005b34801561034557600080fd5b5061034e610ecc565b60405161035b9190613a77565b60405180910390f35b34801561037057600080fd5b50610379610ef2565b005b34801561038757600080fd5b506103a2600480360381019061039d9190613e76565b610f06565b6040516103b0929190613ea3565b60405180910390f35b3480156103c557600080fd5b506103e060048036038101906103db9190613ecc565b610f5a565b005b3480156103ee57600080fd5b506103f76110da565b6040516104049190613a77565b60405180910390f35b34801561041957600080fd5b50610434600480360381019061042f9190613e76565b611112565b6040516104419190613d47565b60405180910390f35b34801561045657600080fd5b50610471600480360381019061046c9190613ef9565b611136565b005b34801561047f57600080fd5b5061048861167e565b6040516104959190613d47565b60405180910390f35b3480156104aa57600080fd5b506104b36119a9565b6040516104c09190613fb8565b60405180910390f35b3480156104d557600080fd5b506104de6119e2565b6040516104eb9190613d47565b60405180910390f35b34801561050057600080fd5b506105096119e8565b6040516105169190614167565b60405180910390f35b34801561052b57600080fd5b50610534611cc6565b6040516105419190613d47565b60405180910390f35b34801561055657600080fd5b50610571600480360381019061056c91906141e9565b611d1a565b005b34801561057f57600080fd5b5061059a60048036038101906105959190614236565b611f15565b005b3480156105a857600080fd5b506105b16121c3565b6040516105be9190614354565b60405180910390f35b3480156105d357600080fd5b506105ee60048036038101906105e99190613e76565b612282565b6040516105fb9190614397565b60405180910390f35b34801561061057600080fd5b5061062b60048036038101906106269190613ecc565b6122c1565b60405161063891906143c1565b60405180910390f35b34801561064d57600080fd5b50610668600480360381019061066391906141e9565b6122e1565b005b34801561067657600080fd5b50610691600480360381019061068c9190613e76565b61260f565b005b34801561069f57600080fd5b506106ba60048036038101906106b59190614432565b61284c565b005b3480156106c857600080fd5b506106e360048036038101906106de9190613ecc565b612ae5565b005b3480156106f157600080fd5b5061070c60048036038101906107079190613ecc565b612b6b565b005b600760009054906101000a900473ffffffffffffffffffffffffffffffffffffffff1681565b60008054906101000a900473ffffffffffffffffffffffffffffffffffffffff1681565b6000610762612c26565b905060008160000160089054906101000a900460ff1615905060008260000160009054906101000a900467ffffffffffffffff1690506000808267ffffffffffffffff161480156107b05750825b9050600060018367ffffffffffffffff161480156107e5575060003073ffffffffffffffffffffffffffffffffffffffff163b145b9050811580156107f3575080155b1561082a576040517ff92ee8a900000000000000000000000000000000000000000000000000000000815260040160405180910390fd5b60018560000160006101000a81548167ffffffffffffffff021916908367ffffffffffffffff160217905550831561087a5760018560000160086101000a81548160ff0219169083151502179055505b61088333612c4e565b61088b612c62565b610893612c6c565b866000806101000a81548173ffffffffffffffffffffffffffffffffffffffff021916908373ffffffffffffffffffffffffffffffffffffffff16021790555085600160006101000a81548173ffffffffffffffffffffffffffffffffffffffff021916908373ffffffffffffffffffffffffffffffffffffffff160217905550600a6005819055506001600960003373ffffffffffffffffffffffffffffffffffffffff1673ffffffffffffffffffffffffffffffffffffffff16815260200190815260200160002060006101000a81548160ff02191690831515021790555033600660006101000a81548173ffffffffffffffffffffffffffffffffffffffff021916908373ffffffffffffffffffffffffffffffffffffffff1602179055508315610a115760008560000160086101000a81548160ff0219169083151502179055507fc7f505b2f371ae2175ee4913f4499e1f2633a7b5936321eed1cdaeb6115181d26001604051610a0891906144e1565b60405180910390a15b50505050505050565b3373ffffffffffffffffffffffffffffffffffffffff16610a396110da565b73ffffffffffffffffffffffffffffffffffffffff161480610aa45750600960003373ffffffffffffffffffffffffffffffffffffffff1673ffffffffffffffffffffffffffffffffffffffff16815260200190815260200160002060009054906101000a900460ff165b610ae3576040517f08c379a0000000000000000000000000000000000000000000000000000000008152600401610ada90614548565b60405180910390fd5b610aeb612c7e565b60038054905060028054905014610b37576040517f08c379a0000000000000000000000000000000000000000000000000000000008152600401610b2e906145da565b60405180910390fd5b60008060009054906101000a900473ffffffffffffffffffffffffffffffffffffffff1673ffffffffffffffffffffffffffffffffffffffff166370a08231306040518263ffffffff1660e01b8152600401610b939190613a77565b602060405180830381865afa158015610bb0573d6000803e3d6000fd5b505050506040513d601f19601f82011682018060405250810190610bd4919061460f565b90506000805b600380549050811015610c205760038181548110610bfb57610bfa61463c565b5b906000526020600020015482610c11919061469a565b91508080600101915050610bda565b5060008103610c30575050610d72565b60005b600280549050811015610d6e5760008260038381548110610c5757610c5661463c565b5b906000526020600020015485610c6d91906146ce565b610c77919061473f565b90506000811115610d605760008054906101000a900473ffffffffffffffffffffffffffffffffffffffff1673ffffffffffffffffffffffffffffffffffffffff1663095ea7b360028481548110610cd257610cd161463c565b5b9060005260206000200160009054906101000a900473ffffffffffffffffffffffffffffffffffffffff16836040518363ffffffff1660e01b8152600401610d1b929190613ea3565b6020604051808303816000875af1158015610d3a573d6000803e3d6000fd5b505050506040513d601f19601f82011682018060405250810190610d5e9190614785565b505b508080600101915050610c33565b5050505b610d7a612cd5565b565b610d84612cee565b610d8d82612dd4565b610d978282612ddf565b5050565b60045481565b600160009054906101000a900473ffffffffffffffffffffffffffffffffffffffff1681565b6000610dd1612efe565b7f360894a13ba1a3210667c828492db98dca3e2076cc3735a920a3ca505d382bbc60001b905090565b610e02612f85565b600073ffffffffffffffffffffffffffffffffffffffff168273ffffffffffffffffffffffffffffffffffffffff1603610e71576040517f08c379a0000000000000000000000000000000000000000000000000000000008152600401610e68906147fe565b60405180910390fd5b80600960008473ffffffffffffffffffffffffffffffffffffffff1673ffffffffffffffffffffffffffffffffffffffff16815260200190815260200160002060006101000a81548160ff0219169083151502179055505050565b600660009054906101000a900473ffffffffffffffffffffffffffffffffffffffff1681565b610efa612f85565b610f04600061300c565b565b60088181548110610f1657600080fd5b90600052602060002090600202016000915090508060000160009054906101000a900473ffffffffffffffffffffffffffffffffffffffff16908060010154905082565b600760009054906101000a900473ffffffffffffffffffffffffffffffffffffffff1673ffffffffffffffffffffffffffffffffffffffff163373ffffffffffffffffffffffffffffffffffffffff161480610fe85750610fb96110da565b73ffffffffffffffffffffffffffffffffffffffff163373ffffffffffffffffffffffffffffffffffffffff16145b611027576040517f08c379a000000000000000000000000000000000000000000000000000000000815260040161101e90614548565b60405180910390fd5b600073ffffffffffffffffffffffffffffffffffffffff168173ffffffffffffffffffffffffffffffffffffffff1603611096576040517f08c379a000000000000000000000000000000000000000000000000000000000815260040161108d906147fe565b60405180910390fd5b80600660006101000a81548173ffffffffffffffffffffffffffffffffffffffff021916908373ffffffffffffffffffffffffffffffffffffffff16021790555050565b6000806110e56130e3565b90508060000160009054906101000a900473ffffffffffffffffffffffffffffffffffffffff1691505090565b6003818154811061112257600080fd5b906000526020600020016000915090505481565b3373ffffffffffffffffffffffffffffffffffffffff166111556110da565b73ffffffffffffffffffffffffffffffffffffffff1614806111c05750600960003373ffffffffffffffffffffffffffffffffffffffff1673ffffffffffffffffffffffffffffffffffffffff16815260200190815260200160002060009054906101000a900460ff165b6111ff576040517f08c379a00000000000000000000000000000000000000000000000000000000081526004016111f690614548565b60405180910390fd5b611207612c7e565b6000600880549050031561167257600061121f61310b565b905060045481111561129e573073ffffffffffffffffffffffffffffffffffffffff1663a1af5b9a6040518163ffffffff1660e01b81526004016020604051808303816000875af1158015611278573d6000803e3d6000fd5b505050506040513d601f19601f8201168201806040525081019061129c919061460f565b505b60088054905083106112e5576040517f08c379a00000000000000000000000000000000000000000000000000000000081526004016112dc9061486a565b60405180910390fd5b600082846112f3919061469a565b905060088054905081111561130b5760088054905090505b6000600160009054906101000a900473ffffffffffffffffffffffffffffffffffffffff1673ffffffffffffffffffffffffffffffffffffffff166318160ddd6040518163ffffffff1660e01b8152600401602060405180830381865afa15801561137a573d6000803e3d6000fd5b505050506040513d601f19601f8201168201806040525081019061139e919061460f565b9050600081116113e3576040517f08c379a00000000000000000000000000000000000000000000000000000000081526004016113da906148d6565b60405180910390fd5b60008590505b82811015611626576000600882815481106114075761140661463c565b5b90600052602060002090600202016040518060400160405290816000820160009054906101000a900473ffffffffffffffffffffffffffffffffffffffff1673ffffffffffffffffffffffffffffffffffffffff1673ffffffffffffffffffffffffffffffffffffffff168152602001600182015481525050905060008160200151036114945750611619565b60008160200151905060008482886114ac91906146ce565b6114b6919061473f565b9050600160009054906101000a900473ffffffffffffffffffffffffffffffffffffffff1673ffffffffffffffffffffffffffffffffffffffff16639dc29fac30846040518363ffffffff1660e01b8152600401611515929190613ea3565b600060405180830381600087803b15801561152f57600080fd5b505af1158015611543573d6000803e3d6000fd5b5050505060008054906101000a900473ffffffffffffffffffffffffffffffffffffffff1673ffffffffffffffffffffffffffffffffffffffff1663a9059cbb8460000151836040518363ffffffff1660e01b81526004016115a6929190613ea3565b6020604051808303816000875af11580156115c5573d6000803e3d6000fd5b505050506040513d601f19601f820116820180604052508101906115e99190614785565b50600060088581548110611600576115ff61463c565b5b9060005260206000209060020201600101819055505050505b80806001019150506113e9565b5061162f61310b565b6004819055507f527e7d9d8ce9e973d15d3e7199e5c2453a068c50ce4160e5b9d2056205e9130785836040516116669291906148f6565b60405180910390a15050505b61167a612cd5565b5050565b60003373ffffffffffffffffffffffffffffffffffffffff1661169f6110da565b73ffffffffffffffffffffffffffffffffffffffff16148061170a5750600960003373ffffffffffffffffffffffffffffffffffffffff1673ffffffffffffffffffffffffffffffffffffffff16815260200190815260200160002060009054906101000a900460ff165b611749576040517f08c379a000000000000000000000000000000000000000000000000000000000815260040161174090614548565b60405180910390fd5b611751612c7e565b600061175b61310b565b905060045481116117a1576040517f08c379a00000000000000000000000000000000000000000000000000000000081526004016117989061496b565b60405180910390fd5b6000600454826117b1919061498b565b905060006064600554836117c591906146ce565b6117cf919061473f565b90506000600160009054906101000a900473ffffffffffffffffffffffffffffffffffffffff1673ffffffffffffffffffffffffffffffffffffffff166318160ddd6040518163ffffffff1660e01b8152600401602060405180830381865afa158015611840573d6000803e3d6000fd5b505050506040513d601f19601f82011682018060405250810190611864919061460f565b9050600084828461187591906146ce565b61187f919061473f565b9050600160009054906101000a900473ffffffffffffffffffffffffffffffffffffffff1673ffffffffffffffffffffffffffffffffffffffff166340c10f19600660009054906101000a900473ffffffffffffffffffffffffffffffffffffffff16836040518363ffffffff1660e01b8152600401611900929190613ea3565b600060405180830381600087803b15801561191a57600080fd5b505af115801561192e573d6000803e3d6000fd5b50505050846004819055507f8b608af848fa93b72e30fcc7b0c8c8307da3e494b0121ad48e44fbaf09fd08e38382600660009054906101000a900473ffffffffffffffffffffffffffffffffffffffff1660405161198e939291906149bf565b60405180910390a180955050505050506119a6612cd5565b90565b6040518060400160405280600581526020017f352e302e3000000000000000000000000000000000000000000000000000000081525081565b60055481565b606060038054905060028054905014611a36576040517f08c379a0000000000000000000000000000000000000000000000000000000008152600401611a2d90614a42565b60405180910390fd5b600060028054905067ffffffffffffffff811115611a5757611a56613ba7565b5b604051908082528060200260200182016040528015611a9057816020015b611a7d6139ee565b815260200190600190039081611a755790505b50905060005b600280549050811015611cbe57604051806080016040528060028381548110611ac257611ac161463c565b5b9060005260206000200160009054906101000a900473ffffffffffffffffffffffffffffffffffffffff1673ffffffffffffffffffffffffffffffffffffffff16815260200160028381548110611b1c57611b1b61463c565b5b9060005260206000200160009054906101000a900473ffffffffffffffffffffffffffffffffffffffff1673ffffffffffffffffffffffffffffffffffffffff1663e173ad256040518163ffffffff1660e01b8152600401600060405180830381865afa158015611b91573d6000803e3d6000fd5b505050506040513d6000823e3d601f19601f82011682018060405250810190611bba9190614b03565b815260200160038381548110611bd357611bd261463c565b5b9060005260206000200154815260200160028381548110611bf757611bf661463c565b5b9060005260206000200160009054906101000a900473ffffffffffffffffffffffffffffffffffffffff1673ffffffffffffffffffffffffffffffffffffffff1663d4c3eea06040518163ffffffff1660e01b8152600401602060405180830381865afa158015611c6c573d6000803e3d6000fd5b505050506040513d601f19601f82011682018060405250810190611c90919061460f565b815250828281518110611ca657611ca561463c565b5b60200260200101819052508080600101915050611a96565b508091505090565b600080611cd161310b565b90506004548111611ce6576000915050611d17565b600060045482611cf6919061498b565b9050606460055482611d0891906146ce565b611d12919061473f565b925050505b90565b3373ffffffffffffffffffffffffffffffffffffffff16611d396110da565b73ffffffffffffffffffffffffffffffffffffffff161480611da45750600960003373ffffffffffffffffffffffffffffffffffffffff1673ffffffffffffffffffffffffffffffffffffffff16815260200190815260200160002060009054906101000a900460ff165b611de3576040517f08c379a0000000000000000000000000000000000000000000000000000000008152600401611dda90614548565b60405180910390fd5b6002805490508282905014611e2d576040517f08c379a0000000000000000000000000000000000000000000000000000000008152600401611e2490614b98565b60405180910390fd5b600080600090505b83839050811015611e7457838382818110611e5357611e5261463c565b5b9050602002013582611e65919061469a565b91508080600101915050611e35565b5060008111611eb8576040517f08c379a0000000000000000000000000000000000000000000000000000000008152600401611eaf90614c04565b60405180910390fd5b60005b83839050811015611f0f57838382818110611ed957611ed861463c565b5b9050602002013560038281548110611ef457611ef361463c565b5b90600052602060002001819055508080600101915050611ebb565b50505050565b3373ffffffffffffffffffffffffffffffffffffffff16611f346110da565b73ffffffffffffffffffffffffffffffffffffffff161480611f9f5750600960003373ffffffffffffffffffffffffffffffffffffffff1673ffffffffffffffffffffffffffffffffffffffff16815260200190815260200160002060009054906101000a900460ff165b611fde576040517f08c379a0000000000000000000000000000000000000000000000000000000008152600401611fd590614548565b60405180910390fd5b8173ffffffffffffffffffffffffffffffffffffffff1663e173ad256040518163ffffffff1660e01b8152600401600060405180830381865afa92505050801561204b57506040513d6000823e3d601f19601f820116820180604052508101906120489190614b03565b60015b61208a576040517f08c379a000000000000000000000000000000000000000000000000000000000815260040161208190614c70565b60405180910390fd5b508173ffffffffffffffffffffffffffffffffffffffff1663d4c3eea06040518163ffffffff1660e01b8152600401602060405180830381865afa9250505080156120f357506040513d601f19601f820116820180604052508101906120f0919061460f565b60015b612132576040517f08c379a000000000000000000000000000000000000000000000000000000000815260040161212990614c70565b60405180910390fd5b506002829080600181540180825580915050600190039060005260206000200160009091909190916101000a81548173ffffffffffffffffffffffffffffffffffffffff021916908373ffffffffffffffffffffffffffffffffffffffff16021790555060038190806001815401808255809150506001900390600052602060002001600090919091909150555050565b60606008805480602002602001604051908101604052809291908181526020016000905b8282101561227957838290600052602060002090600202016040518060400160405290816000820160009054906101000a900473ffffffffffffffffffffffffffffffffffffffff1673ffffffffffffffffffffffffffffffffffffffff1673ffffffffffffffffffffffffffffffffffffffff168152602001600182015481525050815260200190600101906121e7565b50505050905090565b6002818154811061229257600080fd5b906000526020600020016000915054906101000a900473ffffffffffffffffffffffffffffffffffffffff1681565b60096020528060005260406000206000915054906101000a900460ff1681565b3373ffffffffffffffffffffffffffffffffffffffff166123006110da565b73ffffffffffffffffffffffffffffffffffffffff16148061236b5750600960003373ffffffffffffffffffffffffffffffffffffffff1673ffffffffffffffffffffffffffffffffffffffff16815260200190815260200160002060009054906101000a900460ff165b6123aa576040517f08c379a00000000000000000000000000000000000000000000000000000000081526004016123a190614548565b60405180910390fd5b600082829050116123f0576040517f08c379a00000000000000000000000000000000000000000000000000000000081526004016123e790614cdc565b60405180910390fd5b60005b8282905081101561260a576002805490508383838181106124175761241661463c565b5b905060200201351061245e576040517f08c379a000000000000000000000000000000000000000000000000000000000815260040161245590614d48565b60405180910390fd5b60026001600280549050612472919061498b565b815481106124835761248261463c565b5b9060005260206000200160009054906101000a900473ffffffffffffffffffffffffffffffffffffffff1660028484848181106124c3576124c261463c565b5b90506020020135815481106124db576124da61463c565b5b9060005260206000200160006101000a81548173ffffffffffffffffffffffffffffffffffffffff021916908373ffffffffffffffffffffffffffffffffffffffff160217905550600280548061253557612534614d68565b5b6001900381819060005260206000200160006101000a81549073ffffffffffffffffffffffffffffffffffffffff021916905590556003600160038054905061257e919061498b565b8154811061258f5761258e61463c565b5b906000526020600020015460038484848181106125af576125ae61463c565b5b90506020020135815481106125c7576125c661463c565b5b906000526020600020018190555060038054806125e7576125e6614d68565b5b6001900381819060005260206000200160009055905580806001019150506123f3565b505050565b612617612c7e565b80600160009054906101000a900473ffffffffffffffffffffffffffffffffffffffff1673ffffffffffffffffffffffffffffffffffffffff166370a08231336040518263ffffffff1660e01b81526004016126739190613a77565b602060405180830381865afa158015612690573d6000803e3d6000fd5b505050506040513d601f19601f820116820180604052508101906126b4919061460f565b10156126f5576040517f08c379a00000000000000000000000000000000000000000000000000000000081526004016126ec90614de3565b60405180910390fd5b600160009054906101000a900473ffffffffffffffffffffffffffffffffffffffff1673ffffffffffffffffffffffffffffffffffffffff166323b872dd3330846040518463ffffffff1660e01b815260040161275493929190614e03565b6020604051808303816000875af1158015612773573d6000803e3d6000fd5b505050506040513d601f19601f820116820180604052508101906127979190614785565b50600860405180604001604052803373ffffffffffffffffffffffffffffffffffffffff16815260200183815250908060018154018082558091505060019003906000526020600020906002020160009091909190915060008201518160000160006101000a81548173ffffffffffffffffffffffffffffffffffffffff021916908373ffffffffffffffffffffffffffffffffffffffff160217905550602082015181600101555050612849612cd5565b50565b612854612c7e565b60003390506000838390501115612903578282604051602001612878929190614e6a565b6040516020818303038152906040528051906020012060001c9050600073ffffffffffffffffffffffffffffffffffffffff168173ffffffffffffffffffffffffffffffffffffffff1603612902576040517f08c379a00000000000000000000000000000000000000000000000000000000081526004016128f990614ecf565b60405180910390fd5b5b60008411612946576040517f08c379a000000000000000000000000000000000000000000000000000000000815260040161293d90614f3b565b60405180910390fd5b60008054906101000a900473ffffffffffffffffffffffffffffffffffffffff1673ffffffffffffffffffffffffffffffffffffffff166323b872dd3330876040518463ffffffff1660e01b81526004016129a393929190614e03565b6020604051808303816000875af11580156129c2573d6000803e3d6000fd5b505050506040513d601f19601f820116820180604052508101906129e69190614785565b506129f18482613298565b612a2f6040518060400160405280600681526020017f6d696e7465640000000000000000000000000000000000000000000000000000815250613406565b8360046000828254612a41919061469a565b92505081905550612a896040518060400160405280601681526020017f66756e645072696e6369706c654166746572466565730000000000000000000081525060045461349f565b3373ffffffffffffffffffffffffffffffffffffffff167f643e927b32d5bfd08eccd2fcbd97057ad413850f857a2359639114e8e8dd3d7b85604051612acf9190614f81565b60405180910390a250612ae0612cd5565b505050565b612aed612f85565b600073ffffffffffffffffffffffffffffffffffffffff168173ffffffffffffffffffffffffffffffffffffffff1603612b5f5760006040517f1e4fbdf7000000000000000000000000000000000000000000000000000000008152600401612b569190613a77565b60405180910390fd5b612b688161300c565b50565b612b73612f85565b600073ffffffffffffffffffffffffffffffffffffffff168173ffffffffffffffffffffffffffffffffffffffff1603612be2576040517f08c379a0000000000000000000000000000000000000000000000000000000008152600401612bd9906147fe565b60405180910390fd5b80600760006101000a81548173ffffffffffffffffffffffffffffffffffffffff021916908373ffffffffffffffffffffffffffffffffffffffff16021790555050565b60007ff0c57e16840df040f15088dc2f81fe391c3923bec73e23a9662efc9c229c6a00905090565b612c5661353b565b612c5f8161357b565b50565b612c6a61353b565b565b612c7461353b565b612c7c613601565b565b6000612c88613622565b90506002816000015403612cc8576040517f3ee5aeb500000000000000000000000000000000000000000000000000000000815260040160405180910390fd5b6002816000018190555050565b6000612cdf613622565b90506001816000018190555050565b7f000000000000000000000000000000000000000000000000000000000000000073ffffffffffffffffffffffffffffffffffffffff163073ffffffffffffffffffffffffffffffffffffffff161480612d9b57507f000000000000000000000000000000000000000000000000000000000000000073ffffffffffffffffffffffffffffffffffffffff16612d8261364a565b73ffffffffffffffffffffffffffffffffffffffff1614155b15612dd2576040517fe07c8dba00000000000000000000000000000000000000000000000000000000815260040160405180910390fd5b565b612ddc612f85565b50565b8173ffffffffffffffffffffffffffffffffffffffff166352d1902d6040518163ffffffff1660e01b8152600401602060405180830381865afa925050508015612e4757506040513d601f19601f82011682018060405250810190612e449190614fdb565b60015b612e8857816040517f4c9c8ce3000000000000000000000000000000000000000000000000000000008152600401612e7f9190613a77565b60405180910390fd5b7f360894a13ba1a3210667c828492db98dca3e2076cc3735a920a3ca505d382bbc60001b8114612eef57806040517faa1d49a4000000000000000000000000000000000000000000000000000000008152600401612ee69190613db7565b60405180910390fd5b612ef983836136a1565b505050565b7f000000000000000000000000000000000000000000000000000000000000000073ffffffffffffffffffffffffffffffffffffffff163073ffffffffffffffffffffffffffffffffffffffff1614612f83576040517fe07c8dba00000000000000000000000000000000000000000000000000000000815260040160405180910390fd5b565b612f8d613714565b73ffffffffffffffffffffffffffffffffffffffff16612fab6110da565b73ffffffffffffffffffffffffffffffffffffffff161461300a57612fce613714565b6040517f118cdaa70000000000000000000000000000000000000000000000000000000081526004016130019190613a77565b60405180910390fd5b565b60006130166130e3565b905060008160000160009054906101000a900473ffffffffffffffffffffffffffffffffffffffff169050828260000160006101000a81548173ffffffffffffffffffffffffffffffffffffffff021916908373ffffffffffffffffffffffffffffffffffffffff1602179055508273ffffffffffffffffffffffffffffffffffffffff168173ffffffffffffffffffffffffffffffffffffffff167f8be0079c531659141344cd1fd0a4f28419497f9722a3daafe3b4186f6b6457e060405160405180910390a3505050565b60007f9016d09d72d40fdae2fd8ceac6b6234c7706214fd39c1cd1e609a0528c199300905090565b6000806000905060005b6002805490508110156131e957600281815481106131365761313561463c565b5b9060005260206000200160009054906101000a900473ffffffffffffffffffffffffffffffffffffffff1673ffffffffffffffffffffffffffffffffffffffff1663d4c3eea06040518163ffffffff1660e01b8152600401602060405180830381865afa1580156131ab573d6000803e3d6000fd5b505050506040513d601f19601f820116820180604052508101906131cf919061460f565b826131da919061469a565b91508080600101915050613115565b5060008054906101000a900473ffffffffffffffffffffffffffffffffffffffff1673ffffffffffffffffffffffffffffffffffffffff166370a08231306040518263ffffffff1660e01b81526004016132439190613a77565b602060405180830381865afa158015613260573d6000803e3d6000fd5b505050506040513d601f19601f82011682018060405250810190613284919061460f565b8161328f919061469a565b90508091505090565b60006132a261310b565b90506000600160009054906101000a900473ffffffffffffffffffffffffffffffffffffffff1673ffffffffffffffffffffffffffffffffffffffff166318160ddd6040518163ffffffff1660e01b8152600401602060405180830381865afa158015613313573d6000803e3d6000fd5b505050506040513d601f19601f82011682018060405250810190613337919061460f565b90506000808214806133495750600083145b1561335657849050613370565b82828661336391906146ce565b61336d919061473f565b90505b600160009054906101000a900473ffffffffffffffffffffffffffffffffffffffff1673ffffffffffffffffffffffffffffffffffffffff166340c10f1985836040518363ffffffff1660e01b81526004016133cd929190613ea3565b600060405180830381600087803b1580156133e757600080fd5b505af11580156133fb573d6000803e3d6000fd5b505050505050505050565b61349c8160405160240161341a9190613fb8565b6040516020818303038152906040527f41304fac000000000000000000000000000000000000000000000000000000007bffffffffffffffffffffffffffffffffffffffffffffffffffffffff19166020820180517bffffffffffffffffffffffffffffffffffffffffffffffffffffffff838183161783525050505061371c565b50565b61353782826040516024016134b5929190615008565b6040516020818303038152906040527fb60e72cc000000000000000000000000000000000000000000000000000000007bffffffffffffffffffffffffffffffffffffffffffffffffffffffff19166020820180517bffffffffffffffffffffffffffffffffffffffffffffffffffffffff838183161783525050505061371c565b5050565b613543613736565b613579576040517fd7e6bcf800000000000000000000000000000000000000000000000000000000815260040160405180910390fd5b565b61358361353b565b600073ffffffffffffffffffffffffffffffffffffffff168173ffffffffffffffffffffffffffffffffffffffff16036135f55760006040517f1e4fbdf70000000000000000000000000000000000000000000000000000000081526004016135ec9190613a77565b60405180910390fd5b6135fe8161300c565b50565b61360961353b565b6000613613613622565b90506001816000018190555050565b60007f9b779b17422d0df92223018b32b4d1fa46e071723d6817e2486d003becc55f00905090565b60006136787f360894a13ba1a3210667c828492db98dca3e2076cc3735a920a3ca505d382bbc60001b613756565b60000160009054906101000a900473ffffffffffffffffffffffffffffffffffffffff16905090565b6136aa82613760565b8173ffffffffffffffffffffffffffffffffffffffff167fbc7cd75a20ee27fd9adebab32041f755214dbc6bffa90cc0225b39da2e5c2d3b60405160405180910390a260008151111561370757613701828261382d565b50613710565b61370f6138b1565b5b5050565b600033905090565b6137338161372b6138ee61390f565b63ffffffff16565b50565b6000613740612c26565b60000160089054906101000a900460ff16905090565b6000819050919050565b60008173ffffffffffffffffffffffffffffffffffffffff163b036137bc57806040517f4c9c8ce30000000000000000000000000000000000000000000000000000000081526004016137b39190613a77565b60405180910390fd5b806137e97f360894a13ba1a3210667c828492db98dca3e2076cc3735a920a3ca505d382bbc60001b613756565b60000160006101000a81548173ffffffffffffffffffffffffffffffffffffffff021916908373ffffffffffffffffffffffffffffffffffffffff16021790555050565b60606000808473ffffffffffffffffffffffffffffffffffffffff1684604051613857919061507f565b600060405180830381855af49150503d8060008114613892576040519150601f19603f3d011682016040523d82523d6000602084013e613897565b606091505b50915091506138a785838361391a565b9250505092915050565b60003411156138ec576040517fb398979f00000000000000000000000000000000000000000000000000000000815260040160405180910390fd5b565b60006a636f6e736f6c652e6c6f679050600080835160208501845afa505050565b613a2c819050919050565b60608261392f5761392a826139a9565b6139a1565b60008251148015613957575060008473ffffffffffffffffffffffffffffffffffffffff163b145b1561399957836040517f9996b3150000000000000000000000000000000000000000000000000000000081526004016139909190613a77565b60405180910390fd5b8190506139a2565b5b9392505050565b6000815111156139bc5780518082602001fd5b6040517fd6bda27500000000000000000000000000000000000000000000000000000000815260040160405180910390fd5b6040518060800160405280600073ffffffffffffffffffffffffffffffffffffffff1681526020016060815260200160008152602001600081525090565b613a34615096565b565b600073ffffffffffffffffffffffffffffffffffffffff82169050919050565b6000613a6182613a36565b9050919050565b613a7181613a56565b82525050565b6000602082019050613a8c6000830184613a68565b92915050565b6000819050919050565b6000613ab7613ab2613aad84613a36565b613a92565b613a36565b9050919050565b6000613ac982613a9c565b9050919050565b6000613adb82613abe565b9050919050565b613aeb81613ad0565b82525050565b6000602082019050613b066000830184613ae2565b92915050565b6000604051905090565b600080fd5b600080fd5b613b2981613a56565b8114613b3457600080fd5b50565b600081359050613b4681613b20565b92915050565b60008060408385031215613b6357613b62613b16565b5b6000613b7185828601613b37565b9250506020613b8285828601613b37565b9150509250929050565b600080fd5b600080fd5b6000601f19601f8301169050919050565b7f4e487b7100000000000000000000000000000000000000000000000000000000600052604160045260246000fd5b613bdf82613b96565b810181811067ffffffffffffffff82111715613bfe57613bfd613ba7565b5b80604052505050565b6000613c11613b0c565b9050613c1d8282613bd6565b919050565b600067ffffffffffffffff821115613c3d57613c3c613ba7565b5b613c4682613b96565b9050602081019050919050565b82818337600083830152505050565b6000613c75613c7084613c22565b613c07565b905082815260208101848484011115613c9157613c90613b91565b5b613c9c848285613c53565b509392505050565b600082601f830112613cb957613cb8613b8c565b5b8135613cc9848260208601613c62565b91505092915050565b60008060408385031215613ce957613ce8613b16565b5b6000613cf785828601613b37565b925050602083013567ffffffffffffffff811115613d1857613d17613b1b565b5b613d2485828601613ca4565b9150509250929050565b6000819050919050565b613d4181613d2e565b82525050565b6000602082019050613d5c6000830184613d38565b92915050565b6000613d6d82613abe565b9050919050565b613d7d81613d62565b82525050565b6000602082019050613d986000830184613d74565b92915050565b6000819050919050565b613db181613d9e565b82525050565b6000602082019050613dcc6000830184613da8565b92915050565b60008115159050919050565b613de781613dd2565b8114613df257600080fd5b50565b600081359050613e0481613dde565b92915050565b60008060408385031215613e2157613e20613b16565b5b6000613e2f85828601613b37565b9250506020613e4085828601613df5565b9150509250929050565b613e5381613d2e565b8114613e5e57600080fd5b50565b600081359050613e7081613e4a565b92915050565b600060208284031215613e8c57613e8b613b16565b5b6000613e9a84828501613e61565b91505092915050565b6000604082019050613eb86000830185613a68565b613ec56020830184613d38565b9392505050565b600060208284031215613ee257613ee1613b16565b5b6000613ef084828501613b37565b91505092915050565b60008060408385031215613f1057613f0f613b16565b5b6000613f1e85828601613e61565b9250506020613f2f85828601613e61565b9150509250929050565b600081519050919050565b600082825260208201905092915050565b60005b83811015613f73578082015181840152602081019050613f58565b60008484015250505050565b6000613f8a82613f39565b613f948185613f44565b9350613fa4818560208601613f55565b613fad81613b96565b840191505092915050565b60006020820190508181036000830152613fd28184613f7f565b905092915050565b600081519050919050565b600082825260208201905092915050565b6000819050602082019050919050565b61400f81613a56565b82525050565b600082825260208201905092915050565b600061403182613f39565b61403b8185614015565b935061404b818560208601613f55565b61405481613b96565b840191505092915050565b61406881613d2e565b82525050565b60006080830160008301516140866000860182614006565b506020830151848203602086015261409e8282614026565b91505060408301516140b3604086018261405f565b5060608301516140c6606086018261405f565b508091505092915050565b60006140dd838361406e565b905092915050565b6000602082019050919050565b60006140fd82613fda565b6141078185613fe5565b93508360208202850161411985613ff6565b8060005b85811015614155578484038952815161413685826140d1565b9450614141836140e5565b925060208a0199505060018101905061411d565b50829750879550505050505092915050565b6000602082019050818103600083015261418181846140f2565b905092915050565b600080fd5b600080fd5b60008083601f8401126141a9576141a8613b8c565b5b8235905067ffffffffffffffff8111156141c6576141c5614189565b5b6020830191508360208202830111156141e2576141e161418e565b5b9250929050565b60008060208385031215614200576141ff613b16565b5b600083013567ffffffffffffffff81111561421e5761421d613b1b565b5b61422a85828601614193565b92509250509250929050565b6000806040838503121561424d5761424c613b16565b5b600061425b85828601613b37565b925050602061426c85828601613e61565b9150509250929050565b600081519050919050565b600082825260208201905092915050565b6000819050602082019050919050565b6040820160008201516142b86000850182614006565b5060208201516142cb602085018261405f565b50505050565b60006142dd83836142a2565b60408301905092915050565b6000602082019050919050565b600061430182614276565b61430b8185614281565b935061431683614292565b8060005b8381101561434757815161432e88826142d1565b9750614339836142e9565b92505060018101905061431a565b5085935050505092915050565b6000602082019050818103600083015261436e81846142f6565b905092915050565b600061438182613abe565b9050919050565b61439181614376565b82525050565b60006020820190506143ac6000830184614388565b92915050565b6143bb81613dd2565b82525050565b60006020820190506143d660008301846143b2565b92915050565b60008083601f8401126143f2576143f1613b8c565b5b8235905067ffffffffffffffff81111561440f5761440e614189565b5b60208301915083600182028301111561442b5761442a61418e565b5b9250929050565b60008060006040848603121561444b5761444a613b16565b5b600061445986828701613e61565b935050602084013567ffffffffffffffff81111561447a57614479613b1b565b5b614486868287016143dc565b92509250509250925092565b6000819050919050565b600067ffffffffffffffff82169050919050565b60006144cb6144c66144c184614492565b613a92565b61449c565b9050919050565b6144db816144b0565b82525050565b60006020820190506144f660008301846144d2565b92915050565b7f4e6f7420616c6c6f776564000000000000000000000000000000000000000000600082015250565b6000614532600b83613f44565b915061453d826144fc565b602082019050919050565b6000602082019050818103600083015261456181614525565b9050919050565b7f73747261746567696573206e6f7420636f6e666967757265642070726f70657260008201527f6c79000000000000000000000000000000000000000000000000000000000000602082015250565b60006145c4602283613f44565b91506145cf82614568565b604082019050919050565b600060208201905081810360008301526145f3816145b7565b9050919050565b60008151905061460981613e4a565b92915050565b60006020828403121561462557614624613b16565b5b6000614633848285016145fa565b91505092915050565b7f4e487b7100000000000000000000000000000000000000000000000000000000600052603260045260246000fd5b7f4e487b7100000000000000000000000000000000000000000000000000000000600052601160045260246000fd5b60006146a582613d2e565b91506146b083613d2e565b92508282019050808211156146c8576146c761466b565b5b92915050565b60006146d982613d2e565b91506146e483613d2e565b92508282026146f281613d2e565b915082820484148315176147095761470861466b565b5b5092915050565b7f4e487b7100000000000000000000000000000000000000000000000000000000600052601260045260246000fd5b600061474a82613d2e565b915061475583613d2e565b92508261476557614764614710565b5b828204905092915050565b60008151905061477f81613dde565b92915050565b60006020828403121561479b5761479a613b16565b5b60006147a984828501614770565b91505092915050565b7f496e76616c696420616464726573730000000000000000000000000000000000600082015250565b60006147e8600f83613f44565b91506147f3826147b2565b602082019050919050565b60006020820190508181036000830152614817816147db565b9050919050565b7f5374617274206f7574206f662072616e67650000000000000000000000000000600082015250565b6000614854601283613f44565b915061485f8261481e565b602082019050919050565b6000602082019050818103600083015261488381614847565b9050919050565b7f4e6f2057465220746f6b656e7320657869737400000000000000000000000000600082015250565b60006148c0601383613f44565b91506148cb8261488a565b602082019050919050565b600060208201905081810360008301526148ef816148b3565b9050919050565b600060408201905061490b6000830185613d38565b6149186020830184613d38565b9392505050565b7f4e6f206e6577206761696e7320746f20636f6c6c656374000000000000000000600082015250565b6000614955601783613f44565b91506149608261491f565b602082019050919050565b6000602082019050818103600083015261498481614948565b9050919050565b600061499682613d2e565b91506149a183613d2e565b92508282039050818111156149b9576149b861466b565b5b92915050565b60006060820190506149d46000830186613d38565b6149e16020830185613d38565b6149ee6040830184613a68565b949350505050565b7f4e6f7420636f6e66696775726564000000000000000000000000000000000000600082015250565b6000614a2c600e83613f44565b9150614a37826149f6565b602082019050919050565b60006020820190508181036000830152614a5b81614a1f565b9050919050565b600067ffffffffffffffff821115614a7d57614a7c613ba7565b5b614a8682613b96565b9050602081019050919050565b6000614aa6614aa184614a62565b613c07565b905082815260208101848484011115614ac257614ac1613b91565b5b614acd848285613f55565b509392505050565b600082601f830112614aea57614ae9613b8c565b5b8151614afa848260208601614a93565b91505092915050565b600060208284031215614b1957614b18613b16565b5b600082015167ffffffffffffffff811115614b3757614b36613b1b565b5b614b4384828501614ad5565b91505092915050565b7f4c656e677468206d69736d617463680000000000000000000000000000000000600082015250565b6000614b82600f83613f44565b9150614b8d82614b4c565b602082019050919050565b60006020820190508181036000830152614bb181614b75565b9050919050565b7f496e76616c696420776569676874730000000000000000000000000000000000600082015250565b6000614bee600f83613f44565b9150614bf982614bb8565b602082019050919050565b60006020820190508181036000830152614c1d81614be1565b9050919050565b7f496e76616c696420737472617465677920696d706c656d656e746174696f6e00600082015250565b6000614c5a601f83613f44565b9150614c6582614c24565b602082019050919050565b60006020820190508181036000830152614c8981614c4d565b9050919050565b7f4e6f20696e64657865732070726f766964656400000000000000000000000000600082015250565b6000614cc6601383613f44565b9150614cd182614c90565b602082019050919050565b60006020820190508181036000830152614cf581614cb9565b9050919050565b7f496e646578206f7574206f662072616e67650000000000000000000000000000600082015250565b6000614d32601283613f44565b9150614d3d82614cfc565b602082019050919050565b60006020820190508181036000830152614d6181614d25565b9050919050565b7f4e487b7100000000000000000000000000000000000000000000000000000000600052603160045260246000fd5b7f496e73756666696369656e742057465200000000000000000000000000000000600082015250565b6000614dcd601083613f44565b9150614dd882614d97565b602082019050919050565b60006020820190508181036000830152614dfc81614dc0565b9050919050565b6000606082019050614e186000830186613a68565b614e256020830185613a68565b614e326040830184613d38565b949350505050565b600081905092915050565b6000614e518385614e3a565b9350614e5e838584613c53565b82840190509392505050565b6000614e77828486614e45565b91508190509392505050565b7f4d656d6f20497320496e76616c696420457468657265756d2061646472657373600082015250565b6000614eb9602083613f44565b9150614ec482614e83565b602082019050919050565b60006020820190508181036000830152614ee881614eac565b9050919050565b7f496e76616c6964206465706f7369740000000000000000000000000000000000600082015250565b6000614f25600f83613f44565b9150614f3082614eef565b602082019050919050565b60006020820190508181036000830152614f5481614f18565b9050919050565b50565b6000614f6b600083613f44565b9150614f7682614f5b565b600082019050919050565b6000604082019050614f966000830184613d38565b8181036020830152614fa781614f5e565b905092915050565b614fb881613d9e565b8114614fc357600080fd5b50565b600081519050614fd581614faf565b92915050565b600060208284031215614ff157614ff0613b16565b5b6000614fff84828501614fc6565b91505092915050565b600060408201905081810360008301526150228185613f7f565b90506150316020830184613d38565b9392505050565b600081519050919050565b600081905092915050565b600061505982615038565b6150638185615043565b9350615073818560208601613f55565b80840191505092915050565b600061508b828461504e565b915081905092915050565b7f4e487b7100000000000000000000000000000000000000000000000000000000600052605160045260246000fdfea264697066735822122029b30452ab170633e62613b8f32665534bc09227c6057a6d419290c6554a42a064736f6c634300081c0033",
  "linkReferences": {},
  "deployedLinkReferences": {}
}