{
  "_format": "hh-sol-artifact-1",
  "contractName": "FundContract",
  "sourceName": "contracts/FundContract.sol",
  "abi": [
    {
      "inputs": [
        {
          "internalType": "address",
          "name": "target",
          "type": "address"
        }
      ],
      "name": "AddressEmptyCode",
      "type": "error"
    },
    {
      "inputs": [
        {
          "internalType": "address",
          "name": "implementation",
          "type": "address"
        }
      ],
      "name": "ERC1967InvalidImplementation",
      "type": "error"
    },
    {
      "inputs": [],
      "name": "ERC1967NonPayable",
      "type": "error"
    },
    {
      "inputs": [],
      "name": "FailedCall",
      "type": "error"
    },
    {
      "inputs": [],
      "name": "InvalidInitialization",
      "type": "error"
    },
    {
      "inputs": [],
      "name": "NotInitializing",
      "type": "error"
    },
    {
      "inputs": [
        {
          "internalType": "address",
          "name": "owner",
          "type": "address"
        }
      ],
      "name": "OwnableInvalidOwner",
      "type": "error"
    },
    {
      "inputs": [
        {
          "internalType": "address",
          "name": "account",
          "type": "address"
        }
      ],
      "name": "OwnableUnauthorizedAccount",
      "type": "error"
    },
    {
      "inputs": [],
      "name": "ReentrancyGuardReentrantCall",
      "type": "error"
    },
    {
      "inputs": [],
      "name": "UUPSUnauthorizedCallContext",
      "type": "error"
    },
    {
      "inputs": [
        {
          "internalType": "bytes32",
          "name": "slot",
          "type": "bytes32"
        }
      ],
      "name": "UUPSUnsupportedProxiableUUID",
      "type": "error"
    },
    {
      "anonymous": false,
      "inputs": [
        {
          "indexed": true,
          "internalType": "address",
          "name": "user",
          "type": "address"
        },
        {
          "indexed": false,
          "internalType": "uint256",
          "name": "amount",
          "type": "uint256"
        },
        {
          "indexed": false,
          "internalType": "string",
          "name": "memo",
          "type": "string"
        }
      ],
      "name": "Deposit",
      "type": "event"
    },
    {
      "anonymous": false,
      "inputs": [
        {
          "indexed": false,
          "internalType": "uint64",
          "name": "version",
          "type": "uint64"
        }
      ],
      "name": "Initialized",
      "type": "event"
    },
    {
      "anonymous": false,
      "inputs": [
        {
          "indexed": true,
          "internalType": "address",
          "name": "previousOwner",
          "type": "address"
        },
        {
          "indexed": true,
          "internalType": "address",
          "name": "newOwner",
          "type": "address"
        }
      ],
      "name": "OwnershipTransferred",
      "type": "event"
    },
    {
      "anonymous": false,
      "inputs": [
        {
          "indexed": false,
          "internalType": "uint256",
          "name": "feeAmount",
          "type": "uint256"
        },
        {
          "indexed": false,
          "internalType": "uint256",
          "name": "sharesToMint",
          "type": "uint256"
        },
        {
          "indexed": false,
          "internalType": "address",
          "name": "treasury",
          "type": "address"
        }
      ],
      "name": "ProtocolFeesCollected",
      "type": "event"
    },
    {
      "anonymous": false,
      "inputs": [
        {
          "indexed": false,
          "internalType": "uint256",
          "name": "start",
          "type": "uint256"
        },
        {
          "indexed": false,
          "internalType": "uint256",
          "name": "end",
          "type": "uint256"
        }
      ],
      "name": "RedemptionProcessed",
      "type": "event"
    },
    {
      "anonymous": false,
      "inputs": [
        {
          "indexed": true,
          "internalType": "address",
          "name": "implementation",
          "type": "address"
        }
      ],
      "name": "Upgraded",
      "type": "event"
    },
    {
      "inputs": [],
      "name": "UPGRADE_INTERFACE_VERSION",
      "outputs": [
        {
          "internalType": "string",
          "name": "",
          "type": "string"
        }
      ],
      "stateMutability": "view",
      "type": "function"
    },
    {
      "inputs": [
        {
          "internalType": "address",
          "name": "_strategy",
          "type": "address"
        },
        {
          "internalType": "uint256",
          "name": "_weight",
          "type": "uint256"
        }
      ],
      "name": "addStrategy",
      "outputs": [],
      "stateMutability": "nonpayable",
      "type": "function"
    },
    {
      "inputs": [],
      "name": "collectProtocolFees",
      "outputs": [
        {
          "internalType": "uint256",
          "name": "",
          "type": "uint256"
        }
      ],
      "stateMutability": "nonpayable",
      "type": "function"
    },
    {
      "inputs": [],
      "name": "currentFundValue",
      "outputs": [
        {
          "internalType": "uint256",
          "name": "",
          "type": "uint256"
        }
      ],
      "stateMutability": "view",
      "type": "function"
    },
    {
      "inputs": [],
      "name": "deployCapital",
      "outputs": [],
      "stateMutability": "nonpayable",
      "type": "function"
    },
    {
      "inputs": [
        {
          "internalType": "uint256",
          "name": "amount",
          "type": "uint256"
        },
        {
          "internalType": "string",
          "name": "userMemo",
          "type": "string"
        }
      ],
      "name": "deposit",
      "outputs": [],
      "stateMutability": "nonpayable",
      "type": "function"
    },
    {
      "inputs": [],
      "name": "fundPrincipleAfterFees",
      "outputs": [
        {
          "internalType": "uint256",
          "name": "",
          "type": "uint256"
        }
      ],
      "stateMutability": "view",
      "type": "function"
    },
    {
      "inputs": [],
      "name": "getPendingFees",
      "outputs": [
        {
          "internalType": "uint256",
          "name": "",
          "type": "uint256"
        }
      ],
      "stateMutability": "view",
      "type": "function"
    },
    {
      "inputs": [],
      "name": "getRedemptionQueue",
      "outputs": [
        {
          "components": [
            {
              "internalType": "address",
              "name": "user",
              "type": "address"
            },
            {
              "internalType": "uint256",
              "name": "amount",
              "type": "uint256"
            }
          ],
          "internalType": "struct FundContract.RedemptionRequest[]",
          "name": "",
          "type": "tuple[]"
        }
      ],
      "stateMutability": "view",
      "type": "function"
    },
    {
      "inputs": [],
      "name": "getStrategies",
      "outputs": [
        {
          "components": [
            {
              "internalType": "address",
              "name": "strategyAddress",
              "type": "address"
            },
            {
              "internalType": "string",
              "name": "strategyName",
              "type": "string"
            },
            {
              "internalType": "uint256",
              "name": "strategyWeight",
              "type": "uint256"
            },
            {
              "internalType": "uint256",
              "name": "value",
              "type": "uint256"
            }
          ],
          "internalType": "struct FundContract.StrategyInfo[]",
          "name": "",
          "type": "tuple[]"
        }
      ],
      "stateMutability": "view",
      "type": "function"
    },
    {
      "inputs": [
        {
          "internalType": "address",
          "name": "_usdc",
          "type": "address"
        },
        {
          "internalType": "address",
          "name": "_wfrToken",
          "type": "address"
        }
      ],
      "name": "initialize",
      "outputs": [],
      "stateMutability": "nonpayable",
      "type": "function"
    },
    {
      "inputs": [],
      "name": "owner",
      "outputs": [
        {
          "internalType": "address",
          "name": "",
          "type": "address"
        }
      ],
      "stateMutability": "view",
      "type": "function"
    },
    {
      "inputs": [
        {
          "internalType": "uint256",
          "name": "start",
          "type": "uint256"
        },
        {
          "internalType": "uint256",
          "name": "batchSize",
          "type": "uint256"
        }
      ],
      "name": "processRedemptionsBatch",
      "outputs": [],
      "stateMutability": "nonpayable",
      "type": "function"
    },
    {
      "inputs": [],
      "name": "protocolFee",
      "outputs": [
        {
          "internalType": "uint256",
          "name": "",
          "type": "uint256"
        }
      ],
      "stateMutability": "view",
      "type": "function"
    },
    {
      "inputs": [],
      "name": "proxiableUUID",
      "outputs": [
        {
          "internalType": "bytes32",
          "name": "",
          "type": "bytes32"
        }
      ],
      "stateMutability": "view",
      "type": "function"
    },
    {
      "inputs": [
        {
          "internalType": "uint256",
          "name": "",
          "type": "uint256"
        }
      ],
      "name": "redemptionQueue",
      "outputs": [
        {
          "internalType": "address",
          "name": "user",
          "type": "address"
        },
        {
          "internalType": "uint256",
          "name": "amount",
          "type": "uint256"
        }
      ],
      "stateMutability": "view",
      "type": "function"
    },
    {
      "inputs": [
        {
          "internalType": "uint256[]",
          "name": "indexes",
          "type": "uint256[]"
        }
      ],
      "name": "removeStrategies",
      "outputs": [],
      "stateMutability": "nonpayable",
      "type": "function"
    },
    {
      "inputs": [],
      "name": "renounceOwnership",
      "outputs": [],
      "stateMutability": "nonpayable",
      "type": "function"
    },
    {
      "inputs": [
        {
          "internalType": "uint256",
          "name": "amount",
          "type": "uint256"
        }
      ],
      "name": "requestRedemption",
      "outputs": [],
      "stateMutability": "nonpayable",
      "type": "function"
    },
    {
      "inputs": [
        {
          "internalType": "uint256[]",
          "name": "_weights",
          "type": "uint256[]"
        }
      ],
      "name": "setStrategyWeights",
      "outputs": [],
      "stateMutability": "nonpayable",
      "type": "function"
    },
    {
      "inputs": [
        {
          "internalType": "address",
          "name": "_manager",
          "type": "address"
        }
      ],
      "name": "setTreasuryManager",
      "outputs": [],
      "stateMutability": "nonpayable",
      "type": "function"
    },
    {
      "inputs": [
        {
          "internalType": "address",
          "name": "_addr",
          "type": "address"
        },
        {
          "internalType": "bool",
          "name": "_allowed",
          "type": "bool"
        }
      ],
      "name": "setWhitelist",
      "outputs": [],
      "stateMutability": "nonpayable",
      "type": "function"
    },
    {
      "inputs": [
        {
          "internalType": "uint256",
          "name": "",
          "type": "uint256"
        }
      ],
      "name": "strategies",
      "outputs": [
        {
          "internalType": "contract IStrategy",
          "name": "",
          "type": "address"
        }
      ],
      "stateMutability": "view",
      "type": "function"
    },
    {
      "inputs": [
        {
          "internalType": "uint256",
          "name": "",
          "type": "uint256"
        }
      ],
      "name": "strategyWeights",
      "outputs": [
        {
          "internalType": "uint256",
          "name": "",
          "type": "uint256"
        }
      ],
      "stateMutability": "view",
      "type": "function"
    },
    {
      "inputs": [
        {
          "internalType": "address",
          "name": "newOwner",
          "type": "address"
        }
      ],
      "name": "transferOwnership",
      "outputs": [],
      "stateMutability": "nonpayable",
      "type": "function"
    },
    {
      "inputs": [],
      "name": "treasury",
      "outputs": [
        {
          "internalType": "address",
          "name": "",
          "type": "address"
        }
      ],
      "stateMutability": "view",
      "type": "function"
    },
    {
      "inputs": [],
      "name": "treasuryManager",
      "outputs": [
        {
          "internalType": "address",
          "name": "",
          "type": "address"
        }
      ],
      "stateMutability": "view",
      "type": "function"
    },
    {
      "inputs": [
        {
          "internalType": "address",
          "name": "_newTreasury",
          "type": "address"
        }
      ],
      "name": "updateTreasury",
      "outputs": [],
      "stateMutability": "nonpayable",
      "type": "function"
    },
    {
      "inputs": [
        {
          "internalType": "address",
          "name": "newImplementation",
          "type": "address"
        },
        {
          "internalType": "bytes",
          "name": "data",
          "type": "bytes"
        }
      ],
      "name": "upgradeToAndCall",
      "outputs": [],
      "stateMutability": "payable",
      "type": "function"
    },
    {
      "inputs": [],
      "name": "usdc",
      "outputs": [
        {
          "internalType": "contract IERC20",
          "name": "",
          "type": "address"
        }
      ],
      "stateMutability": "view",
      "type": "function"
    },
    {
      "inputs": [],
      "name": "wfrToken",
      "outputs": [
        {
          "internalType": "contract WFRToken",
          "name": "",
          "type": "address"
        }
      ],
      "stateMutability": "view",
      "type": "function"
    },
    {
      "inputs": [
        {
          "internalType": "address",
          "name": "",
          "type": "address"
        }
      ],
      "name": "whitelisted",
      "outputs": [
        {
          "internalType": "bool",
          "name": "",
          "type": "bool"
        }
      ],
      "stateMutability": "view",
      "type": "function"
    }
  ],
  "bytecode": "0x60a06040523073ffffffffffffffffffffffffffffffffffffffff1660809073ffffffffffffffffffffffffffffffffffffffff16815250348015604257600080fd5b50608051615c8c61006c600039600081816136030152818161365801526138130152615c8c6000f3fe6080604052600436106101e35760003560e01c80639700b14711610102578063cea6a0ee11610095578063eeb3c91011610064578063eeb3c910146106a0578063f1215d25146106c9578063f2fde38b146106f2578063fe47a9f21461071b576101e3565b8063cea6a0ee146105d2578063d574ea3d146105fd578063d936547e1461063a578063dd435c2d14610677576101e3565b8063b49a60bb116100d1578063b49a60bb1461052a578063c51c2d0e14610555578063c8bd633614610580578063c9411e22146105a9576101e3565b80639700b14714610480578063a1af5b9a146104a9578063ad3cb1cc146104d4578063b0e21e8a146104ff576101e3565b806353d6fd591161017a5780637ad51f7e116101495780637ad51f7e146103b15780637f51bb1f146103ef5780638da5cb5b146104185780638e6c8ab314610443576101e3565b806353d6fd591461031b57806361d027b314610344578063715018a61461036f5780637422298614610386576101e3565b80634f1ef286116101b65780634f1ef2861461027e5780634f6b5c471461029a578063505cbc0b146102c557806352d1902d146102f0576101e3565b80633cea70d9146101e85780633e413bee14610213578063485cc9551461023e5780634d85f00f14610267575b600080fd5b3480156101f457600080fd5b506101fd610744565b60405161020a91906145d2565b60405180910390f35b34801561021f57600080fd5b5061022861076a565b604051610235919061464c565b60405180910390f35b34801561024a57600080fd5b50610265600480360381019061026091906146a7565b61078e565b005b34801561027357600080fd5b5061027c610a50565b005b6102986004803603810190610293919061482d565b6112c9565b005b3480156102a657600080fd5b506102af6112e8565b6040516102bc91906148a2565b60405180910390f35b3480156102d157600080fd5b506102da6112ee565b6040516102e791906148de565b60405180910390f35b3480156102fc57600080fd5b50610305611314565b6040516103129190614912565b60405180910390f35b34801561032757600080fd5b50610342600480360381019061033d9190614965565b611347565b005b34801561035057600080fd5b50610359611419565b60405161036691906145d2565b60405180910390f35b34801561037b57600080fd5b5061038461143f565b005b34801561039257600080fd5b5061039b611453565b6040516103a891906148a2565b60405180910390f35b3480156103bd57600080fd5b506103d860048036038101906103d391906149d1565b6115e0565b6040516103e69291906149fe565b60405180910390f35b3480156103fb57600080fd5b5061041660048036038101906104119190614a27565b611634565b005b34801561042457600080fd5b5061042d6117b4565b60405161043a91906145d2565b60405180910390f35b34801561044f57600080fd5b5061046a600480360381019061046591906149d1565b6117ec565b60405161047791906148a2565b60405180910390f35b34801561048c57600080fd5b506104a760048036038101906104a29190614a54565b611810565b005b3480156104b557600080fd5b506104be611f48565b6040516104cb91906148a2565b60405180910390f35b3480156104e057600080fd5b506104e9612299565b6040516104f69190614b13565b60405180910390f35b34801561050b57600080fd5b506105146122d2565b60405161052191906148a2565b60405180910390f35b34801561053657600080fd5b5061053f6122d8565b60405161054c9190614cc2565b60405180910390f35b34801561056157600080fd5b5061056a6125b6565b60405161057791906148a2565b60405180910390f35b34801561058c57600080fd5b506105a760048036038101906105a29190614d44565b61260a565b005b3480156105b557600080fd5b506105d060048036038101906105cb9190614d91565b61283b565b005b3480156105de57600080fd5b506105e7612b1f565b6040516105f49190614eaf565b60405180910390f35b34801561060957600080fd5b50610624600480360381019061061f91906149d1565b612bde565b6040516106319190614ef2565b60405180910390f35b34801561064657600080fd5b50610661600480360381019061065c9190614a27565b612c1d565b60405161066e9190614f1c565b60405180910390f35b34801561068357600080fd5b5061069e60048036038101906106999190614d44565b612c3d565b005b3480156106ac57600080fd5b506106c760048036038101906106c291906149d1565b612fa1565b005b3480156106d557600080fd5b506106f060048036038101906106eb9190614f8d565b6131de565b005b3480156106fe57600080fd5b5061071960048036038101906107149190614a27565b6133f8565b005b34801561072757600080fd5b50610742600480360381019061073d9190614a27565b61347e565b005b600760009054906101000a900473ffffffffffffffffffffffffffffffffffffffff1681565b60008054906101000a900473ffffffffffffffffffffffffffffffffffffffff1681565b6000610798613539565b905060008160000160089054906101000a900460ff1615905060008260000160009054906101000a900467ffffffffffffffff1690506000808267ffffffffffffffff161480156107e65750825b9050600060018367ffffffffffffffff1614801561081b575060003073ffffffffffffffffffffffffffffffffffffffff163b145b905081158015610829575080155b15610860576040517ff92ee8a900000000000000000000000000000000000000000000000000000000815260040160405180910390fd5b60018560000160006101000a81548167ffffffffffffffff021916908367ffffffffffffffff16021790555083156108b05760018560000160086101000a81548160ff0219169083151502179055505b6108b933613561565b6108c1613575565b6108c961357f565b866000806101000a81548173ffffffffffffffffffffffffffffffffffffffff021916908373ffffffffffffffffffffffffffffffffffffffff16021790555085600160006101000a81548173ffffffffffffffffffffffffffffffffffffffff021916908373ffffffffffffffffffffffffffffffffffffffff160217905550600a6005819055506001600960003373ffffffffffffffffffffffffffffffffffffffff1673ffffffffffffffffffffffffffffffffffffffff16815260200190815260200160002060006101000a81548160ff02191690831515021790555033600660006101000a81548173ffffffffffffffffffffffffffffffffffffffff021916908373ffffffffffffffffffffffffffffffffffffffff1602179055508315610a475760008560000160086101000a81548160ff0219169083151502179055507fc7f505b2f371ae2175ee4913f4499e1f2633a7b5936321eed1cdaeb6115181d26001604051610a3e919061503c565b60405180910390a15b50505050505050565b3373ffffffffffffffffffffffffffffffffffffffff16610a6f6117b4565b73ffffffffffffffffffffffffffffffffffffffff161480610ada5750600960003373ffffffffffffffffffffffffffffffffffffffff1673ffffffffffffffffffffffffffffffffffffffff16815260200190815260200160002060009054906101000a900460ff165b80610b1057503373ffffffffffffffffffffffffffffffffffffffff163073ffffffffffffffffffffffffffffffffffffffff16145b610b4f576040517f08c379a0000000000000000000000000000000000000000000000000000000008152600401610b46906150a3565b60405180910390fd5b610b57613591565b60038054905060028054905014610ba3576040517f08c379a0000000000000000000000000000000000000000000000000000000008152600401610b9a90615135565b60405180910390fd5b60008060009054906101000a900473ffffffffffffffffffffffffffffffffffffffff1673ffffffffffffffffffffffffffffffffffffffff166370a08231306040518263ffffffff1660e01b8152600401610bff91906145d2565b602060405180830381865afa158015610c1c573d6000803e3d6000fd5b505050506040513d601f19601f82011682018060405250810190610c40919061516a565b905060005b600280549050811015610d195760028181548110610c6657610c65615197565b5b9060005260206000200160009054906101000a900473ffffffffffffffffffffffffffffffffffffffff1673ffffffffffffffffffffffffffffffffffffffff1663d4c3eea06040518163ffffffff1660e01b8152600401602060405180830381865afa158015610cdb573d6000803e3d6000fd5b505050506040513d601f19601f82011682018060405250810190610cff919061516a565b82610d0a91906151f5565b91508080600101915050610c45565b506000805b600380549050811015610d645760038181548110610d3f57610d3e615197565b5b906000526020600020015482610d5591906151f5565b91508080600101915050610d1e565b5060008103610d745750506112bf565b60005b600280549050811015610f4d5760008260038381548110610d9b57610d9a615197565b5b906000526020600020015485610db19190615229565b610dbb919061529a565b9050600060028381548110610dd357610dd2615197565b5b9060005260206000200160009054906101000a900473ffffffffffffffffffffffffffffffffffffffff1673ffffffffffffffffffffffffffffffffffffffff1663d4c3eea06040518163ffffffff1660e01b8152600401602060405180830381865afa158015610e48573d6000803e3d6000fd5b505050506040513d601f19601f82011682018060405250810190610e6c919061516a565b905081811115610f3e5760028381548110610e8a57610e89615197565b5b9060005260206000200160009054906101000a900473ffffffffffffffffffffffffffffffffffffffff1673ffffffffffffffffffffffffffffffffffffffff1662f714ce8383610edb91906152cb565b306040518363ffffffff1660e01b8152600401610ef99291906152ff565b6020604051808303816000875af1158015610f18573d6000803e3d6000fd5b505050506040513d601f19601f82011682018060405250810190610f3c919061516a565b505b50508080600101915050610d77565b5060008060009054906101000a900473ffffffffffffffffffffffffffffffffffffffff1673ffffffffffffffffffffffffffffffffffffffff166370a08231306040518263ffffffff1660e01b8152600401610faa91906145d2565b602060405180830381865afa158015610fc7573d6000803e3d6000fd5b505050506040513d601f19601f82011682018060405250810190610feb919061516a565b905060005b6002805490508110156112ba576000836003838154811061101457611013615197565b5b90600052602060002001548661102a9190615229565b611034919061529a565b905060006002838154811061104c5761104b615197565b5b9060005260206000200160009054906101000a900473ffffffffffffffffffffffffffffffffffffffff1673ffffffffffffffffffffffffffffffffffffffff1663d4c3eea06040518163ffffffff1660e01b8152600401602060405180830381865afa1580156110c1573d6000803e3d6000fd5b505050506040513d601f19601f820116820180604052508101906110e5919061516a565b9050818110156112ab57600081836110fd91906152cb565b90508481111561110b578490505b60008111156112a95760008054906101000a900473ffffffffffffffffffffffffffffffffffffffff1673ffffffffffffffffffffffffffffffffffffffff1663095ea7b36002868154811061116457611163615197565b5b9060005260206000200160009054906101000a900473ffffffffffffffffffffffffffffffffffffffff16836040518363ffffffff1660e01b81526004016111ad9291906149fe565b6020604051808303816000875af11580156111cc573d6000803e3d6000fd5b505050506040513d601f19601f820116820180604052508101906111f0919061533d565b506002848154811061120557611204615197565b5b9060005260206000200160009054906101000a900473ffffffffffffffffffffffffffffffffffffffff1673ffffffffffffffffffffffffffffffffffffffff1663b6b55f25826040518263ffffffff1660e01b815260040161126891906148a2565b600060405180830381600087803b15801561128257600080fd5b505af1158015611296573d6000803e3d6000fd5b5050505080856112a691906152cb565b94505b505b50508080600101915050610ff0565b505050505b6112c76135e8565b565b6112d1613601565b6112da826136e7565b6112e482826136f2565b5050565b60045481565b600160009054906101000a900473ffffffffffffffffffffffffffffffffffffffff1681565b600061131e613811565b7f360894a13ba1a3210667c828492db98dca3e2076cc3735a920a3ca505d382bbc60001b905090565b61134f613898565b600073ffffffffffffffffffffffffffffffffffffffff168273ffffffffffffffffffffffffffffffffffffffff16036113be576040517f08c379a00000000000000000000000000000000000000000000000000000000081526004016113b5906153b6565b60405180910390fd5b80600960008473ffffffffffffffffffffffffffffffffffffffff1673ffffffffffffffffffffffffffffffffffffffff16815260200190815260200160002060006101000a81548160ff0219169083151502179055505050565b600660009054906101000a900473ffffffffffffffffffffffffffffffffffffffff1681565b611447613898565b611451600061391f565b565b6000806000905060005b600280549050811015611531576002818154811061147e5761147d615197565b5b9060005260206000200160009054906101000a900473ffffffffffffffffffffffffffffffffffffffff1673ffffffffffffffffffffffffffffffffffffffff1663d4c3eea06040518163ffffffff1660e01b8152600401602060405180830381865afa1580156114f3573d6000803e3d6000fd5b505050506040513d601f19601f82011682018060405250810190611517919061516a565b8261152291906151f5565b9150808060010191505061145d565b5060008054906101000a900473ffffffffffffffffffffffffffffffffffffffff1673ffffffffffffffffffffffffffffffffffffffff166370a08231306040518263ffffffff1660e01b815260040161158b91906145d2565b602060405180830381865afa1580156115a8573d6000803e3d6000fd5b505050506040513d601f19601f820116820180604052508101906115cc919061516a565b816115d791906151f5565b90508091505090565b600881815481106115f057600080fd5b90600052602060002090600202016000915090508060000160009054906101000a900473ffffffffffffffffffffffffffffffffffffffff16908060010154905082565b600760009054906101000a900473ffffffffffffffffffffffffffffffffffffffff1673ffffffffffffffffffffffffffffffffffffffff163373ffffffffffffffffffffffffffffffffffffffff1614806116c257506116936117b4565b73ffffffffffffffffffffffffffffffffffffffff163373ffffffffffffffffffffffffffffffffffffffff16145b611701576040517f08c379a00000000000000000000000000000000000000000000000000000000081526004016116f8906150a3565b60405180910390fd5b600073ffffffffffffffffffffffffffffffffffffffff168173ffffffffffffffffffffffffffffffffffffffff1603611770576040517f08c379a0000000000000000000000000000000000000000000000000000000008152600401611767906153b6565b60405180910390fd5b80600660006101000a81548173ffffffffffffffffffffffffffffffffffffffff021916908373ffffffffffffffffffffffffffffffffffffffff16021790555050565b6000806117bf6139f6565b90508060000160009054906101000a900473ffffffffffffffffffffffffffffffffffffffff1691505090565b600381815481106117fc57600080fd5b906000526020600020016000915090505481565b3373ffffffffffffffffffffffffffffffffffffffff1661182f6117b4565b73ffffffffffffffffffffffffffffffffffffffff16148061189a5750600960003373ffffffffffffffffffffffffffffffffffffffff1673ffffffffffffffffffffffffffffffffffffffff16815260200190815260200160002060009054906101000a900460ff165b806118d057503373ffffffffffffffffffffffffffffffffffffffff163073ffffffffffffffffffffffffffffffffffffffff16145b61190f576040517f08c379a0000000000000000000000000000000000000000000000000000000008152600401611906906150a3565b60405180910390fd5b611917613591565b60006008805490500315611f3c57600061192f611453565b90506004548111156119ae573073ffffffffffffffffffffffffffffffffffffffff1663a1af5b9a6040518163ffffffff1660e01b81526004016020604051808303816000875af1158015611988573d6000803e3d6000fd5b505050506040513d601f19601f820116820180604052508101906119ac919061516a565b505b60088054905083106119f5576040517f08c379a00000000000000000000000000000000000000000000000000000000081526004016119ec90615422565b60405180910390fd5b60008284611a0391906151f5565b9050600880549050811115611a1b5760088054905090505b6000600160009054906101000a900473ffffffffffffffffffffffffffffffffffffffff1673ffffffffffffffffffffffffffffffffffffffff166318160ddd6040518163ffffffff1660e01b8152600401602060405180830381865afa158015611a8a573d6000803e3d6000fd5b505050506040513d601f19601f82011682018060405250810190611aae919061516a565b905060008111611af3576040517f08c379a0000000000000000000000000000000000000000000000000000000008152600401611aea9061548e565b60405180910390fd5b6000808690505b83811015611b425760088181548110611b1657611b15615197565b5b90600052602060002090600202016001015482611b3391906151f5565b91508080600101915050611afa565b506000828286611b529190615229565b611b5c919061529a565b905060008054906101000a900473ffffffffffffffffffffffffffffffffffffffff1673ffffffffffffffffffffffffffffffffffffffff166370a08231306040518263ffffffff1660e01b8152600401611bb791906145d2565b602060405180830381865afa158015611bd4573d6000803e3d6000fd5b505050506040513d601f19601f82011682018060405250810190611bf8919061516a565b811115611cad57611cac60008054906101000a900473ffffffffffffffffffffffffffffffffffffffff1673ffffffffffffffffffffffffffffffffffffffff166370a08231306040518263ffffffff1660e01b8152600401611c5b91906145d2565b602060405180830381865afa158015611c78573d6000803e3d6000fd5b505050506040513d601f19601f82011682018060405250810190611c9c919061516a565b82611ca791906152cb565b613a1e565b5b60008790505b84811015611eee57600060088281548110611cd157611cd0615197565b5b90600052602060002090600202016040518060400160405290816000820160009054906101000a900473ffffffffffffffffffffffffffffffffffffffff1673ffffffffffffffffffffffffffffffffffffffff1673ffffffffffffffffffffffffffffffffffffffff16815260200160018201548152505090506000816020015103611d5e5750611ee1565b600085826020015189611d719190615229565b611d7b919061529a565b9050600160009054906101000a900473ffffffffffffffffffffffffffffffffffffffff1673ffffffffffffffffffffffffffffffffffffffff16639dc29fac3084602001516040518363ffffffff1660e01b8152600401611dde9291906149fe565b600060405180830381600087803b158015611df857600080fd5b505af1158015611e0c573d6000803e3d6000fd5b5050505060008054906101000a900473ffffffffffffffffffffffffffffffffffffffff1673ffffffffffffffffffffffffffffffffffffffff1663a9059cbb8360000151836040518363ffffffff1660e01b8152600401611e6f9291906149fe565b6020604051808303816000875af1158015611e8e573d6000803e3d6000fd5b505050506040513d601f19601f82011682018060405250810190611eb2919061533d565b50600060088481548110611ec957611ec8615197565b5b90600052602060002090600202016001018190555050505b8080600101915050611cb3565b50611ef7611453565b6004819055507f527e7d9d8ce9e973d15d3e7199e5c2453a068c50ce4160e5b9d2056205e913078785604051611f2e9291906154ae565b60405180910390a150505050505b611f446135e8565b5050565b60003373ffffffffffffffffffffffffffffffffffffffff16611f696117b4565b73ffffffffffffffffffffffffffffffffffffffff161480611fd45750600960003373ffffffffffffffffffffffffffffffffffffffff1673ffffffffffffffffffffffffffffffffffffffff16815260200190815260200160002060009054906101000a900460ff165b8061200a57503373ffffffffffffffffffffffffffffffffffffffff163073ffffffffffffffffffffffffffffffffffffffff16145b612049576040517f08c379a0000000000000000000000000000000000000000000000000000000008152600401612040906150a3565b60405180910390fd5b6000612053611453565b90506004548111612099576040517f08c379a000000000000000000000000000000000000000000000000000000000815260040161209090615523565b60405180910390fd5b6000600454826120a991906152cb565b905060006064600554836120bd9190615229565b6120c7919061529a565b90506000600160009054906101000a900473ffffffffffffffffffffffffffffffffffffffff1673ffffffffffffffffffffffffffffffffffffffff166318160ddd6040518163ffffffff1660e01b8152600401602060405180830381865afa158015612138573d6000803e3d6000fd5b505050506040513d601f19601f8201168201806040525081019061215c919061516a565b9050600084828461216d9190615229565b612177919061529a565b9050600160009054906101000a900473ffffffffffffffffffffffffffffffffffffffff1673ffffffffffffffffffffffffffffffffffffffff166340c10f19600660009054906101000a900473ffffffffffffffffffffffffffffffffffffffff16836040518363ffffffff1660e01b81526004016121f89291906149fe565b600060405180830381600087803b15801561221257600080fd5b505af1158015612226573d6000803e3d6000fd5b50505050846004819055507f8b608af848fa93b72e30fcc7b0c8c8307da3e494b0121ad48e44fbaf09fd08e38382600660009054906101000a900473ffffffffffffffffffffffffffffffffffffffff1660405161228693929190615543565b60405180910390a1809550505050505090565b6040518060400160405280600581526020017f352e302e3000000000000000000000000000000000000000000000000000000081525081565b60055481565b606060038054905060028054905014612326576040517f08c379a000000000000000000000000000000000000000000000000000000000815260040161231d906155c6565b60405180910390fd5b600060028054905067ffffffffffffffff81111561234757612346614702565b5b60405190808252806020026020018201604052801561238057816020015b61236d614553565b8152602001906001900390816123655790505b50905060005b6002805490508110156125ae576040518060800160405280600283815481106123b2576123b1615197565b5b9060005260206000200160009054906101000a900473ffffffffffffffffffffffffffffffffffffffff1673ffffffffffffffffffffffffffffffffffffffff1681526020016002838154811061240c5761240b615197565b5b9060005260206000200160009054906101000a900473ffffffffffffffffffffffffffffffffffffffff1673ffffffffffffffffffffffffffffffffffffffff1663e173ad256040518163ffffffff1660e01b8152600401600060405180830381865afa158015612481573d6000803e3d6000fd5b505050506040513d6000823e3d601f19601f820116820180604052508101906124aa9190615687565b8152602001600383815481106124c3576124c2615197565b5b90600052602060002001548152602001600283815481106124e7576124e6615197565b5b9060005260206000200160009054906101000a900473ffffffffffffffffffffffffffffffffffffffff1673ffffffffffffffffffffffffffffffffffffffff1663d4c3eea06040518163ffffffff1660e01b8152600401602060405180830381865afa15801561255c573d6000803e3d6000fd5b505050506040513d601f19601f82011682018060405250810190612580919061516a565b81525082828151811061259657612595615197565b5b60200260200101819052508080600101915050612386565b508091505090565b6000806125c1611453565b905060045481116125d6576000915050612607565b6000600454826125e691906152cb565b90506064600554826125f89190615229565b612602919061529a565b925050505b90565b3373ffffffffffffffffffffffffffffffffffffffff166126296117b4565b73ffffffffffffffffffffffffffffffffffffffff1614806126945750600960003373ffffffffffffffffffffffffffffffffffffffff1673ffffffffffffffffffffffffffffffffffffffff16815260200190815260200160002060009054906101000a900460ff165b806126ca57503373ffffffffffffffffffffffffffffffffffffffff163073ffffffffffffffffffffffffffffffffffffffff16145b612709576040517f08c379a0000000000000000000000000000000000000000000000000000000008152600401612700906150a3565b60405180910390fd5b6002805490508282905014612753576040517f08c379a000000000000000000000000000000000000000000000000000000000815260040161274a9061571c565b60405180910390fd5b600080600090505b8383905081101561279a5783838281811061277957612778615197565b5b905060200201358261278b91906151f5565b9150808060010191505061275b565b50600081116127de576040517f08c379a00000000000000000000000000000000000000000000000000000000081526004016127d590615788565b60405180910390fd5b60005b83839050811015612835578383828181106127ff576127fe615197565b5b905060200201356003828154811061281a57612819615197565b5b906000526020600020018190555080806001019150506127e1565b50505050565b3373ffffffffffffffffffffffffffffffffffffffff1661285a6117b4565b73ffffffffffffffffffffffffffffffffffffffff1614806128c55750600960003373ffffffffffffffffffffffffffffffffffffffff1673ffffffffffffffffffffffffffffffffffffffff16815260200190815260200160002060009054906101000a900460ff165b806128fb57503373ffffffffffffffffffffffffffffffffffffffff163073ffffffffffffffffffffffffffffffffffffffff16145b61293a576040517f08c379a0000000000000000000000000000000000000000000000000000000008152600401612931906150a3565b60405180910390fd5b8173ffffffffffffffffffffffffffffffffffffffff1663e173ad256040518163ffffffff1660e01b8152600401600060405180830381865afa9250505080156129a757506040513d6000823e3d601f19601f820116820180604052508101906129a49190615687565b60015b6129e6576040517f08c379a00000000000000000000000000000000000000000000000000000000081526004016129dd906157f4565b60405180910390fd5b508173ffffffffffffffffffffffffffffffffffffffff1663d4c3eea06040518163ffffffff1660e01b8152600401602060405180830381865afa925050508015612a4f57506040513d601f19601f82011682018060405250810190612a4c919061516a565b60015b612a8e576040517f08c379a0000000000000000000000000000000000000000000000000000000008152600401612a85906157f4565b60405180910390fd5b506002829080600181540180825580915050600190039060005260206000200160009091909190916101000a81548173ffffffffffffffffffffffffffffffffffffffff021916908373ffffffffffffffffffffffffffffffffffffffff16021790555060038190806001815401808255809150506001900390600052602060002001600090919091909150555050565b60606008805480602002602001604051908101604052809291908181526020016000905b82821015612bd557838290600052602060002090600202016040518060400160405290816000820160009054906101000a900473ffffffffffffffffffffffffffffffffffffffff1673ffffffffffffffffffffffffffffffffffffffff1673ffffffffffffffffffffffffffffffffffffffff16815260200160018201548152505081526020019060010190612b43565b50505050905090565b60028181548110612bee57600080fd5b906000526020600020016000915054906101000a900473ffffffffffffffffffffffffffffffffffffffff1681565b60096020528060005260406000206000915054906101000a900460ff1681565b3373ffffffffffffffffffffffffffffffffffffffff16612c5c6117b4565b73ffffffffffffffffffffffffffffffffffffffff161480612cc75750600960003373ffffffffffffffffffffffffffffffffffffffff1673ffffffffffffffffffffffffffffffffffffffff16815260200190815260200160002060009054906101000a900460ff165b80612cfd57503373ffffffffffffffffffffffffffffffffffffffff163073ffffffffffffffffffffffffffffffffffffffff16145b612d3c576040517f08c379a0000000000000000000000000000000000000000000000000000000008152600401612d33906150a3565b60405180910390fd5b60008282905011612d82576040517f08c379a0000000000000000000000000000000000000000000000000000000008152600401612d7990615860565b60405180910390fd5b60005b82829050811015612f9c57600280549050838383818110612da957612da8615197565b5b9050602002013510612df0576040517f08c379a0000000000000000000000000000000000000000000000000000000008152600401612de7906158cc565b60405180910390fd5b60026001600280549050612e0491906152cb565b81548110612e1557612e14615197565b5b9060005260206000200160009054906101000a900473ffffffffffffffffffffffffffffffffffffffff166002848484818110612e5557612e54615197565b5b9050602002013581548110612e6d57612e6c615197565b5b9060005260206000200160006101000a81548173ffffffffffffffffffffffffffffffffffffffff021916908373ffffffffffffffffffffffffffffffffffffffff1602179055506002805480612ec757612ec66158ec565b5b6001900381819060005260206000200160006101000a81549073ffffffffffffffffffffffffffffffffffffffff0219169055905560036001600380549050612f1091906152cb565b81548110612f2157612f20615197565b5b90600052602060002001546003848484818110612f4157612f40615197565b5b9050602002013581548110612f5957612f58615197565b5b90600052602060002001819055506003805480612f7957612f786158ec565b5b600190038181906000526020600020016000905590558080600101915050612d85565b505050565b612fa9613591565b80600160009054906101000a900473ffffffffffffffffffffffffffffffffffffffff1673ffffffffffffffffffffffffffffffffffffffff166370a08231336040518263ffffffff1660e01b815260040161300591906145d2565b602060405180830381865afa158015613022573d6000803e3d6000fd5b505050506040513d601f19601f82011682018060405250810190613046919061516a565b1015613087576040517f08c379a000000000000000000000000000000000000000000000000000000000815260040161307e90615967565b60405180910390fd5b600160009054906101000a900473ffffffffffffffffffffffffffffffffffffffff1673ffffffffffffffffffffffffffffffffffffffff166323b872dd3330846040518463ffffffff1660e01b81526004016130e693929190615987565b6020604051808303816000875af1158015613105573d6000803e3d6000fd5b505050506040513d601f19601f82011682018060405250810190613129919061533d565b50600860405180604001604052803373ffffffffffffffffffffffffffffffffffffffff16815260200183815250908060018154018082558091505060019003906000526020600020906002020160009091909190915060008201518160000160006101000a81548173ffffffffffffffffffffffffffffffffffffffff021916908373ffffffffffffffffffffffffffffffffffffffff1602179055506020820151816001015550506131db6135e8565b50565b6131e6613591565b6000339050600083839050111561329557828260405160200161320a9291906159ee565b6040516020818303038152906040528051906020012060001c9050600073ffffffffffffffffffffffffffffffffffffffff168173ffffffffffffffffffffffffffffffffffffffff1603613294576040517f08c379a000000000000000000000000000000000000000000000000000000000815260040161328b90615a53565b60405180910390fd5b5b600084116132d8576040517f08c379a00000000000000000000000000000000000000000000000000000000081526004016132cf90615abf565b60405180910390fd5b60008054906101000a900473ffffffffffffffffffffffffffffffffffffffff1673ffffffffffffffffffffffffffffffffffffffff166323b872dd3330876040518463ffffffff1660e01b815260040161333593929190615987565b6020604051808303816000875af1158015613354573d6000803e3d6000fd5b505050506040513d601f19601f82011682018060405250810190613378919061533d565b506133838482613f6d565b836004600082825461339591906151f5565b925050819055503373ffffffffffffffffffffffffffffffffffffffff167f643e927b32d5bfd08eccd2fcbd97057ad413850f857a2359639114e8e8dd3d7b856040516133e29190615b05565b60405180910390a2506133f36135e8565b505050565b613400613898565b600073ffffffffffffffffffffffffffffffffffffffff168173ffffffffffffffffffffffffffffffffffffffff16036134725760006040517f1e4fbdf700000000000000000000000000000000000000000000000000000000815260040161346991906145d2565b60405180910390fd5b61347b8161391f565b50565b613486613898565b600073ffffffffffffffffffffffffffffffffffffffff168173ffffffffffffffffffffffffffffffffffffffff16036134f5576040517f08c379a00000000000000000000000000000000000000000000000000000000081526004016134ec906153b6565b60405180910390fd5b80600760006101000a81548173ffffffffffffffffffffffffffffffffffffffff021916908373ffffffffffffffffffffffffffffffffffffffff16021790555050565b60007ff0c57e16840df040f15088dc2f81fe391c3923bec73e23a9662efc9c229c6a00905090565b6135696140e6565b61357281614126565b50565b61357d6140e6565b565b6135876140e6565b61358f6141ac565b565b600061359b6141cd565b905060028160000154036135db576040517f3ee5aeb500000000000000000000000000000000000000000000000000000000815260040160405180910390fd5b6002816000018190555050565b60006135f26141cd565b90506001816000018190555050565b7f000000000000000000000000000000000000000000000000000000000000000073ffffffffffffffffffffffffffffffffffffffff163073ffffffffffffffffffffffffffffffffffffffff1614806136ae57507f000000000000000000000000000000000000000000000000000000000000000073ffffffffffffffffffffffffffffffffffffffff166136956141f5565b73ffffffffffffffffffffffffffffffffffffffff1614155b156136e5576040517fe07c8dba00000000000000000000000000000000000000000000000000000000815260040160405180910390fd5b565b6136ef613898565b50565b8173ffffffffffffffffffffffffffffffffffffffff166352d1902d6040518163ffffffff1660e01b8152600401602060405180830381865afa92505050801561375a57506040513d601f19601f820116820180604052508101906137579190615b5f565b60015b61379b57816040517f4c9c8ce300000000000000000000000000000000000000000000000000000000815260040161379291906145d2565b60405180910390fd5b7f360894a13ba1a3210667c828492db98dca3e2076cc3735a920a3ca505d382bbc60001b811461380257806040517faa1d49a40000000000000000000000000000000000000000000000000000000081526004016137f99190614912565b60405180910390fd5b61380c838361424c565b505050565b7f000000000000000000000000000000000000000000000000000000000000000073ffffffffffffffffffffffffffffffffffffffff163073ffffffffffffffffffffffffffffffffffffffff1614613896576040517fe07c8dba00000000000000000000000000000000000000000000000000000000815260040160405180910390fd5b565b6138a06142bf565b73ffffffffffffffffffffffffffffffffffffffff166138be6117b4565b73ffffffffffffffffffffffffffffffffffffffff161461391d576138e16142bf565b6040517f118cdaa700000000000000000000000000000000000000000000000000000000815260040161391491906145d2565b60405180910390fd5b565b60006139296139f6565b905060008160000160009054906101000a900473ffffffffffffffffffffffffffffffffffffffff169050828260000160006101000a81548173ffffffffffffffffffffffffffffffffffffffff021916908373ffffffffffffffffffffffffffffffffffffffff1602179055508273ffffffffffffffffffffffffffffffffffffffff168173ffffffffffffffffffffffffffffffffffffffff167f8be0079c531659141344cd1fd0a4f28419497f9722a3daafe3b4186f6b6457e060405160405180910390a3505050565b60007f9016d09d72d40fdae2fd8ceac6b6234c7706214fd39c1cd1e609a0528c199300905090565b60008190506000805b600280549050811015613a6d5760038181548110613a4857613a47615197565b5b906000526020600020015482613a5e91906151f5565b91508080600101915050613a27565b5060005b600280549050811015613c9d576000830315613c9d576000816001600280549050613a9c91906152cb565b613aa691906152cb565b9050600060028281548110613abe57613abd615197565b5b9060005260206000200160009054906101000a900473ffffffffffffffffffffffffffffffffffffffff1673ffffffffffffffffffffffffffffffffffffffff1663d4c3eea06040518163ffffffff1660e01b8152600401602060405180830381865afa158015613b33573d6000803e3d6000fd5b505050506040513d601f19601f82011682018060405250810190613b57919061516a565b905060008103613b68575050613c90565b6000848760038581548110613b8057613b7f615197565b5b9060005260206000200154613b959190615229565b613b9f919061529a565b9050858110613bac578590505b81811115613bb8578190505b6000811115613c8c5760028381548110613bd557613bd4615197565b5b9060005260206000200160009054906101000a900473ffffffffffffffffffffffffffffffffffffffff1673ffffffffffffffffffffffffffffffffffffffff1662f714ce82306040518363ffffffff1660e01b8152600401613c399291906152ff565b6020604051808303816000875af1158015613c58573d6000803e3d6000fd5b505050506040513d601f19601f82011682018060405250810190613c7c919061516a565b508086613c8991906152cb565b95505b5050505b8080600101915050613a71565b5060008203613cad575050613f6a565b60005b600280549050811015613f2257600060028281548110613cd357613cd2615197565b5b9060005260206000200160009054906101000a900473ffffffffffffffffffffffffffffffffffffffff1673ffffffffffffffffffffffffffffffffffffffff1663d4c3eea06040518163ffffffff1660e01b8152600401602060405180830381865afa158015613d48573d6000803e3d6000fd5b505050506040513d601f19601f82011682018060405250810190613d6c919061516a565b905060008103613d7c5750613f15565b838110613e495760028281548110613d9757613d96615197565b5b9060005260206000200160009054906101000a900473ffffffffffffffffffffffffffffffffffffffff1673ffffffffffffffffffffffffffffffffffffffff1662f714ce85306040518363ffffffff1660e01b8152600401613dfb9291906152ff565b6020604051808303816000875af1158015613e1a573d6000803e3d6000fd5b505050506040513d601f19601f82011682018060405250810190613e3e919061516a565b506000935050613f22565b60028281548110613e5d57613e5c615197565b5b9060005260206000200160009054906101000a900473ffffffffffffffffffffffffffffffffffffffff1673ffffffffffffffffffffffffffffffffffffffff1662f714ce82306040518363ffffffff1660e01b8152600401613ec19291906152ff565b6020604051808303816000875af1158015613ee0573d6000803e3d6000fd5b505050506040513d601f19601f82011682018060405250810190613f04919061516a565b508084613f1191906152cb565b9350505b8080600101915050613cb0565b506000821115613f67576040517f08c379a0000000000000000000000000000000000000000000000000000000008152600401613f5e90615bd8565b60405180910390fd5b50505b50565b600082613f78611453565b613f8291906152cb565b90506000600160009054906101000a900473ffffffffffffffffffffffffffffffffffffffff1673ffffffffffffffffffffffffffffffffffffffff166318160ddd6040518163ffffffff1660e01b8152600401602060405180830381865afa158015613ff3573d6000803e3d6000fd5b505050506040513d601f19601f82011682018060405250810190614017919061516a565b90506000808214806140295750600083145b1561403657849050614050565b8282866140439190615229565b61404d919061529a565b90505b600160009054906101000a900473ffffffffffffffffffffffffffffffffffffffff1673ffffffffffffffffffffffffffffffffffffffff166340c10f1985836040518363ffffffff1660e01b81526004016140ad9291906149fe565b600060405180830381600087803b1580156140c757600080fd5b505af11580156140db573d6000803e3d6000fd5b505050505050505050565b6140ee6142c7565b614124576040517fd7e6bcf800000000000000000000000000000000000000000000000000000000815260040160405180910390fd5b565b61412e6140e6565b600073ffffffffffffffffffffffffffffffffffffffff168173ffffffffffffffffffffffffffffffffffffffff16036141a05760006040517f1e4fbdf700000000000000000000000000000000000000000000000000000000815260040161419791906145d2565b60405180910390fd5b6141a98161391f565b50565b6141b46140e6565b60006141be6141cd565b90506001816000018190555050565b60007f9b779b17422d0df92223018b32b4d1fa46e071723d6817e2486d003becc55f00905090565b60006142237f360894a13ba1a3210667c828492db98dca3e2076cc3735a920a3ca505d382bbc60001b6142e7565b60000160009054906101000a900473ffffffffffffffffffffffffffffffffffffffff16905090565b614255826142f1565b8173ffffffffffffffffffffffffffffffffffffffff167fbc7cd75a20ee27fd9adebab32041f755214dbc6bffa90cc0225b39da2e5c2d3b60405160405180910390a26000815111156142b2576142ac82826143be565b506142bb565b6142ba614442565b5b5050565b600033905090565b60006142d1613539565b60000160089054906101000a900460ff16905090565b6000819050919050565b60008173ffffffffffffffffffffffffffffffffffffffff163b0361434d57806040517f4c9c8ce300000000000000000000000000000000000000000000000000000000815260040161434491906145d2565b60405180910390fd5b8061437a7f360894a13ba1a3210667c828492db98dca3e2076cc3735a920a3ca505d382bbc60001b6142e7565b60000160006101000a81548173ffffffffffffffffffffffffffffffffffffffff021916908373ffffffffffffffffffffffffffffffffffffffff16021790555050565b60606000808473ffffffffffffffffffffffffffffffffffffffff16846040516143e89190615c3f565b600060405180830381855af49150503d8060008114614423576040519150601f19603f3d011682016040523d82523d6000602084013e614428565b606091505b509150915061443885838361447f565b9250505092915050565b600034111561447d576040517fb398979f00000000000000000000000000000000000000000000000000000000815260040160405180910390fd5b565b6060826144945761448f8261450e565b614506565b600082511480156144bc575060008473ffffffffffffffffffffffffffffffffffffffff163b145b156144fe57836040517f9996b3150000000000000000000000000000000000000000000000000000000081526004016144f591906145d2565b60405180910390fd5b819050614507565b5b9392505050565b6000815111156145215780518082602001fd5b6040517fd6bda27500000000000000000000000000000000000000000000000000000000815260040160405180910390fd5b6040518060800160405280600073ffffffffffffffffffffffffffffffffffffffff1681526020016060815260200160008152602001600081525090565b600073ffffffffffffffffffffffffffffffffffffffff82169050919050565b60006145bc82614591565b9050919050565b6145cc816145b1565b82525050565b60006020820190506145e760008301846145c3565b92915050565b6000819050919050565b600061461261460d61460884614591565b6145ed565b614591565b9050919050565b6000614624826145f7565b9050919050565b600061463682614619565b9050919050565b6146468161462b565b82525050565b6000602082019050614661600083018461463d565b92915050565b6000604051905090565b600080fd5b600080fd5b614684816145b1565b811461468f57600080fd5b50565b6000813590506146a18161467b565b92915050565b600080604083850312156146be576146bd614671565b5b60006146cc85828601614692565b92505060206146dd85828601614692565b9150509250929050565b600080fd5b600080fd5b6000601f19601f8301169050919050565b7f4e487b7100000000000000000000000000000000000000000000000000000000600052604160045260246000fd5b61473a826146f1565b810181811067ffffffffffffffff8211171561475957614758614702565b5b80604052505050565b600061476c614667565b90506147788282614731565b919050565b600067ffffffffffffffff82111561479857614797614702565b5b6147a1826146f1565b9050602081019050919050565b82818337600083830152505050565b60006147d06147cb8461477d565b614762565b9050828152602081018484840111156147ec576147eb6146ec565b5b6147f78482856147ae565b509392505050565b600082601f830112614814576148136146e7565b5b81356148248482602086016147bd565b91505092915050565b6000806040838503121561484457614843614671565b5b600061485285828601614692565b925050602083013567ffffffffffffffff81111561487357614872614676565b5b61487f858286016147ff565b9150509250929050565b6000819050919050565b61489c81614889565b82525050565b60006020820190506148b76000830184614893565b92915050565b60006148c882614619565b9050919050565b6148d8816148bd565b82525050565b60006020820190506148f360008301846148cf565b92915050565b6000819050919050565b61490c816148f9565b82525050565b60006020820190506149276000830184614903565b92915050565b60008115159050919050565b6149428161492d565b811461494d57600080fd5b50565b60008135905061495f81614939565b92915050565b6000806040838503121561497c5761497b614671565b5b600061498a85828601614692565b925050602061499b85828601614950565b9150509250929050565b6149ae81614889565b81146149b957600080fd5b50565b6000813590506149cb816149a5565b92915050565b6000602082840312156149e7576149e6614671565b5b60006149f5848285016149bc565b91505092915050565b6000604082019050614a1360008301856145c3565b614a206020830184614893565b9392505050565b600060208284031215614a3d57614a3c614671565b5b6000614a4b84828501614692565b91505092915050565b60008060408385031215614a6b57614a6a614671565b5b6000614a79858286016149bc565b9250506020614a8a858286016149bc565b9150509250929050565b600081519050919050565b600082825260208201905092915050565b60005b83811015614ace578082015181840152602081019050614ab3565b60008484015250505050565b6000614ae582614a94565b614aef8185614a9f565b9350614aff818560208601614ab0565b614b08816146f1565b840191505092915050565b60006020820190508181036000830152614b2d8184614ada565b905092915050565b600081519050919050565b600082825260208201905092915050565b6000819050602082019050919050565b614b6a816145b1565b82525050565b600082825260208201905092915050565b6000614b8c82614a94565b614b968185614b70565b9350614ba6818560208601614ab0565b614baf816146f1565b840191505092915050565b614bc381614889565b82525050565b6000608083016000830151614be16000860182614b61565b5060208301518482036020860152614bf98282614b81565b9150506040830151614c0e6040860182614bba565b506060830151614c216060860182614bba565b508091505092915050565b6000614c388383614bc9565b905092915050565b6000602082019050919050565b6000614c5882614b35565b614c628185614b40565b935083602082028501614c7485614b51565b8060005b85811015614cb05784840389528151614c918582614c2c565b9450614c9c83614c40565b925060208a01995050600181019050614c78565b50829750879550505050505092915050565b60006020820190508181036000830152614cdc8184614c4d565b905092915050565b600080fd5b600080fd5b60008083601f840112614d0457614d036146e7565b5b8235905067ffffffffffffffff811115614d2157614d20614ce4565b5b602083019150836020820283011115614d3d57614d3c614ce9565b5b9250929050565b60008060208385031215614d5b57614d5a614671565b5b600083013567ffffffffffffffff811115614d7957614d78614676565b5b614d8585828601614cee565b92509250509250929050565b60008060408385031215614da857614da7614671565b5b6000614db685828601614692565b9250506020614dc7858286016149bc565b9150509250929050565b600081519050919050565b600082825260208201905092915050565b6000819050602082019050919050565b604082016000820151614e136000850182614b61565b506020820151614e266020850182614bba565b50505050565b6000614e388383614dfd565b60408301905092915050565b6000602082019050919050565b6000614e5c82614dd1565b614e668185614ddc565b9350614e7183614ded565b8060005b83811015614ea2578151614e898882614e2c565b9750614e9483614e44565b925050600181019050614e75565b5085935050505092915050565b60006020820190508181036000830152614ec98184614e51565b905092915050565b6000614edc82614619565b9050919050565b614eec81614ed1565b82525050565b6000602082019050614f076000830184614ee3565b92915050565b614f168161492d565b82525050565b6000602082019050614f316000830184614f0d565b92915050565b60008083601f840112614f4d57614f4c6146e7565b5b8235905067ffffffffffffffff811115614f6a57614f69614ce4565b5b602083019150836001820283011115614f8657614f85614ce9565b5b9250929050565b600080600060408486031215614fa657614fa5614671565b5b6000614fb4868287016149bc565b935050602084013567ffffffffffffffff811115614fd557614fd4614676565b5b614fe186828701614f37565b92509250509250925092565b6000819050919050565b600067ffffffffffffffff82169050919050565b600061502661502161501c84614fed565b6145ed565b614ff7565b9050919050565b6150368161500b565b82525050565b6000602082019050615051600083018461502d565b92915050565b7f4e6f7420616c6c6f776564000000000000000000000000000000000000000000600082015250565b600061508d600b83614a9f565b915061509882615057565b602082019050919050565b600060208201905081810360008301526150bc81615080565b9050919050565b7f73747261746567696573206e6f7420636f6e666967757265642070726f70657260008201527f6c79000000000000000000000000000000000000000000000000000000000000602082015250565b600061511f602283614a9f565b915061512a826150c3565b604082019050919050565b6000602082019050818103600083015261514e81615112565b9050919050565b600081519050615164816149a5565b92915050565b6000602082840312156151805761517f614671565b5b600061518e84828501615155565b91505092915050565b7f4e487b7100000000000000000000000000000000000000000000000000000000600052603260045260246000fd5b7f4e487b7100000000000000000000000000000000000000000000000000000000600052601160045260246000fd5b600061520082614889565b915061520b83614889565b9250828201905080821115615223576152226151c6565b5b92915050565b600061523482614889565b915061523f83614889565b925082820261524d81614889565b91508282048414831517615264576152636151c6565b5b5092915050565b7f4e487b7100000000000000000000000000000000000000000000000000000000600052601260045260246000fd5b60006152a582614889565b91506152b083614889565b9250826152c0576152bf61526b565b5b828204905092915050565b60006152d682614889565b91506152e183614889565b92508282039050818111156152f9576152f86151c6565b5b92915050565b60006040820190506153146000830185614893565b61532160208301846145c3565b9392505050565b60008151905061533781614939565b92915050565b60006020828403121561535357615352614671565b5b600061536184828501615328565b91505092915050565b7f496e76616c696420616464726573730000000000000000000000000000000000600082015250565b60006153a0600f83614a9f565b91506153ab8261536a565b602082019050919050565b600060208201905081810360008301526153cf81615393565b9050919050565b7f5374617274206f7574206f662072616e67650000000000000000000000000000600082015250565b600061540c601283614a9f565b9150615417826153d6565b602082019050919050565b6000602082019050818103600083015261543b816153ff565b9050919050565b7f4e6f2057465220746f6b656e7320657869737400000000000000000000000000600082015250565b6000615478601383614a9f565b915061548382615442565b602082019050919050565b600060208201905081810360008301526154a78161546b565b9050919050565b60006040820190506154c36000830185614893565b6154d06020830184614893565b9392505050565b7f4e6f206e6577206761696e7320746f20636f6c6c656374000000000000000000600082015250565b600061550d601783614a9f565b9150615518826154d7565b602082019050919050565b6000602082019050818103600083015261553c81615500565b9050919050565b60006060820190506155586000830186614893565b6155656020830185614893565b61557260408301846145c3565b949350505050565b7f4e6f7420636f6e66696775726564000000000000000000000000000000000000600082015250565b60006155b0600e83614a9f565b91506155bb8261557a565b602082019050919050565b600060208201905081810360008301526155df816155a3565b9050919050565b600067ffffffffffffffff82111561560157615600614702565b5b61560a826146f1565b9050602081019050919050565b600061562a615625846155e6565b614762565b905082815260208101848484011115615646576156456146ec565b5b615651848285614ab0565b509392505050565b600082601f83011261566e5761566d6146e7565b5b815161567e848260208601615617565b91505092915050565b60006020828403121561569d5761569c614671565b5b600082015167ffffffffffffffff8111156156bb576156ba614676565b5b6156c784828501615659565b91505092915050565b7f4c656e677468206d69736d617463680000000000000000000000000000000000600082015250565b6000615706600f83614a9f565b9150615711826156d0565b602082019050919050565b60006020820190508181036000830152615735816156f9565b9050919050565b7f496e76616c696420776569676874730000000000000000000000000000000000600082015250565b6000615772600f83614a9f565b915061577d8261573c565b602082019050919050565b600060208201905081810360008301526157a181615765565b9050919050565b7f496e76616c696420737472617465677920696d706c656d656e746174696f6e00600082015250565b60006157de601f83614a9f565b91506157e9826157a8565b602082019050919050565b6000602082019050818103600083015261580d816157d1565b9050919050565b7f4e6f20696e64657865732070726f766964656400000000000000000000000000600082015250565b600061584a601383614a9f565b915061585582615814565b602082019050919050565b600060208201905081810360008301526158798161583d565b9050919050565b7f496e646578206f7574206f662072616e67650000000000000000000000000000600082015250565b60006158b6601283614a9f565b91506158c182615880565b602082019050919050565b600060208201905081810360008301526158e5816158a9565b9050919050565b7f4e487b7100000000000000000000000000000000000000000000000000000000600052603160045260246000fd5b7f496e73756666696369656e742057465200000000000000000000000000000000600082015250565b6000615951601083614a9f565b915061595c8261591b565b602082019050919050565b6000602082019050818103600083015261598081615944565b9050919050565b600060608201905061599c60008301866145c3565b6159a960208301856145c3565b6159b66040830184614893565b949350505050565b600081905092915050565b60006159d583856159be565b93506159e28385846147ae565b82840190509392505050565b60006159fb8284866159c9565b91508190509392505050565b7f4d656d6f20497320496e76616c696420457468657265756d2061646472657373600082015250565b6000615a3d602083614a9f565b9150615a4882615a07565b602082019050919050565b60006020820190508181036000830152615a6c81615a30565b9050919050565b7f496e76616c6964206465706f7369740000000000000000000000000000000000600082015250565b6000615aa9600f83614a9f565b9150615ab482615a73565b602082019050919050565b60006020820190508181036000830152615ad881615a9c565b9050919050565b50565b6000615aef600083614a9f565b9150615afa82615adf565b600082019050919050565b6000604082019050615b1a6000830184614893565b8181036020830152615b2b81615ae2565b905092915050565b615b3c816148f9565b8114615b4757600080fd5b50565b600081519050615b5981615b33565b92915050565b600060208284031215615b7557615b74614671565b5b6000615b8384828501615b4a565b91505092915050565b7f496e73756666696369656e742066756e647320696e2073747261746567696573600082015250565b6000615bc2602083614a9f565b9150615bcd82615b8c565b602082019050919050565b60006020820190508181036000830152615bf181615bb5565b9050919050565b600081519050919050565b600081905092915050565b6000615c1982615bf8565b615c238185615c03565b9350615c33818560208601614ab0565b80840191505092915050565b6000615c4b8284615c0e565b91508190509291505056fea2646970667358221220b785ab9c2a1f5ca71ac8b03471a69e692971d21be7324ba07e9fb4865ac8e25864736f6c634300081c0033",
  "linkReferences": {},
  "deployedLinkReferences": {}
}