{
  "_format": "hh-sol-artifact-1",
  "contractName": "StrategyAngle",
  "sourceName": "contracts/strategies/AngleStrategy.sol",
  "abi": [
    {
      "inputs": [
        {
          "internalType": "address",
          "name": "_usdc",
          "type": "address"
        },
        {
          "internalType": "address",
          "name": "_ausd",
          "type": "address"
        }
      ],
      "stateMutability": "nonpayable",
      "type": "constructor"
    },
    {
      "inputs": [],
      "name": "ausd",
      "outputs": [
        {
          "internalType": "contract IERC20",
          "name": "",
          "type": "address"
        }
      ],
      "stateMutability": "view",
      "type": "function"
    },
    {
      "inputs": [
        {
          "internalType": "uint256",
          "name": "amount",
          "type": "uint256"
        }
      ],
      "name": "deposit",
      "outputs": [],
      "stateMutability": "nonpayable",
      "type": "function"
    },
    {
      "inputs": [],
      "name": "strategyName",
      "outputs": [
        {
          "internalType": "string",
          "name": "",
          "type": "string"
        }
      ],
      "stateMutability": "pure",
      "type": "function"
    },
    {
      "inputs": [],
      "name": "totalValue",
      "outputs": [
        {
          "internalType": "uint256",
          "name": "",
          "type": "uint256"
        }
      ],
      "stateMutability": "view",
      "type": "function"
    },
    {
      "inputs": [],
      "name": "usdc",
      "outputs": [
        {
          "internalType": "contract IERC20",
          "name": "",
          "type": "address"
        }
      ],
      "stateMutability": "view",
      "type": "function"
    },
    {
      "inputs": [
        {
          "internalType": "uint256",
          "name": "amount",
          "type": "uint256"
        },
        {
          "internalType": "address",
          "name": "receiver",
          "type": "address"
        }
      ],
      "name": "withdraw",
      "outputs": [
        {
          "internalType": "uint256",
          "name": "",
          "type": "uint256"
        }
      ],
      "stateMutability": "nonpayable",
      "type": "function"
    }
  ],
  "bytecode": "0x608060405234801561001057600080fd5b50604051610a15380380610a158339818101604052810190610032919061011d565b816000806101000a81548173ffffffffffffffffffffffffffffffffffffffff021916908373ffffffffffffffffffffffffffffffffffffffff16021790555080600160006101000a81548173ffffffffffffffffffffffffffffffffffffffff021916908373ffffffffffffffffffffffffffffffffffffffff160217905550505061015d565b600080fd5b600073ffffffffffffffffffffffffffffffffffffffff82169050919050565b60006100ea826100bf565b9050919050565b6100fa816100df565b811461010557600080fd5b50565b600081519050610117816100f1565b92915050565b60008060408385031215610134576101336100ba565b5b600061014285828601610108565b925050602061015385828601610108565b9150509250929050565b6108a98061016c6000396000f3fe608060405234801561001057600080fd5b50600436106100615760003560e01c8062f714ce146100665780633e413bee14610096578063b6b55f25146100b4578063c23af832146100d0578063d4c3eea0146100ee578063e173ad251461010c575b600080fd5b610080600480360381019061007b919061057f565b61012a565b60405161008d91906105ce565b60405180910390f35b61009e610277565b6040516100ab9190610648565b60405180910390f35b6100ce60048036038101906100c99190610663565b61029b565b005b6100d86103e0565b6040516100e59190610648565b60405180910390f35b6100f6610406565b60405161010391906105ce565b60405180910390f35b6101146104a9565b6040516101219190610720565b60405180910390f35b6000600160009054906101000a900473ffffffffffffffffffffffffffffffffffffffff1673ffffffffffffffffffffffffffffffffffffffff166323b872dd3330866040518463ffffffff1660e01b815260040161018b93929190610751565b6020604051808303816000875af11580156101aa573d6000803e3d6000fd5b505050506040513d601f19601f820116820180604052508101906101ce91906107c0565b5060008054906101000a900473ffffffffffffffffffffffffffffffffffffffff1673ffffffffffffffffffffffffffffffffffffffff1663a9059cbb33856040518363ffffffff1660e01b815260040161022a9291906107ed565b6020604051808303816000875af1158015610249573d6000803e3d6000fd5b505050506040513d601f19601f8201168201806040525081019061026d91906107c0565b5082905092915050565b60008054906101000a900473ffffffffffffffffffffffffffffffffffffffff1681565b60008054906101000a900473ffffffffffffffffffffffffffffffffffffffff1673ffffffffffffffffffffffffffffffffffffffff166323b872dd3330846040518463ffffffff1660e01b81526004016102f893929190610751565b6020604051808303816000875af1158015610317573d6000803e3d6000fd5b505050506040513d601f19601f8201168201806040525081019061033b91906107c0565b50600160009054906101000a900473ffffffffffffffffffffffffffffffffffffffff1673ffffffffffffffffffffffffffffffffffffffff1663a9059cbb33836040518363ffffffff1660e01b81526004016103999291906107ed565b6020604051808303816000875af11580156103b8573d6000803e3d6000fd5b505050506040513d601f19601f820116820180604052508101906103dc91906107c0565b5050565b600160009054906101000a900473ffffffffffffffffffffffffffffffffffffffff1681565b6000600160009054906101000a900473ffffffffffffffffffffffffffffffffffffffff1673ffffffffffffffffffffffffffffffffffffffff166370a08231306040518263ffffffff1660e01b81526004016104639190610816565b602060405180830381865afa158015610480573d6000803e3d6000fd5b505050506040513d601f19601f820116820180604052508101906104a49190610846565b905090565b60606040518060400160405280600d81526020017f416e676c6520536176696e677300000000000000000000000000000000000000815250905090565b600080fd5b6000819050919050565b6104fe816104eb565b811461050957600080fd5b50565b60008135905061051b816104f5565b92915050565b600073ffffffffffffffffffffffffffffffffffffffff82169050919050565b600061054c82610521565b9050919050565b61055c81610541565b811461056757600080fd5b50565b60008135905061057981610553565b92915050565b60008060408385031215610596576105956104e6565b5b60006105a48582860161050c565b92505060206105b58582860161056a565b9150509250929050565b6105c8816104eb565b82525050565b60006020820190506105e360008301846105bf565b92915050565b6000819050919050565b600061060e61060961060484610521565b6105e9565b610521565b9050919050565b6000610620826105f3565b9050919050565b600061063282610615565b9050919050565b61064281610627565b82525050565b600060208201905061065d6000830184610639565b92915050565b600060208284031215610679576106786104e6565b5b60006106878482850161050c565b91505092915050565b600081519050919050565b600082825260208201905092915050565b60005b838110156106ca5780820151818401526020810190506106af565b60008484015250505050565b6000601f19601f8301169050919050565b60006106f282610690565b6106fc818561069b565b935061070c8185602086016106ac565b610715816106d6565b840191505092915050565b6000602082019050818103600083015261073a81846106e7565b905092915050565b61074b81610541565b82525050565b60006060820190506107666000830186610742565b6107736020830185610742565b61078060408301846105bf565b949350505050565b60008115159050919050565b61079d81610788565b81146107a857600080fd5b50565b6000815190506107ba81610794565b92915050565b6000602082840312156107d6576107d56104e6565b5b60006107e4848285016107ab565b91505092915050565b60006040820190506108026000830185610742565b61080f60208301846105bf565b9392505050565b600060208201905061082b6000830184610742565b92915050565b600081519050610840816104f5565b92915050565b60006020828403121561085c5761085b6104e6565b5b600061086a84828501610831565b9150509291505056fea2646970667358221220188abcaa7c03611fd56950ffe2ae1e613c6519a64b0bcf7a953f0f67d347126c64736f6c634300081c0033",
  "linkReferences": {},
  "deployedLinkReferences": {}
}