{
  "_format": "hh-sol-artifact-1",
  "contractName": "StrategyAngle",
  "sourceName": "contracts/strategies/AngleStrategy.sol",
  "abi": [
    {
      "inputs": [
        {
          "internalType": "address",
          "name": "_usdc",
          "type": "address"
        },
        {
          "internalType": "address",
          "name": "_ausd",
          "type": "address"
        }
      ],
      "stateMutability": "nonpayable",
      "type": "constructor"
    },
    {
      "inputs": [],
      "name": "ausd",
      "outputs": [
        {
          "internalType": "contract IERC20",
          "name": "",
          "type": "address"
        }
      ],
      "stateMutability": "view",
      "type": "function"
    },
    {
      "inputs": [
        {
          "internalType": "uint256",
          "name": "amount",
          "type": "uint256"
        }
      ],
      "name": "deposit",
      "outputs": [],
      "stateMutability": "nonpayable",
      "type": "function"
    },
    {
      "inputs": [],
      "name": "strategyName",
      "outputs": [
        {
          "internalType": "string",
          "name": "",
          "type": "string"
        }
      ],
      "stateMutability": "pure",
      "type": "function"
    },
    {
      "inputs": [],
      "name": "totalValue",
      "outputs": [
        {
          "internalType": "uint256",
          "name": "",
          "type": "uint256"
        }
      ],
      "stateMutability": "view",
      "type": "function"
    },
    {
      "inputs": [],
      "name": "usdc",
      "outputs": [
        {
          "internalType": "contract IERC20",
          "name": "",
          "type": "address"
        }
      ],
      "stateMutability": "view",
      "type": "function"
    },
    {
      "inputs": [
        {
          "internalType": "uint256",
          "name": "amount",
          "type": "uint256"
        }
      ],
      "name": "withdraw",
      "outputs": [
        {
          "internalType": "uint256",
          "name": "",
          "type": "uint256"
        }
      ],
      "stateMutability": "nonpayable",
      "type": "function"
    }
  ],
  "bytecode": "0x608060405234801561001057600080fd5b506040516109a93803806109a98339818101604052810190610032919061011d565b816000806101000a81548173ffffffffffffffffffffffffffffffffffffffff021916908373ffffffffffffffffffffffffffffffffffffffff16021790555080600160006101000a81548173ffffffffffffffffffffffffffffffffffffffff021916908373ffffffffffffffffffffffffffffffffffffffff160217905550505061015d565b600080fd5b600073ffffffffffffffffffffffffffffffffffffffff82169050919050565b60006100ea826100bf565b9050919050565b6100fa816100df565b811461010557600080fd5b50565b600081519050610117816100f1565b92915050565b60008060408385031215610134576101336100ba565b5b600061014285828601610108565b925050602061015385828601610108565b9150509250929050565b61083d8061016c6000396000f3fe608060405234801561001057600080fd5b50600436106100625760003560e01c80632e1a7d4d146100675780633e413bee14610097578063b6b55f25146100b5578063c23af832146100d1578063d4c3eea0146100ef578063e173ad251461010d575b600080fd5b610081600480360381019061007c9190610521565b61012b565b60405161008e919061055d565b60405180910390f35b61009f610277565b6040516100ac91906105f7565b60405180910390f35b6100cf60048036038101906100ca9190610521565b61029b565b005b6100d96103e0565b6040516100e691906105f7565b60405180910390f35b6100f7610406565b604051610104919061055d565b60405180910390f35b6101156104a9565b60405161012291906106a2565b60405180910390f35b6000600160009054906101000a900473ffffffffffffffffffffffffffffffffffffffff1673ffffffffffffffffffffffffffffffffffffffff166323b872dd3330856040518463ffffffff1660e01b815260040161018c939291906106e5565b6020604051808303816000875af11580156101ab573d6000803e3d6000fd5b505050506040513d601f19601f820116820180604052508101906101cf9190610754565b5060008054906101000a900473ffffffffffffffffffffffffffffffffffffffff1673ffffffffffffffffffffffffffffffffffffffff1663a9059cbb33846040518363ffffffff1660e01b815260040161022b929190610781565b6020604051808303816000875af115801561024a573d6000803e3d6000fd5b505050506040513d601f19601f8201168201806040525081019061026e9190610754565b50819050919050565b60008054906101000a900473ffffffffffffffffffffffffffffffffffffffff1681565b60008054906101000a900473ffffffffffffffffffffffffffffffffffffffff1673ffffffffffffffffffffffffffffffffffffffff166323b872dd3330846040518463ffffffff1660e01b81526004016102f8939291906106e5565b6020604051808303816000875af1158015610317573d6000803e3d6000fd5b505050506040513d601f19601f8201168201806040525081019061033b9190610754565b50600160009054906101000a900473ffffffffffffffffffffffffffffffffffffffff1673ffffffffffffffffffffffffffffffffffffffff1663a9059cbb33836040518363ffffffff1660e01b8152600401610399929190610781565b6020604051808303816000875af11580156103b8573d6000803e3d6000fd5b505050506040513d601f19601f820116820180604052508101906103dc9190610754565b5050565b600160009054906101000a900473ffffffffffffffffffffffffffffffffffffffff1681565b6000600160009054906101000a900473ffffffffffffffffffffffffffffffffffffffff1673ffffffffffffffffffffffffffffffffffffffff166370a08231306040518263ffffffff1660e01b815260040161046391906107aa565b602060405180830381865afa158015610480573d6000803e3d6000fd5b505050506040513d601f19601f820116820180604052508101906104a491906107da565b905090565b60606040518060400160405280600d81526020017f416e676c6520536176696e677300000000000000000000000000000000000000815250905090565b600080fd5b6000819050919050565b6104fe816104eb565b811461050957600080fd5b50565b60008135905061051b816104f5565b92915050565b600060208284031215610537576105366104e6565b5b60006105458482850161050c565b91505092915050565b610557816104eb565b82525050565b6000602082019050610572600083018461054e565b92915050565b600073ffffffffffffffffffffffffffffffffffffffff82169050919050565b6000819050919050565b60006105bd6105b86105b384610578565b610598565b610578565b9050919050565b60006105cf826105a2565b9050919050565b60006105e1826105c4565b9050919050565b6105f1816105d6565b82525050565b600060208201905061060c60008301846105e8565b92915050565b600081519050919050565b600082825260208201905092915050565b60005b8381101561064c578082015181840152602081019050610631565b60008484015250505050565b6000601f19601f8301169050919050565b600061067482610612565b61067e818561061d565b935061068e81856020860161062e565b61069781610658565b840191505092915050565b600060208201905081810360008301526106bc8184610669565b905092915050565b60006106cf82610578565b9050919050565b6106df816106c4565b82525050565b60006060820190506106fa60008301866106d6565b61070760208301856106d6565b610714604083018461054e565b949350505050565b60008115159050919050565b6107318161071c565b811461073c57600080fd5b50565b60008151905061074e81610728565b92915050565b60006020828403121561076a576107696104e6565b5b60006107788482850161073f565b91505092915050565b600060408201905061079660008301856106d6565b6107a3602083018461054e565b9392505050565b60006020820190506107bf60008301846106d6565b92915050565b6000815190506107d4816104f5565b92915050565b6000602082840312156107f0576107ef6104e6565b5b60006107fe848285016107c5565b9150509291505056fea264697066735822122058bd1d0b7311f34eb032ab0c90ee543561f7cc57c3f1d89f4399a94f28eb968e64736f6c634300081c0033",
  "linkReferences": {},
  "deployedLinkReferences": {}
}