{
  "_format": "hh-sol-artifact-1",
  "contractName": "StrategyAngle",
  "sourceName": "contracts/strategies/AngleStrategy.sol",
  "abi": [
    {
      "inputs": [
        {
          "internalType": "address",
          "name": "_usdc",
          "type": "address"
        },
        {
          "internalType": "address",
          "name": "_ausd",
          "type": "address"
        }
      ],
      "stateMutability": "nonpayable",
      "type": "constructor"
    },
    {
      "inputs": [],
      "name": "ausd",
      "outputs": [
        {
          "internalType": "contract IERC20",
          "name": "",
          "type": "address"
        }
      ],
      "stateMutability": "view",
      "type": "function"
    },
    {
      "inputs": [
        {
          "internalType": "uint256",
          "name": "amount",
          "type": "uint256"
        }
      ],
      "name": "deposit",
      "outputs": [],
      "stateMutability": "nonpayable",
      "type": "function"
    },
    {
      "inputs": [],
      "name": "totalValue",
      "outputs": [
        {
          "internalType": "uint256",
          "name": "",
          "type": "uint256"
        }
      ],
      "stateMutability": "view",
      "type": "function"
    },
    {
      "inputs": [],
      "name": "usdc",
      "outputs": [
        {
          "internalType": "contract IERC20",
          "name": "",
          "type": "address"
        }
      ],
      "stateMutability": "view",
      "type": "function"
    },
    {
      "inputs": [
        {
          "internalType": "uint256",
          "name": "amount",
          "type": "uint256"
        }
      ],
      "name": "withdraw",
      "outputs": [
        {
          "internalType": "uint256",
          "name": "",
          "type": "uint256"
        }
      ],
      "stateMutability": "nonpayable",
      "type": "function"
    }
  ],
  "bytecode": "0x608060405234801561001057600080fd5b506040516108913803806108918339818101604052810190610032919061011d565b816000806101000a81548173ffffffffffffffffffffffffffffffffffffffff021916908373ffffffffffffffffffffffffffffffffffffffff16021790555080600160006101000a81548173ffffffffffffffffffffffffffffffffffffffff021916908373ffffffffffffffffffffffffffffffffffffffff160217905550505061015d565b600080fd5b600073ffffffffffffffffffffffffffffffffffffffff82169050919050565b60006100ea826100bf565b9050919050565b6100fa816100df565b811461010557600080fd5b50565b600081519050610117816100f1565b92915050565b60008060408385031215610134576101336100ba565b5b600061014285828601610108565b925050602061015385828601610108565b9150509250929050565b6107258061016c6000396000f3fe608060405234801561001057600080fd5b50600436106100575760003560e01c80632e1a7d4d1461005c5780633e413bee1461008c578063b6b55f25146100aa578063c23af832146100c6578063d4c3eea0146100e4575b600080fd5b610076600480360381019061007191906104bb565b610102565b60405161008391906104f7565b60405180910390f35b61009461024e565b6040516100a19190610591565b60405180910390f35b6100c460048036038101906100bf91906104bb565b610272565b005b6100ce6103b7565b6040516100db9190610591565b60405180910390f35b6100ec6103dd565b6040516100f991906104f7565b60405180910390f35b6000600160009054906101000a900473ffffffffffffffffffffffffffffffffffffffff1673ffffffffffffffffffffffffffffffffffffffff166323b872dd3330856040518463ffffffff1660e01b8152600401610163939291906105cd565b6020604051808303816000875af1158015610182573d6000803e3d6000fd5b505050506040513d601f19601f820116820180604052508101906101a6919061063c565b5060008054906101000a900473ffffffffffffffffffffffffffffffffffffffff1673ffffffffffffffffffffffffffffffffffffffff1663a9059cbb33846040518363ffffffff1660e01b8152600401610202929190610669565b6020604051808303816000875af1158015610221573d6000803e3d6000fd5b505050506040513d601f19601f82011682018060405250810190610245919061063c565b50819050919050565b60008054906101000a900473ffffffffffffffffffffffffffffffffffffffff1681565b60008054906101000a900473ffffffffffffffffffffffffffffffffffffffff1673ffffffffffffffffffffffffffffffffffffffff166323b872dd3330846040518463ffffffff1660e01b81526004016102cf939291906105cd565b6020604051808303816000875af11580156102ee573d6000803e3d6000fd5b505050506040513d601f19601f82011682018060405250810190610312919061063c565b50600160009054906101000a900473ffffffffffffffffffffffffffffffffffffffff1673ffffffffffffffffffffffffffffffffffffffff1663a9059cbb33836040518363ffffffff1660e01b8152600401610370929190610669565b6020604051808303816000875af115801561038f573d6000803e3d6000fd5b505050506040513d601f19601f820116820180604052508101906103b3919061063c565b5050565b600160009054906101000a900473ffffffffffffffffffffffffffffffffffffffff1681565b6000600160009054906101000a900473ffffffffffffffffffffffffffffffffffffffff1673ffffffffffffffffffffffffffffffffffffffff166370a08231306040518263ffffffff1660e01b815260040161043a9190610692565b602060405180830381865afa158015610457573d6000803e3d6000fd5b505050506040513d601f19601f8201168201806040525081019061047b91906106c2565b905090565b600080fd5b6000819050919050565b61049881610485565b81146104a357600080fd5b50565b6000813590506104b58161048f565b92915050565b6000602082840312156104d1576104d0610480565b5b60006104df848285016104a6565b91505092915050565b6104f181610485565b82525050565b600060208201905061050c60008301846104e8565b92915050565b600073ffffffffffffffffffffffffffffffffffffffff82169050919050565b6000819050919050565b600061055761055261054d84610512565b610532565b610512565b9050919050565b60006105698261053c565b9050919050565b600061057b8261055e565b9050919050565b61058b81610570565b82525050565b60006020820190506105a66000830184610582565b92915050565b60006105b782610512565b9050919050565b6105c7816105ac565b82525050565b60006060820190506105e260008301866105be565b6105ef60208301856105be565b6105fc60408301846104e8565b949350505050565b60008115159050919050565b61061981610604565b811461062457600080fd5b50565b60008151905061063681610610565b92915050565b60006020828403121561065257610651610480565b5b600061066084828501610627565b91505092915050565b600060408201905061067e60008301856105be565b61068b60208301846104e8565b9392505050565b60006020820190506106a760008301846105be565b92915050565b6000815190506106bc8161048f565b92915050565b6000602082840312156106d8576106d7610480565b5b60006106e6848285016106ad565b9150509291505056fea2646970667358221220332a21051ba3466dbf9b897ef64bd5fe6363691b3c22390f79d36091d43d293464736f6c634300081c0033",
  "linkReferences": {},
  "deployedLinkReferences": {}
}