{
  "_format": "hh-sol-artifact-1",
  "contractName": "WFRToken",
  "sourceName": "contracts/WFRToken.sol",
  "abi": [
    {
      "inputs": [],
      "stateMutability": "nonpayable",
      "type": "constructor"
    },
    {
      "inputs": [
        {
          "internalType": "address",
          "name": "target",
          "type": "address"
        }
      ],
      "name": "AddressEmptyCode",
      "type": "error"
    },
    {
      "inputs": [],
      "name": "ECDSAInvalidSignature",
      "type": "error"
    },
    {
      "inputs": [
        {
          "internalType": "uint256",
          "name": "length",
          "type": "uint256"
        }
      ],
      "name": "ECDSAInvalidSignatureLength",
      "type": "error"
    },
    {
      "inputs": [
        {
          "internalType": "bytes32",
          "name": "s",
          "type": "bytes32"
        }
      ],
      "name": "ECDSAInvalidSignatureS",
      "type": "error"
    },
    {
      "inputs": [
        {
          "internalType": "address",
          "name": "implementation",
          "type": "address"
        }
      ],
      "name": "ERC1967InvalidImplementation",
      "type": "error"
    },
    {
      "inputs": [],
      "name": "ERC1967NonPayable",
      "type": "error"
    },
    {
      "inputs": [
        {
          "internalType": "address",
          "name": "spender",
          "type": "address"
        },
        {
          "internalType": "uint256",
          "name": "allowance",
          "type": "uint256"
        },
        {
          "internalType": "uint256",
          "name": "needed",
          "type": "uint256"
        }
      ],
      "name": "ERC20InsufficientAllowance",
      "type": "error"
    },
    {
      "inputs": [
        {
          "internalType": "address",
          "name": "sender",
          "type": "address"
        },
        {
          "internalType": "uint256",
          "name": "balance",
          "type": "uint256"
        },
        {
          "internalType": "uint256",
          "name": "needed",
          "type": "uint256"
        }
      ],
      "name": "ERC20InsufficientBalance",
      "type": "error"
    },
    {
      "inputs": [
        {
          "internalType": "address",
          "name": "approver",
          "type": "address"
        }
      ],
      "name": "ERC20InvalidApprover",
      "type": "error"
    },
    {
      "inputs": [
        {
          "internalType": "address",
          "name": "receiver",
          "type": "address"
        }
      ],
      "name": "ERC20InvalidReceiver",
      "type": "error"
    },
    {
      "inputs": [
        {
          "internalType": "address",
          "name": "sender",
          "type": "address"
        }
      ],
      "name": "ERC20InvalidSender",
      "type": "error"
    },
    {
      "inputs": [
        {
          "internalType": "address",
          "name": "spender",
          "type": "address"
        }
      ],
      "name": "ERC20InvalidSpender",
      "type": "error"
    },
    {
      "inputs": [
        {
          "internalType": "uint256",
          "name": "deadline",
          "type": "uint256"
        }
      ],
      "name": "ERC2612ExpiredSignature",
      "type": "error"
    },
    {
      "inputs": [
        {
          "internalType": "address",
          "name": "signer",
          "type": "address"
        },
        {
          "internalType": "address",
          "name": "owner",
          "type": "address"
        }
      ],
      "name": "ERC2612InvalidSigner",
      "type": "error"
    },
    {
      "inputs": [],
      "name": "FailedCall",
      "type": "error"
    },
    {
      "inputs": [
        {
          "internalType": "address",
          "name": "account",
          "type": "address"
        },
        {
          "internalType": "uint256",
          "name": "currentNonce",
          "type": "uint256"
        }
      ],
      "name": "InvalidAccountNonce",
      "type": "error"
    },
    {
      "inputs": [],
      "name": "InvalidInitialization",
      "type": "error"
    },
    {
      "inputs": [],
      "name": "NotInitializing",
      "type": "error"
    },
    {
      "inputs": [
        {
          "internalType": "address",
          "name": "owner",
          "type": "address"
        }
      ],
      "name": "OwnableInvalidOwner",
      "type": "error"
    },
    {
      "inputs": [
        {
          "internalType": "address",
          "name": "account",
          "type": "address"
        }
      ],
      "name": "OwnableUnauthorizedAccount",
      "type": "error"
    },
    {
      "inputs": [],
      "name": "UUPSUnauthorizedCallContext",
      "type": "error"
    },
    {
      "inputs": [
        {
          "internalType": "bytes32",
          "name": "slot",
          "type": "bytes32"
        }
      ],
      "name": "UUPSUnsupportedProxiableUUID",
      "type": "error"
    },
    {
      "anonymous": false,
      "inputs": [
        {
          "indexed": true,
          "internalType": "address",
          "name": "owner",
          "type": "address"
        },
        {
          "indexed": true,
          "internalType": "address",
          "name": "spender",
          "type": "address"
        },
        {
          "indexed": false,
          "internalType": "uint256",
          "name": "value",
          "type": "uint256"
        }
      ],
      "name": "Approval",
      "type": "event"
    },
    {
      "anonymous": false,
      "inputs": [],
      "name": "EIP712DomainChanged",
      "type": "event"
    },
    {
      "anonymous": false,
      "inputs": [
        {
          "indexed": false,
          "internalType": "uint64",
          "name": "version",
          "type": "uint64"
        }
      ],
      "name": "Initialized",
      "type": "event"
    },
    {
      "anonymous": false,
      "inputs": [
        {
          "indexed": true,
          "internalType": "address",
          "name": "previousOwner",
          "type": "address"
        },
        {
          "indexed": true,
          "internalType": "address",
          "name": "newOwner",
          "type": "address"
        }
      ],
      "name": "OwnershipTransferred",
      "type": "event"
    },
    {
      "anonymous": false,
      "inputs": [
        {
          "indexed": true,
          "internalType": "address",
          "name": "from",
          "type": "address"
        },
        {
          "indexed": true,
          "internalType": "address",
          "name": "to",
          "type": "address"
        },
        {
          "indexed": false,
          "internalType": "uint256",
          "name": "value",
          "type": "uint256"
        }
      ],
      "name": "Transfer",
      "type": "event"
    },
    {
      "anonymous": false,
      "inputs": [
        {
          "indexed": true,
          "internalType": "address",
          "name": "implementation",
          "type": "address"
        }
      ],
      "name": "Upgraded",
      "type": "event"
    },
    {
      "inputs": [],
      "name": "DOMAIN_SEPARATOR",
      "outputs": [
        {
          "internalType": "bytes32",
          "name": "",
          "type": "bytes32"
        }
      ],
      "stateMutability": "view",
      "type": "function"
    },
    {
      "inputs": [],
      "name": "UPGRADE_INTERFACE_VERSION",
      "outputs": [
        {
          "internalType": "string",
          "name": "",
          "type": "string"
        }
      ],
      "stateMutability": "view",
      "type": "function"
    },
    {
      "inputs": [
        {
          "internalType": "address",
          "name": "owner",
          "type": "address"
        },
        {
          "internalType": "address",
          "name": "spender",
          "type": "address"
        }
      ],
      "name": "allowance",
      "outputs": [
        {
          "internalType": "uint256",
          "name": "",
          "type": "uint256"
        }
      ],
      "stateMutability": "view",
      "type": "function"
    },
    {
      "inputs": [
        {
          "internalType": "address",
          "name": "spender",
          "type": "address"
        },
        {
          "internalType": "uint256",
          "name": "value",
          "type": "uint256"
        }
      ],
      "name": "approve",
      "outputs": [
        {
          "internalType": "bool",
          "name": "",
          "type": "bool"
        }
      ],
      "stateMutability": "nonpayable",
      "type": "function"
    },
    {
      "inputs": [
        {
          "internalType": "address",
          "name": "account",
          "type": "address"
        }
      ],
      "name": "balanceOf",
      "outputs": [
        {
          "internalType": "uint256",
          "name": "",
          "type": "uint256"
        }
      ],
      "stateMutability": "view",
      "type": "function"
    },
    {
      "inputs": [
        {
          "internalType": "address",
          "name": "from",
          "type": "address"
        },
        {
          "internalType": "uint256",
          "name": "amount",
          "type": "uint256"
        }
      ],
      "name": "burn",
      "outputs": [],
      "stateMutability": "nonpayable",
      "type": "function"
    },
    {
      "inputs": [],
      "name": "decimals",
      "outputs": [
        {
          "internalType": "uint8",
          "name": "",
          "type": "uint8"
        }
      ],
      "stateMutability": "view",
      "type": "function"
    },
    {
      "inputs": [],
      "name": "eip712Domain",
      "outputs": [
        {
          "internalType": "bytes1",
          "name": "fields",
          "type": "bytes1"
        },
        {
          "internalType": "string",
          "name": "name",
          "type": "string"
        },
        {
          "internalType": "string",
          "name": "version",
          "type": "string"
        },
        {
          "internalType": "uint256",
          "name": "chainId",
          "type": "uint256"
        },
        {
          "internalType": "address",
          "name": "verifyingContract",
          "type": "address"
        },
        {
          "internalType": "bytes32",
          "name": "salt",
          "type": "bytes32"
        },
        {
          "internalType": "uint256[]",
          "name": "extensions",
          "type": "uint256[]"
        }
      ],
      "stateMutability": "view",
      "type": "function"
    },
    {
      "inputs": [
        {
          "internalType": "address",
          "name": "initialOwner",
          "type": "address"
        }
      ],
      "name": "initialize",
      "outputs": [],
      "stateMutability": "nonpayable",
      "type": "function"
    },
    {
      "inputs": [
        {
          "internalType": "address",
          "name": "to",
          "type": "address"
        },
        {
          "internalType": "uint256",
          "name": "amount",
          "type": "uint256"
        }
      ],
      "name": "mint",
      "outputs": [],
      "stateMutability": "nonpayable",
      "type": "function"
    },
    {
      "inputs": [],
      "name": "name",
      "outputs": [
        {
          "internalType": "string",
          "name": "",
          "type": "string"
        }
      ],
      "stateMutability": "view",
      "type": "function"
    },
    {
      "inputs": [
        {
          "internalType": "address",
          "name": "owner",
          "type": "address"
        }
      ],
      "name": "nonces",
      "outputs": [
        {
          "internalType": "uint256",
          "name": "",
          "type": "uint256"
        }
      ],
      "stateMutability": "view",
      "type": "function"
    },
    {
      "inputs": [],
      "name": "owner",
      "outputs": [
        {
          "internalType": "address",
          "name": "",
          "type": "address"
        }
      ],
      "stateMutability": "view",
      "type": "function"
    },
    {
      "inputs": [
        {
          "internalType": "address",
          "name": "owner",
          "type": "address"
        },
        {
          "internalType": "address",
          "name": "spender",
          "type": "address"
        },
        {
          "internalType": "uint256",
          "name": "value",
          "type": "uint256"
        },
        {
          "internalType": "uint256",
          "name": "deadline",
          "type": "uint256"
        },
        {
          "internalType": "uint8",
          "name": "v",
          "type": "uint8"
        },
        {
          "internalType": "bytes32",
          "name": "r",
          "type": "bytes32"
        },
        {
          "internalType": "bytes32",
          "name": "s",
          "type": "bytes32"
        }
      ],
      "name": "permit",
      "outputs": [],
      "stateMutability": "nonpayable",
      "type": "function"
    },
    {
      "inputs": [],
      "name": "proxiableUUID",
      "outputs": [
        {
          "internalType": "bytes32",
          "name": "",
          "type": "bytes32"
        }
      ],
      "stateMutability": "view",
      "type": "function"
    },
    {
      "inputs": [],
      "name": "renounceOwnership",
      "outputs": [],
      "stateMutability": "nonpayable",
      "type": "function"
    },
    {
      "inputs": [],
      "name": "symbol",
      "outputs": [
        {
          "internalType": "string",
          "name": "",
          "type": "string"
        }
      ],
      "stateMutability": "view",
      "type": "function"
    },
    {
      "inputs": [],
      "name": "totalSupply",
      "outputs": [
        {
          "internalType": "uint256",
          "name": "",
          "type": "uint256"
        }
      ],
      "stateMutability": "view",
      "type": "function"
    },
    {
      "inputs": [
        {
          "internalType": "address",
          "name": "to",
          "type": "address"
        },
        {
          "internalType": "uint256",
          "name": "value",
          "type": "uint256"
        }
      ],
      "name": "transfer",
      "outputs": [
        {
          "internalType": "bool",
          "name": "",
          "type": "bool"
        }
      ],
      "stateMutability": "nonpayable",
      "type": "function"
    },
    {
      "inputs": [
        {
          "internalType": "address",
          "name": "from",
          "type": "address"
        },
        {
          "internalType": "address",
          "name": "to",
          "type": "address"
        },
        {
          "internalType": "uint256",
          "name": "value",
          "type": "uint256"
        }
      ],
      "name": "transferFrom",
      "outputs": [
        {
          "internalType": "bool",
          "name": "",
          "type": "bool"
        }
      ],
      "stateMutability": "nonpayable",
      "type": "function"
    },
    {
      "inputs": [
        {
          "internalType": "address",
          "name": "newOwner",
          "type": "address"
        }
      ],
      "name": "transferOwnership",
      "outputs": [],
      "stateMutability": "nonpayable",
      "type": "function"
    },
    {
      "inputs": [
        {
          "internalType": "address",
          "name": "newImplementation",
          "type": "address"
        },
        {
          "internalType": "bytes",
          "name": "data",
          "type": "bytes"
        }
      ],
      "name": "upgradeToAndCall",
      "outputs": [],
      "stateMutability": "payable",
      "type": "function"
    }
  ],
  "bytecode": "0x60a06040523073ffffffffffffffffffffffffffffffffffffffff1660809073ffffffffffffffffffffffffffffffffffffffff1681525034801561004357600080fd5b5061005261005760201b60201c565b6101c1565b600061006761015b60201b60201c565b90508060000160089054906101000a900460ff16156100b2576040517ff92ee8a900000000000000000000000000000000000000000000000000000000815260040160405180910390fd5b67ffffffffffffffff80168160000160009054906101000a900467ffffffffffffffff1667ffffffffffffffff16146101585767ffffffffffffffff8160000160006101000a81548167ffffffffffffffff021916908367ffffffffffffffff1602179055507fc7f505b2f371ae2175ee4913f4499e1f2633a7b5936321eed1cdaeb6115181d267ffffffffffffffff60405161014f91906101a6565b60405180910390a15b50565b60007ff0c57e16840df040f15088dc2f81fe391c3923bec73e23a9662efc9c229c6a00905090565b600067ffffffffffffffff82169050919050565b6101a081610183565b82525050565b60006020820190506101bb6000830184610197565b92915050565b6080516134fa6101ea60003960008181611152015281816111a7015261136201526134fa6000f3fe6080604052600436106101355760003560e01c80637ecebe00116100ab578063a9059cbb1161006f578063a9059cbb14610411578063ad3cb1cc1461044e578063c4d66de814610479578063d505accf146104a2578063dd62ed3e146104cb578063f2fde38b1461050857610135565b80637ecebe001461032457806384b0196e146103615780638da5cb5b1461039257806395d89b41146103bd5780639dc29fac146103e857610135565b80633644e515116100fd5780633644e5151461023557806340c10f19146102605780634f1ef2861461028957806352d1902d146102a557806370a08231146102d0578063715018a61461030d57610135565b806306fdde031461013a578063095ea7b31461016557806318160ddd146101a257806323b872dd146101cd578063313ce5671461020a575b600080fd5b34801561014657600080fd5b5061014f610531565b60405161015c91906125fe565b60405180910390f35b34801561017157600080fd5b5061018c600480360381019061018791906126c8565b6105d2565b6040516101999190612723565b60405180910390f35b3480156101ae57600080fd5b506101b76105f5565b6040516101c4919061274d565b60405180910390f35b3480156101d957600080fd5b506101f460048036038101906101ef9190612768565b61060d565b6040516102019190612723565b60405180910390f35b34801561021657600080fd5b5061021f61063c565b60405161022c91906127d7565b60405180910390f35b34801561024157600080fd5b5061024a610645565b604051610257919061280b565b60405180910390f35b34801561026c57600080fd5b50610287600480360381019061028291906126c8565b610654565b005b6102a3600480360381019061029e919061295b565b61066a565b005b3480156102b157600080fd5b506102ba610689565b6040516102c7919061280b565b60405180910390f35b3480156102dc57600080fd5b506102f760048036038101906102f291906129b7565b6106bc565b604051610304919061274d565b60405180910390f35b34801561031957600080fd5b50610322610713565b005b34801561033057600080fd5b5061034b600480360381019061034691906129b7565b610727565b604051610358919061274d565b60405180910390f35b34801561036d57600080fd5b50610376610739565b6040516103899796959493929190612aec565b60405180910390f35b34801561039e57600080fd5b506103a761084b565b6040516103b49190612b70565b60405180910390f35b3480156103c957600080fd5b506103d2610883565b6040516103df91906125fe565b60405180910390f35b3480156103f457600080fd5b5061040f600480360381019061040a91906126c8565b610924565b005b34801561041d57600080fd5b50610438600480360381019061043391906126c8565b61093a565b6040516104459190612723565b60405180910390f35b34801561045a57600080fd5b5061046361095d565b60405161047091906125fe565b60405180910390f35b34801561048557600080fd5b506104a0600480360381019061049b91906129b7565b610996565b005b3480156104ae57600080fd5b506104c960048036038101906104c49190612be3565b610c0a565b005b3480156104d757600080fd5b506104f260048036038101906104ed9190612c85565b610d52565b6040516104ff919061274d565b60405180910390f35b34801561051457600080fd5b5061052f600480360381019061052a91906129b7565b610de7565b005b6060600061053d610e6d565b905080600301805461054e90612cf4565b80601f016020809104026020016040519081016040528092919081815260200182805461057a90612cf4565b80156105c75780601f1061059c576101008083540402835291602001916105c7565b820191906000526020600020905b8154815290600101906020018083116105aa57829003601f168201915b505050505091505090565b6000806105dd610e95565b90506105ea818585610e9d565b600191505092915050565b600080610600610e6d565b9050806002015491505090565b600080610618610e95565b9050610625858285610eaf565b610630858585610f44565b60019150509392505050565b60006012905090565b600061064f611038565b905090565b61065c611047565b61066682826110ce565b5050565b610672611150565b61067b82611236565b6106858282611241565b5050565b6000610693611360565b7f360894a13ba1a3210667c828492db98dca3e2076cc3735a920a3ca505d382bbc60001b905090565b6000806106c7610e6d565b90508060000160008473ffffffffffffffffffffffffffffffffffffffff1673ffffffffffffffffffffffffffffffffffffffff16815260200190815260200160002054915050919050565b61071b611047565b61072560006113e7565b565b6000610732826114be565b9050919050565b600060608060008060006060600061074f611515565b90506000801b816000015414801561076d57506000801b8160010154145b6107ac576040517f08c379a00000000000000000000000000000000000000000000000000000000081526004016107a390612d71565b60405180910390fd5b6107b461153d565b6107bc6115de565b46306000801b600067ffffffffffffffff8111156107dd576107dc612830565b5b60405190808252806020026020018201604052801561080b5781602001602082028036833780820191505090505b507f0f0000000000000000000000000000000000000000000000000000000000000095949392919097509750975097509750975097505090919293949596565b60008061085661167f565b90508060000160009054906101000a900473ffffffffffffffffffffffffffffffffffffffff1691505090565b6060600061088f610e6d565b90508060040180546108a090612cf4565b80601f01602080910402602001604051908101604052809291908181526020018280546108cc90612cf4565b80156109195780601f106108ee57610100808354040283529160200191610919565b820191906000526020600020905b8154815290600101906020018083116108fc57829003601f168201915b505050505091505090565b61092c611047565b61093682826116a7565b5050565b600080610945610e95565b9050610952818585610f44565b600191505092915050565b6040518060400160405280600581526020017f352e302e3000000000000000000000000000000000000000000000000000000081525081565b60006109a0611729565b905060008160000160089054906101000a900460ff1615905060008260000160009054906101000a900467ffffffffffffffff1690506000808267ffffffffffffffff161480156109ee5750825b9050600060018367ffffffffffffffff16148015610a23575060003073ffffffffffffffffffffffffffffffffffffffff163b145b905081158015610a31575080155b15610a68576040517ff92ee8a900000000000000000000000000000000000000000000000000000000815260040160405180910390fd5b60018560000160006101000a81548167ffffffffffffffff021916908367ffffffffffffffff1602179055508315610ab85760018560000160086101000a81548160ff0219169083151502179055505b610b2c6040518060400160405280600a81526020017f5761667261546f6b656e000000000000000000000000000000000000000000008152506040518060400160405280600381526020017f5746520000000000000000000000000000000000000000000000000000000000815250611751565b610b3586611767565b610b736040518060400160405280600a81526020017f5761667261546f6b656e0000000000000000000000000000000000000000000081525061177b565b610b7b6117c5565b610ba633610b8761063c565b600a610b939190612ef3565b620f4240610ba19190612f3e565b6110ce565b8315610c025760008560000160086101000a81548160ff0219169083151502179055507fc7f505b2f371ae2175ee4913f4499e1f2633a7b5936321eed1cdaeb6115181d26001604051610bf99190612fd9565b60405180910390a15b505050505050565b83421115610c4f57836040517f62791302000000000000000000000000000000000000000000000000000000008152600401610c46919061274d565b60405180910390fd5b60007f6e71edae12b1b97f4d1f60370fef10105fa2faae0126114a169c64845d6126c9888888610c7e8c6117cf565b89604051602001610c9496959493929190612ff4565b6040516020818303038152906040528051906020012090506000610cb782611834565b90506000610cc78287878761184e565b90508973ffffffffffffffffffffffffffffffffffffffff168173ffffffffffffffffffffffffffffffffffffffff1614610d3b57808a6040517f4b800e46000000000000000000000000000000000000000000000000000000008152600401610d32929190613055565b60405180910390fd5b610d468a8a8a610e9d565b50505050505050505050565b600080610d5d610e6d565b90508060010160008573ffffffffffffffffffffffffffffffffffffffff1673ffffffffffffffffffffffffffffffffffffffff16815260200190815260200160002060008473ffffffffffffffffffffffffffffffffffffffff1673ffffffffffffffffffffffffffffffffffffffff1681526020019081526020016000205491505092915050565b610def611047565b600073ffffffffffffffffffffffffffffffffffffffff168173ffffffffffffffffffffffffffffffffffffffff1603610e615760006040517f1e4fbdf7000000000000000000000000000000000000000000000000000000008152600401610e589190612b70565b60405180910390fd5b610e6a816113e7565b50565b60007f52c63247e1f47db19d5ce0460030c497f067ca4cebf71ba98eeadabe20bace00905090565b600033905090565b610eaa838383600161187e565b505050565b6000610ebb8484610d52565b90507fffffffffffffffffffffffffffffffffffffffffffffffffffffffffffffffff811015610f3e5781811015610f2e578281836040517ffb8f41b2000000000000000000000000000000000000000000000000000000008152600401610f259392919061307e565b60405180910390fd5b610f3d8484848403600061187e565b5b50505050565b600073ffffffffffffffffffffffffffffffffffffffff168373ffffffffffffffffffffffffffffffffffffffff1603610fb65760006040517f96c6fd1e000000000000000000000000000000000000000000000000000000008152600401610fad9190612b70565b60405180910390fd5b600073ffffffffffffffffffffffffffffffffffffffff168273ffffffffffffffffffffffffffffffffffffffff16036110285760006040517fec442f0500000000000000000000000000000000000000000000000000000000815260040161101f9190612b70565b60405180910390fd5b611033838383611a64565b505050565b6000611042611ca3565b905090565b61104f610e95565b73ffffffffffffffffffffffffffffffffffffffff1661106d61084b565b73ffffffffffffffffffffffffffffffffffffffff16146110cc57611090610e95565b6040517f118cdaa70000000000000000000000000000000000000000000000000000000081526004016110c39190612b70565b60405180910390fd5b565b600073ffffffffffffffffffffffffffffffffffffffff168273ffffffffffffffffffffffffffffffffffffffff16036111405760006040517fec442f050000000000000000000000000000000000000000000000000000000081526004016111379190612b70565b60405180910390fd5b61114c60008383611a64565b5050565b7f000000000000000000000000000000000000000000000000000000000000000073ffffffffffffffffffffffffffffffffffffffff163073ffffffffffffffffffffffffffffffffffffffff1614806111fd57507f000000000000000000000000000000000000000000000000000000000000000073ffffffffffffffffffffffffffffffffffffffff166111e4611d07565b73ffffffffffffffffffffffffffffffffffffffff1614155b15611234576040517fe07c8dba00000000000000000000000000000000000000000000000000000000815260040160405180910390fd5b565b61123e611047565b50565b8173ffffffffffffffffffffffffffffffffffffffff166352d1902d6040518163ffffffff1660e01b8152600401602060405180830381865afa9250505080156112a957506040513d601f19601f820116820180604052508101906112a691906130ca565b60015b6112ea57816040517f4c9c8ce30000000000000000000000000000000000000000000000000000000081526004016112e19190612b70565b60405180910390fd5b7f360894a13ba1a3210667c828492db98dca3e2076cc3735a920a3ca505d382bbc60001b811461135157806040517faa1d49a4000000000000000000000000000000000000000000000000000000008152600401611348919061280b565b60405180910390fd5b61135b8383611d5e565b505050565b7f000000000000000000000000000000000000000000000000000000000000000073ffffffffffffffffffffffffffffffffffffffff163073ffffffffffffffffffffffffffffffffffffffff16146113e5576040517fe07c8dba00000000000000000000000000000000000000000000000000000000815260040160405180910390fd5b565b60006113f161167f565b905060008160000160009054906101000a900473ffffffffffffffffffffffffffffffffffffffff169050828260000160006101000a81548173ffffffffffffffffffffffffffffffffffffffff021916908373ffffffffffffffffffffffffffffffffffffffff1602179055508273ffffffffffffffffffffffffffffffffffffffff168173ffffffffffffffffffffffffffffffffffffffff167f8be0079c531659141344cd1fd0a4f28419497f9722a3daafe3b4186f6b6457e060405160405180910390a3505050565b6000806114c9611dd1565b90508060000160008473ffffffffffffffffffffffffffffffffffffffff1673ffffffffffffffffffffffffffffffffffffffff16815260200190815260200160002054915050919050565b60007fa16a46d94261c7517cc8ff89f61c0ce93598e3c849801011dee649a6a557d100905090565b60606000611549611515565b905080600201805461155a90612cf4565b80601f016020809104026020016040519081016040528092919081815260200182805461158690612cf4565b80156115d35780601f106115a8576101008083540402835291602001916115d3565b820191906000526020600020905b8154815290600101906020018083116115b657829003601f168201915b505050505091505090565b606060006115ea611515565b90508060030180546115fb90612cf4565b80601f016020809104026020016040519081016040528092919081815260200182805461162790612cf4565b80156116745780601f1061164957610100808354040283529160200191611674565b820191906000526020600020905b81548152906001019060200180831161165757829003601f168201915b505050505091505090565b60007f9016d09d72d40fdae2fd8ceac6b6234c7706214fd39c1cd1e609a0528c199300905090565b600073ffffffffffffffffffffffffffffffffffffffff168273ffffffffffffffffffffffffffffffffffffffff16036117195760006040517f96c6fd1e0000000000000000000000000000000000000000000000000000000081526004016117109190612b70565b60405180910390fd5b61172582600083611a64565b5050565b60007ff0c57e16840df040f15088dc2f81fe391c3923bec73e23a9662efc9c229c6a00905090565b611759611df9565b6117638282611e39565b5050565b61176f611df9565b61177881611e76565b50565b611783611df9565b6117c2816040518060400160405280600181526020017f3100000000000000000000000000000000000000000000000000000000000000815250611efc565b50565b6117cd611df9565b565b6000806117da611dd1565b90508060000160008473ffffffffffffffffffffffffffffffffffffffff1673ffffffffffffffffffffffffffffffffffffffff168152602001908152602001600020600081548092919060010191905055915050919050565b6000611847611841611038565b83611f51565b9050919050565b60008060008061186088888888611f92565b9250925092506118708282612086565b829350505050949350505050565b6000611888610e6d565b9050600073ffffffffffffffffffffffffffffffffffffffff168573ffffffffffffffffffffffffffffffffffffffff16036118fc5760006040517fe602df050000000000000000000000000000000000000000000000000000000081526004016118f39190612b70565b60405180910390fd5b600073ffffffffffffffffffffffffffffffffffffffff168473ffffffffffffffffffffffffffffffffffffffff160361196e5760006040517f94280d620000000000000000000000000000000000000000000000000000000081526004016119659190612b70565b60405180910390fd5b828160010160008773ffffffffffffffffffffffffffffffffffffffff1673ffffffffffffffffffffffffffffffffffffffff16815260200190815260200160002060008673ffffffffffffffffffffffffffffffffffffffff1673ffffffffffffffffffffffffffffffffffffffff168152602001908152602001600020819055508115611a5d578373ffffffffffffffffffffffffffffffffffffffff168573ffffffffffffffffffffffffffffffffffffffff167f8c5be1e5ebec7d5bd14f71427d1e84f3dd0314c0f7b2291e5b200ac8c7c3b92585604051611a54919061274d565b60405180910390a35b5050505050565b6000611a6e610e6d565b9050600073ffffffffffffffffffffffffffffffffffffffff168473ffffffffffffffffffffffffffffffffffffffff1603611ac45781816002016000828254611ab891906130f7565b92505081905550611b9d565b60008160000160008673ffffffffffffffffffffffffffffffffffffffff1673ffffffffffffffffffffffffffffffffffffffff16815260200190815260200160002054905082811015611b53578481846040517fe450d38c000000000000000000000000000000000000000000000000000000008152600401611b4a9392919061307e565b60405180910390fd5b8281038260000160008773ffffffffffffffffffffffffffffffffffffffff1673ffffffffffffffffffffffffffffffffffffffff16815260200190815260200160002081905550505b600073ffffffffffffffffffffffffffffffffffffffff168373ffffffffffffffffffffffffffffffffffffffff1603611be857818160020160008282540392505081905550611c38565b818160000160008573ffffffffffffffffffffffffffffffffffffffff1673ffffffffffffffffffffffffffffffffffffffff168152602001908152602001600020600082825401925050819055505b8273ffffffffffffffffffffffffffffffffffffffff168473ffffffffffffffffffffffffffffffffffffffff167fddf252ad1be2c89b69c2b068fc378daa952ba7f163c4a11628f55a4df523b3ef84604051611c95919061274d565b60405180910390a350505050565b60007f8b73c3c69bb8fe3d512ecc4cf759cc79239f7b179b0ffacaa9a75d522b39400f611cce6121ea565b611cd6612266565b4630604051602001611cec95949392919061312b565b60405160208183030381529060405280519060200120905090565b6000611d357f360894a13ba1a3210667c828492db98dca3e2076cc3735a920a3ca505d382bbc60001b6122e2565b60000160009054906101000a900473ffffffffffffffffffffffffffffffffffffffff16905090565b611d67826122ec565b8173ffffffffffffffffffffffffffffffffffffffff167fbc7cd75a20ee27fd9adebab32041f755214dbc6bffa90cc0225b39da2e5c2d3b60405160405180910390a2600081511115611dc457611dbe82826123b9565b50611dcd565b611dcc61243d565b5b5050565b60007f5ab42ced628888259c08ac98db1eb0cf702fc1501344311d8b100cd1bfe4bb00905090565b611e0161247a565b611e37576040517fd7e6bcf800000000000000000000000000000000000000000000000000000000815260040160405180910390fd5b565b611e41611df9565b6000611e4b610e6d565b905082816003019081611e5e9190613320565b5081816004019081611e709190613320565b50505050565b611e7e611df9565b600073ffffffffffffffffffffffffffffffffffffffff168173ffffffffffffffffffffffffffffffffffffffff1603611ef05760006040517f1e4fbdf7000000000000000000000000000000000000000000000000000000008152600401611ee79190612b70565b60405180910390fd5b611ef9816113e7565b50565b611f04611df9565b6000611f0e611515565b905082816002019081611f219190613320565b5081816003019081611f339190613320565b506000801b81600001819055506000801b8160010181905550505050565b60006040517f190100000000000000000000000000000000000000000000000000000000000081528360028201528260228201526042812091505092915050565b60008060007f7fffffffffffffffffffffffffffffff5d576e7357a4501ddfe92f46681b20a08460001c1115611fd257600060038592509250925061207c565b600060018888888860405160008152602001604052604051611ff794939291906133f2565b6020604051602081039080840390855afa158015612019573d6000803e3d6000fd5b505050602060405103519050600073ffffffffffffffffffffffffffffffffffffffff168173ffffffffffffffffffffffffffffffffffffffff160361206d57600060016000801b9350935093505061207c565b8060008060001b935093509350505b9450945094915050565b6000600381111561209a57612099613437565b5b8260038111156120ad576120ac613437565b5b03156121e657600160038111156120c7576120c6613437565b5b8260038111156120da576120d9613437565b5b03612111576040517ff645eedf00000000000000000000000000000000000000000000000000000000815260040160405180910390fd5b6002600381111561212557612124613437565b5b82600381111561213857612137613437565b5b0361217d578060001c6040517ffce698f7000000000000000000000000000000000000000000000000000000008152600401612174919061274d565b60405180910390fd5b6003808111156121905761218f613437565b5b8260038111156121a3576121a2613437565b5b036121e557806040517fd78bce0c0000000000000000000000000000000000000000000000000000000081526004016121dc919061280b565b60405180910390fd5b5b5050565b6000806121f5611515565b9050600061220161153d565b905060008151111561221e57808051906020012092505050612263565b6000826000015490506000801b811461223c57809350505050612263565b7fc5d2460186f7233c927e7db2dcc703c0e500b653ca82273b7bfad8045d85a47093505050505b90565b600080612271611515565b9050600061227d6115de565b905060008151111561229a578080519060200120925050506122df565b6000826001015490506000801b81146122b8578093505050506122df565b7fc5d2460186f7233c927e7db2dcc703c0e500b653ca82273b7bfad8045d85a47093505050505b90565b6000819050919050565b60008173ffffffffffffffffffffffffffffffffffffffff163b0361234857806040517f4c9c8ce300000000000000000000000000000000000000000000000000000000815260040161233f9190612b70565b60405180910390fd5b806123757f360894a13ba1a3210667c828492db98dca3e2076cc3735a920a3ca505d382bbc60001b6122e2565b60000160006101000a81548173ffffffffffffffffffffffffffffffffffffffff021916908373ffffffffffffffffffffffffffffffffffffffff16021790555050565b60606000808473ffffffffffffffffffffffffffffffffffffffff16846040516123e391906134ad565b600060405180830381855af49150503d806000811461241e576040519150601f19603f3d011682016040523d82523d6000602084013e612423565b606091505b509150915061243385838361249a565b9250505092915050565b6000341115612478576040517fb398979f00000000000000000000000000000000000000000000000000000000815260040160405180910390fd5b565b6000612484611729565b60000160089054906101000a900460ff16905090565b6060826124af576124aa82612529565b612521565b600082511480156124d7575060008473ffffffffffffffffffffffffffffffffffffffff163b145b1561251957836040517f9996b3150000000000000000000000000000000000000000000000000000000081526004016125109190612b70565b60405180910390fd5b819050612522565b5b9392505050565b60008151111561253c5780518082602001fd5b6040517fd6bda27500000000000000000000000000000000000000000000000000000000815260040160405180910390fd5b600081519050919050565b600082825260208201905092915050565b60005b838110156125a857808201518184015260208101905061258d565b60008484015250505050565b6000601f19601f8301169050919050565b60006125d08261256e565b6125da8185612579565b93506125ea81856020860161258a565b6125f3816125b4565b840191505092915050565b6000602082019050818103600083015261261881846125c5565b905092915050565b6000604051905090565b600080fd5b600080fd5b600073ffffffffffffffffffffffffffffffffffffffff82169050919050565b600061265f82612634565b9050919050565b61266f81612654565b811461267a57600080fd5b50565b60008135905061268c81612666565b92915050565b6000819050919050565b6126a581612692565b81146126b057600080fd5b50565b6000813590506126c28161269c565b92915050565b600080604083850312156126df576126de61262a565b5b60006126ed8582860161267d565b92505060206126fe858286016126b3565b9150509250929050565b60008115159050919050565b61271d81612708565b82525050565b60006020820190506127386000830184612714565b92915050565b61274781612692565b82525050565b6000602082019050612762600083018461273e565b92915050565b6000806000606084860312156127815761278061262a565b5b600061278f8682870161267d565b93505060206127a08682870161267d565b92505060406127b1868287016126b3565b9150509250925092565b600060ff82169050919050565b6127d1816127bb565b82525050565b60006020820190506127ec60008301846127c8565b92915050565b6000819050919050565b612805816127f2565b82525050565b600060208201905061282060008301846127fc565b92915050565b600080fd5b600080fd5b7f4e487b7100000000000000000000000000000000000000000000000000000000600052604160045260246000fd5b612868826125b4565b810181811067ffffffffffffffff8211171561288757612886612830565b5b80604052505050565b600061289a612620565b90506128a6828261285f565b919050565b600067ffffffffffffffff8211156128c6576128c5612830565b5b6128cf826125b4565b9050602081019050919050565b82818337600083830152505050565b60006128fe6128f9846128ab565b612890565b90508281526020810184848401111561291a5761291961282b565b5b6129258482856128dc565b509392505050565b600082601f83011261294257612941612826565b5b81356129528482602086016128eb565b91505092915050565b600080604083850312156129725761297161262a565b5b60006129808582860161267d565b925050602083013567ffffffffffffffff8111156129a1576129a061262f565b5b6129ad8582860161292d565b9150509250929050565b6000602082840312156129cd576129cc61262a565b5b60006129db8482850161267d565b91505092915050565b60007fff0000000000000000000000000000000000000000000000000000000000000082169050919050565b612a19816129e4565b82525050565b612a2881612654565b82525050565b600081519050919050565b600082825260208201905092915050565b6000819050602082019050919050565b612a6381612692565b82525050565b6000612a758383612a5a565b60208301905092915050565b6000602082019050919050565b6000612a9982612a2e565b612aa38185612a39565b9350612aae83612a4a565b8060005b83811015612adf578151612ac68882612a69565b9750612ad183612a81565b925050600181019050612ab2565b5085935050505092915050565b600060e082019050612b01600083018a612a10565b8181036020830152612b1381896125c5565b90508181036040830152612b2781886125c5565b9050612b36606083018761273e565b612b436080830186612a1f565b612b5060a08301856127fc565b81810360c0830152612b628184612a8e565b905098975050505050505050565b6000602082019050612b856000830184612a1f565b92915050565b612b94816127bb565b8114612b9f57600080fd5b50565b600081359050612bb181612b8b565b92915050565b612bc0816127f2565b8114612bcb57600080fd5b50565b600081359050612bdd81612bb7565b92915050565b600080600080600080600060e0888a031215612c0257612c0161262a565b5b6000612c108a828b0161267d565b9750506020612c218a828b0161267d565b9650506040612c328a828b016126b3565b9550506060612c438a828b016126b3565b9450506080612c548a828b01612ba2565b93505060a0612c658a828b01612bce565b92505060c0612c768a828b01612bce565b91505092959891949750929550565b60008060408385031215612c9c57612c9b61262a565b5b6000612caa8582860161267d565b9250506020612cbb8582860161267d565b9150509250929050565b7f4e487b7100000000000000000000000000000000000000000000000000000000600052602260045260246000fd5b60006002820490506001821680612d0c57607f821691505b602082108103612d1f57612d1e612cc5565b5b50919050565b7f4549503731323a20556e696e697469616c697a65640000000000000000000000600082015250565b6000612d5b601583612579565b9150612d6682612d25565b602082019050919050565b60006020820190508181036000830152612d8a81612d4e565b9050919050565b7f4e487b7100000000000000000000000000000000000000000000000000000000600052601160045260246000fd5b60008160011c9050919050565b6000808291508390505b6001851115612e1757808604811115612df357612df2612d91565b5b6001851615612e025780820291505b8081029050612e1085612dc0565b9450612dd7565b94509492505050565b600082612e305760019050612eec565b81612e3e5760009050612eec565b8160018114612e545760028114612e5e57612e8d565b6001915050612eec565b60ff841115612e7057612e6f612d91565b5b8360020a915084821115612e8757612e86612d91565b5b50612eec565b5060208310610133831016604e8410600b8410161715612ec25782820a905083811115612ebd57612ebc612d91565b5b612eec565b612ecf8484846001612dcd565b92509050818404811115612ee657612ee5612d91565b5b81810290505b9392505050565b6000612efe82612692565b9150612f09836127bb565b9250612f367fffffffffffffffffffffffffffffffffffffffffffffffffffffffffffffffff8484612e20565b905092915050565b6000612f4982612692565b9150612f5483612692565b9250828202612f6281612692565b91508282048414831517612f7957612f78612d91565b5b5092915050565b6000819050919050565b600067ffffffffffffffff82169050919050565b6000819050919050565b6000612fc3612fbe612fb984612f80565b612f9e565b612f8a565b9050919050565b612fd381612fa8565b82525050565b6000602082019050612fee6000830184612fca565b92915050565b600060c08201905061300960008301896127fc565b6130166020830188612a1f565b6130236040830187612a1f565b613030606083018661273e565b61303d608083018561273e565b61304a60a083018461273e565b979650505050505050565b600060408201905061306a6000830185612a1f565b6130776020830184612a1f565b9392505050565b60006060820190506130936000830186612a1f565b6130a0602083018561273e565b6130ad604083018461273e565b949350505050565b6000815190506130c481612bb7565b92915050565b6000602082840312156130e0576130df61262a565b5b60006130ee848285016130b5565b91505092915050565b600061310282612692565b915061310d83612692565b925082820190508082111561312557613124612d91565b5b92915050565b600060a08201905061314060008301886127fc565b61314d60208301876127fc565b61315a60408301866127fc565b613167606083018561273e565b6131746080830184612a1f565b9695505050505050565b60008190508160005260206000209050919050565b60006020601f8301049050919050565b600082821b905092915050565b6000600883026131e07fffffffffffffffffffffffffffffffffffffffffffffffffffffffffffffffff826131a3565b6131ea86836131a3565b95508019841693508086168417925050509392505050565b600061321d61321861321384612692565b612f9e565b612692565b9050919050565b6000819050919050565b61323783613202565b61324b61324382613224565b8484546131b0565b825550505050565b600090565b613260613253565b61326b81848461322e565b505050565b5b8181101561328f57613284600082613258565b600181019050613271565b5050565b601f8211156132d4576132a58161317e565b6132ae84613193565b810160208510156132bd578190505b6132d16132c985613193565b830182613270565b50505b505050565b600082821c905092915050565b60006132f7600019846008026132d9565b1980831691505092915050565b600061331083836132e6565b9150826002028217905092915050565b6133298261256e565b67ffffffffffffffff81111561334257613341612830565b5b61334c8254612cf4565b613357828285613293565b600060209050601f83116001811461338a5760008415613378578287015190505b6133828582613304565b8655506133ea565b601f1984166133988661317e565b60005b828110156133c05784890151825560018201915060208501945060208101905061339b565b868310156133dd57848901516133d9601f8916826132e6565b8355505b6001600288020188555050505b505050505050565b600060808201905061340760008301876127fc565b61341460208301866127c8565b61342160408301856127fc565b61342e60608301846127fc565b95945050505050565b7f4e487b7100000000000000000000000000000000000000000000000000000000600052602160045260246000fd5b600081519050919050565b600081905092915050565b600061348782613466565b6134918185613471565b93506134a181856020860161258a565b80840191505092915050565b60006134b9828461347c565b91508190509291505056fea2646970667358221220d74f673b306e18ce1cc741e8348b4304e449ba1ed66d105a52fe1c88a36b33e464736f6c634300081c0033",
  "linkReferences": {},
  "deployedLinkReferences": {}
}