{
  "_format": "hh-sol-artifact-1",
  "contractName": "WFRToken",
  "sourceName": "contracts/WFRToken.sol",
  "abi": [
    {
      "inputs": [],
      "stateMutability": "nonpayable",
      "type": "constructor"
    },
    {
      "inputs": [
        {
          "internalType": "address",
          "name": "target",
          "type": "address"
        }
      ],
      "name": "AddressEmptyCode",
      "type": "error"
    },
    {
      "inputs": [],
      "name": "ECDSAInvalidSignature",
      "type": "error"
    },
    {
      "inputs": [
        {
          "internalType": "uint256",
          "name": "length",
          "type": "uint256"
        }
      ],
      "name": "ECDSAInvalidSignatureLength",
      "type": "error"
    },
    {
      "inputs": [
        {
          "internalType": "bytes32",
          "name": "s",
          "type": "bytes32"
        }
      ],
      "name": "ECDSAInvalidSignatureS",
      "type": "error"
    },
    {
      "inputs": [
        {
          "internalType": "address",
          "name": "implementation",
          "type": "address"
        }
      ],
      "name": "ERC1967InvalidImplementation",
      "type": "error"
    },
    {
      "inputs": [],
      "name": "ERC1967NonPayable",
      "type": "error"
    },
    {
      "inputs": [
        {
          "internalType": "address",
          "name": "spender",
          "type": "address"
        },
        {
          "internalType": "uint256",
          "name": "allowance",
          "type": "uint256"
        },
        {
          "internalType": "uint256",
          "name": "needed",
          "type": "uint256"
        }
      ],
      "name": "ERC20InsufficientAllowance",
      "type": "error"
    },
    {
      "inputs": [
        {
          "internalType": "address",
          "name": "sender",
          "type": "address"
        },
        {
          "internalType": "uint256",
          "name": "balance",
          "type": "uint256"
        },
        {
          "internalType": "uint256",
          "name": "needed",
          "type": "uint256"
        }
      ],
      "name": "ERC20InsufficientBalance",
      "type": "error"
    },
    {
      "inputs": [
        {
          "internalType": "address",
          "name": "approver",
          "type": "address"
        }
      ],
      "name": "ERC20InvalidApprover",
      "type": "error"
    },
    {
      "inputs": [
        {
          "internalType": "address",
          "name": "receiver",
          "type": "address"
        }
      ],
      "name": "ERC20InvalidReceiver",
      "type": "error"
    },
    {
      "inputs": [
        {
          "internalType": "address",
          "name": "sender",
          "type": "address"
        }
      ],
      "name": "ERC20InvalidSender",
      "type": "error"
    },
    {
      "inputs": [
        {
          "internalType": "address",
          "name": "spender",
          "type": "address"
        }
      ],
      "name": "ERC20InvalidSpender",
      "type": "error"
    },
    {
      "inputs": [
        {
          "internalType": "uint256",
          "name": "deadline",
          "type": "uint256"
        }
      ],
      "name": "ERC2612ExpiredSignature",
      "type": "error"
    },
    {
      "inputs": [
        {
          "internalType": "address",
          "name": "signer",
          "type": "address"
        },
        {
          "internalType": "address",
          "name": "owner",
          "type": "address"
        }
      ],
      "name": "ERC2612InvalidSigner",
      "type": "error"
    },
    {
      "inputs": [],
      "name": "FailedCall",
      "type": "error"
    },
    {
      "inputs": [
        {
          "internalType": "address",
          "name": "account",
          "type": "address"
        },
        {
          "internalType": "uint256",
          "name": "currentNonce",
          "type": "uint256"
        }
      ],
      "name": "InvalidAccountNonce",
      "type": "error"
    },
    {
      "inputs": [],
      "name": "InvalidInitialization",
      "type": "error"
    },
    {
      "inputs": [],
      "name": "NotInitializing",
      "type": "error"
    },
    {
      "inputs": [
        {
          "internalType": "address",
          "name": "owner",
          "type": "address"
        }
      ],
      "name": "OwnableInvalidOwner",
      "type": "error"
    },
    {
      "inputs": [
        {
          "internalType": "address",
          "name": "account",
          "type": "address"
        }
      ],
      "name": "OwnableUnauthorizedAccount",
      "type": "error"
    },
    {
      "inputs": [],
      "name": "UUPSUnauthorizedCallContext",
      "type": "error"
    },
    {
      "inputs": [
        {
          "internalType": "bytes32",
          "name": "slot",
          "type": "bytes32"
        }
      ],
      "name": "UUPSUnsupportedProxiableUUID",
      "type": "error"
    },
    {
      "anonymous": false,
      "inputs": [
        {
          "indexed": true,
          "internalType": "address",
          "name": "owner",
          "type": "address"
        },
        {
          "indexed": true,
          "internalType": "address",
          "name": "spender",
          "type": "address"
        },
        {
          "indexed": false,
          "internalType": "uint256",
          "name": "value",
          "type": "uint256"
        }
      ],
      "name": "Approval",
      "type": "event"
    },
    {
      "anonymous": false,
      "inputs": [],
      "name": "EIP712DomainChanged",
      "type": "event"
    },
    {
      "anonymous": false,
      "inputs": [
        {
          "indexed": false,
          "internalType": "uint64",
          "name": "version",
          "type": "uint64"
        }
      ],
      "name": "Initialized",
      "type": "event"
    },
    {
      "anonymous": false,
      "inputs": [
        {
          "indexed": true,
          "internalType": "address",
          "name": "previousOwner",
          "type": "address"
        },
        {
          "indexed": true,
          "internalType": "address",
          "name": "newOwner",
          "type": "address"
        }
      ],
      "name": "OwnershipTransferred",
      "type": "event"
    },
    {
      "anonymous": false,
      "inputs": [
        {
          "indexed": true,
          "internalType": "address",
          "name": "from",
          "type": "address"
        },
        {
          "indexed": true,
          "internalType": "address",
          "name": "to",
          "type": "address"
        },
        {
          "indexed": false,
          "internalType": "uint256",
          "name": "value",
          "type": "uint256"
        }
      ],
      "name": "Transfer",
      "type": "event"
    },
    {
      "anonymous": false,
      "inputs": [
        {
          "indexed": true,
          "internalType": "address",
          "name": "implementation",
          "type": "address"
        }
      ],
      "name": "Upgraded",
      "type": "event"
    },
    {
      "inputs": [],
      "name": "DOMAIN_SEPARATOR",
      "outputs": [
        {
          "internalType": "bytes32",
          "name": "",
          "type": "bytes32"
        }
      ],
      "stateMutability": "view",
      "type": "function"
    },
    {
      "inputs": [],
      "name": "UPGRADE_INTERFACE_VERSION",
      "outputs": [
        {
          "internalType": "string",
          "name": "",
          "type": "string"
        }
      ],
      "stateMutability": "view",
      "type": "function"
    },
    {
      "inputs": [
        {
          "internalType": "address",
          "name": "owner",
          "type": "address"
        },
        {
          "internalType": "address",
          "name": "spender",
          "type": "address"
        }
      ],
      "name": "allowance",
      "outputs": [
        {
          "internalType": "uint256",
          "name": "",
          "type": "uint256"
        }
      ],
      "stateMutability": "view",
      "type": "function"
    },
    {
      "inputs": [
        {
          "internalType": "address",
          "name": "spender",
          "type": "address"
        },
        {
          "internalType": "uint256",
          "name": "value",
          "type": "uint256"
        }
      ],
      "name": "approve",
      "outputs": [
        {
          "internalType": "bool",
          "name": "",
          "type": "bool"
        }
      ],
      "stateMutability": "nonpayable",
      "type": "function"
    },
    {
      "inputs": [
        {
          "internalType": "address",
          "name": "account",
          "type": "address"
        }
      ],
      "name": "balanceOf",
      "outputs": [
        {
          "internalType": "uint256",
          "name": "",
          "type": "uint256"
        }
      ],
      "stateMutability": "view",
      "type": "function"
    },
    {
      "inputs": [
        {
          "internalType": "address",
          "name": "from",
          "type": "address"
        },
        {
          "internalType": "uint256",
          "name": "amount",
          "type": "uint256"
        }
      ],
      "name": "burn",
      "outputs": [],
      "stateMutability": "nonpayable",
      "type": "function"
    },
    {
      "inputs": [],
      "name": "decimals",
      "outputs": [
        {
          "internalType": "uint8",
          "name": "",
          "type": "uint8"
        }
      ],
      "stateMutability": "view",
      "type": "function"
    },
    {
      "inputs": [],
      "name": "eip712Domain",
      "outputs": [
        {
          "internalType": "bytes1",
          "name": "fields",
          "type": "bytes1"
        },
        {
          "internalType": "string",
          "name": "name",
          "type": "string"
        },
        {
          "internalType": "string",
          "name": "version",
          "type": "string"
        },
        {
          "internalType": "uint256",
          "name": "chainId",
          "type": "uint256"
        },
        {
          "internalType": "address",
          "name": "verifyingContract",
          "type": "address"
        },
        {
          "internalType": "bytes32",
          "name": "salt",
          "type": "bytes32"
        },
        {
          "internalType": "uint256[]",
          "name": "extensions",
          "type": "uint256[]"
        }
      ],
      "stateMutability": "view",
      "type": "function"
    },
    {
      "inputs": [
        {
          "internalType": "address",
          "name": "initialOwner",
          "type": "address"
        }
      ],
      "name": "initialize",
      "outputs": [],
      "stateMutability": "nonpayable",
      "type": "function"
    },
    {
      "inputs": [
        {
          "internalType": "address",
          "name": "to",
          "type": "address"
        },
        {
          "internalType": "uint256",
          "name": "amount",
          "type": "uint256"
        }
      ],
      "name": "mint",
      "outputs": [],
      "stateMutability": "nonpayable",
      "type": "function"
    },
    {
      "inputs": [],
      "name": "name",
      "outputs": [
        {
          "internalType": "string",
          "name": "",
          "type": "string"
        }
      ],
      "stateMutability": "view",
      "type": "function"
    },
    {
      "inputs": [
        {
          "internalType": "address",
          "name": "owner",
          "type": "address"
        }
      ],
      "name": "nonces",
      "outputs": [
        {
          "internalType": "uint256",
          "name": "",
          "type": "uint256"
        }
      ],
      "stateMutability": "view",
      "type": "function"
    },
    {
      "inputs": [],
      "name": "owner",
      "outputs": [
        {
          "internalType": "address",
          "name": "",
          "type": "address"
        }
      ],
      "stateMutability": "view",
      "type": "function"
    },
    {
      "inputs": [
        {
          "internalType": "address",
          "name": "owner",
          "type": "address"
        },
        {
          "internalType": "address",
          "name": "spender",
          "type": "address"
        },
        {
          "internalType": "uint256",
          "name": "value",
          "type": "uint256"
        },
        {
          "internalType": "uint256",
          "name": "deadline",
          "type": "uint256"
        },
        {
          "internalType": "uint8",
          "name": "v",
          "type": "uint8"
        },
        {
          "internalType": "bytes32",
          "name": "r",
          "type": "bytes32"
        },
        {
          "internalType": "bytes32",
          "name": "s",
          "type": "bytes32"
        }
      ],
      "name": "permit",
      "outputs": [],
      "stateMutability": "nonpayable",
      "type": "function"
    },
    {
      "inputs": [],
      "name": "proxiableUUID",
      "outputs": [
        {
          "internalType": "bytes32",
          "name": "",
          "type": "bytes32"
        }
      ],
      "stateMutability": "view",
      "type": "function"
    },
    {
      "inputs": [],
      "name": "renounceOwnership",
      "outputs": [],
      "stateMutability": "nonpayable",
      "type": "function"
    },
    {
      "inputs": [],
      "name": "symbol",
      "outputs": [
        {
          "internalType": "string",
          "name": "",
          "type": "string"
        }
      ],
      "stateMutability": "view",
      "type": "function"
    },
    {
      "inputs": [],
      "name": "totalSupply",
      "outputs": [
        {
          "internalType": "uint256",
          "name": "",
          "type": "uint256"
        }
      ],
      "stateMutability": "view",
      "type": "function"
    },
    {
      "inputs": [
        {
          "internalType": "address",
          "name": "to",
          "type": "address"
        },
        {
          "internalType": "uint256",
          "name": "value",
          "type": "uint256"
        }
      ],
      "name": "transfer",
      "outputs": [
        {
          "internalType": "bool",
          "name": "",
          "type": "bool"
        }
      ],
      "stateMutability": "nonpayable",
      "type": "function"
    },
    {
      "inputs": [
        {
          "internalType": "address",
          "name": "from",
          "type": "address"
        },
        {
          "internalType": "address",
          "name": "to",
          "type": "address"
        },
        {
          "internalType": "uint256",
          "name": "value",
          "type": "uint256"
        }
      ],
      "name": "transferFrom",
      "outputs": [
        {
          "internalType": "bool",
          "name": "",
          "type": "bool"
        }
      ],
      "stateMutability": "nonpayable",
      "type": "function"
    },
    {
      "inputs": [
        {
          "internalType": "address",
          "name": "newOwner",
          "type": "address"
        }
      ],
      "name": "transferOwnership",
      "outputs": [],
      "stateMutability": "nonpayable",
      "type": "function"
    },
    {
      "inputs": [
        {
          "internalType": "address",
          "name": "newImplementation",
          "type": "address"
        },
        {
          "internalType": "bytes",
          "name": "data",
          "type": "bytes"
        }
      ],
      "name": "upgradeToAndCall",
      "outputs": [],
      "stateMutability": "payable",
      "type": "function"
    }
  ],
  "bytecode": "0x60a06040523073ffffffffffffffffffffffffffffffffffffffff1660809073ffffffffffffffffffffffffffffffffffffffff1681525034801561004357600080fd5b5061005261005760201b60201c565b6101c1565b600061006761015b60201b60201c565b90508060000160089054906101000a900460ff16156100b2576040517ff92ee8a900000000000000000000000000000000000000000000000000000000815260040160405180910390fd5b67ffffffffffffffff80168160000160009054906101000a900467ffffffffffffffff1667ffffffffffffffff16146101585767ffffffffffffffff8160000160006101000a81548167ffffffffffffffff021916908367ffffffffffffffff1602179055507fc7f505b2f371ae2175ee4913f4499e1f2633a7b5936321eed1cdaeb6115181d267ffffffffffffffff60405161014f91906101a6565b60405180910390a15b50565b60007ff0c57e16840df040f15088dc2f81fe391c3923bec73e23a9662efc9c229c6a00905090565b600067ffffffffffffffff82169050919050565b6101a081610183565b82525050565b60006020820190506101bb6000830184610197565b92915050565b60805161330f6101ea600039600081816111270152818161117c0152611337015261330f6000f3fe6080604052600436106101355760003560e01c80637ecebe00116100ab578063a9059cbb1161006f578063a9059cbb14610411578063ad3cb1cc1461044e578063c4d66de814610479578063d505accf146104a2578063dd62ed3e146104cb578063f2fde38b1461050857610135565b80637ecebe001461032457806384b0196e146103615780638da5cb5b1461039257806395d89b41146103bd5780639dc29fac146103e857610135565b80633644e515116100fd5780633644e5151461023557806340c10f19146102605780634f1ef2861461028957806352d1902d146102a557806370a08231146102d0578063715018a61461030d57610135565b806306fdde031461013a578063095ea7b31461016557806318160ddd146101a257806323b872dd146101cd578063313ce5671461020a575b600080fd5b34801561014657600080fd5b5061014f610531565b60405161015c91906125d3565b60405180910390f35b34801561017157600080fd5b5061018c6004803603810190610187919061269d565b6105d2565b60405161019991906126f8565b60405180910390f35b3480156101ae57600080fd5b506101b76105f5565b6040516101c49190612722565b60405180910390f35b3480156101d957600080fd5b506101f460048036038101906101ef919061273d565b61060d565b60405161020191906126f8565b60405180910390f35b34801561021657600080fd5b5061021f61063c565b60405161022c91906127ac565b60405180910390f35b34801561024157600080fd5b5061024a610645565b60405161025791906127e0565b60405180910390f35b34801561026c57600080fd5b506102876004803603810190610282919061269d565b610654565b005b6102a3600480360381019061029e9190612930565b61066a565b005b3480156102b157600080fd5b506102ba610689565b6040516102c791906127e0565b60405180910390f35b3480156102dc57600080fd5b506102f760048036038101906102f2919061298c565b6106bc565b6040516103049190612722565b60405180910390f35b34801561031957600080fd5b50610322610713565b005b34801561033057600080fd5b5061034b6004803603810190610346919061298c565b610727565b6040516103589190612722565b60405180910390f35b34801561036d57600080fd5b50610376610739565b6040516103899796959493929190612ac1565b60405180910390f35b34801561039e57600080fd5b506103a761084b565b6040516103b49190612b45565b60405180910390f35b3480156103c957600080fd5b506103d2610883565b6040516103df91906125d3565b60405180910390f35b3480156103f457600080fd5b5061040f600480360381019061040a919061269d565b610924565b005b34801561041d57600080fd5b506104386004803603810190610433919061269d565b61093a565b60405161044591906126f8565b60405180910390f35b34801561045a57600080fd5b5061046361095d565b60405161047091906125d3565b60405180910390f35b34801561048557600080fd5b506104a0600480360381019061049b919061298c565b610996565b005b3480156104ae57600080fd5b506104c960048036038101906104c49190612bb8565b610bdf565b005b3480156104d757600080fd5b506104f260048036038101906104ed9190612c5a565b610d27565b6040516104ff9190612722565b60405180910390f35b34801561051457600080fd5b5061052f600480360381019061052a919061298c565b610dbc565b005b6060600061053d610e42565b905080600301805461054e90612cc9565b80601f016020809104026020016040519081016040528092919081815260200182805461057a90612cc9565b80156105c75780601f1061059c576101008083540402835291602001916105c7565b820191906000526020600020905b8154815290600101906020018083116105aa57829003601f168201915b505050505091505090565b6000806105dd610e6a565b90506105ea818585610e72565b600191505092915050565b600080610600610e42565b9050806002015491505090565b600080610618610e6a565b9050610625858285610e84565b610630858585610f19565b60019150509392505050565b60006012905090565b600061064f61100d565b905090565b61065c61101c565b61066682826110a3565b5050565b610672611125565b61067b8261120b565b6106858282611216565b5050565b6000610693611335565b7f360894a13ba1a3210667c828492db98dca3e2076cc3735a920a3ca505d382bbc60001b905090565b6000806106c7610e42565b90508060000160008473ffffffffffffffffffffffffffffffffffffffff1673ffffffffffffffffffffffffffffffffffffffff16815260200190815260200160002054915050919050565b61071b61101c565b61072560006113bc565b565b600061073282611493565b9050919050565b600060608060008060006060600061074f6114ea565b90506000801b816000015414801561076d57506000801b8160010154145b6107ac576040517f08c379a00000000000000000000000000000000000000000000000000000000081526004016107a390612d46565b60405180910390fd5b6107b4611512565b6107bc6115b3565b46306000801b600067ffffffffffffffff8111156107dd576107dc612805565b5b60405190808252806020026020018201604052801561080b5781602001602082028036833780820191505090505b507f0f0000000000000000000000000000000000000000000000000000000000000095949392919097509750975097509750975097505090919293949596565b600080610856611654565b90508060000160009054906101000a900473ffffffffffffffffffffffffffffffffffffffff1691505090565b6060600061088f610e42565b90508060040180546108a090612cc9565b80601f01602080910402602001604051908101604052809291908181526020018280546108cc90612cc9565b80156109195780601f106108ee57610100808354040283529160200191610919565b820191906000526020600020905b8154815290600101906020018083116108fc57829003601f168201915b505050505091505090565b61092c61101c565b610936828261167c565b5050565b600080610945610e6a565b9050610952818585610f19565b600191505092915050565b6040518060400160405280600581526020017f352e302e3000000000000000000000000000000000000000000000000000000081525081565b60006109a06116fe565b905060008160000160089054906101000a900460ff1615905060008260000160009054906101000a900467ffffffffffffffff1690506000808267ffffffffffffffff161480156109ee5750825b9050600060018367ffffffffffffffff16148015610a23575060003073ffffffffffffffffffffffffffffffffffffffff163b145b905081158015610a31575080155b15610a68576040517ff92ee8a900000000000000000000000000000000000000000000000000000000815260040160405180910390fd5b60018560000160006101000a81548167ffffffffffffffff021916908367ffffffffffffffff1602179055508315610ab85760018560000160086101000a81548160ff0219169083151502179055505b610b2c6040518060400160405280600a81526020017f5761667261546f6b656e000000000000000000000000000000000000000000008152506040518060400160405280600381526020017f5746520000000000000000000000000000000000000000000000000000000000815250611726565b610b358661173c565b610b736040518060400160405280600a81526020017f5761667261546f6b656e00000000000000000000000000000000000000000000815250611750565b610b7b61179a565b8315610bd75760008560000160086101000a81548160ff0219169083151502179055507fc7f505b2f371ae2175ee4913f4499e1f2633a7b5936321eed1cdaeb6115181d26001604051610bce9190612dbf565b60405180910390a15b505050505050565b83421115610c2457836040517f62791302000000000000000000000000000000000000000000000000000000008152600401610c1b9190612722565b60405180910390fd5b60007f6e71edae12b1b97f4d1f60370fef10105fa2faae0126114a169c64845d6126c9888888610c538c6117a4565b89604051602001610c6996959493929190612dda565b6040516020818303038152906040528051906020012090506000610c8c82611809565b90506000610c9c82878787611823565b90508973ffffffffffffffffffffffffffffffffffffffff168173ffffffffffffffffffffffffffffffffffffffff1614610d1057808a6040517f4b800e46000000000000000000000000000000000000000000000000000000008152600401610d07929190612e3b565b60405180910390fd5b610d1b8a8a8a610e72565b50505050505050505050565b600080610d32610e42565b90508060010160008573ffffffffffffffffffffffffffffffffffffffff1673ffffffffffffffffffffffffffffffffffffffff16815260200190815260200160002060008473ffffffffffffffffffffffffffffffffffffffff1673ffffffffffffffffffffffffffffffffffffffff1681526020019081526020016000205491505092915050565b610dc461101c565b600073ffffffffffffffffffffffffffffffffffffffff168173ffffffffffffffffffffffffffffffffffffffff1603610e365760006040517f1e4fbdf7000000000000000000000000000000000000000000000000000000008152600401610e2d9190612b45565b60405180910390fd5b610e3f816113bc565b50565b60007f52c63247e1f47db19d5ce0460030c497f067ca4cebf71ba98eeadabe20bace00905090565b600033905090565b610e7f8383836001611853565b505050565b6000610e908484610d27565b90507fffffffffffffffffffffffffffffffffffffffffffffffffffffffffffffffff811015610f135781811015610f03578281836040517ffb8f41b2000000000000000000000000000000000000000000000000000000008152600401610efa93929190612e64565b60405180910390fd5b610f1284848484036000611853565b5b50505050565b600073ffffffffffffffffffffffffffffffffffffffff168373ffffffffffffffffffffffffffffffffffffffff1603610f8b5760006040517f96c6fd1e000000000000000000000000000000000000000000000000000000008152600401610f829190612b45565b60405180910390fd5b600073ffffffffffffffffffffffffffffffffffffffff168273ffffffffffffffffffffffffffffffffffffffff1603610ffd5760006040517fec442f05000000000000000000000000000000000000000000000000000000008152600401610ff49190612b45565b60405180910390fd5b611008838383611a39565b505050565b6000611017611c78565b905090565b611024610e6a565b73ffffffffffffffffffffffffffffffffffffffff1661104261084b565b73ffffffffffffffffffffffffffffffffffffffff16146110a157611065610e6a565b6040517f118cdaa70000000000000000000000000000000000000000000000000000000081526004016110989190612b45565b60405180910390fd5b565b600073ffffffffffffffffffffffffffffffffffffffff168273ffffffffffffffffffffffffffffffffffffffff16036111155760006040517fec442f0500000000000000000000000000000000000000000000000000000000815260040161110c9190612b45565b60405180910390fd5b61112160008383611a39565b5050565b7f000000000000000000000000000000000000000000000000000000000000000073ffffffffffffffffffffffffffffffffffffffff163073ffffffffffffffffffffffffffffffffffffffff1614806111d257507f000000000000000000000000000000000000000000000000000000000000000073ffffffffffffffffffffffffffffffffffffffff166111b9611cdc565b73ffffffffffffffffffffffffffffffffffffffff1614155b15611209576040517fe07c8dba00000000000000000000000000000000000000000000000000000000815260040160405180910390fd5b565b61121361101c565b50565b8173ffffffffffffffffffffffffffffffffffffffff166352d1902d6040518163ffffffff1660e01b8152600401602060405180830381865afa92505050801561127e57506040513d601f19601f8201168201806040525081019061127b9190612eb0565b60015b6112bf57816040517f4c9c8ce30000000000000000000000000000000000000000000000000000000081526004016112b69190612b45565b60405180910390fd5b7f360894a13ba1a3210667c828492db98dca3e2076cc3735a920a3ca505d382bbc60001b811461132657806040517faa1d49a400000000000000000000000000000000000000000000000000000000815260040161131d91906127e0565b60405180910390fd5b6113308383611d33565b505050565b7f000000000000000000000000000000000000000000000000000000000000000073ffffffffffffffffffffffffffffffffffffffff163073ffffffffffffffffffffffffffffffffffffffff16146113ba576040517fe07c8dba00000000000000000000000000000000000000000000000000000000815260040160405180910390fd5b565b60006113c6611654565b905060008160000160009054906101000a900473ffffffffffffffffffffffffffffffffffffffff169050828260000160006101000a81548173ffffffffffffffffffffffffffffffffffffffff021916908373ffffffffffffffffffffffffffffffffffffffff1602179055508273ffffffffffffffffffffffffffffffffffffffff168173ffffffffffffffffffffffffffffffffffffffff167f8be0079c531659141344cd1fd0a4f28419497f9722a3daafe3b4186f6b6457e060405160405180910390a3505050565b60008061149e611da6565b90508060000160008473ffffffffffffffffffffffffffffffffffffffff1673ffffffffffffffffffffffffffffffffffffffff16815260200190815260200160002054915050919050565b60007fa16a46d94261c7517cc8ff89f61c0ce93598e3c849801011dee649a6a557d100905090565b6060600061151e6114ea565b905080600201805461152f90612cc9565b80601f016020809104026020016040519081016040528092919081815260200182805461155b90612cc9565b80156115a85780601f1061157d576101008083540402835291602001916115a8565b820191906000526020600020905b81548152906001019060200180831161158b57829003601f168201915b505050505091505090565b606060006115bf6114ea565b90508060030180546115d090612cc9565b80601f01602080910402602001604051908101604052809291908181526020018280546115fc90612cc9565b80156116495780601f1061161e57610100808354040283529160200191611649565b820191906000526020600020905b81548152906001019060200180831161162c57829003601f168201915b505050505091505090565b60007f9016d09d72d40fdae2fd8ceac6b6234c7706214fd39c1cd1e609a0528c199300905090565b600073ffffffffffffffffffffffffffffffffffffffff168273ffffffffffffffffffffffffffffffffffffffff16036116ee5760006040517f96c6fd1e0000000000000000000000000000000000000000000000000000000081526004016116e59190612b45565b60405180910390fd5b6116fa82600083611a39565b5050565b60007ff0c57e16840df040f15088dc2f81fe391c3923bec73e23a9662efc9c229c6a00905090565b61172e611dce565b6117388282611e0e565b5050565b611744611dce565b61174d81611e4b565b50565b611758611dce565b611797816040518060400160405280600181526020017f3100000000000000000000000000000000000000000000000000000000000000815250611ed1565b50565b6117a2611dce565b565b6000806117af611da6565b90508060000160008473ffffffffffffffffffffffffffffffffffffffff1673ffffffffffffffffffffffffffffffffffffffff168152602001908152602001600020600081548092919060010191905055915050919050565b600061181c61181661100d565b83611f26565b9050919050565b60008060008061183588888888611f67565b925092509250611845828261205b565b829350505050949350505050565b600061185d610e42565b9050600073ffffffffffffffffffffffffffffffffffffffff168573ffffffffffffffffffffffffffffffffffffffff16036118d15760006040517fe602df050000000000000000000000000000000000000000000000000000000081526004016118c89190612b45565b60405180910390fd5b600073ffffffffffffffffffffffffffffffffffffffff168473ffffffffffffffffffffffffffffffffffffffff16036119435760006040517f94280d6200000000000000000000000000000000000000000000000000000000815260040161193a9190612b45565b60405180910390fd5b828160010160008773ffffffffffffffffffffffffffffffffffffffff1673ffffffffffffffffffffffffffffffffffffffff16815260200190815260200160002060008673ffffffffffffffffffffffffffffffffffffffff1673ffffffffffffffffffffffffffffffffffffffff168152602001908152602001600020819055508115611a32578373ffffffffffffffffffffffffffffffffffffffff168573ffffffffffffffffffffffffffffffffffffffff167f8c5be1e5ebec7d5bd14f71427d1e84f3dd0314c0f7b2291e5b200ac8c7c3b92585604051611a299190612722565b60405180910390a35b5050505050565b6000611a43610e42565b9050600073ffffffffffffffffffffffffffffffffffffffff168473ffffffffffffffffffffffffffffffffffffffff1603611a995781816002016000828254611a8d9190612f0c565b92505081905550611b72565b60008160000160008673ffffffffffffffffffffffffffffffffffffffff1673ffffffffffffffffffffffffffffffffffffffff16815260200190815260200160002054905082811015611b28578481846040517fe450d38c000000000000000000000000000000000000000000000000000000008152600401611b1f93929190612e64565b60405180910390fd5b8281038260000160008773ffffffffffffffffffffffffffffffffffffffff1673ffffffffffffffffffffffffffffffffffffffff16815260200190815260200160002081905550505b600073ffffffffffffffffffffffffffffffffffffffff168373ffffffffffffffffffffffffffffffffffffffff1603611bbd57818160020160008282540392505081905550611c0d565b818160000160008573ffffffffffffffffffffffffffffffffffffffff1673ffffffffffffffffffffffffffffffffffffffff168152602001908152602001600020600082825401925050819055505b8273ffffffffffffffffffffffffffffffffffffffff168473ffffffffffffffffffffffffffffffffffffffff167fddf252ad1be2c89b69c2b068fc378daa952ba7f163c4a11628f55a4df523b3ef84604051611c6a9190612722565b60405180910390a350505050565b60007f8b73c3c69bb8fe3d512ecc4cf759cc79239f7b179b0ffacaa9a75d522b39400f611ca36121bf565b611cab61223b565b4630604051602001611cc1959493929190612f40565b60405160208183030381529060405280519060200120905090565b6000611d0a7f360894a13ba1a3210667c828492db98dca3e2076cc3735a920a3ca505d382bbc60001b6122b7565b60000160009054906101000a900473ffffffffffffffffffffffffffffffffffffffff16905090565b611d3c826122c1565b8173ffffffffffffffffffffffffffffffffffffffff167fbc7cd75a20ee27fd9adebab32041f755214dbc6bffa90cc0225b39da2e5c2d3b60405160405180910390a2600081511115611d9957611d93828261238e565b50611da2565b611da1612412565b5b5050565b60007f5ab42ced628888259c08ac98db1eb0cf702fc1501344311d8b100cd1bfe4bb00905090565b611dd661244f565b611e0c576040517fd7e6bcf800000000000000000000000000000000000000000000000000000000815260040160405180910390fd5b565b611e16611dce565b6000611e20610e42565b905082816003019081611e339190613135565b5081816004019081611e459190613135565b50505050565b611e53611dce565b600073ffffffffffffffffffffffffffffffffffffffff168173ffffffffffffffffffffffffffffffffffffffff1603611ec55760006040517f1e4fbdf7000000000000000000000000000000000000000000000000000000008152600401611ebc9190612b45565b60405180910390fd5b611ece816113bc565b50565b611ed9611dce565b6000611ee36114ea565b905082816002019081611ef69190613135565b5081816003019081611f089190613135565b506000801b81600001819055506000801b8160010181905550505050565b60006040517f190100000000000000000000000000000000000000000000000000000000000081528360028201528260228201526042812091505092915050565b60008060007f7fffffffffffffffffffffffffffffff5d576e7357a4501ddfe92f46681b20a08460001c1115611fa7576000600385925092509250612051565b600060018888888860405160008152602001604052604051611fcc9493929190613207565b6020604051602081039080840390855afa158015611fee573d6000803e3d6000fd5b505050602060405103519050600073ffffffffffffffffffffffffffffffffffffffff168173ffffffffffffffffffffffffffffffffffffffff160361204257600060016000801b93509350935050612051565b8060008060001b935093509350505b9450945094915050565b6000600381111561206f5761206e61324c565b5b8260038111156120825761208161324c565b5b03156121bb576001600381111561209c5761209b61324c565b5b8260038111156120af576120ae61324c565b5b036120e6576040517ff645eedf00000000000000000000000000000000000000000000000000000000815260040160405180910390fd5b600260038111156120fa576120f961324c565b5b82600381111561210d5761210c61324c565b5b03612152578060001c6040517ffce698f70000000000000000000000000000000000000000000000000000000081526004016121499190612722565b60405180910390fd5b6003808111156121655761216461324c565b5b8260038111156121785761217761324c565b5b036121ba57806040517fd78bce0c0000000000000000000000000000000000000000000000000000000081526004016121b191906127e0565b60405180910390fd5b5b5050565b6000806121ca6114ea565b905060006121d6611512565b90506000815111156121f357808051906020012092505050612238565b6000826000015490506000801b811461221157809350505050612238565b7fc5d2460186f7233c927e7db2dcc703c0e500b653ca82273b7bfad8045d85a47093505050505b90565b6000806122466114ea565b905060006122526115b3565b905060008151111561226f578080519060200120925050506122b4565b6000826001015490506000801b811461228d578093505050506122b4565b7fc5d2460186f7233c927e7db2dcc703c0e500b653ca82273b7bfad8045d85a47093505050505b90565b6000819050919050565b60008173ffffffffffffffffffffffffffffffffffffffff163b0361231d57806040517f4c9c8ce30000000000000000000000000000000000000000000000000000000081526004016123149190612b45565b60405180910390fd5b8061234a7f360894a13ba1a3210667c828492db98dca3e2076cc3735a920a3ca505d382bbc60001b6122b7565b60000160006101000a81548173ffffffffffffffffffffffffffffffffffffffff021916908373ffffffffffffffffffffffffffffffffffffffff16021790555050565b60606000808473ffffffffffffffffffffffffffffffffffffffff16846040516123b891906132c2565b600060405180830381855af49150503d80600081146123f3576040519150601f19603f3d011682016040523d82523d6000602084013e6123f8565b606091505b509150915061240885838361246f565b9250505092915050565b600034111561244d576040517fb398979f00000000000000000000000000000000000000000000000000000000815260040160405180910390fd5b565b60006124596116fe565b60000160089054906101000a900460ff16905090565b6060826124845761247f826124fe565b6124f6565b600082511480156124ac575060008473ffffffffffffffffffffffffffffffffffffffff163b145b156124ee57836040517f9996b3150000000000000000000000000000000000000000000000000000000081526004016124e59190612b45565b60405180910390fd5b8190506124f7565b5b9392505050565b6000815111156125115780518082602001fd5b6040517fd6bda27500000000000000000000000000000000000000000000000000000000815260040160405180910390fd5b600081519050919050565b600082825260208201905092915050565b60005b8381101561257d578082015181840152602081019050612562565b60008484015250505050565b6000601f19601f8301169050919050565b60006125a582612543565b6125af818561254e565b93506125bf81856020860161255f565b6125c881612589565b840191505092915050565b600060208201905081810360008301526125ed818461259a565b905092915050565b6000604051905090565b600080fd5b600080fd5b600073ffffffffffffffffffffffffffffffffffffffff82169050919050565b600061263482612609565b9050919050565b61264481612629565b811461264f57600080fd5b50565b6000813590506126618161263b565b92915050565b6000819050919050565b61267a81612667565b811461268557600080fd5b50565b60008135905061269781612671565b92915050565b600080604083850312156126b4576126b36125ff565b5b60006126c285828601612652565b92505060206126d385828601612688565b9150509250929050565b60008115159050919050565b6126f2816126dd565b82525050565b600060208201905061270d60008301846126e9565b92915050565b61271c81612667565b82525050565b60006020820190506127376000830184612713565b92915050565b600080600060608486031215612756576127556125ff565b5b600061276486828701612652565b935050602061277586828701612652565b925050604061278686828701612688565b9150509250925092565b600060ff82169050919050565b6127a681612790565b82525050565b60006020820190506127c1600083018461279d565b92915050565b6000819050919050565b6127da816127c7565b82525050565b60006020820190506127f560008301846127d1565b92915050565b600080fd5b600080fd5b7f4e487b7100000000000000000000000000000000000000000000000000000000600052604160045260246000fd5b61283d82612589565b810181811067ffffffffffffffff8211171561285c5761285b612805565b5b80604052505050565b600061286f6125f5565b905061287b8282612834565b919050565b600067ffffffffffffffff82111561289b5761289a612805565b5b6128a482612589565b9050602081019050919050565b82818337600083830152505050565b60006128d36128ce84612880565b612865565b9050828152602081018484840111156128ef576128ee612800565b5b6128fa8482856128b1565b509392505050565b600082601f830112612917576129166127fb565b5b81356129278482602086016128c0565b91505092915050565b60008060408385031215612947576129466125ff565b5b600061295585828601612652565b925050602083013567ffffffffffffffff81111561297657612975612604565b5b61298285828601612902565b9150509250929050565b6000602082840312156129a2576129a16125ff565b5b60006129b084828501612652565b91505092915050565b60007fff0000000000000000000000000000000000000000000000000000000000000082169050919050565b6129ee816129b9565b82525050565b6129fd81612629565b82525050565b600081519050919050565b600082825260208201905092915050565b6000819050602082019050919050565b612a3881612667565b82525050565b6000612a4a8383612a2f565b60208301905092915050565b6000602082019050919050565b6000612a6e82612a03565b612a788185612a0e565b9350612a8383612a1f565b8060005b83811015612ab4578151612a9b8882612a3e565b9750612aa683612a56565b925050600181019050612a87565b5085935050505092915050565b600060e082019050612ad6600083018a6129e5565b8181036020830152612ae8818961259a565b90508181036040830152612afc818861259a565b9050612b0b6060830187612713565b612b1860808301866129f4565b612b2560a08301856127d1565b81810360c0830152612b378184612a63565b905098975050505050505050565b6000602082019050612b5a60008301846129f4565b92915050565b612b6981612790565b8114612b7457600080fd5b50565b600081359050612b8681612b60565b92915050565b612b95816127c7565b8114612ba057600080fd5b50565b600081359050612bb281612b8c565b92915050565b600080600080600080600060e0888a031215612bd757612bd66125ff565b5b6000612be58a828b01612652565b9750506020612bf68a828b01612652565b9650506040612c078a828b01612688565b9550506060612c188a828b01612688565b9450506080612c298a828b01612b77565b93505060a0612c3a8a828b01612ba3565b92505060c0612c4b8a828b01612ba3565b91505092959891949750929550565b60008060408385031215612c7157612c706125ff565b5b6000612c7f85828601612652565b9250506020612c9085828601612652565b9150509250929050565b7f4e487b7100000000000000000000000000000000000000000000000000000000600052602260045260246000fd5b60006002820490506001821680612ce157607f821691505b602082108103612cf457612cf3612c9a565b5b50919050565b7f4549503731323a20556e696e697469616c697a65640000000000000000000000600082015250565b6000612d3060158361254e565b9150612d3b82612cfa565b602082019050919050565b60006020820190508181036000830152612d5f81612d23565b9050919050565b6000819050919050565b600067ffffffffffffffff82169050919050565b6000819050919050565b6000612da9612da4612d9f84612d66565b612d84565b612d70565b9050919050565b612db981612d8e565b82525050565b6000602082019050612dd46000830184612db0565b92915050565b600060c082019050612def60008301896127d1565b612dfc60208301886129f4565b612e0960408301876129f4565b612e166060830186612713565b612e236080830185612713565b612e3060a0830184612713565b979650505050505050565b6000604082019050612e5060008301856129f4565b612e5d60208301846129f4565b9392505050565b6000606082019050612e7960008301866129f4565b612e866020830185612713565b612e936040830184612713565b949350505050565b600081519050612eaa81612b8c565b92915050565b600060208284031215612ec657612ec56125ff565b5b6000612ed484828501612e9b565b91505092915050565b7f4e487b7100000000000000000000000000000000000000000000000000000000600052601160045260246000fd5b6000612f1782612667565b9150612f2283612667565b9250828201905080821115612f3a57612f39612edd565b5b92915050565b600060a082019050612f5560008301886127d1565b612f6260208301876127d1565b612f6f60408301866127d1565b612f7c6060830185612713565b612f8960808301846129f4565b9695505050505050565b60008190508160005260206000209050919050565b60006020601f8301049050919050565b600082821b905092915050565b600060088302612ff57fffffffffffffffffffffffffffffffffffffffffffffffffffffffffffffffff82612fb8565b612fff8683612fb8565b95508019841693508086168417925050509392505050565b600061303261302d61302884612667565b612d84565b612667565b9050919050565b6000819050919050565b61304c83613017565b61306061305882613039565b848454612fc5565b825550505050565b600090565b613075613068565b613080818484613043565b505050565b5b818110156130a45761309960008261306d565b600181019050613086565b5050565b601f8211156130e9576130ba81612f93565b6130c384612fa8565b810160208510156130d2578190505b6130e66130de85612fa8565b830182613085565b50505b505050565b600082821c905092915050565b600061310c600019846008026130ee565b1980831691505092915050565b600061312583836130fb565b9150826002028217905092915050565b61313e82612543565b67ffffffffffffffff81111561315757613156612805565b5b6131618254612cc9565b61316c8282856130a8565b600060209050601f83116001811461319f576000841561318d578287015190505b6131978582613119565b8655506131ff565b601f1984166131ad86612f93565b60005b828110156131d5578489015182556001820191506020850194506020810190506131b0565b868310156131f257848901516131ee601f8916826130fb565b8355505b6001600288020188555050505b505050505050565b600060808201905061321c60008301876127d1565b613229602083018661279d565b61323660408301856127d1565b61324360608301846127d1565b95945050505050565b7f4e487b7100000000000000000000000000000000000000000000000000000000600052602160045260246000fd5b600081519050919050565b600081905092915050565b600061329c8261327b565b6132a68185613286565b93506132b681856020860161255f565b80840191505092915050565b60006132ce8284613291565b91508190509291505056fea264697066735822122012a27773c49fc1004495626bbcc9b072286eaa2c66da035057f2826f4e9678fa64736f6c634300081c0033",
  "linkReferences": {},
  "deployedLinkReferences": {}
}