{
  "_format": "hh-sol-artifact-1",
  "contractName": "AaveStrategy",
  "sourceName": "contracts/strategies/AaveStrategy.sol",
  "abi": [
    {
      "inputs": [],
      "stateMutability": "nonpayable",
      "type": "constructor"
    },
    {
      "inputs": [],
      "name": "AccessControlBadConfirmation",
      "type": "error"
    },
    {
      "inputs": [
        {
          "internalType": "address",
          "name": "account",
          "type": "address"
        },
        {
          "internalType": "bytes32",
          "name": "neededRole",
          "type": "bytes32"
        }
      ],
      "name": "AccessControlUnauthorizedAccount",
      "type": "error"
    },
    {
      "inputs": [
        {
          "internalType": "address",
          "name": "target",
          "type": "address"
        }
      ],
      "name": "AddressEmptyCode",
      "type": "error"
    },
    {
      "inputs": [
        {
          "internalType": "address",
          "name": "implementation",
          "type": "address"
        }
      ],
      "name": "ERC1967InvalidImplementation",
      "type": "error"
    },
    {
      "inputs": [],
      "name": "ERC1967NonPayable",
      "type": "error"
    },
    {
      "inputs": [],
      "name": "FailedCall",
      "type": "error"
    },
    {
      "inputs": [],
      "name": "InvalidInitialization",
      "type": "error"
    },
    {
      "inputs": [],
      "name": "NotInitializing",
      "type": "error"
    },
    {
      "inputs": [],
      "name": "UUPSUnauthorizedCallContext",
      "type": "error"
    },
    {
      "inputs": [
        {
          "internalType": "bytes32",
          "name": "slot",
          "type": "bytes32"
        }
      ],
      "name": "UUPSUnsupportedProxiableUUID",
      "type": "error"
    },
    {
      "anonymous": false,
      "inputs": [
        {
          "indexed": false,
          "internalType": "uint64",
          "name": "version",
          "type": "uint64"
        }
      ],
      "name": "Initialized",
      "type": "event"
    },
    {
      "anonymous": false,
      "inputs": [
        {
          "indexed": true,
          "internalType": "bytes32",
          "name": "role",
          "type": "bytes32"
        },
        {
          "indexed": true,
          "internalType": "bytes32",
          "name": "previousAdminRole",
          "type": "bytes32"
        },
        {
          "indexed": true,
          "internalType": "bytes32",
          "name": "newAdminRole",
          "type": "bytes32"
        }
      ],
      "name": "RoleAdminChanged",
      "type": "event"
    },
    {
      "anonymous": false,
      "inputs": [
        {
          "indexed": true,
          "internalType": "bytes32",
          "name": "role",
          "type": "bytes32"
        },
        {
          "indexed": true,
          "internalType": "address",
          "name": "account",
          "type": "address"
        },
        {
          "indexed": true,
          "internalType": "address",
          "name": "sender",
          "type": "address"
        }
      ],
      "name": "RoleGranted",
      "type": "event"
    },
    {
      "anonymous": false,
      "inputs": [
        {
          "indexed": true,
          "internalType": "bytes32",
          "name": "role",
          "type": "bytes32"
        },
        {
          "indexed": true,
          "internalType": "address",
          "name": "account",
          "type": "address"
        },
        {
          "indexed": true,
          "internalType": "address",
          "name": "sender",
          "type": "address"
        }
      ],
      "name": "RoleRevoked",
      "type": "event"
    },
    {
      "anonymous": false,
      "inputs": [
        {
          "indexed": true,
          "internalType": "address",
          "name": "implementation",
          "type": "address"
        }
      ],
      "name": "Upgraded",
      "type": "event"
    },
    {
      "inputs": [],
      "name": "ADMIN_ROLE",
      "outputs": [
        {
          "internalType": "bytes32",
          "name": "",
          "type": "bytes32"
        }
      ],
      "stateMutability": "view",
      "type": "function"
    },
    {
      "inputs": [],
      "name": "CONTROLLER_ROLE",
      "outputs": [
        {
          "internalType": "bytes32",
          "name": "",
          "type": "bytes32"
        }
      ],
      "stateMutability": "view",
      "type": "function"
    },
    {
      "inputs": [],
      "name": "DEFAULT_ADMIN_ROLE",
      "outputs": [
        {
          "internalType": "bytes32",
          "name": "",
          "type": "bytes32"
        }
      ],
      "stateMutability": "view",
      "type": "function"
    },
    {
      "inputs": [],
      "name": "UPGRADE_INTERFACE_VERSION",
      "outputs": [
        {
          "internalType": "string",
          "name": "",
          "type": "string"
        }
      ],
      "stateMutability": "view",
      "type": "function"
    },
    {
      "inputs": [],
      "name": "aToken",
      "outputs": [
        {
          "internalType": "contract IAToken",
          "name": "",
          "type": "address"
        }
      ],
      "stateMutability": "view",
      "type": "function"
    },
    {
      "inputs": [],
      "name": "aavePool",
      "outputs": [
        {
          "internalType": "contract IPool",
          "name": "",
          "type": "address"
        }
      ],
      "stateMutability": "view",
      "type": "function"
    },
    {
      "inputs": [
        {
          "internalType": "uint256",
          "name": "amount",
          "type": "uint256"
        }
      ],
      "name": "deposit",
      "outputs": [],
      "stateMutability": "nonpayable",
      "type": "function"
    },
    {
      "inputs": [
        {
          "internalType": "bytes32",
          "name": "role",
          "type": "bytes32"
        }
      ],
      "name": "getRoleAdmin",
      "outputs": [
        {
          "internalType": "bytes32",
          "name": "",
          "type": "bytes32"
        }
      ],
      "stateMutability": "view",
      "type": "function"
    },
    {
      "inputs": [
        {
          "internalType": "bytes32",
          "name": "role",
          "type": "bytes32"
        },
        {
          "internalType": "address",
          "name": "account",
          "type": "address"
        }
      ],
      "name": "grantRole",
      "outputs": [],
      "stateMutability": "nonpayable",
      "type": "function"
    },
    {
      "inputs": [
        {
          "internalType": "bytes32",
          "name": "role",
          "type": "bytes32"
        },
        {
          "internalType": "address",
          "name": "account",
          "type": "address"
        }
      ],
      "name": "hasRole",
      "outputs": [
        {
          "internalType": "bool",
          "name": "",
          "type": "bool"
        }
      ],
      "stateMutability": "view",
      "type": "function"
    },
    {
      "inputs": [
        {
          "internalType": "address",
          "name": "_aavePool",
          "type": "address"
        },
        {
          "internalType": "address",
          "name": "_aToken",
          "type": "address"
        },
        {
          "internalType": "address",
          "name": "_usdc",
          "type": "address"
        },
        {
          "internalType": "address",
          "name": "admin",
          "type": "address"
        },
        {
          "internalType": "address",
          "name": "controller",
          "type": "address"
        }
      ],
      "name": "initialize",
      "outputs": [],
      "stateMutability": "nonpayable",
      "type": "function"
    },
    {
      "inputs": [],
      "name": "proxiableUUID",
      "outputs": [
        {
          "internalType": "bytes32",
          "name": "",
          "type": "bytes32"
        }
      ],
      "stateMutability": "view",
      "type": "function"
    },
    {
      "inputs": [
        {
          "internalType": "bytes32",
          "name": "role",
          "type": "bytes32"
        },
        {
          "internalType": "address",
          "name": "callerConfirmation",
          "type": "address"
        }
      ],
      "name": "renounceRole",
      "outputs": [],
      "stateMutability": "nonpayable",
      "type": "function"
    },
    {
      "inputs": [
        {
          "internalType": "bytes32",
          "name": "role",
          "type": "bytes32"
        },
        {
          "internalType": "address",
          "name": "account",
          "type": "address"
        }
      ],
      "name": "revokeRole",
      "outputs": [],
      "stateMutability": "nonpayable",
      "type": "function"
    },
    {
      "inputs": [],
      "name": "strategyName",
      "outputs": [
        {
          "internalType": "string",
          "name": "",
          "type": "string"
        }
      ],
      "stateMutability": "pure",
      "type": "function"
    },
    {
      "inputs": [
        {
          "internalType": "bytes4",
          "name": "interfaceId",
          "type": "bytes4"
        }
      ],
      "name": "supportsInterface",
      "outputs": [
        {
          "internalType": "bool",
          "name": "",
          "type": "bool"
        }
      ],
      "stateMutability": "view",
      "type": "function"
    },
    {
      "inputs": [],
      "name": "totalValue",
      "outputs": [
        {
          "internalType": "uint256",
          "name": "",
          "type": "uint256"
        }
      ],
      "stateMutability": "view",
      "type": "function"
    },
    {
      "inputs": [
        {
          "internalType": "address",
          "name": "newImplementation",
          "type": "address"
        },
        {
          "internalType": "bytes",
          "name": "data",
          "type": "bytes"
        }
      ],
      "name": "upgradeToAndCall",
      "outputs": [],
      "stateMutability": "payable",
      "type": "function"
    },
    {
      "inputs": [],
      "name": "usdc",
      "outputs": [
        {
          "internalType": "contract IERC20",
          "name": "",
          "type": "address"
        }
      ],
      "stateMutability": "view",
      "type": "function"
    },
    {
      "inputs": [
        {
          "internalType": "uint256",
          "name": "amount",
          "type": "uint256"
        },
        {
          "internalType": "address",
          "name": "receiver",
          "type": "address"
        }
      ],
      "name": "withdraw",
      "outputs": [
        {
          "internalType": "uint256",
          "name": "",
          "type": "uint256"
        }
      ],
      "stateMutability": "nonpayable",
      "type": "function"
    }
  ],
  "bytecode": "0x60a06040523073ffffffffffffffffffffffffffffffffffffffff1660809073ffffffffffffffffffffffffffffffffffffffff1681525034801561004357600080fd5b5061005261005760201b60201c565b6101c1565b600061006761015b60201b60201c565b90508060000160089054906101000a900460ff16156100b2576040517ff92ee8a900000000000000000000000000000000000000000000000000000000815260040160405180910390fd5b67ffffffffffffffff80168160000160009054906101000a900467ffffffffffffffff1667ffffffffffffffff16146101585767ffffffffffffffff8160000160006101000a81548167ffffffffffffffff021916908367ffffffffffffffff1602179055507fc7f505b2f371ae2175ee4913f4499e1f2633a7b5936321eed1cdaeb6115181d267ffffffffffffffff60405161014f91906101a6565b60405180910390a15b50565b60007ff0c57e16840df040f15088dc2f81fe391c3923bec73e23a9662efc9c229c6a00905090565b600067ffffffffffffffff82169050919050565b6101a081610183565b82525050565b60006020820190506101bb6000830184610197565b92915050565b6080516123ac6101ea6000396000818161134301528181611398015261157601526123ac6000f3fe60806040526004361061011e5760003560e01c806375b238fc116100a0578063ad3cb1cc11610064578063ad3cb1cc146103db578063b6b55f2514610406578063d4c3eea01461042f578063d547741f1461045a578063e173ad25146104835761011e565b806375b238fc146102f257806391d148541461031d578063a03e4bc31461035a578063a0c1f15e14610385578063a217fddf146103b05761011e565b80632f2ff15d116100e75780632f2ff15d1461022e57806336568abe146102575780633e413bee146102805780634f1ef286146102ab57806352d1902d146102c75761011e565b8062f714ce1461012357806301ffc9a714610160578063092c5b3b1461019d5780631459457a146101c8578063248a9ca3146101f1575b600080fd5b34801561012f57600080fd5b5061014a60048036038101906101459190611a8a565b6104ae565b6040516101579190611ad9565b60405180910390f35b34801561016c57600080fd5b5061018760048036038101906101829190611b4c565b61064a565b6040516101949190611b94565b60405180910390f35b3480156101a957600080fd5b506101b26106c4565b6040516101bf9190611bc8565b60405180910390f35b3480156101d457600080fd5b506101ef60048036038101906101ea9190611be3565b6106e8565b005b3480156101fd57600080fd5b5061021860048036038101906102139190611c8a565b610a39565b6040516102259190611bc8565b60405180910390f35b34801561023a57600080fd5b5061025560048036038101906102509190611cb7565b610a67565b005b34801561026357600080fd5b5061027e60048036038101906102799190611cb7565b610a89565b005b34801561028c57600080fd5b50610295610b04565b6040516102a29190611d56565b60405180910390f35b6102c560048036038101906102c09190611eb7565b610b28565b005b3480156102d357600080fd5b506102dc610b47565b6040516102e99190611bc8565b60405180910390f35b3480156102fe57600080fd5b50610307610b7a565b6040516103149190611bc8565b60405180910390f35b34801561032957600080fd5b50610344600480360381019061033f9190611cb7565b610b9e565b6040516103519190611b94565b60405180910390f35b34801561036657600080fd5b5061036f610c17565b60405161037c9190611f34565b60405180910390f35b34801561039157600080fd5b5061039a610c3d565b6040516103a79190611f70565b60405180910390f35b3480156103bc57600080fd5b506103c5610c63565b6040516103d29190611bc8565b60405180910390f35b3480156103e757600080fd5b506103f0610c6a565b6040516103fd919061200a565b60405180910390f35b34801561041257600080fd5b5061042d6004803603810190610428919061202c565b610ca3565b005b34801561043b57600080fd5b50610444610ee7565b6040516104519190611ad9565b60405180910390f35b34801561046657600080fd5b50610481600480360381019061047c9190611cb7565b610f8a565b005b34801561048f57600080fd5b50610498610fac565b6040516104a5919061200a565b60405180910390f35b60007f7b765e0e932d348852a6f810bfa1ab891e259123f02db8cdcde614c5702233576104da81610fe9565b6000600160009054906101000a900473ffffffffffffffffffffffffffffffffffffffff1673ffffffffffffffffffffffffffffffffffffffff166369328dec60008054906101000a900473ffffffffffffffffffffffffffffffffffffffff1687306040518463ffffffff1660e01b815260040161055b93929190612068565b6020604051808303816000875af115801561057a573d6000803e3d6000fd5b505050506040513d601f19601f8201168201806040525081019061059e91906120b4565b905060008054906101000a900473ffffffffffffffffffffffffffffffffffffffff1673ffffffffffffffffffffffffffffffffffffffff1663a9059cbb85836040518363ffffffff1660e01b81526004016105fb9291906120e1565b6020604051808303816000875af115801561061a573d6000803e3d6000fd5b505050506040513d601f19601f8201168201806040525081019061063e9190612136565b50809250505092915050565b60007f7965db0b000000000000000000000000000000000000000000000000000000007bffffffffffffffffffffffffffffffffffffffffffffffffffffffff1916827bffffffffffffffffffffffffffffffffffffffffffffffffffffffff191614806106bd57506106bc82610ffd565b5b9050919050565b7f7b765e0e932d348852a6f810bfa1ab891e259123f02db8cdcde614c57022335781565b60006106f2611067565b905060008160000160089054906101000a900460ff1615905060008260000160009054906101000a900467ffffffffffffffff1690506000808267ffffffffffffffff161480156107405750825b9050600060018367ffffffffffffffff16148015610775575060003073ffffffffffffffffffffffffffffffffffffffff163b145b905081158015610783575080155b156107ba576040517ff92ee8a900000000000000000000000000000000000000000000000000000000815260040160405180910390fd5b60018560000160006101000a81548167ffffffffffffffff021916908367ffffffffffffffff160217905550831561080a5760018560000160086101000a81548160ff0219169083151502179055505b61081261108f565b61081a611099565b6108447fa49807205ce4d355092ef5a8a18f56e8913cf4a201fbe287825b095693c21775806110a3565b61088e7f7b765e0e932d348852a6f810bfa1ab891e259123f02db8cdcde614c5702233577fa49807205ce4d355092ef5a8a18f56e8913cf4a201fbe287825b095693c217756110a3565b6108b87fa49807205ce4d355092ef5a8a18f56e8913cf4a201fbe287825b095693c217758861110e565b506108e37f7b765e0e932d348852a6f810bfa1ab891e259123f02db8cdcde614c5702233578861110e565b5061090e7f7b765e0e932d348852a6f810bfa1ab891e259123f02db8cdcde614c5702233578761110e565b5089600160006101000a81548173ffffffffffffffffffffffffffffffffffffffff021916908373ffffffffffffffffffffffffffffffffffffffff16021790555088600260006101000a81548173ffffffffffffffffffffffffffffffffffffffff021916908373ffffffffffffffffffffffffffffffffffffffff160217905550876000806101000a81548173ffffffffffffffffffffffffffffffffffffffff021916908373ffffffffffffffffffffffffffffffffffffffff1602179055508315610a2d5760008560000160086101000a81548160ff0219169083151502179055507fc7f505b2f371ae2175ee4913f4499e1f2633a7b5936321eed1cdaeb6115181d26001604051610a2491906121b2565b60405180910390a15b50505050505050505050565b600080610a4461120f565b905080600001600084815260200190815260200160002060010154915050919050565b610a7082610a39565b610a7981610fe9565b610a83838361110e565b50505050565b610a91611237565b73ffffffffffffffffffffffffffffffffffffffff168173ffffffffffffffffffffffffffffffffffffffff1614610af5576040517f6697b23200000000000000000000000000000000000000000000000000000000815260040160405180910390fd5b610aff828261123f565b505050565b60008054906101000a900473ffffffffffffffffffffffffffffffffffffffff1681565b610b30611341565b610b3982611427565b610b438282611455565b5050565b6000610b51611574565b7f360894a13ba1a3210667c828492db98dca3e2076cc3735a920a3ca505d382bbc60001b905090565b7fa49807205ce4d355092ef5a8a18f56e8913cf4a201fbe287825b095693c2177581565b600080610ba961120f565b905080600001600085815260200190815260200160002060000160008473ffffffffffffffffffffffffffffffffffffffff1673ffffffffffffffffffffffffffffffffffffffff16815260200190815260200160002060009054906101000a900460ff1691505092915050565b600160009054906101000a900473ffffffffffffffffffffffffffffffffffffffff1681565b600260009054906101000a900473ffffffffffffffffffffffffffffffffffffffff1681565b6000801b81565b6040518060400160405280600581526020017f352e302e3000000000000000000000000000000000000000000000000000000081525081565b7f7b765e0e932d348852a6f810bfa1ab891e259123f02db8cdcde614c570223357610ccd81610fe9565b60008054906101000a900473ffffffffffffffffffffffffffffffffffffffff1673ffffffffffffffffffffffffffffffffffffffff166323b872dd3330856040518463ffffffff1660e01b8152600401610d2a939291906121cd565b6020604051808303816000875af1158015610d49573d6000803e3d6000fd5b505050506040513d601f19601f82011682018060405250810190610d6d9190612136565b5060008054906101000a900473ffffffffffffffffffffffffffffffffffffffff1673ffffffffffffffffffffffffffffffffffffffff1663095ea7b3600160009054906101000a900473ffffffffffffffffffffffffffffffffffffffff16846040518363ffffffff1660e01b8152600401610deb9291906120e1565b6020604051808303816000875af1158015610e0a573d6000803e3d6000fd5b505050506040513d601f19601f82011682018060405250810190610e2e9190612136565b50600160009054906101000a900473ffffffffffffffffffffffffffffffffffffffff1673ffffffffffffffffffffffffffffffffffffffff1663e8eda9df60008054906101000a900473ffffffffffffffffffffffffffffffffffffffff16843060006040518563ffffffff1660e01b8152600401610eb1949392919061224d565b600060405180830381600087803b158015610ecb57600080fd5b505af1158015610edf573d6000803e3d6000fd5b505050505050565b6000600260009054906101000a900473ffffffffffffffffffffffffffffffffffffffff1673ffffffffffffffffffffffffffffffffffffffff166370a08231306040518263ffffffff1660e01b8152600401610f449190612292565b602060405180830381865afa158015610f61573d6000803e3d6000fd5b505050506040513d601f19601f82011682018060405250810190610f8591906120b4565b905090565b610f9382610a39565b610f9c81610fe9565b610fa6838361123f565b50505050565b60606040518060400160405280601181526020017f416176652055534443204c656e64696e67000000000000000000000000000000815250905090565b610ffa81610ff5611237565b6115fb565b50565b60007f01ffc9a7000000000000000000000000000000000000000000000000000000007bffffffffffffffffffffffffffffffffffffffffffffffffffffffff1916827bffffffffffffffffffffffffffffffffffffffffffffffffffffffff1916149050919050565b60007ff0c57e16840df040f15088dc2f81fe391c3923bec73e23a9662efc9c229c6a00905090565b61109761164c565b565b6110a161164c565b565b60006110ad61120f565b905060006110ba84610a39565b905082826000016000868152602001908152602001600020600101819055508281857fbd79b86ffe0ab8e8776151514217cd7cacd52c909f66475c3af44e129f0b00ff60405160405180910390a450505050565b60008061111961120f565b90506111258484610b9e565b61120357600181600001600086815260200190815260200160002060000160008573ffffffffffffffffffffffffffffffffffffffff1673ffffffffffffffffffffffffffffffffffffffff16815260200190815260200160002060006101000a81548160ff02191690831515021790555061119f611237565b73ffffffffffffffffffffffffffffffffffffffff168373ffffffffffffffffffffffffffffffffffffffff16857f2f8788117e7eff1d82e926ec794901d17c78024a50270940304540a733656f0d60405160405180910390a46001915050611209565b60009150505b92915050565b60007f02dd7bc7dec4dceedda775e58dd541e08a116c6c53815c0bd028192f7b626800905090565b600033905090565b60008061124a61120f565b90506112568484610b9e565b1561133557600081600001600086815260200190815260200160002060000160008573ffffffffffffffffffffffffffffffffffffffff1673ffffffffffffffffffffffffffffffffffffffff16815260200190815260200160002060006101000a81548160ff0219169083151502179055506112d1611237565b73ffffffffffffffffffffffffffffffffffffffff168373ffffffffffffffffffffffffffffffffffffffff16857ff6391f5c32d9c69d2a47ea670b442974b53935d1edc7fd64eb21e047a839171b60405160405180910390a4600191505061133b565b60009150505b92915050565b7f000000000000000000000000000000000000000000000000000000000000000073ffffffffffffffffffffffffffffffffffffffff163073ffffffffffffffffffffffffffffffffffffffff1614806113ee57507f000000000000000000000000000000000000000000000000000000000000000073ffffffffffffffffffffffffffffffffffffffff166113d561168c565b73ffffffffffffffffffffffffffffffffffffffff1614155b15611425576040517fe07c8dba00000000000000000000000000000000000000000000000000000000815260040160405180910390fd5b565b7fa49807205ce4d355092ef5a8a18f56e8913cf4a201fbe287825b095693c2177561145181610fe9565b5050565b8173ffffffffffffffffffffffffffffffffffffffff166352d1902d6040518163ffffffff1660e01b8152600401602060405180830381865afa9250505080156114bd57506040513d601f19601f820116820180604052508101906114ba91906122c2565b60015b6114fe57816040517f4c9c8ce30000000000000000000000000000000000000000000000000000000081526004016114f59190612292565b60405180910390fd5b7f360894a13ba1a3210667c828492db98dca3e2076cc3735a920a3ca505d382bbc60001b811461156557806040517faa1d49a400000000000000000000000000000000000000000000000000000000815260040161155c9190611bc8565b60405180910390fd5b61156f83836116e3565b505050565b7f000000000000000000000000000000000000000000000000000000000000000073ffffffffffffffffffffffffffffffffffffffff163073ffffffffffffffffffffffffffffffffffffffff16146115f9576040517fe07c8dba00000000000000000000000000000000000000000000000000000000815260040160405180910390fd5b565b6116058282610b9e565b6116485780826040517fe2517d3f00000000000000000000000000000000000000000000000000000000815260040161163f9291906122ef565b60405180910390fd5b5050565b611654611756565b61168a576040517fd7e6bcf800000000000000000000000000000000000000000000000000000000815260040160405180910390fd5b565b60006116ba7f360894a13ba1a3210667c828492db98dca3e2076cc3735a920a3ca505d382bbc60001b611776565b60000160009054906101000a900473ffffffffffffffffffffffffffffffffffffffff16905090565b6116ec82611780565b8173ffffffffffffffffffffffffffffffffffffffff167fbc7cd75a20ee27fd9adebab32041f755214dbc6bffa90cc0225b39da2e5c2d3b60405160405180910390a260008151111561174957611743828261184d565b50611752565b6117516118d1565b5b5050565b6000611760611067565b60000160089054906101000a900460ff16905090565b6000819050919050565b60008173ffffffffffffffffffffffffffffffffffffffff163b036117dc57806040517f4c9c8ce30000000000000000000000000000000000000000000000000000000081526004016117d39190612292565b60405180910390fd5b806118097f360894a13ba1a3210667c828492db98dca3e2076cc3735a920a3ca505d382bbc60001b611776565b60000160006101000a81548173ffffffffffffffffffffffffffffffffffffffff021916908373ffffffffffffffffffffffffffffffffffffffff16021790555050565b60606000808473ffffffffffffffffffffffffffffffffffffffff1684604051611877919061235f565b600060405180830381855af49150503d80600081146118b2576040519150601f19603f3d011682016040523d82523d6000602084013e6118b7565b606091505b50915091506118c785838361190e565b9250505092915050565b600034111561190c576040517fb398979f00000000000000000000000000000000000000000000000000000000815260040160405180910390fd5b565b6060826119235761191e8261199d565b611995565b6000825114801561194b575060008473ffffffffffffffffffffffffffffffffffffffff163b145b1561198d57836040517f9996b3150000000000000000000000000000000000000000000000000000000081526004016119849190612292565b60405180910390fd5b819050611996565b5b9392505050565b6000815111156119b05780518082602001fd5b6040517fd6bda27500000000000000000000000000000000000000000000000000000000815260040160405180910390fd5b6000604051905090565b600080fd5b600080fd5b6000819050919050565b611a09816119f6565b8114611a1457600080fd5b50565b600081359050611a2681611a00565b92915050565b600073ffffffffffffffffffffffffffffffffffffffff82169050919050565b6000611a5782611a2c565b9050919050565b611a6781611a4c565b8114611a7257600080fd5b50565b600081359050611a8481611a5e565b92915050565b60008060408385031215611aa157611aa06119ec565b5b6000611aaf85828601611a17565b9250506020611ac085828601611a75565b9150509250929050565b611ad3816119f6565b82525050565b6000602082019050611aee6000830184611aca565b92915050565b60007fffffffff0000000000000000000000000000000000000000000000000000000082169050919050565b611b2981611af4565b8114611b3457600080fd5b50565b600081359050611b4681611b20565b92915050565b600060208284031215611b6257611b616119ec565b5b6000611b7084828501611b37565b91505092915050565b60008115159050919050565b611b8e81611b79565b82525050565b6000602082019050611ba96000830184611b85565b92915050565b6000819050919050565b611bc281611baf565b82525050565b6000602082019050611bdd6000830184611bb9565b92915050565b600080600080600060a08688031215611bff57611bfe6119ec565b5b6000611c0d88828901611a75565b9550506020611c1e88828901611a75565b9450506040611c2f88828901611a75565b9350506060611c4088828901611a75565b9250506080611c5188828901611a75565b9150509295509295909350565b611c6781611baf565b8114611c7257600080fd5b50565b600081359050611c8481611c5e565b92915050565b600060208284031215611ca057611c9f6119ec565b5b6000611cae84828501611c75565b91505092915050565b60008060408385031215611cce57611ccd6119ec565b5b6000611cdc85828601611c75565b9250506020611ced85828601611a75565b9150509250929050565b6000819050919050565b6000611d1c611d17611d1284611a2c565b611cf7565b611a2c565b9050919050565b6000611d2e82611d01565b9050919050565b6000611d4082611d23565b9050919050565b611d5081611d35565b82525050565b6000602082019050611d6b6000830184611d47565b92915050565b600080fd5b600080fd5b6000601f19601f8301169050919050565b7f4e487b7100000000000000000000000000000000000000000000000000000000600052604160045260246000fd5b611dc482611d7b565b810181811067ffffffffffffffff82111715611de357611de2611d8c565b5b80604052505050565b6000611df66119e2565b9050611e028282611dbb565b919050565b600067ffffffffffffffff821115611e2257611e21611d8c565b5b611e2b82611d7b565b9050602081019050919050565b82818337600083830152505050565b6000611e5a611e5584611e07565b611dec565b905082815260208101848484011115611e7657611e75611d76565b5b611e81848285611e38565b509392505050565b600082601f830112611e9e57611e9d611d71565b5b8135611eae848260208601611e47565b91505092915050565b60008060408385031215611ece57611ecd6119ec565b5b6000611edc85828601611a75565b925050602083013567ffffffffffffffff811115611efd57611efc6119f1565b5b611f0985828601611e89565b9150509250929050565b6000611f1e82611d23565b9050919050565b611f2e81611f13565b82525050565b6000602082019050611f496000830184611f25565b92915050565b6000611f5a82611d23565b9050919050565b611f6a81611f4f565b82525050565b6000602082019050611f856000830184611f61565b92915050565b600081519050919050565b600082825260208201905092915050565b60005b83811015611fc5578082015181840152602081019050611faa565b60008484015250505050565b6000611fdc82611f8b565b611fe68185611f96565b9350611ff6818560208601611fa7565b611fff81611d7b565b840191505092915050565b600060208201905081810360008301526120248184611fd1565b905092915050565b600060208284031215612042576120416119ec565b5b600061205084828501611a17565b91505092915050565b61206281611a4c565b82525050565b600060608201905061207d6000830186612059565b61208a6020830185611aca565b6120976040830184612059565b949350505050565b6000815190506120ae81611a00565b92915050565b6000602082840312156120ca576120c96119ec565b5b60006120d88482850161209f565b91505092915050565b60006040820190506120f66000830185612059565b6121036020830184611aca565b9392505050565b61211381611b79565b811461211e57600080fd5b50565b6000815190506121308161210a565b92915050565b60006020828403121561214c5761214b6119ec565b5b600061215a84828501612121565b91505092915050565b6000819050919050565b600067ffffffffffffffff82169050919050565b600061219c61219761219284612163565b611cf7565b61216d565b9050919050565b6121ac81612181565b82525050565b60006020820190506121c760008301846121a3565b92915050565b60006060820190506121e26000830186612059565b6121ef6020830185612059565b6121fc6040830184611aca565b949350505050565b6000819050919050565b600061ffff82169050919050565b600061223761223261222d84612204565b611cf7565b61220e565b9050919050565b6122478161221c565b82525050565b60006080820190506122626000830187612059565b61226f6020830186611aca565b61227c6040830185612059565b612289606083018461223e565b95945050505050565b60006020820190506122a76000830184612059565b92915050565b6000815190506122bc81611c5e565b92915050565b6000602082840312156122d8576122d76119ec565b5b60006122e6848285016122ad565b91505092915050565b60006040820190506123046000830185612059565b6123116020830184611bb9565b9392505050565b600081519050919050565b600081905092915050565b600061233982612318565b6123438185612323565b9350612353818560208601611fa7565b80840191505092915050565b600061236b828461232e565b91508190509291505056fea2646970667358221220a82009dfbb35cbd259896bccad1b29533f159a55c2ad5d0fa06529bbf6390f3064736f6c634300081c0033",
  "linkReferences": {},
  "deployedLinkReferences": {}
}