{
  "_format": "hh-sol-artifact-1",
  "contractName": "AaveStrategy",
  "sourceName": "contracts/strategies/AaveStrategy.sol",
  "abi": [
    {
      "inputs": [],
      "stateMutability": "nonpayable",
      "type": "constructor"
    },
    {
      "inputs": [],
      "name": "AccessControlBadConfirmation",
      "type": "error"
    },
    {
      "inputs": [
        {
          "internalType": "address",
          "name": "account",
          "type": "address"
        },
        {
          "internalType": "bytes32",
          "name": "neededRole",
          "type": "bytes32"
        }
      ],
      "name": "AccessControlUnauthorizedAccount",
      "type": "error"
    },
    {
      "inputs": [
        {
          "internalType": "address",
          "name": "target",
          "type": "address"
        }
      ],
      "name": "AddressEmptyCode",
      "type": "error"
    },
    {
      "inputs": [
        {
          "internalType": "address",
          "name": "implementation",
          "type": "address"
        }
      ],
      "name": "ERC1967InvalidImplementation",
      "type": "error"
    },
    {
      "inputs": [],
      "name": "ERC1967NonPayable",
      "type": "error"
    },
    {
      "inputs": [],
      "name": "FailedCall",
      "type": "error"
    },
    {
      "inputs": [],
      "name": "InvalidInitialization",
      "type": "error"
    },
    {
      "inputs": [],
      "name": "NotInitializing",
      "type": "error"
    },
    {
      "inputs": [],
      "name": "UUPSUnauthorizedCallContext",
      "type": "error"
    },
    {
      "inputs": [
        {
          "internalType": "bytes32",
          "name": "slot",
          "type": "bytes32"
        }
      ],
      "name": "UUPSUnsupportedProxiableUUID",
      "type": "error"
    },
    {
      "anonymous": false,
      "inputs": [
        {
          "indexed": false,
          "internalType": "uint64",
          "name": "version",
          "type": "uint64"
        }
      ],
      "name": "Initialized",
      "type": "event"
    },
    {
      "anonymous": false,
      "inputs": [
        {
          "indexed": true,
          "internalType": "bytes32",
          "name": "role",
          "type": "bytes32"
        },
        {
          "indexed": true,
          "internalType": "bytes32",
          "name": "previousAdminRole",
          "type": "bytes32"
        },
        {
          "indexed": true,
          "internalType": "bytes32",
          "name": "newAdminRole",
          "type": "bytes32"
        }
      ],
      "name": "RoleAdminChanged",
      "type": "event"
    },
    {
      "anonymous": false,
      "inputs": [
        {
          "indexed": true,
          "internalType": "bytes32",
          "name": "role",
          "type": "bytes32"
        },
        {
          "indexed": true,
          "internalType": "address",
          "name": "account",
          "type": "address"
        },
        {
          "indexed": true,
          "internalType": "address",
          "name": "sender",
          "type": "address"
        }
      ],
      "name": "RoleGranted",
      "type": "event"
    },
    {
      "anonymous": false,
      "inputs": [
        {
          "indexed": true,
          "internalType": "bytes32",
          "name": "role",
          "type": "bytes32"
        },
        {
          "indexed": true,
          "internalType": "address",
          "name": "account",
          "type": "address"
        },
        {
          "indexed": true,
          "internalType": "address",
          "name": "sender",
          "type": "address"
        }
      ],
      "name": "RoleRevoked",
      "type": "event"
    },
    {
      "anonymous": false,
      "inputs": [
        {
          "indexed": true,
          "internalType": "address",
          "name": "implementation",
          "type": "address"
        }
      ],
      "name": "Upgraded",
      "type": "event"
    },
    {
      "inputs": [],
      "name": "ADMIN_ROLE",
      "outputs": [
        {
          "internalType": "bytes32",
          "name": "",
          "type": "bytes32"
        }
      ],
      "stateMutability": "view",
      "type": "function"
    },
    {
      "inputs": [],
      "name": "CONTROLLER_ROLE",
      "outputs": [
        {
          "internalType": "bytes32",
          "name": "",
          "type": "bytes32"
        }
      ],
      "stateMutability": "view",
      "type": "function"
    },
    {
      "inputs": [],
      "name": "DEFAULT_ADMIN_ROLE",
      "outputs": [
        {
          "internalType": "bytes32",
          "name": "",
          "type": "bytes32"
        }
      ],
      "stateMutability": "view",
      "type": "function"
    },
    {
      "inputs": [],
      "name": "UPGRADE_INTERFACE_VERSION",
      "outputs": [
        {
          "internalType": "string",
          "name": "",
          "type": "string"
        }
      ],
      "stateMutability": "view",
      "type": "function"
    },
    {
      "inputs": [],
      "name": "aToken",
      "outputs": [
        {
          "internalType": "contract IAToken",
          "name": "",
          "type": "address"
        }
      ],
      "stateMutability": "view",
      "type": "function"
    },
    {
      "inputs": [],
      "name": "aavePool",
      "outputs": [
        {
          "internalType": "contract IPool",
          "name": "",
          "type": "address"
        }
      ],
      "stateMutability": "view",
      "type": "function"
    },
    {
      "inputs": [
        {
          "internalType": "uint256",
          "name": "amount",
          "type": "uint256"
        }
      ],
      "name": "deposit",
      "outputs": [],
      "stateMutability": "nonpayable",
      "type": "function"
    },
    {
      "inputs": [
        {
          "internalType": "bytes32",
          "name": "role",
          "type": "bytes32"
        }
      ],
      "name": "getRoleAdmin",
      "outputs": [
        {
          "internalType": "bytes32",
          "name": "",
          "type": "bytes32"
        }
      ],
      "stateMutability": "view",
      "type": "function"
    },
    {
      "inputs": [
        {
          "internalType": "bytes32",
          "name": "role",
          "type": "bytes32"
        },
        {
          "internalType": "address",
          "name": "account",
          "type": "address"
        }
      ],
      "name": "grantRole",
      "outputs": [],
      "stateMutability": "nonpayable",
      "type": "function"
    },
    {
      "inputs": [
        {
          "internalType": "bytes32",
          "name": "role",
          "type": "bytes32"
        },
        {
          "internalType": "address",
          "name": "account",
          "type": "address"
        }
      ],
      "name": "hasRole",
      "outputs": [
        {
          "internalType": "bool",
          "name": "",
          "type": "bool"
        }
      ],
      "stateMutability": "view",
      "type": "function"
    },
    {
      "inputs": [
        {
          "internalType": "address",
          "name": "_aavePool",
          "type": "address"
        },
        {
          "internalType": "address",
          "name": "_aToken",
          "type": "address"
        },
        {
          "internalType": "address",
          "name": "_usdc",
          "type": "address"
        },
        {
          "internalType": "address",
          "name": "admin",
          "type": "address"
        },
        {
          "internalType": "address",
          "name": "controller",
          "type": "address"
        }
      ],
      "name": "initialize",
      "outputs": [],
      "stateMutability": "nonpayable",
      "type": "function"
    },
    {
      "inputs": [],
      "name": "proxiableUUID",
      "outputs": [
        {
          "internalType": "bytes32",
          "name": "",
          "type": "bytes32"
        }
      ],
      "stateMutability": "view",
      "type": "function"
    },
    {
      "inputs": [
        {
          "internalType": "bytes32",
          "name": "role",
          "type": "bytes32"
        },
        {
          "internalType": "address",
          "name": "callerConfirmation",
          "type": "address"
        }
      ],
      "name": "renounceRole",
      "outputs": [],
      "stateMutability": "nonpayable",
      "type": "function"
    },
    {
      "inputs": [
        {
          "internalType": "bytes32",
          "name": "role",
          "type": "bytes32"
        },
        {
          "internalType": "address",
          "name": "account",
          "type": "address"
        }
      ],
      "name": "revokeRole",
      "outputs": [],
      "stateMutability": "nonpayable",
      "type": "function"
    },
    {
      "inputs": [],
      "name": "strategyName",
      "outputs": [
        {
          "internalType": "string",
          "name": "",
          "type": "string"
        }
      ],
      "stateMutability": "pure",
      "type": "function"
    },
    {
      "inputs": [
        {
          "internalType": "bytes4",
          "name": "interfaceId",
          "type": "bytes4"
        }
      ],
      "name": "supportsInterface",
      "outputs": [
        {
          "internalType": "bool",
          "name": "",
          "type": "bool"
        }
      ],
      "stateMutability": "view",
      "type": "function"
    },
    {
      "inputs": [],
      "name": "totalValue",
      "outputs": [
        {
          "internalType": "uint256",
          "name": "",
          "type": "uint256"
        }
      ],
      "stateMutability": "view",
      "type": "function"
    },
    {
      "inputs": [
        {
          "internalType": "address",
          "name": "newImplementation",
          "type": "address"
        },
        {
          "internalType": "bytes",
          "name": "data",
          "type": "bytes"
        }
      ],
      "name": "upgradeToAndCall",
      "outputs": [],
      "stateMutability": "payable",
      "type": "function"
    },
    {
      "inputs": [],
      "name": "usdc",
      "outputs": [
        {
          "internalType": "contract IERC20",
          "name": "",
          "type": "address"
        }
      ],
      "stateMutability": "view",
      "type": "function"
    },
    {
      "inputs": [
        {
          "internalType": "uint256",
          "name": "amount",
          "type": "uint256"
        }
      ],
      "name": "withdraw",
      "outputs": [
        {
          "internalType": "uint256",
          "name": "",
          "type": "uint256"
        }
      ],
      "stateMutability": "nonpayable",
      "type": "function"
    }
  ],
  "bytecode": "0x60a06040523073ffffffffffffffffffffffffffffffffffffffff1660809073ffffffffffffffffffffffffffffffffffffffff1681525034801561004357600080fd5b5061005261005760201b60201c565b6101c1565b600061006761015b60201b60201c565b90508060000160089054906101000a900460ff16156100b2576040517ff92ee8a900000000000000000000000000000000000000000000000000000000815260040160405180910390fd5b67ffffffffffffffff80168160000160009054906101000a900467ffffffffffffffff1667ffffffffffffffff16146101585767ffffffffffffffff8160000160006101000a81548167ffffffffffffffff021916908367ffffffffffffffff1602179055507fc7f505b2f371ae2175ee4913f4499e1f2633a7b5936321eed1cdaeb6115181d267ffffffffffffffff60405161014f91906101a6565b60405180910390a15b50565b60007ff0c57e16840df040f15088dc2f81fe391c3923bec73e23a9662efc9c229c6a00905090565b600067ffffffffffffffff82169050919050565b6101a081610183565b82525050565b60006020820190506101bb6000830184610197565b92915050565b6080516122c76101ea6000396000818161129e015281816112f301526114d101526122c76000f3fe60806040526004361061011f5760003560e01c806375b238fc116100a0578063ad3cb1cc11610064578063ad3cb1cc146103dc578063b6b55f2514610407578063d4c3eea014610430578063d547741f1461045b578063e173ad25146104845761011f565b806375b238fc146102f357806391d148541461031e578063a03e4bc31461035b578063a0c1f15e14610386578063a217fddf146103b15761011f565b80632f2ff15d116100e75780632f2ff15d1461022f57806336568abe146102585780633e413bee146102815780634f1ef286146102ac57806352d1902d146102c85761011f565b806301ffc9a714610124578063092c5b3b146101615780631459457a1461018c578063248a9ca3146101b55780632e1a7d4d146101f2575b600080fd5b34801561013057600080fd5b5061014b600480360381019061014691906119a9565b6104af565b60405161015891906119f1565b60405180910390f35b34801561016d57600080fd5b50610176610529565b6040516101839190611a25565b60405180910390f35b34801561019857600080fd5b506101b360048036038101906101ae9190611a9e565b61054d565b005b3480156101c157600080fd5b506101dc60048036038101906101d79190611b45565b61089e565b6040516101e99190611a25565b60405180910390f35b3480156101fe57600080fd5b5061021960048036038101906102149190611ba8565b6108cc565b6040516102269190611be4565b60405180910390f35b34801561023b57600080fd5b5061025660048036038101906102519190611bff565b6109c2565b005b34801561026457600080fd5b5061027f600480360381019061027a9190611bff565b6109e4565b005b34801561028d57600080fd5b50610296610a5f565b6040516102a39190611c9e565b60405180910390f35b6102c660048036038101906102c19190611dff565b610a83565b005b3480156102d457600080fd5b506102dd610aa2565b6040516102ea9190611a25565b60405180910390f35b3480156102ff57600080fd5b50610308610ad5565b6040516103159190611a25565b60405180910390f35b34801561032a57600080fd5b5061034560048036038101906103409190611bff565b610af9565b60405161035291906119f1565b60405180910390f35b34801561036757600080fd5b50610370610b72565b60405161037d9190611e7c565b60405180910390f35b34801561039257600080fd5b5061039b610b98565b6040516103a89190611eb8565b60405180910390f35b3480156103bd57600080fd5b506103c6610bbe565b6040516103d39190611a25565b60405180910390f35b3480156103e857600080fd5b506103f1610bc5565b6040516103fe9190611f52565b60405180910390f35b34801561041357600080fd5b5061042e60048036038101906104299190611ba8565b610bfe565b005b34801561043c57600080fd5b50610445610e42565b6040516104529190611be4565b60405180910390f35b34801561046757600080fd5b50610482600480360381019061047d9190611bff565b610ee5565b005b34801561049057600080fd5b50610499610f07565b6040516104a69190611f52565b60405180910390f35b60007f7965db0b000000000000000000000000000000000000000000000000000000007bffffffffffffffffffffffffffffffffffffffffffffffffffffffff1916827bffffffffffffffffffffffffffffffffffffffffffffffffffffffff19161480610522575061052182610f44565b5b9050919050565b7f7b765e0e932d348852a6f810bfa1ab891e259123f02db8cdcde614c57022335781565b6000610557610fae565b905060008160000160089054906101000a900460ff1615905060008260000160009054906101000a900467ffffffffffffffff1690506000808267ffffffffffffffff161480156105a55750825b9050600060018367ffffffffffffffff161480156105da575060003073ffffffffffffffffffffffffffffffffffffffff163b145b9050811580156105e8575080155b1561061f576040517ff92ee8a900000000000000000000000000000000000000000000000000000000815260040160405180910390fd5b60018560000160006101000a81548167ffffffffffffffff021916908367ffffffffffffffff160217905550831561066f5760018560000160086101000a81548160ff0219169083151502179055505b610677610fd6565b61067f610fe0565b6106a97fa49807205ce4d355092ef5a8a18f56e8913cf4a201fbe287825b095693c2177580610fea565b6106f37f7b765e0e932d348852a6f810bfa1ab891e259123f02db8cdcde614c5702233577fa49807205ce4d355092ef5a8a18f56e8913cf4a201fbe287825b095693c21775610fea565b61071d7fa49807205ce4d355092ef5a8a18f56e8913cf4a201fbe287825b095693c2177588611055565b506107487f7b765e0e932d348852a6f810bfa1ab891e259123f02db8cdcde614c57022335788611055565b506107737f7b765e0e932d348852a6f810bfa1ab891e259123f02db8cdcde614c57022335787611055565b5089600160006101000a81548173ffffffffffffffffffffffffffffffffffffffff021916908373ffffffffffffffffffffffffffffffffffffffff16021790555088600260006101000a81548173ffffffffffffffffffffffffffffffffffffffff021916908373ffffffffffffffffffffffffffffffffffffffff160217905550876000806101000a81548173ffffffffffffffffffffffffffffffffffffffff021916908373ffffffffffffffffffffffffffffffffffffffff16021790555083156108925760008560000160086101000a81548160ff0219169083151502179055507fc7f505b2f371ae2175ee4913f4499e1f2633a7b5936321eed1cdaeb6115181d260016040516108899190611fc3565b60405180910390a15b50505050505050505050565b6000806108a9611156565b905080600001600084815260200190815260200160002060010154915050919050565b60007f7b765e0e932d348852a6f810bfa1ab891e259123f02db8cdcde614c5702233576108f88161117e565b600160009054906101000a900473ffffffffffffffffffffffffffffffffffffffff1673ffffffffffffffffffffffffffffffffffffffff166369328dec60008054906101000a900473ffffffffffffffffffffffffffffffffffffffff1685306040518463ffffffff1660e01b815260040161097793929190611fed565b6020604051808303816000875af1158015610996573d6000803e3d6000fd5b505050506040513d601f19601f820116820180604052508101906109ba9190612039565b915050919050565b6109cb8261089e565b6109d48161117e565b6109de8383611055565b50505050565b6109ec611192565b73ffffffffffffffffffffffffffffffffffffffff168173ffffffffffffffffffffffffffffffffffffffff1614610a50576040517f6697b23200000000000000000000000000000000000000000000000000000000815260040160405180910390fd5b610a5a828261119a565b505050565b60008054906101000a900473ffffffffffffffffffffffffffffffffffffffff1681565b610a8b61129c565b610a9482611382565b610a9e82826113b0565b5050565b6000610aac6114cf565b7f360894a13ba1a3210667c828492db98dca3e2076cc3735a920a3ca505d382bbc60001b905090565b7fa49807205ce4d355092ef5a8a18f56e8913cf4a201fbe287825b095693c2177581565b600080610b04611156565b905080600001600085815260200190815260200160002060000160008473ffffffffffffffffffffffffffffffffffffffff1673ffffffffffffffffffffffffffffffffffffffff16815260200190815260200160002060009054906101000a900460ff1691505092915050565b600160009054906101000a900473ffffffffffffffffffffffffffffffffffffffff1681565b600260009054906101000a900473ffffffffffffffffffffffffffffffffffffffff1681565b6000801b81565b6040518060400160405280600581526020017f352e302e3000000000000000000000000000000000000000000000000000000081525081565b7f7b765e0e932d348852a6f810bfa1ab891e259123f02db8cdcde614c570223357610c288161117e565b60008054906101000a900473ffffffffffffffffffffffffffffffffffffffff1673ffffffffffffffffffffffffffffffffffffffff166323b872dd3330856040518463ffffffff1660e01b8152600401610c8593929190612066565b6020604051808303816000875af1158015610ca4573d6000803e3d6000fd5b505050506040513d601f19601f82011682018060405250810190610cc891906120c9565b5060008054906101000a900473ffffffffffffffffffffffffffffffffffffffff1673ffffffffffffffffffffffffffffffffffffffff1663095ea7b3600160009054906101000a900473ffffffffffffffffffffffffffffffffffffffff16846040518363ffffffff1660e01b8152600401610d469291906120f6565b6020604051808303816000875af1158015610d65573d6000803e3d6000fd5b505050506040513d601f19601f82011682018060405250810190610d8991906120c9565b50600160009054906101000a900473ffffffffffffffffffffffffffffffffffffffff1673ffffffffffffffffffffffffffffffffffffffff1663e8eda9df60008054906101000a900473ffffffffffffffffffffffffffffffffffffffff16843060006040518563ffffffff1660e01b8152600401610e0c9493929190612168565b600060405180830381600087803b158015610e2657600080fd5b505af1158015610e3a573d6000803e3d6000fd5b505050505050565b6000600260009054906101000a900473ffffffffffffffffffffffffffffffffffffffff1673ffffffffffffffffffffffffffffffffffffffff166370a08231306040518263ffffffff1660e01b8152600401610e9f91906121ad565b602060405180830381865afa158015610ebc573d6000803e3d6000fd5b505050506040513d601f19601f82011682018060405250810190610ee09190612039565b905090565b610eee8261089e565b610ef78161117e565b610f01838361119a565b50505050565b60606040518060400160405280601181526020017f416176652055534443204c656e64696e67000000000000000000000000000000815250905090565b60007f01ffc9a7000000000000000000000000000000000000000000000000000000007bffffffffffffffffffffffffffffffffffffffffffffffffffffffff1916827bffffffffffffffffffffffffffffffffffffffffffffffffffffffff1916149050919050565b60007ff0c57e16840df040f15088dc2f81fe391c3923bec73e23a9662efc9c229c6a00905090565b610fde611556565b565b610fe8611556565b565b6000610ff4611156565b905060006110018461089e565b905082826000016000868152602001908152602001600020600101819055508281857fbd79b86ffe0ab8e8776151514217cd7cacd52c909f66475c3af44e129f0b00ff60405160405180910390a450505050565b600080611060611156565b905061106c8484610af9565b61114a57600181600001600086815260200190815260200160002060000160008573ffffffffffffffffffffffffffffffffffffffff1673ffffffffffffffffffffffffffffffffffffffff16815260200190815260200160002060006101000a81548160ff0219169083151502179055506110e6611192565b73ffffffffffffffffffffffffffffffffffffffff168373ffffffffffffffffffffffffffffffffffffffff16857f2f8788117e7eff1d82e926ec794901d17c78024a50270940304540a733656f0d60405160405180910390a46001915050611150565b60009150505b92915050565b60007f02dd7bc7dec4dceedda775e58dd541e08a116c6c53815c0bd028192f7b626800905090565b61118f8161118a611192565b611596565b50565b600033905090565b6000806111a5611156565b90506111b18484610af9565b1561129057600081600001600086815260200190815260200160002060000160008573ffffffffffffffffffffffffffffffffffffffff1673ffffffffffffffffffffffffffffffffffffffff16815260200190815260200160002060006101000a81548160ff02191690831515021790555061122c611192565b73ffffffffffffffffffffffffffffffffffffffff168373ffffffffffffffffffffffffffffffffffffffff16857ff6391f5c32d9c69d2a47ea670b442974b53935d1edc7fd64eb21e047a839171b60405160405180910390a46001915050611296565b60009150505b92915050565b7f000000000000000000000000000000000000000000000000000000000000000073ffffffffffffffffffffffffffffffffffffffff163073ffffffffffffffffffffffffffffffffffffffff16148061134957507f000000000000000000000000000000000000000000000000000000000000000073ffffffffffffffffffffffffffffffffffffffff166113306115e7565b73ffffffffffffffffffffffffffffffffffffffff1614155b15611380576040517fe07c8dba00000000000000000000000000000000000000000000000000000000815260040160405180910390fd5b565b7fa49807205ce4d355092ef5a8a18f56e8913cf4a201fbe287825b095693c217756113ac8161117e565b5050565b8173ffffffffffffffffffffffffffffffffffffffff166352d1902d6040518163ffffffff1660e01b8152600401602060405180830381865afa92505050801561141857506040513d601f19601f8201168201806040525081019061141591906121dd565b60015b61145957816040517f4c9c8ce300000000000000000000000000000000000000000000000000000000815260040161145091906121ad565b60405180910390fd5b7f360894a13ba1a3210667c828492db98dca3e2076cc3735a920a3ca505d382bbc60001b81146114c057806040517faa1d49a40000000000000000000000000000000000000000000000000000000081526004016114b79190611a25565b60405180910390fd5b6114ca838361163e565b505050565b7f000000000000000000000000000000000000000000000000000000000000000073ffffffffffffffffffffffffffffffffffffffff163073ffffffffffffffffffffffffffffffffffffffff1614611554576040517fe07c8dba00000000000000000000000000000000000000000000000000000000815260040160405180910390fd5b565b61155e6116b1565b611594576040517fd7e6bcf800000000000000000000000000000000000000000000000000000000815260040160405180910390fd5b565b6115a08282610af9565b6115e35780826040517fe2517d3f0000000000000000000000000000000000000000000000000000000081526004016115da92919061220a565b60405180910390fd5b5050565b60006116157f360894a13ba1a3210667c828492db98dca3e2076cc3735a920a3ca505d382bbc60001b6116d1565b60000160009054906101000a900473ffffffffffffffffffffffffffffffffffffffff16905090565b611647826116db565b8173ffffffffffffffffffffffffffffffffffffffff167fbc7cd75a20ee27fd9adebab32041f755214dbc6bffa90cc0225b39da2e5c2d3b60405160405180910390a26000815111156116a45761169e82826117a8565b506116ad565b6116ac61182c565b5b5050565b60006116bb610fae565b60000160089054906101000a900460ff16905090565b6000819050919050565b60008173ffffffffffffffffffffffffffffffffffffffff163b0361173757806040517f4c9c8ce300000000000000000000000000000000000000000000000000000000815260040161172e91906121ad565b60405180910390fd5b806117647f360894a13ba1a3210667c828492db98dca3e2076cc3735a920a3ca505d382bbc60001b6116d1565b60000160006101000a81548173ffffffffffffffffffffffffffffffffffffffff021916908373ffffffffffffffffffffffffffffffffffffffff16021790555050565b60606000808473ffffffffffffffffffffffffffffffffffffffff16846040516117d2919061227a565b600060405180830381855af49150503d806000811461180d576040519150601f19603f3d011682016040523d82523d6000602084013e611812565b606091505b5091509150611822858383611869565b9250505092915050565b6000341115611867576040517fb398979f00000000000000000000000000000000000000000000000000000000815260040160405180910390fd5b565b60608261187e57611879826118f8565b6118f0565b600082511480156118a6575060008473ffffffffffffffffffffffffffffffffffffffff163b145b156118e857836040517f9996b3150000000000000000000000000000000000000000000000000000000081526004016118df91906121ad565b60405180910390fd5b8190506118f1565b5b9392505050565b60008151111561190b5780518082602001fd5b6040517fd6bda27500000000000000000000000000000000000000000000000000000000815260040160405180910390fd5b6000604051905090565b600080fd5b600080fd5b60007fffffffff0000000000000000000000000000000000000000000000000000000082169050919050565b61198681611951565b811461199157600080fd5b50565b6000813590506119a38161197d565b92915050565b6000602082840312156119bf576119be611947565b5b60006119cd84828501611994565b91505092915050565b60008115159050919050565b6119eb816119d6565b82525050565b6000602082019050611a0660008301846119e2565b92915050565b6000819050919050565b611a1f81611a0c565b82525050565b6000602082019050611a3a6000830184611a16565b92915050565b600073ffffffffffffffffffffffffffffffffffffffff82169050919050565b6000611a6b82611a40565b9050919050565b611a7b81611a60565b8114611a8657600080fd5b50565b600081359050611a9881611a72565b92915050565b600080600080600060a08688031215611aba57611ab9611947565b5b6000611ac888828901611a89565b9550506020611ad988828901611a89565b9450506040611aea88828901611a89565b9350506060611afb88828901611a89565b9250506080611b0c88828901611a89565b9150509295509295909350565b611b2281611a0c565b8114611b2d57600080fd5b50565b600081359050611b3f81611b19565b92915050565b600060208284031215611b5b57611b5a611947565b5b6000611b6984828501611b30565b91505092915050565b6000819050919050565b611b8581611b72565b8114611b9057600080fd5b50565b600081359050611ba281611b7c565b92915050565b600060208284031215611bbe57611bbd611947565b5b6000611bcc84828501611b93565b91505092915050565b611bde81611b72565b82525050565b6000602082019050611bf96000830184611bd5565b92915050565b60008060408385031215611c1657611c15611947565b5b6000611c2485828601611b30565b9250506020611c3585828601611a89565b9150509250929050565b6000819050919050565b6000611c64611c5f611c5a84611a40565b611c3f565b611a40565b9050919050565b6000611c7682611c49565b9050919050565b6000611c8882611c6b565b9050919050565b611c9881611c7d565b82525050565b6000602082019050611cb36000830184611c8f565b92915050565b600080fd5b600080fd5b6000601f19601f8301169050919050565b7f4e487b7100000000000000000000000000000000000000000000000000000000600052604160045260246000fd5b611d0c82611cc3565b810181811067ffffffffffffffff82111715611d2b57611d2a611cd4565b5b80604052505050565b6000611d3e61193d565b9050611d4a8282611d03565b919050565b600067ffffffffffffffff821115611d6a57611d69611cd4565b5b611d7382611cc3565b9050602081019050919050565b82818337600083830152505050565b6000611da2611d9d84611d4f565b611d34565b905082815260208101848484011115611dbe57611dbd611cbe565b5b611dc9848285611d80565b509392505050565b600082601f830112611de657611de5611cb9565b5b8135611df6848260208601611d8f565b91505092915050565b60008060408385031215611e1657611e15611947565b5b6000611e2485828601611a89565b925050602083013567ffffffffffffffff811115611e4557611e4461194c565b5b611e5185828601611dd1565b9150509250929050565b6000611e6682611c6b565b9050919050565b611e7681611e5b565b82525050565b6000602082019050611e916000830184611e6d565b92915050565b6000611ea282611c6b565b9050919050565b611eb281611e97565b82525050565b6000602082019050611ecd6000830184611ea9565b92915050565b600081519050919050565b600082825260208201905092915050565b60005b83811015611f0d578082015181840152602081019050611ef2565b60008484015250505050565b6000611f2482611ed3565b611f2e8185611ede565b9350611f3e818560208601611eef565b611f4781611cc3565b840191505092915050565b60006020820190508181036000830152611f6c8184611f19565b905092915050565b6000819050919050565b600067ffffffffffffffff82169050919050565b6000611fad611fa8611fa384611f74565b611c3f565b611f7e565b9050919050565b611fbd81611f92565b82525050565b6000602082019050611fd86000830184611fb4565b92915050565b611fe781611a60565b82525050565b60006060820190506120026000830186611fde565b61200f6020830185611bd5565b61201c6040830184611fde565b949350505050565b60008151905061203381611b7c565b92915050565b60006020828403121561204f5761204e611947565b5b600061205d84828501612024565b91505092915050565b600060608201905061207b6000830186611fde565b6120886020830185611fde565b6120956040830184611bd5565b949350505050565b6120a6816119d6565b81146120b157600080fd5b50565b6000815190506120c38161209d565b92915050565b6000602082840312156120df576120de611947565b5b60006120ed848285016120b4565b91505092915050565b600060408201905061210b6000830185611fde565b6121186020830184611bd5565b9392505050565b6000819050919050565b600061ffff82169050919050565b600061215261214d6121488461211f565b611c3f565b612129565b9050919050565b61216281612137565b82525050565b600060808201905061217d6000830187611fde565b61218a6020830186611bd5565b6121976040830185611fde565b6121a46060830184612159565b95945050505050565b60006020820190506121c26000830184611fde565b92915050565b6000815190506121d781611b19565b92915050565b6000602082840312156121f3576121f2611947565b5b6000612201848285016121c8565b91505092915050565b600060408201905061221f6000830185611fde565b61222c6020830184611a16565b9392505050565b600081519050919050565b600081905092915050565b600061225482612233565b61225e818561223e565b935061226e818560208601611eef565b80840191505092915050565b60006122868284612249565b91508190509291505056fea2646970667358221220c42aeb9a16238655524cb006c3b15a17dd547dc900cb1dff4365c899ece700f864736f6c634300081c0033",
  "linkReferences": {},
  "deployedLinkReferences": {}
}