{
  "_format": "hh-sol-artifact-1",
  "contractName": "AaveStrategy",
  "sourceName": "contracts/strategies/AaveStrategy.sol",
  "abi": [
    {
      "inputs": [],
      "stateMutability": "nonpayable",
      "type": "constructor"
    },
    {
      "inputs": [],
      "name": "AccessControlBadConfirmation",
      "type": "error"
    },
    {
      "inputs": [
        {
          "internalType": "address",
          "name": "account",
          "type": "address"
        },
        {
          "internalType": "bytes32",
          "name": "neededRole",
          "type": "bytes32"
        }
      ],
      "name": "AccessControlUnauthorizedAccount",
      "type": "error"
    },
    {
      "inputs": [
        {
          "internalType": "address",
          "name": "target",
          "type": "address"
        }
      ],
      "name": "AddressEmptyCode",
      "type": "error"
    },
    {
      "inputs": [
        {
          "internalType": "address",
          "name": "implementation",
          "type": "address"
        }
      ],
      "name": "ERC1967InvalidImplementation",
      "type": "error"
    },
    {
      "inputs": [],
      "name": "ERC1967NonPayable",
      "type": "error"
    },
    {
      "inputs": [],
      "name": "FailedCall",
      "type": "error"
    },
    {
      "inputs": [],
      "name": "InvalidInitialization",
      "type": "error"
    },
    {
      "inputs": [],
      "name": "NotInitializing",
      "type": "error"
    },
    {
      "inputs": [],
      "name": "UUPSUnauthorizedCallContext",
      "type": "error"
    },
    {
      "inputs": [
        {
          "internalType": "bytes32",
          "name": "slot",
          "type": "bytes32"
        }
      ],
      "name": "UUPSUnsupportedProxiableUUID",
      "type": "error"
    },
    {
      "anonymous": false,
      "inputs": [
        {
          "indexed": false,
          "internalType": "uint64",
          "name": "version",
          "type": "uint64"
        }
      ],
      "name": "Initialized",
      "type": "event"
    },
    {
      "anonymous": false,
      "inputs": [
        {
          "indexed": true,
          "internalType": "bytes32",
          "name": "role",
          "type": "bytes32"
        },
        {
          "indexed": true,
          "internalType": "bytes32",
          "name": "previousAdminRole",
          "type": "bytes32"
        },
        {
          "indexed": true,
          "internalType": "bytes32",
          "name": "newAdminRole",
          "type": "bytes32"
        }
      ],
      "name": "RoleAdminChanged",
      "type": "event"
    },
    {
      "anonymous": false,
      "inputs": [
        {
          "indexed": true,
          "internalType": "bytes32",
          "name": "role",
          "type": "bytes32"
        },
        {
          "indexed": true,
          "internalType": "address",
          "name": "account",
          "type": "address"
        },
        {
          "indexed": true,
          "internalType": "address",
          "name": "sender",
          "type": "address"
        }
      ],
      "name": "RoleGranted",
      "type": "event"
    },
    {
      "anonymous": false,
      "inputs": [
        {
          "indexed": true,
          "internalType": "bytes32",
          "name": "role",
          "type": "bytes32"
        },
        {
          "indexed": true,
          "internalType": "address",
          "name": "account",
          "type": "address"
        },
        {
          "indexed": true,
          "internalType": "address",
          "name": "sender",
          "type": "address"
        }
      ],
      "name": "RoleRevoked",
      "type": "event"
    },
    {
      "anonymous": false,
      "inputs": [
        {
          "indexed": true,
          "internalType": "address",
          "name": "implementation",
          "type": "address"
        }
      ],
      "name": "Upgraded",
      "type": "event"
    },
    {
      "inputs": [],
      "name": "ADMIN_ROLE",
      "outputs": [
        {
          "internalType": "bytes32",
          "name": "",
          "type": "bytes32"
        }
      ],
      "stateMutability": "view",
      "type": "function"
    },
    {
      "inputs": [],
      "name": "CONTROLLER_ROLE",
      "outputs": [
        {
          "internalType": "bytes32",
          "name": "",
          "type": "bytes32"
        }
      ],
      "stateMutability": "view",
      "type": "function"
    },
    {
      "inputs": [],
      "name": "DEFAULT_ADMIN_ROLE",
      "outputs": [
        {
          "internalType": "bytes32",
          "name": "",
          "type": "bytes32"
        }
      ],
      "stateMutability": "view",
      "type": "function"
    },
    {
      "inputs": [],
      "name": "UPGRADE_INTERFACE_VERSION",
      "outputs": [
        {
          "internalType": "string",
          "name": "",
          "type": "string"
        }
      ],
      "stateMutability": "view",
      "type": "function"
    },
    {
      "inputs": [],
      "name": "aToken",
      "outputs": [
        {
          "internalType": "contract IAToken",
          "name": "",
          "type": "address"
        }
      ],
      "stateMutability": "view",
      "type": "function"
    },
    {
      "inputs": [],
      "name": "aavePool",
      "outputs": [
        {
          "internalType": "contract IPool",
          "name": "",
          "type": "address"
        }
      ],
      "stateMutability": "view",
      "type": "function"
    },
    {
      "inputs": [
        {
          "internalType": "uint256",
          "name": "amount",
          "type": "uint256"
        }
      ],
      "name": "deposit",
      "outputs": [],
      "stateMutability": "nonpayable",
      "type": "function"
    },
    {
      "inputs": [
        {
          "internalType": "bytes32",
          "name": "role",
          "type": "bytes32"
        }
      ],
      "name": "getRoleAdmin",
      "outputs": [
        {
          "internalType": "bytes32",
          "name": "",
          "type": "bytes32"
        }
      ],
      "stateMutability": "view",
      "type": "function"
    },
    {
      "inputs": [
        {
          "internalType": "bytes32",
          "name": "role",
          "type": "bytes32"
        },
        {
          "internalType": "address",
          "name": "account",
          "type": "address"
        }
      ],
      "name": "grantRole",
      "outputs": [],
      "stateMutability": "nonpayable",
      "type": "function"
    },
    {
      "inputs": [
        {
          "internalType": "bytes32",
          "name": "role",
          "type": "bytes32"
        },
        {
          "internalType": "address",
          "name": "account",
          "type": "address"
        }
      ],
      "name": "hasRole",
      "outputs": [
        {
          "internalType": "bool",
          "name": "",
          "type": "bool"
        }
      ],
      "stateMutability": "view",
      "type": "function"
    },
    {
      "inputs": [
        {
          "internalType": "address",
          "name": "_aavePool",
          "type": "address"
        },
        {
          "internalType": "address",
          "name": "_aToken",
          "type": "address"
        },
        {
          "internalType": "address",
          "name": "_usdc",
          "type": "address"
        }
      ],
      "name": "initialize",
      "outputs": [],
      "stateMutability": "nonpayable",
      "type": "function"
    },
    {
      "inputs": [],
      "name": "proxiableUUID",
      "outputs": [
        {
          "internalType": "bytes32",
          "name": "",
          "type": "bytes32"
        }
      ],
      "stateMutability": "view",
      "type": "function"
    },
    {
      "inputs": [
        {
          "internalType": "bytes32",
          "name": "role",
          "type": "bytes32"
        },
        {
          "internalType": "address",
          "name": "callerConfirmation",
          "type": "address"
        }
      ],
      "name": "renounceRole",
      "outputs": [],
      "stateMutability": "nonpayable",
      "type": "function"
    },
    {
      "inputs": [
        {
          "internalType": "bytes32",
          "name": "role",
          "type": "bytes32"
        },
        {
          "internalType": "address",
          "name": "account",
          "type": "address"
        }
      ],
      "name": "revokeRole",
      "outputs": [],
      "stateMutability": "nonpayable",
      "type": "function"
    },
    {
      "inputs": [],
      "name": "strategyName",
      "outputs": [
        {
          "internalType": "string",
          "name": "",
          "type": "string"
        }
      ],
      "stateMutability": "pure",
      "type": "function"
    },
    {
      "inputs": [
        {
          "internalType": "bytes4",
          "name": "interfaceId",
          "type": "bytes4"
        }
      ],
      "name": "supportsInterface",
      "outputs": [
        {
          "internalType": "bool",
          "name": "",
          "type": "bool"
        }
      ],
      "stateMutability": "view",
      "type": "function"
    },
    {
      "inputs": [],
      "name": "totalValue",
      "outputs": [
        {
          "internalType": "uint256",
          "name": "",
          "type": "uint256"
        }
      ],
      "stateMutability": "view",
      "type": "function"
    },
    {
      "inputs": [
        {
          "internalType": "address",
          "name": "newImplementation",
          "type": "address"
        },
        {
          "internalType": "bytes",
          "name": "data",
          "type": "bytes"
        }
      ],
      "name": "upgradeToAndCall",
      "outputs": [],
      "stateMutability": "payable",
      "type": "function"
    },
    {
      "inputs": [],
      "name": "usdc",
      "outputs": [
        {
          "internalType": "contract IERC20",
          "name": "",
          "type": "address"
        }
      ],
      "stateMutability": "view",
      "type": "function"
    },
    {
      "inputs": [
        {
          "internalType": "uint256",
          "name": "amount",
          "type": "uint256"
        }
      ],
      "name": "withdraw",
      "outputs": [
        {
          "internalType": "uint256",
          "name": "",
          "type": "uint256"
        }
      ],
      "stateMutability": "nonpayable",
      "type": "function"
    }
  ],
  "bytecode": "0x60a06040523073ffffffffffffffffffffffffffffffffffffffff1660809073ffffffffffffffffffffffffffffffffffffffff1681525034801561004357600080fd5b5061005261005760201b60201c565b6101c1565b600061006761015b60201b60201c565b90508060000160089054906101000a900460ff16156100b2576040517ff92ee8a900000000000000000000000000000000000000000000000000000000815260040160405180910390fd5b67ffffffffffffffff80168160000160009054906101000a900467ffffffffffffffff1667ffffffffffffffff16146101585767ffffffffffffffff8160000160006101000a81548167ffffffffffffffff021916908367ffffffffffffffff1602179055507fc7f505b2f371ae2175ee4913f4499e1f2633a7b5936321eed1cdaeb6115181d267ffffffffffffffff60405161014f91906101a6565b60405180910390a15b50565b60007ff0c57e16840df040f15088dc2f81fe391c3923bec73e23a9662efc9c229c6a00905090565b600067ffffffffffffffff82169050919050565b6101a081610183565b82525050565b60006020820190506101bb6000830184610197565b92915050565b60805161219a6101ea600039600081816111290152818161117e015261135c015261219a6000f3fe60806040526004361061011f5760003560e01c806391d14854116100a0578063b6b55f2511610064578063b6b55f25146103de578063c0c53b8b14610407578063d4c3eea014610430578063d547741f1461045b578063e173ad25146104845761011f565b806391d14854146102f5578063a03e4bc314610332578063a0c1f15e1461035d578063a217fddf14610388578063ad3cb1cc146103b35761011f565b806336568abe116100e757806336568abe1461022f5780633e413bee146102585780634f1ef2861461028357806352d1902d1461029f57806375b238fc146102ca5761011f565b806301ffc9a714610124578063092c5b3b14610161578063248a9ca31461018c5780632e1a7d4d146101c95780632f2ff15d14610206575b600080fd5b34801561013057600080fd5b5061014b600480360381019061014691906118db565b6104af565b6040516101589190611923565b60405180910390f35b34801561016d57600080fd5b50610176610529565b6040516101839190611957565b60405180910390f35b34801561019857600080fd5b506101b360048036038101906101ae919061199e565b61054d565b6040516101c09190611957565b60405180910390f35b3480156101d557600080fd5b506101f060048036038101906101eb9190611a01565b61057b565b6040516101fd9190611a3d565b60405180910390f35b34801561021257600080fd5b5061022d60048036038101906102289190611ab6565b610671565b005b34801561023b57600080fd5b5061025660048036038101906102519190611ab6565b610693565b005b34801561026457600080fd5b5061026d61070e565b60405161027a9190611b55565b60405180910390f35b61029d60048036038101906102989190611cb6565b610732565b005b3480156102ab57600080fd5b506102b4610751565b6040516102c19190611957565b60405180910390f35b3480156102d657600080fd5b506102df610784565b6040516102ec9190611957565b60405180910390f35b34801561030157600080fd5b5061031c60048036038101906103179190611ab6565b6107a8565b6040516103299190611923565b60405180910390f35b34801561033e57600080fd5b50610347610821565b6040516103549190611d33565b60405180910390f35b34801561036957600080fd5b50610372610847565b60405161037f9190611d6f565b60405180910390f35b34801561039457600080fd5b5061039d61086d565b6040516103aa9190611957565b60405180910390f35b3480156103bf57600080fd5b506103c8610874565b6040516103d59190611e09565b60405180910390f35b3480156103ea57600080fd5b5061040560048036038101906104009190611a01565b6108ad565b005b34801561041357600080fd5b5061042e60048036038101906104299190611e2b565b610a50565b005b34801561043c57600080fd5b50610445610d74565b6040516104529190611a3d565b60405180910390f35b34801561046757600080fd5b50610482600480360381019061047d9190611ab6565b610e17565b005b34801561049057600080fd5b50610499610e39565b6040516104a69190611e09565b60405180910390f35b60007f7965db0b000000000000000000000000000000000000000000000000000000007bffffffffffffffffffffffffffffffffffffffffffffffffffffffff1916827bffffffffffffffffffffffffffffffffffffffffffffffffffffffff19161480610522575061052182610e76565b5b9050919050565b7f7b765e0e932d348852a6f810bfa1ab891e259123f02db8cdcde614c57022335781565b600080610558610ee0565b905080600001600084815260200190815260200160002060010154915050919050565b60007f7b765e0e932d348852a6f810bfa1ab891e259123f02db8cdcde614c5702233576105a781610f08565b600160009054906101000a900473ffffffffffffffffffffffffffffffffffffffff1673ffffffffffffffffffffffffffffffffffffffff166369328dec60008054906101000a900473ffffffffffffffffffffffffffffffffffffffff1685336040518463ffffffff1660e01b815260040161062693929190611e8d565b6020604051808303816000875af1158015610645573d6000803e3d6000fd5b505050506040513d601f19601f820116820180604052508101906106699190611ed9565b915050919050565b61067a8261054d565b61068381610f08565b61068d8383610f1c565b50505050565b61069b61101d565b73ffffffffffffffffffffffffffffffffffffffff168173ffffffffffffffffffffffffffffffffffffffff16146106ff576040517f6697b23200000000000000000000000000000000000000000000000000000000815260040160405180910390fd5b6107098282611025565b505050565b60008054906101000a900473ffffffffffffffffffffffffffffffffffffffff1681565b61073a611127565b6107438261120d565b61074d828261123b565b5050565b600061075b61135a565b7f360894a13ba1a3210667c828492db98dca3e2076cc3735a920a3ca505d382bbc60001b905090565b7fa49807205ce4d355092ef5a8a18f56e8913cf4a201fbe287825b095693c2177581565b6000806107b3610ee0565b905080600001600085815260200190815260200160002060000160008473ffffffffffffffffffffffffffffffffffffffff1673ffffffffffffffffffffffffffffffffffffffff16815260200190815260200160002060009054906101000a900460ff1691505092915050565b600160009054906101000a900473ffffffffffffffffffffffffffffffffffffffff1681565b600260009054906101000a900473ffffffffffffffffffffffffffffffffffffffff1681565b6000801b81565b6040518060400160405280600581526020017f352e302e3000000000000000000000000000000000000000000000000000000081525081565b7f7b765e0e932d348852a6f810bfa1ab891e259123f02db8cdcde614c5702233576108d781610f08565b60008054906101000a900473ffffffffffffffffffffffffffffffffffffffff1673ffffffffffffffffffffffffffffffffffffffff1663095ea7b3600160009054906101000a900473ffffffffffffffffffffffffffffffffffffffff16846040518363ffffffff1660e01b8152600401610954929190611f06565b6020604051808303816000875af1158015610973573d6000803e3d6000fd5b505050506040513d601f19601f820116820180604052508101906109979190611f5b565b50600160009054906101000a900473ffffffffffffffffffffffffffffffffffffffff1673ffffffffffffffffffffffffffffffffffffffff1663617ba03760008054906101000a900473ffffffffffffffffffffffffffffffffffffffff16843360006040518563ffffffff1660e01b8152600401610a1a9493929190611fd1565b600060405180830381600087803b158015610a3457600080fd5b505af1158015610a48573d6000803e3d6000fd5b505050505050565b6000610a5a6113e1565b905060008160000160089054906101000a900460ff1615905060008260000160009054906101000a900467ffffffffffffffff1690506000808267ffffffffffffffff16148015610aa85750825b9050600060018367ffffffffffffffff16148015610add575060003073ffffffffffffffffffffffffffffffffffffffff163b145b905081158015610aeb575080155b15610b22576040517ff92ee8a900000000000000000000000000000000000000000000000000000000815260040160405180910390fd5b60018560000160006101000a81548167ffffffffffffffff021916908367ffffffffffffffff1602179055508315610b725760018560000160086101000a81548160ff0219169083151502179055505b610b7a611409565b610b82611413565b610bac7fa49807205ce4d355092ef5a8a18f56e8913cf4a201fbe287825b095693c217758061141d565b610bf67f7b765e0e932d348852a6f810bfa1ab891e259123f02db8cdcde614c5702233577fa49807205ce4d355092ef5a8a18f56e8913cf4a201fbe287825b095693c2177561141d565b610c207fa49807205ce4d355092ef5a8a18f56e8913cf4a201fbe287825b095693c2177533610f1c565b50610c4b7f7b765e0e932d348852a6f810bfa1ab891e259123f02db8cdcde614c57022335733610f1c565b5087600160006101000a81548173ffffffffffffffffffffffffffffffffffffffff021916908373ffffffffffffffffffffffffffffffffffffffff16021790555086600260006101000a81548173ffffffffffffffffffffffffffffffffffffffff021916908373ffffffffffffffffffffffffffffffffffffffff160217905550856000806101000a81548173ffffffffffffffffffffffffffffffffffffffff021916908373ffffffffffffffffffffffffffffffffffffffff1602179055508315610d6a5760008560000160086101000a81548160ff0219169083151502179055507fc7f505b2f371ae2175ee4913f4499e1f2633a7b5936321eed1cdaeb6115181d26001604051610d619190612065565b60405180910390a15b5050505050505050565b6000600260009054906101000a900473ffffffffffffffffffffffffffffffffffffffff1673ffffffffffffffffffffffffffffffffffffffff166370a08231306040518263ffffffff1660e01b8152600401610dd19190612080565b602060405180830381865afa158015610dee573d6000803e3d6000fd5b505050506040513d601f19601f82011682018060405250810190610e129190611ed9565b905090565b610e208261054d565b610e2981610f08565b610e338383611025565b50505050565b60606040518060400160405280601181526020017f416176652055534443204c656e64696e67000000000000000000000000000000815250905090565b60007f01ffc9a7000000000000000000000000000000000000000000000000000000007bffffffffffffffffffffffffffffffffffffffffffffffffffffffff1916827bffffffffffffffffffffffffffffffffffffffffffffffffffffffff1916149050919050565b60007f02dd7bc7dec4dceedda775e58dd541e08a116c6c53815c0bd028192f7b626800905090565b610f1981610f1461101d565b611488565b50565b600080610f27610ee0565b9050610f3384846107a8565b61101157600181600001600086815260200190815260200160002060000160008573ffffffffffffffffffffffffffffffffffffffff1673ffffffffffffffffffffffffffffffffffffffff16815260200190815260200160002060006101000a81548160ff021916908315150217905550610fad61101d565b73ffffffffffffffffffffffffffffffffffffffff168373ffffffffffffffffffffffffffffffffffffffff16857f2f8788117e7eff1d82e926ec794901d17c78024a50270940304540a733656f0d60405160405180910390a46001915050611017565b60009150505b92915050565b600033905090565b600080611030610ee0565b905061103c84846107a8565b1561111b57600081600001600086815260200190815260200160002060000160008573ffffffffffffffffffffffffffffffffffffffff1673ffffffffffffffffffffffffffffffffffffffff16815260200190815260200160002060006101000a81548160ff0219169083151502179055506110b761101d565b73ffffffffffffffffffffffffffffffffffffffff168373ffffffffffffffffffffffffffffffffffffffff16857ff6391f5c32d9c69d2a47ea670b442974b53935d1edc7fd64eb21e047a839171b60405160405180910390a46001915050611121565b60009150505b92915050565b7f000000000000000000000000000000000000000000000000000000000000000073ffffffffffffffffffffffffffffffffffffffff163073ffffffffffffffffffffffffffffffffffffffff1614806111d457507f000000000000000000000000000000000000000000000000000000000000000073ffffffffffffffffffffffffffffffffffffffff166111bb6114d9565b73ffffffffffffffffffffffffffffffffffffffff1614155b1561120b576040517fe07c8dba00000000000000000000000000000000000000000000000000000000815260040160405180910390fd5b565b7fa49807205ce4d355092ef5a8a18f56e8913cf4a201fbe287825b095693c2177561123781610f08565b5050565b8173ffffffffffffffffffffffffffffffffffffffff166352d1902d6040518163ffffffff1660e01b8152600401602060405180830381865afa9250505080156112a357506040513d601f19601f820116820180604052508101906112a091906120b0565b60015b6112e457816040517f4c9c8ce30000000000000000000000000000000000000000000000000000000081526004016112db9190612080565b60405180910390fd5b7f360894a13ba1a3210667c828492db98dca3e2076cc3735a920a3ca505d382bbc60001b811461134b57806040517faa1d49a40000000000000000000000000000000000000000000000000000000081526004016113429190611957565b60405180910390fd5b6113558383611530565b505050565b7f000000000000000000000000000000000000000000000000000000000000000073ffffffffffffffffffffffffffffffffffffffff163073ffffffffffffffffffffffffffffffffffffffff16146113df576040517fe07c8dba00000000000000000000000000000000000000000000000000000000815260040160405180910390fd5b565b60007ff0c57e16840df040f15088dc2f81fe391c3923bec73e23a9662efc9c229c6a00905090565b6114116115a3565b565b61141b6115a3565b565b6000611427610ee0565b905060006114348461054d565b905082826000016000868152602001908152602001600020600101819055508281857fbd79b86ffe0ab8e8776151514217cd7cacd52c909f66475c3af44e129f0b00ff60405160405180910390a450505050565b61149282826107a8565b6114d55780826040517fe2517d3f0000000000000000000000000000000000000000000000000000000081526004016114cc9291906120dd565b60405180910390fd5b5050565b60006115077f360894a13ba1a3210667c828492db98dca3e2076cc3735a920a3ca505d382bbc60001b6115e3565b60000160009054906101000a900473ffffffffffffffffffffffffffffffffffffffff16905090565b611539826115ed565b8173ffffffffffffffffffffffffffffffffffffffff167fbc7cd75a20ee27fd9adebab32041f755214dbc6bffa90cc0225b39da2e5c2d3b60405160405180910390a26000815111156115965761159082826116ba565b5061159f565b61159e61173e565b5b5050565b6115ab61177b565b6115e1576040517fd7e6bcf800000000000000000000000000000000000000000000000000000000815260040160405180910390fd5b565b6000819050919050565b60008173ffffffffffffffffffffffffffffffffffffffff163b0361164957806040517f4c9c8ce30000000000000000000000000000000000000000000000000000000081526004016116409190612080565b60405180910390fd5b806116767f360894a13ba1a3210667c828492db98dca3e2076cc3735a920a3ca505d382bbc60001b6115e3565b60000160006101000a81548173ffffffffffffffffffffffffffffffffffffffff021916908373ffffffffffffffffffffffffffffffffffffffff16021790555050565b60606000808473ffffffffffffffffffffffffffffffffffffffff16846040516116e4919061214d565b600060405180830381855af49150503d806000811461171f576040519150601f19603f3d011682016040523d82523d6000602084013e611724565b606091505b509150915061173485838361179b565b9250505092915050565b6000341115611779576040517fb398979f00000000000000000000000000000000000000000000000000000000815260040160405180910390fd5b565b60006117856113e1565b60000160089054906101000a900460ff16905090565b6060826117b0576117ab8261182a565b611822565b600082511480156117d8575060008473ffffffffffffffffffffffffffffffffffffffff163b145b1561181a57836040517f9996b3150000000000000000000000000000000000000000000000000000000081526004016118119190612080565b60405180910390fd5b819050611823565b5b9392505050565b60008151111561183d5780518082602001fd5b6040517fd6bda27500000000000000000000000000000000000000000000000000000000815260040160405180910390fd5b6000604051905090565b600080fd5b600080fd5b60007fffffffff0000000000000000000000000000000000000000000000000000000082169050919050565b6118b881611883565b81146118c357600080fd5b50565b6000813590506118d5816118af565b92915050565b6000602082840312156118f1576118f0611879565b5b60006118ff848285016118c6565b91505092915050565b60008115159050919050565b61191d81611908565b82525050565b60006020820190506119386000830184611914565b92915050565b6000819050919050565b6119518161193e565b82525050565b600060208201905061196c6000830184611948565b92915050565b61197b8161193e565b811461198657600080fd5b50565b60008135905061199881611972565b92915050565b6000602082840312156119b4576119b3611879565b5b60006119c284828501611989565b91505092915050565b6000819050919050565b6119de816119cb565b81146119e957600080fd5b50565b6000813590506119fb816119d5565b92915050565b600060208284031215611a1757611a16611879565b5b6000611a25848285016119ec565b91505092915050565b611a37816119cb565b82525050565b6000602082019050611a526000830184611a2e565b92915050565b600073ffffffffffffffffffffffffffffffffffffffff82169050919050565b6000611a8382611a58565b9050919050565b611a9381611a78565b8114611a9e57600080fd5b50565b600081359050611ab081611a8a565b92915050565b60008060408385031215611acd57611acc611879565b5b6000611adb85828601611989565b9250506020611aec85828601611aa1565b9150509250929050565b6000819050919050565b6000611b1b611b16611b1184611a58565b611af6565b611a58565b9050919050565b6000611b2d82611b00565b9050919050565b6000611b3f82611b22565b9050919050565b611b4f81611b34565b82525050565b6000602082019050611b6a6000830184611b46565b92915050565b600080fd5b600080fd5b6000601f19601f8301169050919050565b7f4e487b7100000000000000000000000000000000000000000000000000000000600052604160045260246000fd5b611bc382611b7a565b810181811067ffffffffffffffff82111715611be257611be1611b8b565b5b80604052505050565b6000611bf561186f565b9050611c018282611bba565b919050565b600067ffffffffffffffff821115611c2157611c20611b8b565b5b611c2a82611b7a565b9050602081019050919050565b82818337600083830152505050565b6000611c59611c5484611c06565b611beb565b905082815260208101848484011115611c7557611c74611b75565b5b611c80848285611c37565b509392505050565b600082601f830112611c9d57611c9c611b70565b5b8135611cad848260208601611c46565b91505092915050565b60008060408385031215611ccd57611ccc611879565b5b6000611cdb85828601611aa1565b925050602083013567ffffffffffffffff811115611cfc57611cfb61187e565b5b611d0885828601611c88565b9150509250929050565b6000611d1d82611b22565b9050919050565b611d2d81611d12565b82525050565b6000602082019050611d486000830184611d24565b92915050565b6000611d5982611b22565b9050919050565b611d6981611d4e565b82525050565b6000602082019050611d846000830184611d60565b92915050565b600081519050919050565b600082825260208201905092915050565b60005b83811015611dc4578082015181840152602081019050611da9565b60008484015250505050565b6000611ddb82611d8a565b611de58185611d95565b9350611df5818560208601611da6565b611dfe81611b7a565b840191505092915050565b60006020820190508181036000830152611e238184611dd0565b905092915050565b600080600060608486031215611e4457611e43611879565b5b6000611e5286828701611aa1565b9350506020611e6386828701611aa1565b9250506040611e7486828701611aa1565b9150509250925092565b611e8781611a78565b82525050565b6000606082019050611ea26000830186611e7e565b611eaf6020830185611a2e565b611ebc6040830184611e7e565b949350505050565b600081519050611ed3816119d5565b92915050565b600060208284031215611eef57611eee611879565b5b6000611efd84828501611ec4565b91505092915050565b6000604082019050611f1b6000830185611e7e565b611f286020830184611a2e565b9392505050565b611f3881611908565b8114611f4357600080fd5b50565b600081519050611f5581611f2f565b92915050565b600060208284031215611f7157611f70611879565b5b6000611f7f84828501611f46565b91505092915050565b6000819050919050565b600061ffff82169050919050565b6000611fbb611fb6611fb184611f88565b611af6565b611f92565b9050919050565b611fcb81611fa0565b82525050565b6000608082019050611fe66000830187611e7e565b611ff36020830186611a2e565b6120006040830185611e7e565b61200d6060830184611fc2565b95945050505050565b6000819050919050565b600067ffffffffffffffff82169050919050565b600061204f61204a61204584612016565b611af6565b612020565b9050919050565b61205f81612034565b82525050565b600060208201905061207a6000830184612056565b92915050565b60006020820190506120956000830184611e7e565b92915050565b6000815190506120aa81611972565b92915050565b6000602082840312156120c6576120c5611879565b5b60006120d48482850161209b565b91505092915050565b60006040820190506120f26000830185611e7e565b6120ff6020830184611948565b9392505050565b600081519050919050565b600081905092915050565b600061212782612106565b6121318185612111565b9350612141818560208601611da6565b80840191505092915050565b6000612159828461211c565b91508190509291505056fea264697066735822122021bfafa381fc64ce86d8bfcea8107d45a104dd2b58f30ba940b7b62fff28d8a864736f6c634300081c0033",
  "linkReferences": {},
  "deployedLinkReferences": {}
}