{
  "_format": "hh-sol-artifact-1",
  "contractName": "AaveStrategy",
  "sourceName": "contracts/strategies/AaveStrategy.sol",
  "abi": [
    {
      "inputs": [
        {
          "internalType": "address",
          "name": "_aavePool",
          "type": "address"
        },
        {
          "internalType": "address",
          "name": "_aToken",
          "type": "address"
        },
        {
          "internalType": "address",
          "name": "_usdc",
          "type": "address"
        }
      ],
      "stateMutability": "nonpayable",
      "type": "constructor"
    },
    {
      "inputs": [],
      "name": "aToken",
      "outputs": [
        {
          "internalType": "contract IAToken",
          "name": "",
          "type": "address"
        }
      ],
      "stateMutability": "view",
      "type": "function"
    },
    {
      "inputs": [],
      "name": "aavePool",
      "outputs": [
        {
          "internalType": "contract IPool",
          "name": "",
          "type": "address"
        }
      ],
      "stateMutability": "view",
      "type": "function"
    },
    {
      "inputs": [
        {
          "internalType": "uint256",
          "name": "amount",
          "type": "uint256"
        }
      ],
      "name": "deposit",
      "outputs": [],
      "stateMutability": "nonpayable",
      "type": "function"
    },
    {
      "inputs": [],
      "name": "strategyName",
      "outputs": [
        {
          "internalType": "string",
          "name": "",
          "type": "string"
        }
      ],
      "stateMutability": "pure",
      "type": "function"
    },
    {
      "inputs": [],
      "name": "totalValue",
      "outputs": [
        {
          "internalType": "uint256",
          "name": "",
          "type": "uint256"
        }
      ],
      "stateMutability": "view",
      "type": "function"
    },
    {
      "inputs": [],
      "name": "usdc",
      "outputs": [
        {
          "internalType": "contract IERC20",
          "name": "",
          "type": "address"
        }
      ],
      "stateMutability": "view",
      "type": "function"
    },
    {
      "inputs": [
        {
          "internalType": "uint256",
          "name": "amount",
          "type": "uint256"
        }
      ],
      "name": "withdraw",
      "outputs": [
        {
          "internalType": "uint256",
          "name": "",
          "type": "uint256"
        }
      ],
      "stateMutability": "nonpayable",
      "type": "function"
    }
  ],
  "bytecode": "0x60a060405234801561001057600080fd5b50604051610b22380380610b2283398181016040528101906100329190610152565b826000806101000a81548173ffffffffffffffffffffffffffffffffffffffff021916908373ffffffffffffffffffffffffffffffffffffffff16021790555081600160006101000a81548173ffffffffffffffffffffffffffffffffffffffff021916908373ffffffffffffffffffffffffffffffffffffffff1602179055508073ffffffffffffffffffffffffffffffffffffffff1660808173ffffffffffffffffffffffffffffffffffffffff16815250505050506101a5565b600080fd5b600073ffffffffffffffffffffffffffffffffffffffff82169050919050565b600061011f826100f4565b9050919050565b61012f81610114565b811461013a57600080fd5b50565b60008151905061014c81610126565b92915050565b60008060006060848603121561016b5761016a6100ef565b5b60006101798682870161013d565b935050602061018a8682870161013d565b925050604061019b8682870161013d565b9150509250925092565b60805161094d6101d5600039600081816101a5015281816102300152818161029e0152610399015261094d6000f3fe608060405234801561001057600080fd5b506004361061007d5760003560e01c8063a0c1f15e1161005b578063a0c1f15e146100ee578063b6b55f251461010c578063d4c3eea014610128578063e173ad25146101465761007d565b80632e1a7d4d146100825780633e413bee146100b2578063a03e4bc3146100d0575b600080fd5b61009c6004803603810190610097919061052b565b610164565b6040516100a99190610567565b60405180910390f35b6100ba61022e565b6040516100c79190610601565b60405180910390f35b6100d8610252565b6040516100e5919061063d565b60405180910390f35b6100f6610276565b6040516101039190610679565b60405180910390f35b6101266004803603810190610121919061052b565b61029c565b005b610130610410565b60405161013d9190610567565b60405180910390f35b61014e6104b3565b60405161015b9190610724565b60405180910390f35b60008060009054906101000a900473ffffffffffffffffffffffffffffffffffffffff1673ffffffffffffffffffffffffffffffffffffffff166369328dec7f000000000000000000000000000000000000000000000000000000000000000084336040518463ffffffff1660e01b81526004016101e493929190610767565b6020604051808303816000875af1158015610203573d6000803e3d6000fd5b505050506040513d601f19601f8201168201806040525081019061022791906107b3565b9050919050565b7f000000000000000000000000000000000000000000000000000000000000000081565b60008054906101000a900473ffffffffffffffffffffffffffffffffffffffff1681565b600160009054906101000a900473ffffffffffffffffffffffffffffffffffffffff1681565b7f000000000000000000000000000000000000000000000000000000000000000073ffffffffffffffffffffffffffffffffffffffff1663095ea7b360008054906101000a900473ffffffffffffffffffffffffffffffffffffffff16836040518363ffffffff1660e01b81526004016103179291906107e0565b6020604051808303816000875af1158015610336573d6000803e3d6000fd5b505050506040513d601f19601f8201168201806040525081019061035a9190610841565b5060008054906101000a900473ffffffffffffffffffffffffffffffffffffffff1673ffffffffffffffffffffffffffffffffffffffff1663617ba0377f0000000000000000000000000000000000000000000000000000000000000000833360006040518563ffffffff1660e01b81526004016103db94939291906108b7565b600060405180830381600087803b1580156103f557600080fd5b505af1158015610409573d6000803e3d6000fd5b5050505050565b6000600160009054906101000a900473ffffffffffffffffffffffffffffffffffffffff1673ffffffffffffffffffffffffffffffffffffffff166370a08231306040518263ffffffff1660e01b815260040161046d91906108fc565b602060405180830381865afa15801561048a573d6000803e3d6000fd5b505050506040513d601f19601f820116820180604052508101906104ae91906107b3565b905090565b60606040518060400160405280601181526020017f416176652055534443204c656e64696e67000000000000000000000000000000815250905090565b600080fd5b6000819050919050565b610508816104f5565b811461051357600080fd5b50565b600081359050610525816104ff565b92915050565b600060208284031215610541576105406104f0565b5b600061054f84828501610516565b91505092915050565b610561816104f5565b82525050565b600060208201905061057c6000830184610558565b92915050565b600073ffffffffffffffffffffffffffffffffffffffff82169050919050565b6000819050919050565b60006105c76105c26105bd84610582565b6105a2565b610582565b9050919050565b60006105d9826105ac565b9050919050565b60006105eb826105ce565b9050919050565b6105fb816105e0565b82525050565b600060208201905061061660008301846105f2565b92915050565b6000610627826105ce565b9050919050565b6106378161061c565b82525050565b6000602082019050610652600083018461062e565b92915050565b6000610663826105ce565b9050919050565b61067381610658565b82525050565b600060208201905061068e600083018461066a565b92915050565b600081519050919050565b600082825260208201905092915050565b60005b838110156106ce5780820151818401526020810190506106b3565b60008484015250505050565b6000601f19601f8301169050919050565b60006106f682610694565b610700818561069f565b93506107108185602086016106b0565b610719816106da565b840191505092915050565b6000602082019050818103600083015261073e81846106eb565b905092915050565b600061075182610582565b9050919050565b61076181610746565b82525050565b600060608201905061077c6000830186610758565b6107896020830185610558565b6107966040830184610758565b949350505050565b6000815190506107ad816104ff565b92915050565b6000602082840312156107c9576107c86104f0565b5b60006107d78482850161079e565b91505092915050565b60006040820190506107f56000830185610758565b6108026020830184610558565b9392505050565b60008115159050919050565b61081e81610809565b811461082957600080fd5b50565b60008151905061083b81610815565b92915050565b600060208284031215610857576108566104f0565b5b60006108658482850161082c565b91505092915050565b6000819050919050565b600061ffff82169050919050565b60006108a161089c6108978461086e565b6105a2565b610878565b9050919050565b6108b181610886565b82525050565b60006080820190506108cc6000830187610758565b6108d96020830186610558565b6108e66040830185610758565b6108f360608301846108a8565b95945050505050565b60006020820190506109116000830184610758565b9291505056fea26469706673582212209f2adfad530335e9cb849a8d1cdeb037d4b058310b7d4b73f80ec3831a24096764736f6c634300081c0033",
  "linkReferences": {},
  "deployedLinkReferences": {}
}